:100000000C94B7040C94FE040C94FE040C94FE04AF
:100010000C94FE040C94FE040C94FE040C94FE0458
:100020000C94FE040C94FE040C94DC260C9418260C
:100030000C94E52D0C94FE040C94FE040C94FE0428
:100040000C94FE040C94FE040C94FE040C94FE0428
:100050000C94FE040C94A42D0C94FE040C94FE0449
:100060000C94FE040C94FE040C94FE040C94FE0408
:100070000C94FE040C94FE040C94FE040C94FE04F8
:100080000C94FE040C94FE040C94FE040C94FE04E8
:100090000C94FE040C94FE040C94FE040C94FE04D8
:1000A0000C94FE040C94FE040C94FE049A0B9A0B20
:1000B000D20BD20B650C810C580E580E8E0C6B0DAA
:1000C0007A0D7A0DF3140D1514158B168B164C152D
:1000D0005D157015B115B615DE15EF150516081668
:1000E000C21EC21ED41ED41ECB1ED41ED41ED41EAD
:1000F000C21EC21ED01ED41ED41ED01E20244724D1
:10010000FA254724FA259324B624FA25B725C725CE
:1001100000047F3F1F643214643214783C1E1E14A6
:100120000A05010001008E020000020002008A029E
:100130000000030001008F020000040002007402AE
:100140002A3105000100900200000600020076023C
:100150000000070002008C0200000800010091026C
:10016000000009000200780205310A0002007A024C
:1001700005310B0002007C0205310C0002007E02FA
:1001800005310D000200800205310E0002008202DE
:1001900005310F00020084020531100002008602C2
:1001A000053111000200880205311200020092029E
:1001B00000001300020094020000FD377A585A0034
:1001C0000004E6D6B4460200210116000000742F98
:1001D000E5A3E0041B014E5D003D8889C65436C38B
:1001E000174FE4DDF77E58FE380A6B3D95C64BE2AB
:1001F0008E06F36B9336BACBE024AD248BDE9722C8
:100200002DBF364219EBE9C0C185FD90B16D025694
:100210001DA50423E504692594CE44F1E9EBC558F6
:10022000F3C7684EF2B3C62FEAA79ACED6AEBE90F9
:10023000AA454FD73040A81D8550BA1DD990E21F5E
:100240001586213E1C8980981B338D4259CD2097FD
:10025000355C55A2423356CA2C14DDCC3A51678026
:10026000D28C7D09B82C1E6876B6649F2960656BB8
:1002700099E4078D0608EBF0FC4F9A625329A44BD2
:1002800080D639141CE2AB7FBDF6D37F25E223D3A1
:10029000918993F6773CC6917FF31D911EEB30D088
:1002A0005EE24898E828B316C17E89D4F92399D430
:1002B000851CE425A263A47EAC67265B4B8E5CF0B4
:1002C0007A722704292B6CA8DFC536EF5A5EA11578
:1002D0008AFC7053AB0D49CD768A80F1FC9B353397
:1002E000AC475E074E1ABDFFF0281206961F302459
:1002F0004DC81F766AC39CDECD7CABBDE67FF8BAE5
:100300004FC8F430A870EFD2BFFF325F86658B17FD
:100310006839E5700697406800A8DCAB1AAF6863DF
:100320009ADDFC209927EC00000005A07F934C701B
:10033000D9DA0001EA029C080000FDB0CFF7B1C491
:1003400067FB020000000004595A00000000000092
:10035000000000000000000000000000000000009D
:1003600000000000000000000000000000007E0F00
:1003700000D4FFFFFFC7000000780000000000006D
:1003800000002A2B280000000000000000000000F0
:10039000000000000029000000002C1E3420212253
:1003A00024342627252E362D3738271E1F202122BC
:1003B000232425263333362E37381F040506070835
:1003C000090A0B0C0D0E0F10111213141516171825
:1003D000191A1B1C1D2F3130232D35040506070863
:1003E000090A0B0C0D0E0F10111213141516171805
:1003F000191A1B1C1D2F3130354C00010101010160
:1004000001010101020202020202020202030303CD
:10041000030303030304040404040404050505059D
:10042000050606060606070707070708080808095D
:100430000909090A0A0A0B0B0B0C0C0C0D0D0D0E09
:100440000E0E0F0F0F10101111111212131314149E
:10045000151516161717181819191A1A1B1B1C1D13
:100460001D1E1E1F2020212222232424252626276C
:100470002829292A2B2C2D2D2E2F3031323233349E
:1004800035363738393A3B3C3D3E3F4041424344A4
:1004900045464748494A4C4D4E4F50515354555686
:1004A00058595A5B5D5E5F616264656668696B6C32
:1004B0006D6F7072737577787A7B7D7E80828385AD
:1004C00087888A8C8E8F91939596989A9C9EA0A2ED
:1004D000A3A5A7A9ABADAFB1B3B5B7BABCBEC0C2F7
:1004E000C4C6C9CBCDCFD1D4D6D8DBDDDFE2E4E7BB
:1004F000E9EBEEF0F3F5F8FAFDFF05010902A101C1
:1005000085020901A1000509190129051500250128
:100510009505750181029501750381010501093079
:1005200009311581257F95027508810609381581E5
:10053000257F950175088106050C0A38021581256D
:100540007F950175088106C0C005010980A101855C
:100550000319012AB700150126B70095017510810E
:1005600000C0050C0901A101850419012AA002158A
:100570000126A002950175108100C005010906A1A0
:10058000018505050719E029E7150025019508757E
:100590000181020507190029EF1500250195F07565
:1005A000018102050819012905950575019102953A
:1005B0000175039101C00660FF0961A1010962157F
:1005C0000026FF009520750881020963150026FFAB
:1005D00000952075089102C005010906A1010507D3
:1005E00019E029E71500250195087501810295019B
:1005F000750881010507190029FF150026FF0095E0
:1006000006750881000508190129059505750191F0
:1006100002950175039101C009025B00030100A06E
:10062000FA09040000010301010009211101000180
:100630002240000705810308000A090401000203A3
:100640000000000921110100012222000705820398
:100650002000010705030320000109040200010333
:1006600000000009211101000122BC0007058403DC
:1006700020000A120110010000000870707451017E
:1006800000010203011C037600690061006C003A5E
:1006900000660036003400630032006200330063FD
:1006A000000000140345007100750069006E006FC2
:1006B0000078005F004F0000000A034E00610073E5
:1006C000007000000004030904FFAA7F55402223A4
:1006D000252628292A2C2D2F3032333536383A3B1F
:1006E0003D3E4042434547494A4C4E505153555771
:1006F000595A5C5E6062646668696B6D6F71737590
:1007000077797B7D7F81838587898A8C8E9092948F
:1007100096989A9C9E9FA1A3A5A7A8AAACAEAFB19C
:10072000B3B4B6B8B9BBBCBEBFC1C2C3C5C6C7C9E6
:10073000CACBCCCDCED0D1D2D2D3D4D5D6D7D7D8A0
:10074000D9D9DADADBDBDBDCDCDCDCDCDDDDDDDDF2
:10075000DCDCDCDCDCDBDBDBDADAD9D9D8D7D7D6FA
:10076000D5D4D3D2D2D1D0CECDCCCBCAC9C7C6C5B1
:10077000C3C2C1BFBEBCBBB9B8B6B4B3B1AFAEACF7
:10078000AAA8A7A5A3A19F9E9C9A98969492908EA2
:100790008C8A89878583817F7D7B79777573716F7B
:1007A0006D6B6968666462605E5C5A595755535157
:1007B000504E4C4A4947454342403E3D3B3A38360D
:1007C000353332302F2D2C2A2928262523222B00A1
:1007D00014001A0008001500170000001C00180083
:1007E0000C00120013002A00296104001600070003
:1007F00009000A0000000B000D000E000F0033007E
:100800003400D75C1D001B00060019000500000025
:1008100011001000360037003800D85CE0000000FE
:10082000E20000002841000000002C4200000351BB
:100830000000E700000001001E021F02200221024A
:1008400022020100230224022502260227024C0074
:1008500001000100010001000100010001002D0064
:100860002E002F023002310235000100010001008C
:1008700001000100010001002D022E022F003000B6
:1008800031003502010001000100000001000000FC
:100890000000010000000100010001000000010053
:1008A0001E001F0020002100220001002300240060
:1008B000250026002700010001003A003B003C0013
:1008C0003D003E0001005000510052004F004B001F
:1008D0004A0001003F004000410042004300010087
:1008E0000100500051004F004E004D00010001007A
:1008F00001000000010000000000010000000100F4
:10090000010001000000005C010001000100010085
:1009100001000100010001000100010001000100CF
:10092000C25CC95C0100010001000100010001007E
:1009300001000100010001000100C35CCA5C01006C
:10094000010001000100010001000100010001009F
:1009500001000100C45C0100010000000100000072
:10096000000001000000010001000100000011244E
:100970001FBECFEFDAE0DEBFCDBF04B603FE27C057
:1009800080916D0490916E04A0916F04B0917004F9
:100990008730904BA740B04BD1F410926D04109269
:1009A0006E0410926F041092700414BE84B7877F97
:1009B00084BF0FB6F894A8958091600088618093F9
:1009C0006000109260000FBEE0E0F8E3099511E0CE
:1009D000A0E0B1E0ECEEFEE602C005900D92A43A74
:1009E000B107D9F724E0A4EAB1E001C01D92AD3609
:1009F000B207E1F70E94D70E0C9474370C940000F4
:100A00002F923F924F925F926F927F928F929F921E
:100A1000AF92BF92CF92DF92EF92FF920F931F930C
:100A2000CF93DF93CDB7DEB764970FB6F894DEBFF0
:100A30000FBECDBF7C01DC0113964D915C911497E4
:100A400011966C9111978C910E94EC3081110C944D
:100A5000BE0E21E0F7014081518162817381848162
:100A60000E943D1E8C01D70112968C91811105C008
:100A7000F7014281411140C0C0C0809100018F3F09
:100A8000B9F3B8EACB2EB1E0DB2EA12CB12C99241E
:100A9000939480910001082E000C990B8A159B05F8
:100AA0003CF3D60116968C9116978823F1F019968F
:100AB0008D919C911A970817190739F48091A60116
:100AC0009091A7010817190781F0F60197861487FE
:100AD00003878189811103C0C6010E94D731C601F5
:100AE00006960E94F83110925D04FFEFAF1ABF0A1C
:100AF00026E1C20ED11CCDCFC80182519F4540973F
:100B000008F098C08FEF93E00E946536811180C095
:100B1000AEEEDA2ED00E09E812E0DD2071F00115FC
:100B200044E0140709F474C0C8010E9465368111BD
:100B300001C0DA940F5F1F4FF0CF19821A821B8217
:100B40001C82AA24AA9468015FEFC51AD50AC801BD
:100B50000E94653689831A82882309F459C081303E
:100B600009F046C0480182E0880E911CC6010E942F
:100B700065368A83882309F44BC09FEF980F933022
:100B800060F4680193E0C90ED11CC4010E9465366F
:100B90008B8381112DC08601D6CF843011F0640182
:100BA000FACFC4010E946536B82E6801A4E0CA0ECF
:100BB000D11CC80103960E946536BB2049F18823E9
:100BC00039F1282F30E021503109A29EA001A39EC7
:100BD000500D11248B2D90E00197840F951F0197E4
:100BE000D0F2EFE9FFE03197F1F700C00000F7CF56
:100BF000CE0101960E948A1DCECF0031FFE51F076E
:100C000011F00C94B50E81E00E9449300E941C2323
:100C100080915A04877011F40C94BE0ED70112967D
:100C20008C91882311F40C94BE0E82E00E946E30E9
:100C30000C94BE0E0031BFE51B0711F481E005C026
:100C40000131EFE51E0721F482E00E948B30DECFF8
:100C5000C80197558F3F910511F008F057C02091BA
:100C60000001022E000C330B2817390714F480936F
:100C7000000126E1289F5001299FB00C1124C501D5
:100C800088559E4F6C01DC0150964C935097F701AC
:100C9000928116968C911697992369F11A961C9356
:100CA0000E9319978F5F16968C930E94D92DD601BB
:100CB0001E969C938E931D978091600417968C933B
:100CC000179790915D0480915C04892B18968C9302
:100CD0001897ED91FC911197C50182559E4F309761
:100CE00029F054966D917C91559709951093A70121
:100CF0000093A6010BC08823B1F0F60181898823F7
:100D000091F0C50182559E4F0E94F831073FFCE5E6
:100D10001F0749F4D70112968C91882321F181E0B5
:100D2000809301013DC1083FBCE51B0771F4F70149
:100D300082818823C1F01092010110926802109202
:100D4000670281E00E9451322BC1093FFCE51F0779
:100D500051F4D70112968C91882329F080910101DA
:100D60008823E9F2E8CF40900101442009F418C13A
:100D700010926B0210926A02612CE5E05E2E8824CC
:100D80008394912C33243394A0906A02B0906B0228
:100D9000F8E0AF16B10408F0CFC05A9CF0015B9C9C
:100DA000F00D1124EA56FD4FBE01655F7F4F808133
:100DB0000E947D33892B11F0712CB3C0FE013B964C
:100DC00080E090E022242A94282F419151914115EE
:100DD000510551F00417150709F4282E01968430A7
:100DE000910591F724E002C0823030F3BFEF2B165B
:100DF00019F3F7017280772009F448C05A9CC001AA
:100E00005B9C900D1124AC014A565D4F6A01C401F0
:100E100001C0880F2A94EAF7DA0114969C9114977E
:100E2000892B14968C93F40102C0EE0FFF1F2A95B4
:100E3000E2F79F012150310990E08F772817390799
:100E400009F06EC080E00E945132D60114968C9158
:100E50001497806814968C93149712968D919C9198
:100E60001397009719F00E947C1E0DC0BE016F5FA2
:100E70007F4F80916A020E947D33892B21F48985FE
:100E80009A850E943A29309269024BC0F40102C04F
:100E9000EE0FFF1F2A95E2F79F01215031095A9C5E
:100EA000F0015B9CF00D1124EA56FD4F848190E027
:100EB0008F7728173907A1F482819381009719F061
:100EC0000E94661E0DC0BE016F5F7F4F80916A0257
:100ED0000E947D33892B21F489859A850E94B1284F
:100EE0005A9CF0015B9CF00D1124EA56FD4F948151
:100EF000292F30E0022C02C0359527950A94E2F79D
:100F000020FF5ACF940101C0220F2A94EAF7822FC2
:100F100080958923848387FF4FCF803809F414821A
:100F2000742C672880916A0290916B0201969093CD
:100F30006B0280936A0228CF80916902882359F05E
:100F40000E94D92D909368028093670210926902E3
:100F500061105ECE25C0611006C081E00E94513252
:100F60000E943F321DC0D70112968C91882309F44C
:100F70004FCE0E94D92D9093680280936702E09132
:100F80006602E73008F044CE81E08E0F809366025F
:100F9000F0E0EE0FFF1FE85AFD4F1183008338CEBB
:100FA00080918F0280FF64C00E94D92D6C01F701EF
:100FB0008281882379F18091020182FF06C040E09E
:100FC000B60180E090E00E94763182E00E94F22E2D
:100FD0000B31FCE51F0779F00C312CE5120789F085
:100FE0000A314CE51407B1F480910201982F9095D5
:100FF00090FB80F909C08091020181608093020119
:101000007EC0809102018E7F8093020182E00E9467
:10101000F22E75C00832110538F40E311105B0F406
:101020000430110578F424C00933110538F40D3269
:10103000110588F40B32110571F01AC00436110540
:1010400051F016C080918F0284FF09C080918F02F9
:1010500083FD0EC004C080918F0282FD09C0F7019C
:101060008281882309F4B5C18091020180FD75C198
:10107000033FBCE51B0759F190F4083DFCE51F0751
:10108000E9F0093D2CE51207A1F1073D4CE51407F5
:10109000B1F506E221EE41EE67ED7CE514C0053FB7
:1010A0005CE5150701F1C8F0063F9CE5190739F525
:1010B00007E225EE46EE66EF7CE505C007E225EE89
:1010C00045EE68ED7CE5C7010E947132A1CD06E2D4
:1010D00021EE40EE63EF7CE5F6CF07E225EE44EE2D
:1010E00064EF7CE5F0CF06E221EE42EE65EF7CE5B1
:1010F000EACF08E221E045EE69ED7CE5E4CFD701D7
:1011000012962C91222309F46AC1109270020230C7
:10111000BCE51B0708F463C10631ECE51E0730F09F
:10112000C8018A5F9C45099708F059C10E946B2E3F
:101130009093BF028093BE020031FCE51F0709F4C3
:10114000C3C008F041C008304CE5140709F49AC048
:10115000F0F404308CE5180709F487C068F4023015
:10116000ACE51A0709F477C003301C4509F0E5C067
:101170008091BE02826076C00630ECE51E0709F45D
:101180006EC008F07BC08091BE0288606BC00C30DE
:101190002CE5120709F485C068F40A305CE51507F0
:1011A00009F474C008F079C00E94FA1E8091BE0252
:1011B000806858C00E309CE5190709F476C008F025
:1011C0007FC08091BE028BC00B3FBCE51B0709F4BA
:1011D0004FC018F50331FCE51F0709F47DC078F412
:1011E00001314CE5140709F473C002311C4509F0C4
:1011F000A4C00E94FA1E8091BE028F7733C00531D1
:101200008CE5180709F472C008F486C00A3F1C4533
:1012100009F093C08091BF023EC00F3FBCE51B07A1
:1012200009F45FC058F40D3FFCE51F0709F444C002
:1012300008F43FC08091BF0282602DC001304DE5AF
:10124000140709F475C008F45DC002301D4509F0AB
:1012500074C060E06EC08091BE02816003C0809166
:10126000BE0280618093BE0268C08091BE0211C040
:101270008091BF0282608093BF025FC08091BE02F6
:101280008062F0CF8091BE028064ECCF8091BE027C
:1012900088608460E7CF8160EECF8091BE028E7F50
:1012A000E1CF8091BE028D7FDDCF8091BE02877F2E
:1012B000D9CF8091BF0218C08091BF028D7FDBCF54
:1012C0008091BE028F7ECECF8091BE028F7DCACF2D
:1012D0008091BE028F7BC6CF8091BE02877F8B7FBD
:1012E000C1CF8091BF028D7F8E7FC5CF8091BE021E
:1012F00082FB222720F991E0922790FB82F990FB54
:1013000083F9B0CF8091BF02982F909591708E7F16
:10131000892B90FB81F9AFCF0E94FA1E8091BE020B
:1013200087FB222720F991E0922790FB87F99ACF3B
:1013300061E08EE090E00E9479366091BE021091EB
:10134000BF0284E090E00E947936612F82E290E053
:101350000E9479360E94FA1E5BCC90918F0291FD1B
:1013600004C020915C04211183CE95FF21C02091FF
:101370006E0230916F02D601A21BB30B9D0196FD48
:1013800002C081FD15C0283C310590F420916C020B
:1013900030916D020217130759F481FF05C0809147
:1013A0005D04826080935D04802F0E946F1F30CCAB
:1013B00010936D0200936C02D0926F02C0926E0285
:1013C0008091020184608093020182E00E946E306D
:1013D0001FCC40E0B601C8010E94763119CC06311D
:1013E000FCE51F0709F040C080915C04982F9A7AB1
:1013F00030918E0230FF04C0482F447409F090E011
:1014000031FF04C0482F417109F090E032FF04C061
:10141000482F487809F090E033FF02C0827261F4EF
:101420002223A1F081E0911101C080E0809371023C
:10143000992331F065E305C0222341F01092710237
:1014400069E28CED93E00E94362E0BC08091710210
:10145000882311F065E301C069E28CED93E00E94FE
:101460000E2E0E943B2FD4CB222309F41BC1809166
:101470005C0482720C3C9CE5190709F4C2C008F0B8
:1014800045C0063CBCE51B0709F4A7C0D8F4033CE3
:10149000FCE51F0709F497C030F4023C4CE5140743
:1014A00009F46CC0CEC0043C5CE5150709F490C09B
:1014B000053C9CE5190709F0C4C044E957E16DE912
:1014C00077E1A3C0093CACE51A0709F490C078F4B1
:1014D000073CECE51E0709F485C0083CFCE51F0746
:1014E00009F0AFC048E857E16CE777E18EC00A3CED
:1014F0002CE5120709F480C00B3C4CE5140709F0F9
:10150000A0C042ED57E163EE77E17FC0013D5CE5AD
:10151000150709F486C0A0F40E3C9CE5190709F4F0
:101520007AC008F475C00F3CBCE51B0709F476C00F
:10153000003DECE51E0709F084C06EE089E079C04B
:10154000043DFCE51F0709F472C068F4023D4CE558
:10155000140709F469C0033D5CE5150709F071C083
:1015600061E088E16BC0053D8CE5180709F464C0B3
:101570000D359DE5190709F44BCB63C08091EE0250
:1015800080FF1BC08E7F8093EE026091EE0270910F
:10159000EF028091F0029091F1020E94C017109228
:1015A000ED02AFEFB0E7E2E0A150B040E040E1F77C
:1015B00000C000000E943E2A2BCB81608093EE0287
:1015C00061E086953BC046E358E16FE378E11DC0DA
:1015D0004FE358E166E378E118C04DE957E164E96B
:1015E00077E113C04CE757E168E877E10EC044E6C5
:1015F00057E160E777E109C040E757E164E677E14A
:1016000004C043EE57E162ED77E10E94382A00CB37
:1016100061E081E013C065E082E00BC068E086E035
:1016200008C064E18FE005C067E185E102C062E2C5
:1016300089E10E94262AECCA61E083E20E94F41745
:10164000E7CA0A35FDE51F0741F150F401154CE5E5
:101650001407A9F00E3D1C4529F50E947C2ED8CA1E
:101660000B358DE51807D9F00C351D45D9F480915F
:10167000BF0282FB882780F991E0892711C00E9470
:10168000FA1EAFEFB4E3ECE0A150B040E040E1F768
:1016900000C000000E94802DBBCA81E001C080E034
:1016A0000E94002FD70112968C9112970D911C91D8
:1016B000882349F0C8010E94952FD82E682FC801B1
:1016C0000E94123004C0C8010E94E22FD82EB80137
:1016D0008D2D0E94FB1B8C01882EF701B280C580E6
:1016E000C2946FE0C62280915A04877099F0BB20A3
:1016F00089F0812F807F803421F080E2800F883054
:1017000048F082E00E946E3080915A048770AA24CB
:10171000A3948111A12C912E92945FE09522892DA2
:1017200090E08C30910508F0C3C2FC01EA5AFF4FEB
:101730000C940D37912F9F70812F807FD92E19F037
:10174000D29440EFD422BB20B9F0DD2009F48EC240
:1017500080E2800F883010F0811006C080915C0418
:10176000D82AD0925C0405C080915D04D82AD0921A
:101770005D040E943B2F7AC2802F0E940F1FDD2044
:1017800009F496C280E2800F883010F0811004C006
:101790008D2D0E94F92E03C08D2D0E94F22E0E94E5
:1017A0003B2F86C2912F9F70812F807FD92E803250
:1017B00019F0D29430EFD322882029F0F1E08F166F
:1017C00009F44FC05CC0BB2079F1CC2039F144242E
:1017D0004394C41013C08091BF0282FD69C28091FE
:1017E0006004D82AD81609F463C20E94D92D9093B8
:1017F0005F0480935E04D09260045AC2809190028C
:10180000823060F0C8120AC00E94E72E809157040F
:10181000D81609F452C0D09257044FC0809160048A
:101820008D290E949C1E44C2CC2081F080919002A0
:1018300055245394C51010C0823008F439C28091E9
:101840005C048D2109F434C20E948F2F0E94E72E80
:101850008D2D0E94AD1E2CC28230C0F3C812F6CF6F
:1018600027C2BB2031F025E0622E6C1408F420C2A0
:1018700024C094E0792E7C1408F41AC2E9CFBB206E
:10188000F1F0CC20D1F020E0D7014C9111965C9181
:10189000119712966C91129713967C911397149648
:1018A0008C910E943D1E8091910281FDDFC1F70164
:1018B000858180FFDBC18F7085838D2DB2CFCC20D9
:1018C00039F2F9E38F12E4C1DEC1812F8695869546
:1018D000837019F0813059F0EBC1BB2019F0C801B9
:1018E000937002C080E090E00E945431E1C1BB20BF
:1018F00019F0C801937002C080E090E00E943E3170
:10190000D7C1802FBB2029F00E94431A0E940C19D6
:1019100002C00E9436190E940C19CAC1812F83701F
:1019200009F06AC0B110C4C1902F92959695977036
:10193000990F990F802F8F70482E512C612C712C8C
:10194000092E04C0440C551C661C771C0A94D2F75F
:1019500004FF12C04FE050E060E070E004C0440FAC
:10196000551F661F771F9A95D2F7DB01CA01809534
:101970009095A095B09503C080E090E0DC01612FC8
:101980006695669563706230D9F068F520916104C0
:10199000309162044091630450916404613059F0C5
:1019A00084299529A629B729BC01CD016223732377
:1019B000842395231EC0422A532A642A752A13C001
:1019C00084299529A629B729409061045090620482
:1019D0006090630470906404BC01CD01642575259A
:1019E0008625972506C0BC01CD0164297529862965
:1019F00097290E94C2305CC1BB2019F0812F8170F1
:101A000001C08695882309F453C1902F929596952D
:101A10009770990F990F802F8F70482E512C612C41
:101A2000712C092E04C0440C551C661C771C0A94AA
:101A3000D2F704FF12C04FE050E060E070E004C055
:101A4000440F551F661F771F9A95D2F7DB01CA0115
:101A500080959095A095B09503C080E090E0DC0162
:101A6000612F6695669563706230D9F068F52091B4
:101A70003603309137034091380350913903613078
:101A800059F084299529A629B729BC01CD016223E3
:101A900073238423952391C0422A532A642A752AEA
:101AA00013C084299529A629B72940903603509060
:101AB00037036090380370903903BC01CD01642571
:101AC00075258625972579C0BC01CD016429752926
:101AD0008629972972C0212F2F70D22EBB2029F082
:101AE000822F0E948B30802F9CCE802F0E94AD1EB3
:101AF0008D2DDAC0802F42EF841609F443C04815BB
:101B000038F050EF851661F091EF8916A9F1AAC05F
:101B1000A3EF8A16E9F1B4EF8B1609F451C0A2C005
:101B2000BB2029F0E4E0EC1508F4C2C005C085E054
:101B3000582E5C1408F4BCC0212F2F7181E090E076
:101B4000A0E0B0E0AC01BD0104C0440F551F661F0A
:101B5000771F2A95D2F78091360390913703A09191
:101B60003803B09139032A013B01482659266A26D9
:101B70007B26C301B20121C0812F8F71BB2009F4E4
:101B800093C07AC0812F8F71BB2009F475C08CC0BF
:101B9000BB2081F0212F2F7181E090E0A0E0B0E028
:101BA000BC01CD0104C0660F771F881F991F2A95BD
:101BB000D2F703C060E070E0CB010E943F3078C0F4
:101BC000909190029230B8F1BB20F1F080915704CF
:101BD0000E94F92E80915A048770843039F40E9453
:101BE0001A2F812F8F710E94493061C0809190021D
:101BF000C81608F05CC0212F2F71D22E822F0E94B0
:101C00008B3063E08D2D10C020915C0480915704CF
:101C1000822B80935C04C91650F00E941A2F0E94F8
:101C20008F2F64E0812F8F710E94AC3040C081E023
:101C30000E946E303CC0BB2059F0412F4F71D42E12
:101C4000842F0E948B3063E08D2D0E94AC3030C019
:101C500081E00E946E3051E05C1550F582E00E94F8
:101C60006E3026C0BB2059F0CC2021F0802F0E947E
:101C70006F1F1EC0812F8F710E948B3019C0CC2026
:101C800089F0893329F4809194029091950204C0DF
:101C900080919202909193020E943331802F0E9492
:101CA0000F1F06C0812F8F710E94493001C0A12CE7
:101CB00088EF890D843010F40E946A31C8010E94B7
:101CC000B41E811105C0109273021092720225C0D9
:101CD000BB2019F0C110F7CF20C0C110F4CF20E015
:101CE000D7014C9111965C91119712966C911297B5
:101CF00013967C91139714968C910E943D1E8091AF
:101D0000910283FFE0CF809172029091730202975B
:101D1000D1F6802F0E943320D6CFAA20A9F080913F
:101D20005A0480FD11C0F70112828595859585952D
:101D30000E948B30C7010E94000580915A0485954E
:101D4000859585950E94493020E0D7014C911196E8
:101D50005C91119712966C91129713967C91139740
:101D600014968C910E943D1E09C001312FE5120787
:101D700011F00C94280682E00C94040664960FB6C9
:101D8000F894DEBF0FBECDBFDF91CF911F910F91B1
:101D9000FF90EF90DF90CF90BF90AF909F908F908B
:101DA0007F906F905F904F903F902F900895CF93CA
:101DB000DF93CDB7DEB7E4970FB6F894DEBF0FBE62
:101DC000CDBF84B7877F84BF0FB6F894A895809164
:101DD0006000886180936000109260000FBE90E008
:101DE00080E80FB6F89480936100909361000FBE75
:101DF00085B7806885BF85B7806885BF84EE9CE223
:101E00009093A5018093A4010E945B28E6E9F2E08B
:101E100080E090E09183808301963596883091052B
:101E2000C9F70E94E8320E945C260E947B268091BE
:101E3000E20084608093E2007894809135038823E7
:101E4000A1F01091E9001F709091EC00892F817032
:101E500090FD80E8182B1092E9008091E80083FD46
:101E60000E943A231F701093E90082E084BD93E042
:101E700095BD9AEF97BD80936E0086EC0E94AB1AD9
:101E800080E90E94AB1A85E30E94AB1A86E30E94A8
:101E9000AB1A02E311E0EFE3EE2EE1E0FE2EF801D3
:101EA00081918F010E94AB1AE016F106C1F71092E2
:101EB000C1021092C0021092F4021092F30210922A
:101EC000C3021092C2021092F6021092F502109212
:101ED000C5021092C4021092F8021092F7021092FA
:101EE000C7021092C6021092FA021092F90280E024
:101EF00090E00E9473368A3E9E4F11F00E947C2E25
:101F000082E090E00E9465368093DF020E946B2E93
:101F10009093BF028093BE020E94C21A8FE39CE995
:101F20000197F1F700C000000E94C21A8091F302ED
:101F300080FF17C06FEF83E290E00E9479366FEF69
:101F400084E290E00E9479366FEF85E290E00E9493
:101F500079366FEF7FEF80E090E00E9497360E9425
:101F6000802D83E090E00E946536682F70E080E06D
:101F700090E00E94C23083E290E00E9465368E338A
:101F800081F484E290E00E9465368D3A51F485E256
:101F900090E00E94653691E0813309F090E0892F4E
:101FA00001C080E080FF07C78091C802811136C060
:101FB00080E090E00E9473368A3E9E4F21F00E949E
:101FC0007C2E0E94491888E090E00E946D36609354
:101FD000EE027093EF028093F0029093F1026E7F15
:101FE00071F40E94491888E090E00E946D36609379
:101FF000EE027093EF028093F0029093F1020E9440
:10200000A6171092ED028091EE0280FF04C060E0FE
:1020100086950E94F41781E08093C80287E091E0E2
:102020009093CA028093C9027BEF272E72E0372E6D
:102030008E010F5F1F4F80913503853009F047C037
:1020400050E1E52E62E1F62E80913503853009F0EE
:102050003AC080913503843021F11092CB0228E1FF
:1020600030E040E40FB6F894A895209360000FBECE
:102070004093600083B7817F846083BF83B78160B2
:1020800083BF7894889583B78E7F83BF0FB6F8940B
:10209000A895809160008861809360001092600034
:1020A0000FBE80912B03882309F4CECF0E94C21A61
:1020B000E3EFF2E081919191892B09F030C62E1661
:1020C0003F06C1F7C1CF0E94FA1E0E946A310E94EA
:1020D000C21A882359F08FB7F8944091FB025091AF
:1020E000FC026091FD027091FE028FBFA3EFB2E08F
:1020F000E0EEF2E0E12CF12C7E2D2D913D918191CD
:10210000919182279327009779F160E0CC24C394C2
:10211000D12CAC014C215D21452B09F16BA77CA78B
:102120002C213D2181E0232B09F480E08DA70E9422
:10213000D92D8160782F9FA78EA74BA55CA56DA593
:102140008FA50E94BE34F701EE0FFF1FE052FD4F36
:1021500080819181C826D926D182C0821CC06F5F40
:10216000CC0CDD1C6D30A9F68FEFE81AF80A94E06C
:10217000E916F10409F68FEF88AB89AB1AAA0E9421
:10218000D92D8160782F9CAB8BAB48A959A96AA93E
:102190008CA90E94BE348091ED02882309F48DC081
:1021A0008091EC02E091EE02E695E81BE093CE020E
:1021B000823059F4F0E0E25EFE4FE491EE2EF12C15
:1021C000F7E4CF2EF8E2DF2E53C0863059F4F0E06A
:1021D000E55EFE4FE491EE2EF12CE7E3CE2EE8E231
:1021E000DE2E46C0893061F4E695F0E0E85EFE4FF1
:1021F000E491EE2EF12C71ECC72E7BE2D72E38C085
:102200008F3061F4E695F0E0EB5EFE4FE491EE2E48
:10221000F12C61E5C62E6BE2D62E2AC0853159F429
:10222000F0E0EE5EFE4FE491EE2EF12C50E0C52E74
:102230005BE2D52E1DC0883159F0833289F4E0E18C
:10224000F1E0E590F4904FEFC42E4BE2D42E10C095
:1022500028E2E22EF12C34E7C32E3AE2D32E08C056
:1022600080EDE82E87E0F82E96E3C92E98E2D92E6D
:102270008091CF02882361F01092CF020E94D92D65
:102280009093CD028093CC021092D1021092D00292
:102290000E94D92DE091CC02F091CD028E1B9F0BB4
:1022A0008F3F9F4750F4EE0EFF1EF092CD02E0925A
:1022B000CC028CEC92E0F601099586E0E8EDF2E0C4
:1022C000D80101900D928A95E1F7C090DA02D09082
:1022D000DB02E090DC02F090DD021092DA02109254
:1022E000DB021092DC021092DD02C11003C0DD207F
:1022F00009F45DC08091D6029091D7020E94CA2D48
:10230000AC019091D502992339F02091060130E07B
:102310002417350758F04BC020910501FAE02F9F94
:10232000900111242417350718F041C09F3F19F080
:102330009F5F9093D502CC2061F00E94F4191C1489
:1023400014F491E001C09FEF899F802D11248093A8
:10235000DA02DD2061F00E94F4191D1414F491E0FA
:1023600001C09FEF899F802D11248093DB02309163
:10237000DA023323E1F02091DB022223C1F045EBA6
:102380003403C0011124992319F09093DA0203C099
:1023900081E08093DA0235EB2303C00111249923F5
:1023A00019F09093DB0203C081E08093DB02E1101F
:1023B00003C0FF2009F45DC08091D3029091D40244
:1023C0000E94CA2DAC019091D202992339F020913C
:1023D000040130E02417350758F04BC02091030169
:1023E0008AE0289F900111242417350718F041C076
:1023F0009F3F19F09F5F9093D202EE2061F00E9400
:10240000BB191E1414F491E001C09FEF899F802D29
:1024100011248093DC02FF2061F00E94BB191F147D
:1024200014F491E001C09FEF899F802D11248093C7
:10243000DD023091DC023323E1F02091DD02222322
:10244000C1F045EB3403C0011124992319F0909396
:10245000DC0203C081E08093DC0235EB2303C00182
:102460001124992319F09093DD0203C081E0809339
:10247000DD028091DA0281110BC08091DB028111B3
:1024800007C08091DC02811103C08091DD028111BF
:102490000E940C19CB82DC82ED82FE8286E0F8017C
:1024A000A8EDB2E001900D928A95E1F70E946A31A1
:1024B0009091DE02891721F00E946A318093DE023A
:1024C00080913503843009F0B6CD83E08093E90034
:1024D0008091E80082FFAFCD8091E80085FF21C0A8
:1024E0000E94B12781111BC0B0E2CB2ED12C780104
:1024F00009C08091F100F70181937F01F1E0CF1ACB
:10250000D10869F08091E80085FDF3CF8091E80063
:102510008B778093E8000E94B127882399F391E09C
:1025200001C090E08091E8008B778093E8009923C8
:1025300009F481CDE0900103F09002038981E11458
:10254000F10461F08E3F09F0E6C38A81833008F41C
:102550003EC28550833008F0DEC339C28B3009F4A7
:1025600020C280F5853009F491C0B0F4823009F4BE
:1025700045C030F4813009F0CCC31A8289E0EFC243
:10258000833009F472C0843009F0C3C34C816B817D
:102590008A810E94743478C0873009F485C008F4B9
:1025A00080C0883009F4C2C0893009F0B2C360919C
:1025B000EE027091EF028091F0029091F1020E9480
:1025C000C017A9C3803109F430C160F48D3009F41B
:1025D000D0C008F4CCC08E3009F4CFC08F3009F4DD
:1025E000F6C097C3823109F425C108F421C18331B3
:1025F00009F449C18E3F09F4EAC18BC38A81823054
:1026000009F4D0C3833089F0813009F082C32FB739
:10261000F8948091FB029091FC02A091FD02B09190
:10262000FE022FBFBB83AC832FC08091FF0290912D
:102630000003892B09F46FC38091F3029091F40297
:102640009B838C838091F5029091F6029D838E830B
:102650008091F7029091F8029F8388878091F90218
:102660009091FA0299878A8756C38A81823009F04D
:1026700050C36B817C818D819E810E94133786E2DD
:1026800090E00E94793647C39D8393C32D813E819C
:102690003227232732274C816B818A810E94A733FE
:1026A0003AC30E94DD3337C38A818138B1F050F4D8
:1026B000803809F030C320E04B816091F0028091B6
:1026C000EF0231C0823859F1833809F024C320E089
:1026D0004091F1026C818B8126C060E08B810E9469
:1026E000F4179B818091EE02911111C08E7F80932F
:1026F000EE021092ED022FEF30E742E02150304021
:102700004040E1F700C000000E943E2A04C38160FF
:102710008093EE0260E086950E94F417FCC28B81E4
:102720008093F202F8C20E943F2CF5C28A81813860
:1027300099F030F4803809F0EEC28091F1020FC2B6
:10274000823891F0833809F0E6C28091EF028B83E2
:102750008091F0028C83DFC28091EE0280FF02C084
:102760008695FDC180E0FBC18091F202F8C180E155
:1027700075C281E08A8387E7F2C1EA80FB80FE248C
:10278000EF24FE24AC80B12C8DE1A816B10408F032
:10279000C2C26801C70187579D4F9601201B310BAC
:1027A0002A153B0508F0B7C2E7E7EE16E1E0FE06A2
:1027B00028F40E946536F601848302C0F601148273
:1027C000FFEFEF1AFF0A2FEFC21AD20AE3CF809170
:1027D000FF0290910003892B09F49DC2EA80FB80DF
:1027E000FE24EF24FE24CC80D12C3DE1C316D1047D
:1027F00008F091C25801C70187579D4F9501201BD2
:10280000310B2C153D0508F086C247E7E41641E080
:10281000F40620F4F50164810E947936FFEFEF1A87
:10282000FF0A2FEFA21AB20AE6CF0E946D3373C2DD
:1028300084E014C2EA80FB80FE24EF24FE24AC80F6
:10284000B12C3DE1A316B10408F065C26801C701CF
:1028500087969601201B310B2A153B0508F05BC2B9
:1028600040EAE41641E0F40628F40E946536F601D9
:10287000848302C0F6011482FFEFEF1AFF0A2FEFE4
:10288000C21AD20AE4CFEA80FB80FE24EF24FE24A1
:10289000AC80B12C3DE1A316B10408F03CC240EA83
:1028A000E41641E0F40608F036C280EA91E08E19A1
:1028B0009F098A159B0508F42EC2370187E2680E2E
:1028C000711C8091FF0290910003892B11F0680127
:1028D0005FC0E0FE0FC0C70186960E94653690E09B
:1028E000982F88272D81822B81159C4531F48FEFFD
:1028F0008D8303C0C12CD12C03C0CC24C394D12C14
:10290000C5018E0D9F1D450180FF1BC0F1E08F1A90
:10291000910875E0472E512C4C0E5D1E480C591C39
:10292000C3018A0D9B1D0E946536F201208130E0B3
:10293000322F2227282B21153C4519F48FEFF20165
:102940008083F801EC0DFD1D2FEFCF01801B910B53
:102950008815990508F0BBCF848190E0982F8827CF
:102960003581832B81159C4511F424832583329670
:10297000ECCF40EAE41641E0F40620F4F60164816D
:102980000E947936FFEFEF1AFF0A2FEFC21AD20A20
:10299000C70187969601201B310B2A153B0548F38A
:1029A000BAC18091FF0290910003892B09F4B3C151
:1029B000C8010E9410283FEF41EE84E031504040B2
:1029C0008040E1F700C000000E94802DA4C1EA8190
:1029D0008E2F90E08E30910508F09DC1FC01EE59DC
:1029E000FF4F0C940D3788E0E6E2F1E0DE019196AE
:1029F00001900D928A95E1F780E2F80111928A9593
:102A0000E9F784E0898388E0FE01B196DE0115963E
:102A100001900D928A95E1F77EC180E9898381E07A
:102A20008A831B821C8277C18C8190E0982F882733
:102A30002B81820F911D092E000CAA0BBB0B55E0B8
:102A4000880F991FAA1FBB1F5A95D1F7AC01BD0172
:102A5000405E5F4F6F4F7F4F481759076A077B07EC
:102A600008F459C18039F1E09F07A105B10508F0CC
:102A700052C1413921E052076105710520F040E95A
:102A800051E060E070E0481B590BBC0166547E4F7A
:102A9000C8010E944C363FC140E250E06FEF70E049
:102AA000C8010E946D378091FF028983EA821B82F0
:102AB0001C8283E08D838BE07CC181E090E0909369
:102AC00002038093010382E390E09093EB028093F2
:102AD000EA020E94D92D9093E9028093E8021BC17B
:102AE000EF28A9F1F090FA02F3FA882780F9F09024
:102AF000F302F8228091E8029091E9020E94CA2D27
:102B000085369105F0F0FF20E1F00E94D92D9093D9
:102B1000E9028093E8028091EA029091EB0201972A
:102B20009093EB028093EA02892B89F410920203BE
:102B30001092010381E090E0909300038093FF02E4
:102B400006C082E390E09093EB028093EA028091CA
:102B5000FF028983809101038A838091EA028B833B
:102B6000DAC0109200031092FF02D5C0EB80FC8007
:102B700040E250E06FEF70E0C8010E946D3722E242
:102B800031E0AAEBB1E080E090E0AC014E5F5F4F36
:102B90004132510508F0BFC0F90165917491E61604
:102BA000F70630F4F801E80FF91F71836083CA015A
:102BB000285F3F4FA217B30741F7ADC02B813C817F
:102BC00082E291E0FC01459154912417350709F404
:102BD000BCC0089641E08A3B9407A1F79AC08B815C
:102BE0009C8132E2E32E31E0F32EF70125913491FE
:102BF0008217930709F485C0E8E0EE0EF11CFAEBAA
:102C0000EF16F1E0FF0689F784C00E942C3383C0E1
:102C10008B81823029F1A8F48823C9F0813009F032
:102C20007AC08C812AE0F22E6E01F1E2CF0ED11C27
:102C3000F6012F2D11922A95E9F7B6010E949233E1
:102C40003DC0833061F1843009F441C064C080E24A
:102C5000F80111928A95E9F788E089838A835BC03D
:102C60006C818AE0FE013596DE01919601900D920D
:102C70008A95E1F7683070F43AE0639FB00111245F
:102C800067517E4F4AE050E0CE0181960E949D360A
:102C900080E001C08FEF89830E945B283CC08C815B
:102CA0009AE0F92E6E0141E2C40ED11CF6012F2DDF
:102CB00011922A95E9F7B6010E947D338983F601C6
:102CC000DE01129601900D92FA94E1F724C06C8116
:102CD0008AE0FE013596DE01919601900D928A956B
:102CE000E1F76830B0F43AE0639FB0011124675C0B
:102CF0007D4F4AE050E0CE0181960E949D3680E0F3
:102D000009C0C7010296FC01259134912D3131058E
:102D100088F18FEF8983C8010E9410288CC9E9BC13
:102D2000F9BC09B400FEFDCF8091D8008F7D80935F
:102D3000D8008091E00082608093E0008091E00004
:102D400081FDFCCF0E94FA1E7FC99C012E5F3F4F80
:102D5000F9014591549140325105D8F6F901459158
:102D60005491FC01349665917491CE0102960E94B3
:102D70006437C5CFFC0145915491F7013496859194
:102D80009491BE016B5F7F4F0E9464370E940F33A6
:102D9000F701369685919491009709F4B0CFFC0124
:102DA0000995ADCF86E290E00E9465361B821C82B9
:102DB0001D828E83B0CF60E086E290E00E9479367B
:102DC0000E94DD330E946D336EE383E290E00E9447
:102DD00079366DEA84E290E00E94793661E385E21B
:102DE00090E00E947936E0C89091BE0292FF0DC03B
:102DF000282F2871283019F4877F846006C0282F77
:102E00002471243011F48B7F886093FF0DC0282F2C
:102E10002871283119F4877E846106C0282F247117
:102E2000243111F48B7E88612091BF0220FF0DC0F8
:102E3000382F3871383019F4877F816006C0382FF9
:102E40003171313011F48E7F886021FF0DC0282F41
:102E50002871283119F4877E816106C0282F2171DD
:102E6000213111F48E7E886194FD877E08959C0146
:102E70003A9521153F4138F5DC01AA27B270AC0123
:102E8000442754709C012227387094FF0FC090FF94
:102E900002C080E101C080E0AB2B09F08062452BCD
:102EA00009F08064232B69F080680BC0892F817042
:102EB000AB2B09F08260452B09F08460232B09F0CD
:102EC0008860FB0109940895EEEEF2E043812CE066
:102ED000421B08F440E021E0628181810C943F2C88
:102EE000EEEEF2E043812CE0420F08F44FEF21E0D8
:102EF000628181810C943F2CEEEEF2E062812CE045
:102F0000621B08F460E021E0438181810C943F2C36
:102F1000EEEEF2E062812CE0620F08F46FEF21E048
:102F2000438181810C943F2CEEEEF2E0818121E01F
:102F3000438162818C500C943F2CEEEEF2E0818153
:102F400021E043816281845F0C943F2C8091EE02EA
:102F5000282F269530E02115310519F48170826003
:102F600005C02432310524F0817086648093EE021E
:102F70008091F102873E18F086EE8093F102089569
:102F8000CF92DF92EF92FF926B017C010E94A61715
:102F9000B701A60188E090E0FF90EF90DF90CF901E
:102FA0000C948B368091F202882319F08150809323
:102FB000F2026091EE027091EF028091F002909126
:102FC000F1020C94C0178091F202833018F48F5FE5
:102FD0008093F2026091EE027091EF028091F00214
:102FE0009091F1020C94C0179091EE0290FF3DC0B9
:102FF0009170811102C0926006C0843210F0966414
:1030000002C0880F982B9093EE02662351F06091D6
:10301000EE027091EF028091F0029091F1020E9415
:10302000C0176091EE02669570E04BE050E081E1E0
:1030300091E00E945737892B19F01092ED0209C0D8
:1030400081E08093ED020E94D92D9093CD02809370
:10305000CC0281E08093CF0220E04091F1026091A8
:10306000F0028091EF020C943F2C08958091EE02C3
:103070008695815009F483E261E00C94F417809105
:10308000EE0286958F5F843208F081E061E00C9457
:10309000F417EEEEF2E083E0808311828FEF8283FB
:1030A00086EE8383148260817181828193810C9486
:1030B000C017AF92BF92CF92DF92EF92FF920F9321
:1030C0001F93CF93DF93E82EF62EE901E42FF0E073
:1030D000611106C0E650FC4FE4914E2F2E2F71C0B7
:1030E000062F10E0E650FC4F4491F42FC42ED12C53
:1030F00026E0829FC00111242FEF30E0B9010E9429
:10310000C3365BEA5603C001579F900D11248E0D04
:10311000911D8E0D911D582F550F580FD901A01BD1
:10312000B10BAC9DC001AD9D900DBC9D900D1124C7
:10313000E92FF59ED0011124AB2FBB277901EA1AA4
:10314000FB0AEC9CD001ED9CB00DFC9CB00D112451
:103150005901A51AB108A09E7001A19EF00CB09E65
:10316000F00C1124EF2CFF242E193F092C9D800117
:103170002D9D100D3C9D100D1124212F62307105E5
:1031800091F048F461157105E1F061307105B9F411
:10319000242F4B2F16C06430710569F040F0663063
:1031A000710579F00CC0242F492FE12F0AC0492F57
:1031B000EF2F2B2F06C0292FE42F412F02C0292FDC
:1031C000EB2F49832883EA83DF91CF911F910F91E1
:1031D000FF90EF90DF90CF90BF90AF900895CF9386
:1031E000DF9300D01F92CDB7DEB79091EE0290FF33
:1031F0000DC0473E08F046EE9E012F5F3F4F0E94F4
:1032000059184B8169818A810E94EE2B0F900F9093
:103210000F90DF91CF9108950E94D92D2091DA026D
:10322000211104C02091DB02222321F09093D702C8
:103230008093D6022091DC02211104C02091DD028E
:10324000222321F09093D4028093D302E091C9020B
:10325000F091CA02309749F082E08093D80204804E
:10326000F581E02D88ED92E009940895803F39F4CE
:103270008091DB0287FF6AC01092DB0267C0813F4A
:1032800029F48091DB021816BCF360C09091DA0239
:10329000823F29F497FF5AC01092DA0257C0833F49
:1032A00019F41916CCF352C09091DC02893F31F425
:1032B00019160CF04BC01092DC0248C08A3F19F47A
:1032C00097FF44C0F8CF8B3F39F48091DD0287FF30
:1032D0003DC01092DD023AC08C3F29F48091DD029E
:1032E0001816BCF333C0843F21F48091D9028E7F3D
:1032F00017C0853F21F48091D9028D7F11C0863F90
:1033000021F48091D9028B7F0BC0873F21F48091FB
:10331000D902877F05C0883F31F48091D9028F7E22
:103320008093D90213C08D3F21F4809106038E7FD4
:103330000BC08E3F21F4809106038D7F05C08F3F27
:1033400029F4809106038B7F809306038091DA0233
:10335000811106C08091DB02811102C01092D5025A
:103360008091DC02811106C08091DD02811102C0D2
:103370001092D20208958091060380FF08C06091E8
:10338000210170E0759567957595679521C081FF5E
:1033900006C06091210170E07595679519C082FFA4
:1033A00004C06091210170E010C09091D202992375
:1033B00099F0609120019617A0F780912101899FD3
:1033C000C001112470E00E94D7366038710540F4C6
:1033D0006115710519F406C061E070E0862F08954B
:1033E0008FE7089581E008958091060320917C0283
:1033F00030917D0280FF0CC080912301829FB0013B
:10340000839F700D112476956795769567952FC0EB
:1034100081FF0AC080912301829FB001839F700DBC
:1034200011247695679523C082FF08C080912301FF
:10343000829FB001839F700D112419C04091D50265
:10344000411102C0B90113C060912201461770F703
:1034500080912301849FA0011124429FC001439FBA
:10346000900D529F900D112470E00E94C336603879
:10347000710528F46115710521F0862F08958FE7F5
:10348000089581E00895803F21F40E94F419819508
:1034900004C0813F29F40E94F4198093DB0208954F
:1034A000823F21F40E94F419819504C0833F29F4DE
:1034B0000E94F4198093DA020895893F19F40E945A
:1034C000BB1905C08A3F31F40E94BB1981958093D6
:1034D000DC0208958B3F21F40E94BB19819504C042
:1034E0008C3F29F40E94BB198093DD020895843F2C
:1034F00021F48091D902816017C0853F21F4809129
:10350000D902826011C0863F21F48091D902846083
:103510000BC0873F21F48091D902886005C0883FA5
:1035200031F48091D90280618093D90208958D3F52
:1035300021F48091060381600BC08E3F21F48091BD
:103540000603826005C08F3F29F4809106038460E2
:10355000809306030895F894E82FE295EF70F0E069
:1035600031A1282F2F7081E090E001C0880F2A95AB
:10357000EAF7982F9095932391A392A1892B82A388
:10358000789408958F929F92AF92BF92CF92DF92DC
:10359000EF92FF920F931F93CF93DF938EE2E82E6B
:1035A00081E0F82EC0ECD2E098ECA92E92E0B92E82
:1035B00010E0CC24C394D12CB701D7018C91F8949E
:1035C000E82FE295EF70F0E021A18F70A60102C014
:1035D000440F551F8A95E2F7CA01922F982B91A3A9
:1035E00092A18095892382A3789400C0E2E3F1E060
:1035F00020E030E0812C912C4191842F82958F70B6
:1036000090E0DC0190968C9190E04F7002C095950F
:1036100087954A95E2F780FD08C0C601022E02C0D8
:10362000880F991F0A94E2F702C080E090E0882A90
:10363000992A2F5F3F4F2D303105F1F6BFEFEB1A7E
:10364000FB0AFB0180810E94AB1AF0EAFA95F1F7C0
:10365000888199818816990621F09982888281E073
:1036600001C080E0182B2296AC16BD0609F0A4CF4D
:10367000112349F081E0809305030E94D92D909396
:1036800004038093030380910503882351F1809103
:103690000303909104030E94CA2D069710F18091B4
:1036A000C0029091C1029093F4028093F302809142
:1036B000C2029091C3029093F6028093F50280912A
:1036C000C4029091C5029093F8028093F702809112
:1036D000C6029091C7029093FA028093F902109269
:1036E0000503809100018F3F41F1D12C06E11BC001
:1036F0000E9DF0010F9DF00D1124E855FE4FA2889C
:10370000B388A114B10421F4A0908C02B0908D0272
:103710000E9DE0010F9DD00D1124C855DE4F8E8106
:10372000811110C0D394ED2CF12C80910001082E52
:10373000000C990B8E159F05DCF68091010181111B
:1037400018C02BC08D859E850E94CA2DA816B9066B
:1037500048F78989811103C0CE010E94D7310E9D9F
:10376000C0010F9D900D112482559E4F0E94F8318B
:10377000D9CF8091670290916802009771F00E9402
:10378000CA2D20918A0230918B022817390728F41C
:1037900081E00E9451320E943F3280918F0280FF6F
:1037A0001CC08091020182FF18C00E94D92D209177
:1037B0006E0230916F02AC01421B530B2091240129
:1037C000309125014217530740F041E0BC01809140
:1037D0006C0290916D020E947631812FDF91CF9122
:1037E0001F910F91FF90EF90DF90CF90BF90AF901F
:1037F0009F908F900895CF93DF930E94A234EC01A5
:103800008238910559F1A0F48133910509F473C010
:1038100040F48932910509F467C08A9709F472C0AF
:1038200084C08533910509F458C0C997B9F07DC0AB
:10383000833E910571F138F4803E9105B1F0823EEE
:10384000910511F172C0863E9105B9F1873E91054F
:10385000C9F1843E910509F068C024C08091BE0280
:1038600080FD5DC081FD5BC060C08091BE0280FDB7
:1038700050C08091BF0280FF49C18091BE0284FD8B
:1038800043C1C3EED0E042C18091BE0282FF3EC17F
:10389000F4CF8091BE0282FD3FC08091BF0280FDC7
:1038A0003EC0EBCF8091BF0281FF30C18091BE024C
:1038B00084FD2AC1C7EED0E029C18091BE0283FFFA
:1038C00025C1F4CF8091BE0283FD2CC08091BF0240
:1038D00081FFECCFC4EED0E019C18091BE0285FF1C
:1038E00015C1C9E2D0E012C18091BE0285FF0EC1B0
:1038F000C5E3D0E00BC18091BE0286FF07C1CAE2DA
:10390000D0E004C18091BE0286FF00C1C1E3D0E0D7
:10391000FDC0C9E3D0E0FAC0C2EED0E0F7C0C0EE0F
:10392000D0E0F4C0C6EED0E0F1C0C11581E5D80703
:1039300008F066C0C11520E5D207E0F0CE0174E0C2
:10394000969587957A95E1F783709C2F937021E087
:1039500030E002C0220F331F9A95E2F73C68382B03
:10396000CF70C695C69540E2C49FE0011124C22BDA
:10397000D32BCCC0C83ED10560F5C03ED10508F0C0
:10398000C5C0C83AD105B0F4C53AD10540F0C55A12
:10399000D0E0C15CDE4FC881D0E0D064B7C0C13098
:1039A000D10509F4B3C008F4AFC0C430D10508F4A0
:1039B000ABC0ACC0CF3BD10508F0A6C0C85AD0E020
:1039C000CC0FDD1FCE5BDE4F0990D881C02DD464B3
:1039D0009DC0C11540E2D40758F4C11581E0D80755
:1039E00008F094C0C03FD10508F48EC0D0658EC0E9
:1039F000C11520E4D20708F487C0DF70D06A86C002
:103A0000C11545E5D40708F042C0C11584E5D807C3
:103A100028F0DC2FCC27C46FD06A78C0C11523E50D
:103A2000D207B0F0CE018370992721E030E002C0C8
:103A3000220F331F8A95E2F78C2F8695869540E2F8
:103A4000849FC0011124E901C82BD92BDA685EC01C
:103A5000C11542E5D40728F4DC2FCC27C16FD06A0A
:103A600055C0CE018370992721E030E002C0220FBB
:103A7000331F8A95E2F78C2F8695869540E2849FC6
:103A8000C0011124E901C82BD92BDC683FC0C11546
:103A900089E5D807B8F4C11528E5D20728F0DC2F4E
:103AA000CC27C06FD06A32C0C11546E5D40760F597
:103AB0008C2F0E94F4168F71C82FD0E0DC2FCC27FA
:103AC000D06224C0C1158AE5D80780F48C2F8F708E
:103AD0000E94F41694E0D695C7959A95E1F7CF70B9
:103AE000D0E0DC2FCC27D069C82B10C0CE01905677
:103AF0008115904248F48D2F8F710E94F416DD27B6
:103B0000D0628F71D82B02C0C0E0D0E0CE01DF912F
:103B1000CF910895AF92BF92CF92DF92EF92FF9232
:103B20000F931F93CF93DF93EC018AE0A82E288197
:103B3000222309F497C0213009F041C089818130E6
:103B400039F48E010E5F1F4F8A810E94332008C016
:103B5000823041F48E010E5F1F4F8A810E946F1FD9
:103B6000E8017EC0833039F48E010E5F1F4F8A81D9
:103B70000E940F1FF5CF843011F0219671C02A8169
:103B8000229680E090E030E0205331092A30310560
:103B900058F4A89EA001A99E500D1124C901840FBC
:103BA000951F21962881EFCF009709F459C0EFE9BE
:103BB000FFE03197F1F700C000000197F5CFE22F49
:103BC000F0E0E658FC4FB490822F86958695869556
:103BD00090E0FC01E659FC4FE4902770F12C022E96
:103BE00002C0F594E7940A94E2F7F1E0EF22FF2493
:103BF000FC01E65AFC4FC490D12C022E02C0D59491
:103C0000C7940A94E2F731E0C322DD24FC01E65BAD
:103C1000FC4F049110E002C0159507952A95E2F734
:103C200001701127E114F10419F081EE0E946F1F59
:103C3000C114D10419F086EE0E946F1F8B2D0E94D3
:103C40003320CD2819F086EE0E940F1FEF2819F0BF
:103C500081EE0E940F1F012B19F08CE20E9433208D
:103C6000219665CFDF91CF911F910F91FF90EF903B
:103C7000DF90CF90BF90AF9008951F93CF93DF93C5
:103C800000D000D01F92CDB7DEB749835A83898117
:103C90009A81662359F0222349F00E94952F182F0C
:103CA000682F89819A810E94123003C00E94E22FFE
:103CB000182F69817A81812F0F900F900F900F90AC
:103CC0000F90DF91CF911F910C94A234CF93DF938B
:103CD000EC010E940F1FCE01805E9109089710F041
:103CE000209719F46DEA7EE102C066EA7EE1CE011A
:103CF000DF91CF910C943717CF93DF93EC01805E67
:103D00009109089710F0209719F46CE97EE102C040
:103D100062E97EE1CE010E9437178C2FDF91CF91AF
:103D20000C946F1F882339F090915D04892B809348
:103D30005D040C943B2F0895882339F090915C0426
:103D4000892B80935C040C943B2F0895882321F0E9
:103D50000E94F22E0C943B2F0895882321F00E949C
:103D6000F92E0C943B2F0895E92FE295EF704E2F1A
:103D700050E0FA013297EE30F105B0F4E059FF4F10
:103D80000C940D37803F91F018F4883E68F40EC013
:103D9000843F51F40BC0883E48F0813F29F406C0AF
:103DA00093FB882780F9089580E0089581E00895C5
:103DB0000E94D72F0E94B41E089580E090E00E94D8
:103DC000543180E090E00E943E3110925D041092E8
:103DD0005B040E943B2FE8EDF2E086E0DF011D92DC
:103DE0008A95E9F71092D5021092D202109206033A
:103DF0000C940C1910925C0480911C01882331F002
:103E00008091BE0287FF02C08EE101C086E0EEED28
:103E1000F3E0DF011D928A95E9F70C94DD1E8823FB
:103E200009F45CC0823869F40E946A3181FF56C08F
:103E300069E38CED93E00E94362E0E943B2F69E3EC
:103E40000EC0833891F40E946A3180FF47C063E559
:103E50008CED93E00E94362E0E943B2F63E58CEDA3
:103E600093E00E940E2E0C943B2F843869F40E943C
:103E70006A3182FF33C067E48CED93E00E94362EF6
:103E80000E943B2F67E4EBCF9CEF980F913A10F420
:103E9000682FE5CF90E2980F983050F4877091E04A
:103EA00001C0990F8A95EAF7892F0E94F92EDBCF7E
:103EB0009BE5980F933020F480E090E00C9454310F
:103EC00098E5980F973120F480E090E00C943E3113
:103ED000803F20F00E9436190C940C190895CF935E
:103EE000882309F4BEC0C82F8238B1F40E946A3119
:103EF00081FDB7C069E38CED93E00E94362E0E94ED
:103F00003B2F2FEF81EE94E0215080409040E1F76D
:103F100000C0000069E317C08338E1F40E946A31F1
:103F200080FD9FC063E58CED93E00E94362E0E94D9
:103F30003B2F2FEF81EE94E0215080409040E1F73D
:103F400000C0000063E58CED93E00E940E2ECF913F
:103F50000C943B2F8438B1F40E946A3182FD81C0F9
:103F600067E48CED93E00E94362E0E943B2F2FEFEA
:103F700081EE94E0215080409040E1F700C00000C5
:103F800067E4E1CF8CEF8C0F813AC0F580911C0182
:103F90008823E1F08091BE0287FF18C0EC2FE695E0
:103FA000E695E695F0E0E452FC4F8281282F30E060
:103FB0004C2F477081E090E002C0880F991F4A950E
:103FC000E2F782239323892B61F412C0EEEDF3E034
:103FD00084EE93E02191C21721F08E179F07D1F74D
:103FE00007C06C2F8CED93E00E940E2E0E943B2F99
:103FF0006C2F8CED93E00E94362EA9CF80E28C0FBF
:10400000883068F4C77081E090E001C0880FCA95DD
:10401000EAF790915C04892B80935C0498CFEBE5E0
:10402000EC0FE33040F4F0E0E15CFE4F808190E083
:10403000CF910C945431E8E5EC0FE73150F4F0E007
:10404000EE0FFF1FEE5BFE4F80819181CF910C94AC
:104050003E31C03F30F08C2F0E94431ACF910C9418
:104060000C19CF9108951F93CF93DF93182F8933A5
:1040700029F4C0919402D091950204C0C09192029B
:10408000D0919302812F0E946F1F209741F08FE9FA
:104090009FE00197F1F700C000002197F6CF812F34
:1040A000DF91CF911F910C940F1FBF92CF92DF929F
:1040B000EF92FF920F931F93CF93DF9380910104B0
:1040C00082958F7009F062C08091FE03882309F405
:1040D0005DC0C091330486E0B82E80910204C817F9
:1040E00009F454C0F090FC03E090FD03C090FF037E
:1040F000D0900004A6016E2D8F2D0E94EC30D0E0F0
:10410000811141C0BC9E8001BD9E100D1124F8019B
:10411000ED5FFB4F51815E1136C040814F1133C0BE
:104120008281811130C0E380F480EC18FD0820E02A
:104130006091FE037091FF03809100040E943D1E78
:1041400080918C0290918D02E816F906E0F480913E
:1041500001048F70806180930104F801E85FFB4FD8
:1041600080818F70806180838CEF93E00E940005D6
:10417000DF91CF911F910F91FF90EF90DF90CF9043
:10418000BF900C94FB302196C770A7CFDF91CF91E1
:104190001F910F91FF90EF90DF90CF90BF90089507
:1041A0004F925F926F927F928F929F92AF92BF9247
:1041B000CF92DF92EF92FF920F931F93CF93DF93F3
:1041C000CDB7DEB761970FB6F894DEBF0FBECDBF97
:1041D0008C0185E0F801DE011D9601900D928A9513
:1041E000E1F7D801EC901196FC90119712966C9023
:1041F0008CEFA82E83E0B82E8090FF0390900004EF
:10420000A4016091FD038091FC030E94EC30782EA4
:104210008111DBC1F801C380D4804090FE03C60148
:10422000881999094C0120E04091FC035091FD034D
:10423000442009F457C1642D7091FF03809100045C
:104240000E943D1E80918C0290918D02509001043D
:104250008816990608F013C14091FF03509100049D
:10426000B090FC03A090FD03852D807F6A2D09F09E
:10427000A5C08B2D0E94EC30811115C0AF1013C06A
:10428000BE1011C061100FC0852D8F7080618093AA
:1042900001048CEF93E00E94000580910104D80195
:1042A00015968C93B1C120E04091FC035091FD0321
:1042B0006091FE037091FF03809100040E943D1EF7
:1042C00080918C0290918D02843F914050F0A60124
:1042D0006F2D8E2D0E94EC30811115C081E0862556
:1042E00014C020E04091FC035091FD036091FE0357
:1042F0007091FF03809100040E943D1E8091910205
:1043000080FDE5CF17C080E090E080FF13C0462D10
:104310006F2D8E2D0E94CC30882361F08CEF93E0BE
:104320000E940005ECEFF3E086E0DF011D928A9524
:10433000E9F76AC1A6016F2D8E2D0E94EC30811124
:1043400003C081E0862502C080E090E0B82FB17004
:10435000CB2E80FF2AC0462D6F2D8E2D0E94CC3093
:10436000D82E811122C0ED86FE868D859E850E9405
:10437000D72F292F22952F70223018F0243078F46F
:1043800005C09F7049F0811107C00DC09F7021F0DA
:10439000F8019581907F39F0805E883020F0C80167
:1043A0000E940005DC2C7D2C2FC1662009F42BC156
:1043B0008091010481608093010426C18B2D0E94AD
:1043C000EC30811115C0AF1013C0BE1011C06110C8
:1043D0000FC0D80115965C92C8010E94000586E0C6
:1043E000F801ACEFB3E001900D928A95E1F760C05F
:1043F000ED86FE868D859E850E94D81E8823C9F194
:104400006620B9F120910104822F82958F7090E08F
:10441000029774F08091FC039091FD0398878F833D
:104420001986DB86CA862C87CE0107960E94000576
:1044300086E0F801ACEFB3E001900D928A95E1F7C8
:104440000E94552019C09090FC038090FD0340917C
:10445000FF0350910004682D892D0E94EC308823C1
:10446000B1F0ED86FE868D859E850E94D81E811155
:1044700021C0C8010E94000577247394C5C0852D12
:10448000807F09F78CEF93E00E94000598C08F10A1
:10449000E8CF9E10E6CF6110E4CFD80115965C926C
:1044A000C8010E94000586E0F50111928A95E9F79E
:1044B000742CAAC06620E9F220910104822F829513
:1044C0008F7090E002970CF4B3CF8091FC03909131
:1044D000FD039A8389831B82DD82CC822E83CE01E9
:1044E0000196A4CF60E07091FF03809100040E94C8
:1044F0003D1E80918C0290918D028816990608F0DD
:104500005EC0762C662009F4B4CFC090FC03D09036
:10451000FD034091FF03509100046D2D8C2D0E94EE
:10452000EC3081113BC0DF1039C0CE1037C020E025
:10453000A6016091FE037091FF03809100040E9428
:104540003D1E8091910282FD20C08091010480FD7A
:104550001CC082958F70482F50E041155105A9F07D
:1045600020910104D80115962C9315974F305105D1
:1045700049F08F5F982F9295907F822F8F70892BB3
:1045800015968C93C8010E94000586E0F801ACEFF7
:10459000B3E001900D928A95E1F736C0ED86FE8674
:1045A0008D859E850E94D81E811142CF8091010485
:1045B000816080930104C8010E94000525C086E047
:1045C000F50111928A95E9F71FC0662009F451CFD1
:1045D000ED86FE868D859E850E94D81E782E8823C6
:1045E00009F447CF86E0F801ACEFB3E001900D92FB
:1045F0008A95E1F78091FC039091FD030E94D72FEB
:104600000E94552001C0712C872D61960FB6F89439
:10461000DEBF0FBECDBFDF91CF911F910F91FF90F5
:10462000EF90DF90CF90BF90AF909F908F907F9052
:104630006F905F904F9008950F931F938091360372
:1046400090913703A0913803B09139038C019D01FB
:104650000670112722273327BC01CD010630110532
:104660002105310511F4686001C0677F1F910F912A
:104670000C943F301F93CF93DF93CDB7DEB7AA974B
:104680000FB6F894DEBF0FBECDBFEDE2F3E0809130
:10469000F100819343E0E533F407C9F780912E03DD
:1046A000833009F462C030F4813071F0823009F453
:1046B0009CC0B3C08A3009F488C08B3009F46DC047
:1046C000893009F0AAC020C080912D03813A09F0F9
:1046D000A4C08091E800877F8093E8008091310337
:1046E00090913203892B21F460E28AE093E003C0C9
:1046F00060E080E090E070E00E94EE358091E8009C
:104700008B778093E80089C080912D03813209F076
:1047100084C08091310390913203009719F0029781
:1047200009F07BC08091E800877F8093E80080914A
:10473000E80082FD05C0809135038111F8CF6DC07E
:104740002091F3008091F20090E0922B029729F4DF
:104750008091F1008B7F813021F48091F100809372
:1047600009038091E8008B7754C080912D03813A32
:1047700009F053C08091310390913203892B09F0E5
:104780004CC08091E800877F8093E8008091E8002A
:1047900080FFFCCF80911C0137C080912D038132B6
:1047A000E1F58091310390913203892BB1F580912D
:1047B000E800877F8093E8000E949A3580912F035C
:1047C00080931C010E94FA1E28C080912D03813223
:1047D00021F58091E800877F8093E8000E949A3558
:1047E000809130038093080318C080912D03813A93
:1047F000A1F48091E800877F8093E8008091E80031
:1048000080FFFCCF809108038093F1008091E80045
:104810008E778093E8000E949A358091E80083FFAC
:10482000E9C180912D0390912E03492F50E04A3029
:10483000510508F0DFC1FA01E258FF4F0C940D3723
:10484000803821F0823809F0D5C108C080912A0350
:1048500090912B03992389F082600FC080913103DE
:104860008F70873008F0C6C18093E9008091EB001B
:1048700085FB882780F91092E9009091E800977FE6
:104880009093E8008093F1001092F1007CC1282FF2
:104890002D7F09F0AFC1882319F0823061F0AAC1E1
:1048A00080912F03813009F0A5C1933009F080E099
:1048B00080932B032EC080912F0381112AC08091F9
:1048C00031038F702FEF280F263008F093C18093AB
:1048D000E9002091EB0020FF1CC0933021F480916F
:1048E000EB00806214C09091EB0090619093EB001C
:1048F00021E030E0A90102C0440F551F8A95E2F77C
:104900004093EA001092EA008091EB008860809367
:10491000EB001092E9008091E800877F8093E80027
:104920000E949A3567C1811165C110912F031F77CD
:104930008091E3008078812B8093E3008091E800F0
:10494000877F8093E8000E949A358091E80080FF7D
:10495000FCCF8091E30080688093E300111102C0D6
:1049600082E001C083E08093350344C180588230E7
:1049700008F040C120912F03309130032C3D53E0CB
:10498000350779F583E08A838AE289834FB7F89403
:10499000DE01139620E03EE051E2E32FF0E0509379
:1049A0005700E49120FF03C0E295EF703F5FEF7086
:1049B0008E2F90E0EA3010F0C79601C0C0968D931C
:1049C0009D932F5F243149F74FBF8091E800877F87
:1049D0008093E8006AE270E0CE0101960E94EE3515
:1049E000C0C08091310390913203432F552743304B
:1049F0005105B1F068F44130510509F40AC1423063
:104A0000510509F0F7C08BE590E0E8E1F6E057C00A
:104A10004132510589F14232510509F43CC0EAC0E6
:104A2000C901992781309105B9F070F08230910564
:104A3000D9F0039709F0DEC0E5E8F6E0E4918E2FA7
:104A400090E0E5E8F6E038C0E5ECF6E0E4918E2F82
:104A500090E0E5ECF6E030C0E9EBF6E0E4918E2F73
:104A600090E0E9EBF6E028C0E3EAF6E0E4918E2F6F
:104A700090E0E3EAF6E020C08330910508F0BAC088
:104A8000880F991FFC01E758FE4F0190F081E02D3F
:104A900089E090E014C08330910508F0ABC0FC01C0
:104AA000EE0FFF1FED58FE4F0190F081E02DDC016D
:104AB000A059BE4F8C9190E0009709F49BC02091C3
:104AC000E800277F2093E8002091330330913403DE
:104AD0002817390708F4C90140E0009789F12091AF
:104AE0003503222309F43DC02530D9F12091E80097
:104AF00023FD37C02091E80022FD2FC02091E8005F
:104B000020FFEBCF4091F3002091F20030E0342BF6
:104B1000009759F02830310540F444914093F1005A
:104B2000319601972F5F3F4FF3CF41E02830310599
:104B300009F040E02091E8002E772093E800CDCFE7
:104B40004111CDCF0AC080913503882351F08530C3
:104B500041F08091E80083FD04C08091E80082FF6D
:104B6000F2CF8091E8008B778093E80043C08038D3
:104B700009F040C08091E800877F8093E800809131
:104B80002C038093F1008091E8008E77C7CE8111CD
:104B900031C080912F03909130039927029754F5EB
:104BA0008091E800877F8093E80010912F03109395
:104BB0002C030E949A35111106C08091E30087FDF5
:104BC00002C081E001C084E08093350342E061ECE3
:104BD00081E00E94B93542E261EC84E00E94B9357F
:104BE00042E261EC82E00E94B93542E260EC83E08F
:104BF0000E94B9358091E80083FF10C08091E800E1
:104C0000877F8093E8008091EB0080628093EB00C7
:104C100005C082E190E0E3E7F6E051CFAA960FB637
:104C2000F894DEBF0FBECDBFDF91CF911F910895E5
:104C30001F920F920FB60F9211242F933F934F9311
:104C40005F936F937F938F939F93AF93BF93CF9314
:104C5000DF93EF93FF93C091E900CF708091EC0058
:104C6000D82FD17080FDD0E81092E9008091F0003B
:104C7000877F8093F00078940E943A231092E90095
:104C80008091F00088608093F000CD2BCF70C093AE
:104C9000E900FF91EF91DF91CF91BF91AF919F918B
:104CA0008F917F916F915F914F913F912F910F90D5
:104CB0000FBE0F901F901895E8EDF0E080818E7F79
:104CC00080831092E2001092DA001092E100A0EED0
:104CD000B0E08C9181608C9380818F77808319BC48
:104CE000A7EDB0E08C918E7F8C9380818F7E808346
:104CF000109207030895CF92DF92EF92FF920F93E5
:104D00001F93CF93DF93C8EDD0E088818F7E888397
:104D1000E7EDF0E080818160808384E082BF81E004
:104D20008093070388818E7F888302EE10E0F8016C
:104D300010821092DA0081EEC82ED12CF60110827A
:104D400088818F77888388818068888388818F7D38
:104D5000888319BC1092350310922C0310922B03F8
:104D600010922A0390EEE92EF12CF70180818B7FBF
:104D7000808388818160888342E060E080E00E94D7
:104D8000B935F60180818E7F8083F8018081816052
:104D90008083808188608083F70180818E7F80831B
:104DA000888180618883DF91CF911F910F91FF905F
:104DB000EF90DF90CF9008951F920F920FB60F9251
:104DC00011242F933F934F935F936F937F938F9310
:104DD0009F93AF93BF93EF93FF938091E10082FF86
:104DE00009C08091E20082FF05C08091E1008B7FC5
:104DF0008093E1008091DA0080FF2AC08091D80082
:104E000080FF26C08091DA008E7F8093DA00809147
:104E1000D90080FF18C080E189BD82E189BD09B455
:104E200000FEFDCF81E0809335038091070381115F
:104E30000FC00E945C260E947B268091E200846065
:104E40008093E20005C019BC10923503109207034D
:104E50008091E10080FF17C08091E20080FF13C0C5
:104E60008091E2008E7F8093E2008091E200806179
:104E70008093E2008091D80080628093D80019BCB2
:104E800085E0809335038091E10084FF2EC08091FE
:104E9000E20084FF2AC080E189BD82E189BD09B4B6
:104EA00000FEFDCF8091D8008F7D8093D800809147
:104EB000E1008F7E8093E1008091E2008F7E8093FD
:104EC000E2008091E20081608093E20080912C03F7
:104ED000882311F084E007C08091E30087FD02C0C1
:104EE00081E001C083E0809335038091E10083FF7E
:104EF00027C08091E20083FF23C08091E100877F7B
:104F00008093E10082E08093350310922C0380911E
:104F1000E1008E7F8093E1008091E2008E7F80939C
:104F2000E2008091E20080618093E20042E060E074
:104F300080E00E94B9358091F00088608093F00095
:104F4000FF91EF91BF91AF919F918F917F916F9161
:104F50005F914F913F912F910F900FBE0F901F9037
:104F600018952091E4003091E50095E64091EC0021
:104F7000842F817040FF23C08091E80080FD1DC018
:104F800080913503882399F0853099F08091EB006A
:104F900085FD11C04091E4005091E50024173507CC
:104FA00029F3915011F09A01E1CF84E0089582E055
:104FB000089583E0089581E0089580E00895409188
:104FC000E80042FFDDCF0895EF92FF920F931F9309
:104FD000CF93DF937C018B010E94B127811119C00F
:104FE000E70101151105A1F08091E80085FD0AC0D7
:104FF0008091E8008E778093E8000E94B127882393
:1050000081F307C089918093F10001501109E9CF24
:1050100080E0DF91CF911F910F91FF90EF90089565
:10502000CF93209135032430F9F4C091E900CF707B
:105030003091EC00232F217030FD20E8C22B22E0BC
:105040002093E9002091E80020FF0BC040E050E0F1
:1050500060E270E00E94E4278091E8008E77809300
:10506000E800CF70C093E900CF9108950895CF93E1
:10507000DF93EC01EEEEF2E0438162818C810E94CD
:10508000EF188C818F5F8C83DF91CF910895CF9340
:10509000DF93EC01EC81F0E0E253F94F4491EEEE46
:1050A000F2E0628181810E94EF188C818F5F8C8396
:1050B000DF91CF9108958F929F92AF92BF92CF923E
:1050C000DF92EF92FF920F931F93CF93DF93CDB7B1
:1050D000DEB72A970FB6F894DEBF0FBECDBF08EA41
:1050E00011E0E12CF12C8BE7C82E89E2D82E96EA4C
:1050F000A92E99E2B92E21EE822E28E2922EF801F5
:10510000D182C082B382A28295828482F58AE48AA7
:10511000BE016F5F7F4F8E2D0E949233892B29F441
:1051200089859A85F801938B828BFFEFEF1AFF0A2E
:105130000A5E1F4F88E0E816F10409F72A960FB6B9
:10514000F894DEBF0FBECDBFDF91CF911F910F91BD
:10515000FF90EF90DF90CF90BF90AF909F908F9097
:105160000895CF93DF9300D000D01F92CDB7DEB764
:105170009093660480936504811520E2920748F4B9
:105180000F900F900F900F900F90DF91CF910C9494
:10519000661E8EEF89838A831B820E94D92D8160CF
:1051A000782F9D838C8349815A816B818D810E94E8
:1051B000BE340F900F900F900F900F90DF91CF9112
:1051C00008950F931F93CF93DF938C01EB0162ED52
:1051D00073E08C2F0E949233892B09F046C0809196
:1051E0009202909193020E943331DD27C653DC4F27
:1051F0008881F80110821882833079F048F4813078
:1052000041F1823091F58091D4039091D50309C08A
:10521000843051F08530E9F028C08091D603909118
:10522000D7030097B1F01BC08091D8039091D903A8
:105230000097A9F42091D2033091D3038091D40335
:105240009091D5032115310541F0009741F4C90132
:1052500006C08091D2039091D303009731F0DF9183
:10526000CF911F910F910C94B128DF91CF911F9195
:105270000F910895CF93DF9300D000D01F92CDB748
:10528000DEB79093660480936504811520E292074F
:1052900048F40F900F900F900F900F90DF91CF91E7
:1052A0000C947C1E8EEF89838A8381E08B830E941D
:1052B000D92D8160782F9D838C8349815A816B81A0
:1052C0008D810E94BE340F900F900F900F900F9021
:1052D000DF91CF910895CF93DF93EC010E943A299B
:1052E00080919202909193020E943331CE01DF911E
:1052F000CF910C94B1280F931F93CF93DF938C0120
:10530000862F62ED73E00E949233892BD1F4C09115
:10531000D203D091D3032097A1F0F801808183308C
:1053200039F4CE010E946B29CE010E946B2902C084
:10533000843038F0CE01DF91CF911F910F910C9402
:105340006B29DF91CF911F910F9108950F931F93B8
:10535000CF93DF938C01EB0162ED73E08C2F0E9401
:105360009233892B09F06DC0DD27F80180818130EF
:1053700041F49185911115C09285992391F082E0B5
:1053800010C0823049F4F8018185811107C08285FF
:10539000811106C083E005C086E003C085E001C03E
:1053A00084E0C653DC4F88838330B1F028F4813029
:1053B00071F0823031F045C08430A9F0853079F148
:1053C00040C08091D4039091D5030097A1F58091BE
:1053D000D2039091D30320C08091D6039091D7033C
:1053E0000097E9F028C08091D8039091D9030097E5
:1053F00011F58091D2039091D303009749F00E9458
:105400006B298091D4039091D503009781F013C04C
:105410008091D4039091D503009799F00CC08091AE
:10542000D2039091D303009761F00E946B29809181
:10543000D2039091D303DF91CF911F910F910C94E0
:105440003A29DF91CF911F910F9108959091EE022B
:1054500090FF04C09695981740F003C0811105C0D5
:1054600090E0961710F40C943F1861E00C94F41738
:10547000882311F0FA0101C0FB0109948091EE022A
:1054800080FF0AC0279A85B18F7795B190682FB7B2
:10549000F894ECE3F3E00BC0ECE3F3E0118210824C
:1054A0001282339633E0E93CF307C1F7EBCF33E0E8
:1054B000E93CF30789F0319148E095B9000000C05C
:1054C00037FF85B9330F000000C000C000C085B9A8
:1054D00000C04A9591F7EBCF2FBF8FE594E001977D
:1054E000F1F700C0000008958F929F92AF92BF9293
:1054F000CF92DF92EF92FF920F931F93CF93DF93A0
:10550000EC014C81042F10E09801D8010E94223751
:105510009B01AC010E9438376B017C01E0E2F0E0B6
:10552000E01BF10BA5E5B0E09B01AC010E94383710
:105530004B015C019F01DF010E941A379B01AC0106
:105540000E9443379B01AC012C0D3D1D4E1D5F1D7C
:10555000C501B4010E94EB36822FF22E99E2921718
:1055600028F093E0299F900111240DC025E530E03B
:10557000281B3109C901880F991F280F391F37FFD0
:1055800002C02F5F3F4F35952795122F10959CE352
:10559000C92E93E0D92E00E085E5E82EEF1801FD35
:1055A00002C08E2D01C08F2D412F173E08F046EE10
:1055B00096016091F0020E9459180F5F83E0C80EB7
:1055C000D11C0F3261F70E943E2A8C81811102C0EA
:1055D00091E003C0803219F49FEF90931F019091E6
:1055E0001F01890F8C83DF91CF911F910F91FF9045
:1055F000EF90DF90CF90BF90AF909F908F900895E5
:105600000F931F93CF93DF93CCE3D3E0FE0111827E
:1056100010821282339683E0E93CF807C1F700E07C
:1056200010E080913B03082E000C990B0817190716
:10563000ACF080911E01082E000C990B8017910789
:105640006CF04091F102473E08F046EE9E016091F9
:10565000F0028091EF020E94591803C0198218824B
:105660001A820F5F1F4F23960F321105D1F60E9449
:105670003E2A80911D0190913B03980F90933B032C
:1056800020911E01280F20931E01121614F49E3241
:105690001CF0819580931D01DF91CF911F910F9197
:1056A0000895BF92CF92DF92EF92FF920F931F93D4
:1056B000CF93DF93FC01828180FF03C0DD24DA9465
:1056C00002C0DD24D3940CE313E0C0E0D0E02FE26D
:1056D000B22EF80111821082128294E0E92EF12C90
:1056E000C12C80913A038C0D80332CF06B2D0E94DD
:1056F000B536892F02C087FD815D082E000C990BFD
:10570000C817D907A9F48091F1028E9DA0018F9D41
:10571000500D11245595479555954795473E08F0EE
:1057200046EE98016091F0028091EF020E945918B4
:10573000CD0CF1E0EF1AF108A1F621960D5F1F4F95
:10574000CF32D10531F60E943E2A80913A0391E092
:10575000D91206C0811102C08EE207C0815005C077
:1057600090E00196BE010E94D73680933A03DF9104
:10577000CF911F910F91FF90EF90DF90CF90BF904E
:105780000895EF92FF921F93CF93DF93EC018CE388
:10579000E82E83E0F82E10E04091F102473E08F039
:1057A00046EE8C8197016091F002810F0E9459189A
:1057B0001B5F83E0E80EF11C1B3E71F70E943E2A3E
:1057C0009A818C8190FF02C08F5F01C081508C83D1
:1057D000DF91CF911F91FF90EF9008959091EE028D
:1057E00090FF0CC0ECE3F3E0818360834283339647
:1057F00093E0E93CF907C1F70C943E2A08950F9312
:105800001F93CF93DF9300D01F92CDB7DEB78C01EB
:105810008091C90381110AC09E012F5F3F4F46EE60
:105820006FEF0E9459188A818093C903F80184811F
:10583000813051F028F0823061F44091C9030AC0F0
:105840008091C90340E007C06091C90340E080E057
:1058500003C040E080E060E00E94EE2BF80184810C
:1058600090E0019663E070E00E94D73684830F9049
:105870000F900F90DF91CF911F910F9108955F923C
:105880006F927F928F929F92AF92BF92CF92DF9250
:10589000EF92FF920F931F93CF93DF9300D01F924D
:1058A000CDB7DEB7082F762E142F622E9091EE0220
:1058B00090FF74C0E92FE695AE2FB0E0A158BE4F1F
:1058C0008C918093EC029E7F923081F4473E08F0E9
:1058D00046EE9E012F5F3F4F672D802F0E94591883
:1058E0004B8169818A810E94EE2B46C0823019F477
:1058F0001091F10241C0863019F40091EF023CC0D2
:105900008930D9F38931C1F5E9518E2F8170582E34
:10591000E695F0E0E753F94FA590B4908CE3C82EDC
:1059200083E0D82EE12CF12CBB249FE2892E912C10
:10593000AE9CC001AF9C900DBE9C900D1124B40193
:105940000E94C336802F511002C0860F01C0861BF3
:10595000412F173E08F046EE9601672D0E94591818
:105960008FEFE81AF80A83E0C80ED11C8FE2E81620
:10597000F104F1F60E943E2A0093EF027092F002C9
:105980001093F102662051F06091EE027091EF02E7
:105990008091F0029091F1020E94C0170F900F9039
:1059A0000F90DF91CF911F910F91FF90EF90DF90BB
:1059B000CF90BF90AF909F908F907F906F905F90AF
:1059C000089580910903089580E00895CF93DF93AF
:1059D00000D01F92CDB7DEB790913503943011F50A
:1059E00089837B836A839093E9008FEF9091E8002D
:1059F000815095FD06C095ED9A95F1F70000811153
:105A0000F5CF8091E80085FF0DC040E050E063E0F5
:105A100070E0CE0101960E94E4278091E8008E7725
:105A20008093E8000F900F900F90DF91CF91089531
:105A3000BC0184E00C94E62CBC0183E00C94E62CC1
:105A400024E02093E9002FEF3091E800215035FD4C
:105A500006C035ED3A95F1F700002111F5CF209100
:105A6000E80025FF0BC040E050E066E070E00E94D7
:105A7000E4278091E8008E778093E8000895CF9323
:105A8000DF9320911C01222339F02091BE0227FFD1
:105A900003C060E224E002C068E021E02093E90056
:105AA0002FEF3091E800215035FD06C035ED3A95D5
:105AB000F1F700002111F5CF2091E80025FF1DC06E
:105AC000EC0180911C01811105C040E050E068E0CC
:105AD00070E003C070E040E050E0CE010E94E42797
