:100000000C9493030C94CB030C94CB030C94CB0370
:100010000C94CB030C94CB030C94CB030C94CB0328
:100020000C94CB030C94CB030C94DA280C949628F4
:100030000C94D7290C94CB030C94CB030C94CB03D6
:100040000C94CB030C94CB030C94CB030C94CB03F8
:100050000C94CB030C94B3290C94CB030C94CB03DA
:100060000C94CB030C94CB030C94CB030C94CB03D8
:100070000C94CB030C94CB030C94CB030C94CB03C8
:100080000C94CB030C94CB030C94CB030C94CB03B8
:100090000C94CB030C94CB030C94CB030C94CB03A8
:1000A0000C94CB030C94CB030C94CB0305010902F5
:1000B000A10185020901A100050919012905150001
:1000C00025019505750181029501750381010501E1
:1000D000093009311581257F950275088106093897
:1000E0001581257F950175088106050C0A380215D2
:1000F00081257F950175088106C0C005010980A191
:1001000001850319012AB700150126B7009501756D
:10011000108100C0050C0901A101850419012AA064
:1001200002150126A002950175108100C005010984
:1001300006A1018506050719E029E71500250195A7
:1001400008750181020507190029EF1500250195A1
:10015000F0750181020508190129059505750191C0
:1001600002950175039101C00660FF0961A10109B3
:1001700062150026FF0095207508810209631500AD
:1001800026FF00952075089102C005010906A1010E
:10019000050719E029E71500250195087501810279
:1001A0009501750881010507190029FF150026FF33
:1001B0000095067508810005081901290595057542
:1001C000019102950175039101C00000000000003B
:1001D000000000000000000000000000000000001F
:1001E00000000000000000000000000000007E0F82
:1001F00000D4FFFFFFC700000078000000000000EF
:1002000000002A2B28000000000000000000000071
:10021000000000000029000000002C1E34202122D4
:1002200024342627252E362D3738271E1F2021223D
:10023000232425263333362E37381F0405060708B6
:10024000090A0B0C0D0E0F101112131415161718A6
:10025000191A1B1C1D2F3130232D350405060708E4
:10026000090A0B0C0D0E0F10111213141516171886
:10027000191A1B1C1D2F3130354CFD377A585A0086
:100280000004E6D6B4460200210116000000742FD7
:10029000E5A3E003B101605D003D888AC6942FC2EA
:1002A000C42299E96F35A18BD32EA496F0A82D18FE
:1002B000E6B861E579FB6C89EE335C70C2360EBD41
:1002C0009C26AE0722A24E209433081C914FB9F011
:1002D00063FA786278E4D92368CBD4AE39FD6441FF
:1002E000979C06A28D14D722D70E41F1CBCFFBC429
:1002F00031326FFBD8B37E16A39B303B80196F4B16
:10030000ED02F901C692382F4FEDF03E975C3CB2FA
:10031000340FB2A906574466C049C332623E61B881
:1003200053D7906360999C4546803D91C85A352CBF
:10033000030C1B552E996321FE5398D52033AC2A0C
:10034000BA854A61FE3FF4A0E632721BF9DA44C175
:10035000F8A71FD1A37BC2FBE9C11030CAB5141E98
:100360007F61ECFA7C922C624CEF37F1D7121BE3E1
:10037000B40E55BCD137402B05A4AAC68442EFFE6B
:100380002C8EE5545312A81326A553FC62C7987708
:10039000BC885725447FACDAFB21790B1B7B5F645B
:1003A0003C164C6C413223B4FAD8CFE3B0FA3EE5A8
:1003B000CBF5782AD3E6ABBF241D43DC1ADF547A91
:1003C000081BBC7C4A3E6AFAA992BDAA079B0BB7E0
:1003D000BCBECDC10FBE75A3755A91EEB29908147B
:1003E0006C267DC0B6715C5DB662D535D0B6C86787
:1003F000A9B7DA96FA1168FB5C000EE7DA52162606
:100400002A800001FC02B20700004BCEF169B1C4A2
:1004100067FB020000000004595A000000000100C0
:1004200002000200010000010101010101010101BE
:100430000202020202020202020303030303030395
:100440000304040404040404050505050506060662
:100450000606070707070708080808090909090A1F
:100460000A0A0B0B0B0C0C0C0D0D0D0E0E0E0F0FC4
:100470000F10101111111212131314141515161652
:100480001717181819191A1A1B1B1C1D1D1E1E1FC1
:100490002020212222232424252626272829292A10
:1004A0002B2C2D2D2E2F3031323233343536373838
:1004B000393A3B3C3D3E3F40414243444546474834
:1004C000494A4C4D4E4F50515354555658595A5B0A
:1004D0005D5E5F616264656668696B6C6D6F7072AA
:1004E000737577787A7B7D7E8082838587888A8C16
:1004F0008E8F91939596989A9C9EA0A2A3A5A7A94A
:10050000ABADAFB1B3B5B7BABCBEC0C2C4C6C9CB40
:10051000CDCFD1D4D6D8DBDDDFE2E4E7E9EBEEF0F6
:10052000F3F5F8FAFDFF14001A0008001500170093
:100530001C0018000C001200130004001600070035
:1005400009620A000B000D720E000F0034001D003E
:100550001B000600190005001100100036003700CE
:10056000380000000000E00000002A412C4200009A
:10057000E600A80000001E001F002000210022004D
:10058000230024002500260027001E021F0220024F
:10059000210222022302240225022E002D00310016
:1005A0002D022F022F0026022702300030023700D2
:1005B0003500000000000100000001000100000003
:1005C0000100AE000000B6004E0052004B00B70024
:1005D000B6004E0052004B00B7004A0050005100D8
:1005E0004F004D004A00500051004F004D00E10007
:1005F0007B007C007D007A002D00870036003700EC
:10060000E500000000000100000001000100000002
:100610000100B5000000005C6E006F00700071000A
:100620003A003B003C003D00A600C35CC55CC75CD3
:10063000C95C72003E003F00400041004800C45CBD
:10064000C65CC85CCA5C73004200430044004500BD
:100650003100000000000100000001000100000066
:100660000100C25C000009025B00030100A0FA095E
:1006700004000001030101000921110100012240D1
:1006800000070581030800010904010002030000BE
:100690000009211101000122220007058203200028
:1006A0000107050303200001090402000103000003
:1006B0000009211101000122BC000705840320006C
:1006C000011201000200000008317445D603000148
:1006D0000203011C037600690061006C003A0066A9
:1006E0000036003400630032006200330063000013
:1006F0000016034C00650020004300680069006696
:10070000006600720065000000160374006F006D43
:100710000069006E00610062006F00780031000027
:1007200000040309040011241FBECFEFDAE0DEBF8E
:10073000CDBF04B603FE18C0809105059091060553
:10074000A0910705B09108058730904BA740B04BAA
:1007500059F41092050510920605109207051092A3
:100760000805E0E0F8E3099511E0A0E0B1E0E2ED72
:10077000F7E602C005900D92A03DB107D9F725E03C
:10078000A0EDB1E001C01D92A530B207E1F70E94D3
:10079000FE290C94C3330C940000E8EDF0E0808156
:1007A0008E7F80831092E2001092DA001092E100B6
:1007B000A0EEB0E08C9181608C9380818F778083F4
:1007C00019BCA7EDB0E08C918E7F8C9380818F7ED9
:1007D00080831092D10408952091E4003091E500C7
:1007E00095E6A9012091EC00822F817020FF06C0C0
:1007F0008091E80080FF06C080E008952091E80025
:1008000022FD1AC08091FF04882389F0853089F089
:100810008091EB0085FD0FC02091E4003091E50050
:1008200042175307F9F29150E1F684E0089582E00F
:10083000089583E0089581E00895EF92FF920F9369
:100840001F93CF937C018B010E94EC03C82F811171
:1008500017C08091E80085FD0BC08091E8008E777D
:100860008093E8000E94EC03882399F3C82F08C006
:10087000F70181917F018093F1000150110949F73F
:100880008C2FCF911F910F91FF90EF900895CF93F0
:10089000FC018091FF04843001F5C091E900CF7024
:1008A0002091EC00922F917020FD90E8C92B82E0FE
:1008B0008093E9008091E80080FF0CC050E040E0A8
:1008C00060E270E0CF010E941D048091E8008E7705
:1008D0008093E800CF70C093E900CF910895809194
:1008E000F70487FF13C08091E80082FF06C0809163
:1008F000E8008B778093E80004C08091FF048111A9
:10090000F2CF08958091FF048823D9F38091E80005
:1009100080FFF8CF8091E8008E77ECCF982F9093EE
:10092000E900242F762F50E0891731F07091EC0008
:100930002091ED005091F00021FD07C09F5F97309E
:1009400071F78093E90081E008953091EB003E7FDC
:100950003093EB003091ED003D7F3093ED0030910E
:10096000EB0031603093EB007093EC002093ED00CE
:100970005093F0002091EE0027FDE0CF80E0089535
:10098000CF92DF92EF92FF920F931F93CF93DF935B
:10099000C8EDD0E088818F7E8883E7EDF0E080812C
:1009A0008160808384E082BF81E08093D10488816C
:1009B0008E7F888302EE10E0F80110821092DA0038
:1009C00081EEC82ED12CF601108288818F77888322
:1009D00088818068888388818F7D888319BC109284
:1009E000FF041092F6041092F5041092F40490EEB5
:1009F000E92EF12CF70180818B7F808388818160D3
:100A0000888342E060E080E00E948E04F6018081ED
:100A10008E7F8083F80180818160808380818860FF
:100A20008083F70180818E7F8083888180618883C5
:100A3000DF91CF911F910F91FF90EF90DF90CF90BA
:100A40000895FC018091FD049091FE04861797079C
:100A5000A0F06115710529F49091E8009E779093BC
:100A6000E80090E06115710551F4911108C0809182
:100A7000E80082FF34C080E00895BC01F2CF80918D
:100A8000FF048823C1F18530C1F18091E80083FD26
:100A900030C08091E80082FDEACF8091E80080FFBD
:100AA000E1CF8091F3002091F200382F611571059C
:100AB00019F02830310558F091E02830310509F05F
:100AC00090E02091E8002E772093E800CBCF819131
:100AD0008093F100615071092F5F3F4FE7CF809104
:100AE000FF04882341F0853041F08091E80083FFC6
:100AF000BECF81E0089582E0089583E008950895CF
:100B00008091D30408959C014FB7F8948091C80454
:100B10009091C904A091CA04B091CB044FBF821B2D
:100B2000930B08952FB7F8946091C8047091C9048D
:100B30008091CA049091CB042FBF08952FB7F894E9
:100B40008091C8049091C904A091CA04B091CB04CB
:100B50002FBF08952091C5043091C6042817390786
:100B600071F09093C6048093C504E091C304F091A2
:100B7000C404309721F00084F185E02D0994089594
:100B80002091C1043091C2042817390771F0909365
:100B9000C2048093C104E091C304F091C40430976F
:100BA00021F00680F781E02D09940895E091C304B7
:100BB000F091C404309721F00190F081E02D099468
:100BC00080E00895DC016091090480910A04962F69
:100BD000891301C00895292F30E0F901EE0FFF1F9E
:100BE000EF5FFB4F408151814A175B07A1F487E01B
:100BF0008A9FA0018B9F500D112449525C4F81E0C8
:100C0000FA0184839613E6CF2F5F3F4F237033277B
:100C10002093090408952F5F3F4F922F9370D8CFF0
:100C20001092740310927303E7EDF3E08581811154
:100C300002C014821682379684E0E130F807B1F7DB
:100C4000089581152CE5920741F420916D033091B0
:100C50006E03232B11F490E080E00895FA018111D6
:100C600001C0FB010994EEEFF2E0818360834283CF
:100C7000339693E0EF31F907C1F70895FC01EE0FC9
:100C8000FF1FE80FF91FE250FD4F6183408322836D
:100C90000895E8EFF2E024813AE0231B08F420E015
:100CA00024838091F70281608093F7020895E8EF32
:100CB000F2E024813AE0230F08F42FEF248380919F
:100CC000F70281608093F70208959091F802937083
:100CD00071F08093F9026093FA02473908F046E90F
:100CE0004093FB028091F702822B8093F7020895D4
:100CF000E8EFF2E0438128E0421B08F440E0818104
:100D000021E0628190E00C946506E8EFF2E0438117
:100D100028E0420F08F44FEF818121E0628190E0EA
:100D20000C946506E8EFF2E0628128E0621B08F4AB
:100D300060E0818121E0438190E00C946506E8EF5A
:100D4000F2E0628128E0620F08F46FEF818121E018
:100D5000438190E00C946506E8EFF2E0818121E0A8
:100D6000438162818850990B0C946506E8EFF2E0AC
:100D7000818190E021E04381628108960C946506B0
:100D80009091F802937061F081110BC09460909380
:100D9000F802109213018091F702862B8093F702DC
:100DA0000895833010F09860F2CF880F880F982B49
:100DB000EECF8091F80286958695815009F482E005
:100DC00061E00C94C0068091F802869586958F5F4D
:100DD000833008F081E061E00C94C0060C94330687
:100DE0000C943E06AF92BF92CF92DF92FF920F9388
:100DF0001F93CF93DF93362F472FE82FF0E0EA5D64
:100E0000FB4F71110FC0E4918E2F2E2F6E2F722F7A
:100E1000DF91CF911F910F91FF90DF90CF90BF9006
:100E2000AF900895C72FD0E02491F22E022F10E04A
:100E300056E0659FC0011124EFEFF0E0BF010E9472
:100E4000FE32832F90E0880F991F35E5369FD00141
:100E5000379FB00D11248A1B9B0B982F990F980F69
:100E60006F01CC1ADD0AC09ED001C19EB00DD09E8C
:100E7000B00D11248B2F499FA0011124452F552718
:100E80006F01C41AD50AC09EA001C19E500DD09E0C
:100E9000500D11245F01A91AB108AC9E6001AD9EEE
:100EA000D00CBC9ED00C1124CD2CDD24EC19FD09F6
:100EB000E09FE001E19FD00DF09FD00D1124ED2FB8
:100EC00062307105A1F050F46115710509F49ECFEF
:100ED0006130710581F0EB2F852F98CF643071055B
:100EE00069F080F06630710509F490CFF4CFE22FFD
:100EF0002B2F8D2F8BCFE22F252F88CFEB2F822FFB
:100F00002D2F84CF2B2F8F2DE52F80CFCF92DF92E7
:100F1000EF92FF920F931F93CF93DF93182F80913F
:100F20000F01811324C09091F802937020910E015B
:100F300030E081E09217130609F480E0817080931D
:100F400012018091FD0290911101981739F0809360
:100F5000110140E060E080E00E94EE06113099F05F
:100F6000112339F0123009F457C080E029C081E024
:100F7000E5CF80911201882319F140E060E080E024
:100F80000E94EE06F2CF80911001C82FCC0FC80F3F
:100F900003E00C0FF02E0C3010F02BE0F22E6091DD
:100FA000F9027091FA028091FB020E94F206E62E8D
:100FB000D72EC82ED0E0CF15F8F081E00B30A8F680
:100FC000909110019F5F9093100181110CC082E0FD
:100FD0008093130180911201811105C0111103C08A
:100FE00083E080931301DF91CF911F910F91FF90C8
:100FF000EF90DF90CF900895FE01E858FE4F86AD48
:1010000090911101892331F02C2D4E2D6D2DCE01A3
:101010000E94F0062196CFCF80911001C82FCC0FEF
:10102000C80F03E00C0FF02E0C3010F09BE0F92EEF
:10103000D0E0CF1510F6FE01EE0FFF1FEC0FFD1FE5
:10104000EC55FD4F6081718182810E94F206462F2E
:10105000282F672FCE010E94F0062196EACF0E942A
:101060009E059C019091A0028091A102982B21F0F5
:1010700030939D0220939C029091A2028091A30242
:10108000982B21F030939B0220939A02E091C304A5
:10109000F091C404309749F082E080939E0204806E
:1010A000F581E02D8EE992E0099408959091A002D7
:1010B000803F59F48091A10287FF0DC01092A102D8
:1010C00091110BC01092980208C0813F81F4809169
:1010D000A10218169CF3992381F08091A2029091AD
:1010E000A302892B09F064C0109297020895823FF1
:1010F00049F497FFF0CF1092A0028091A1028111D4
:10110000ECCFE0CF833F19F41916ACF3E4CF209174
:10111000A202893F29F41216F4F61092A202DBCF44
:101120008A3F19F427FFD7CFF8CF2091A3028B3F36
:1011300029F427FFD0CF1092A302CDCF8C3F19F412
:101140001216CCF3C8CF843F31F480919F028E7F7A
:1011500080939F02C0CF853F21F480919F028D7FB5
:10116000F7CF863F21F480919F028B7FF1CF873F9D
:1011700021F480919F02877FEBCF883F21F48091FB
:101180009F028F7EE5CF8D3F31F4809199028E7F53
:1011900080939902A0CF8E3F21F4809199028D7F98
:1011A000F7CF8F3F09F097CF809199028B7FF0CFD7
:1011B00008958091990280FD16C081FD16C082FDC0
:1011C00016C0809197028823A1F0883280F428E02D
:1011D000829FC001112468E270E00E941233862FC2
:1011E000672B39F0089582E0089584E0089588E03F
:1011F000089581E008958091990280FD14C081FDD9
:1012000014C082FD16C080919802882381F08E312F
:1012100080F420E5829FC00111246EE170E00E94FD
:101220001233862F089584E1089588E2089588E0B6
:10123000089580E50895803F31F40E94FB08819570
:101240008093A1020895813F19F40E94FB08F8CF12
:10125000823F31F40E94FB0881958093A00208959B
:10126000833F19F40E94FB08F8CF893F29F40E94BC
:10127000D9088093A20208958A3F21F40E94D908D8
:101280008195F7CF8B3F31F40E94D90881958093E7
:10129000A30208958C3F19F40E94D908F8CF843F27
:1012A00031F480919F02816080939F020895853F71
:1012B00021F480919F028260F7CF863F21F48091D4
:1012C0009F028460F1CF873F21F480919F02886064
:1012D000EBCF883F21F480919F028061E5CF8D3F65
:1012E00031F48091990281608093990208958E3F34
:1012F00021F4809199028260F7CF8F3FB9F78091F6
:1013000099028460F1CF80E00895F894E82FE29587
:10131000EF70F0E031A1282F2F7081E090E001C044
:10132000880F2A95EAF7982F9095932391A392A17D
:10133000892B82A3789408959091CC0492FF06C0E3
:10134000282F28712830F9F4877F846093FF06C026
:10135000282F28712831F1F4877E84612091CD04F3
:1013600020FF06C0382F38713830D9F4877F81606C
:1013700021FF06C0282F28712831D1F4877E816192
:1013800094FD877E0895282F24712430F9F68B7FF1
:101390008860DCCF282F2471243101F78B7E88618F
:1013A000DDCF382F3171313019F78E7F8860E0CF73
:1013B000282F2171213121F78E7E8861E1CFCF93D3
:1013C000DF93EC0182389105A9F1D8F581339105BD
:1013D00009F496C048F58932910509F48AC08A97C4
:1013E00009F495C0C11521E5D20708F0BCC0C115AC
:1013F00030E5D30708F014C1C83ED10508F09CC001
:10140000C13ED10560F5C83AD10508F087C0C53A9C
:10141000D10508F0FDC0C130D10509F12097F9F0E0
:10142000C430D105E0F440C08533910509F45AC0B9
:10143000C997C1F68091CC04837089F0C0EED0E0EA
:101440000EC0833E910599F170F4803E910501F143
:10145000823E910539F68091CC0482FD21C0CE01F7
:10146000DF91CF910895863E910561F1873E910508
:1014700071F1843E910509F0B5CF8091CD0481FFD3
:10148000EECF8091CC04C7EED0E084FD0DC0E7CF55
:101490008091CC0480FD12C19091CD0490FFDFCFEC
:1014A000C3EED0E084FFDBCFD0E0C0E0D8CF8091A6
:1014B000CC0482FD06C19091CD0490FDBFCF84FF86
:1014C000CECFF2CF8091CC0483FDDDCFC8CF809109
:1014D000CC0483FDF9C09091CD0491FFF0CFC4EE10
:1014E000D0E0BDCF8091CC0485FFB9CFC9E2D0E078
:1014F000B6CF8091CC0485FFB2CFC5E3D0E0AFCFAB
:101500008091CC0486FFABCFCAE2D0E0A8CF809117
:10151000CC0486FFA4CFC1E3D0E0A1CFCF3BD1055F
:1015200018F6C85AD0E0CC0FDD1FC45DDE4F09901D
:10153000D881C02DD46493CFC11540E2D40758F4AC
:10154000C11581E0D80708F08ACFC03FD10508F463
:10155000ABCFD06584CFC11590E4D90708F4A4CFF0
:10156000DF70D06A7CCFC11525E5D20700F5C11523
:1015700034E5D30708F08AC0C11543E5D40708F065
:1015800071C0C11582E5D80708F467C0CE01837029
:10159000992721E030E002C0220F331F8A95E2F73D
:1015A000C695C69580E2C89FE001112452C0C115BE
:1015B00099E5D907A8F4C11528E5D20708F06BC052
:1015C000C11536E5D30708F06FCF8C2F0E949C0918
:1015D000C82FD0E0DC2FCC27CC27DF71D0623FCFE3
:1015E000C1154AE5D40708F45BC0CE0190568115B9
:1015F000904208F059CF8D2F8F710E949C0990E086
:10160000982F882788279F719C012C2BE901E6CF12
:10161000C55AD0E0C75DDE4FC881D0E0D0641FCF8F
:10162000CE01E4E096958795EA95E1F783702C2F3B
:1016300026952695237040E2249F90011124382B93
:101640008C2F8370C1E0D0E002C0CC0FDD1F8A95E3
:10165000E2F7C22BD32BDC6802CFDC2FCC27C16F83
:10166000D06AFDCECE018370992721E030E002C020
:10167000220F331F8A95E2F7C695C69590E2C99F5F
:10168000E0011124C22BD32BDA68E9CEDC2FCC2762
:10169000C46FD06AE4CEDC2FCC27C06FD06ADFCE17
:1016A0008C2F8F700E949C0934E0D695C7953A958F
:1016B000E1F7CF709C2FEC01D069D1CEC9E3D0E027
:1016C000CECEC2EED0E0CBCEC6EED0E0C8CE80917A
:1016D0007202882331F010927202109271021092FD
:1016E00070020895809590910E04982390930E04B3
:1016F0000895809590910D04982390930D0408957A
:1017000010924F0210924E0210924D020895809155
:101710004C02811110924C02089590911501992369
:10172000D1F09091CC0497FF16C0E82FE695E6958E
:10173000E695EE31E0F4F0E0EE52FE4F282F2770F0
:1017400081E090E001C0880F2A95EAF780959281A8
:10175000892382830895E4EDF1E09191891303C018
:10176000DF0111971C9291E0EA3DF907B1F7089566
:10177000909115019923C1F09091CC0497FF14C06A
:10178000E82FE695E695E695EE31F8F4F0E0EE52B6
:10179000FE4F877021E030E001C0220F8A95EAF702
:1017A0008281822B82830895A4EDB1E0EFEF90E077
:1017B0002D91821751F0EF3F19F4211101C0E92F4B
:1017C0009F5F9630A9F7EF3F09F408950E2E000CA5
:1017D000FF0BEE52FE4FE6CF80914B0290910A0232
:1017E000981301C008958F5F8770FACF9E3F49F12B
:1017F000E82F2AE0929FE00D11249E2F9770E69526
:10180000E695E69583E0E89FF0011124ED50FE4F48
:1018100050E040E080E0219130E0092E02C0369592
:1018200027950A94E2F721703327042E01C0220F76
:101830000A94EAF7822B4F5F5F4F4330510559F707
:10184000089580E008959E3F69F1E82F2AE0929F75
:10185000E00D11248E2F877041E001C0440F8A955E
:10186000EAF7E695E695E69583E0E89FF001112416
:10187000ED50FE4F30E020E070E05191DF01119714
:10188000CB01022E02C0969587950A94E2F78170EB
:1018900081958527842385278C932F5F3F4F2330A5
:1018A000310559F70895982F92959F7011F0892F5F
:1018B00094E0282F2695269511F09E5F822F86951D
:1018C00009F09F5F892F08959C013A9521153F41AA
:1018D00050F5FC01EE27F170BC0166277270AC0177
:1018E000442754709C012227387094FF0EC080E179
:1018F000EF2B09F480E0672B09F08062452B09F09B
:101900008064232B89F08068089581E0EF2B09F42F
:1019100080E0672B09F08260452B09F08460232B5F
:1019200019F08860089580E008950F931F93CF9376
:10193000DF93762F1091FB02411708F4142FC22F6A
:10194000D0E0013009F043C02091F2023091F3025F
:101950009091FC0296959695969550E040E0299FCF
:10196000412D399F400D511D1124242F26FD4095F6
:10197000342F3F7026FD3F5F46954695469546704D
:10198000E42FF0E0EF5DFE4F9181939F902D312D7C
:10199000112492959F703295307F932B3081930F55
:1019A00027FD919597FD9195990F392F319F312DF5
:1019B0001124682F832F0E94F206462F282F672FAD
:1019C000CE01DF91CF911F910F910C94F006682FFB
:1019D000812FF1CF8093CE047093D0046093CF0415
:1019E0008091FF048430F9F48093E9008FEF9091A7
:1019F000E800815095FD06C095ED9A95F1F700003D
:101A00008111F5CF8091E80085FF0DC050E040E0E6
:101A100063E070E08EEC94E00E941D048091E80089
:101A20008E778093E8000895BC0184E00C94EA0C62
:101A3000BC0183E00C94EA0C9C0184E08093E900F3
:101A40009FEF8091E800915085FD06C085ED8A9555
:101A5000F1F700009111F5CF8091E80085FF0CC0EF
:101A600050E040E066E070E0C9010E941D048091F2
:101A7000E8008E778093E8000895CF93DF93EC0120
:101A8000809115018823B1F18091CC0487FF32C089
:101A900060E284E08093E9008FEF9091E80081504C
:101AA00095FD06C095ED9A95F1F700008111F5CFEF
:101AB0008091E80085FF1BC08091150170E050E027
:101AC00040E0811104C050E040E068E070E0CE01E9
:101AD0000E941D048091E8008E778093E80080E2E8
:101AE000FE01A4EDB4E001900D928A95E1F7DF913B
:101AF000CF91089568E081E0CDCF81E08093E00050
:101B000080E28093D8001092C9008FE19EE4019793
:101B1000F1F700C0000087E090EBDC018093050541
:101B200090930605A0930705B093080588E19CE013
:101B30000FB6F894A895809360000FBE9093600054
:101B4000FFCF809A31B33E7F21B321604FB7F89425
:101B50008EEF92E0FC015191CF0168E021BB0000C3
:101B600000C057FF31BB550F000000C000C000C0CF
:101B700031BB00C06A9591F7F3E08F319F0751F7B1
:101B80004FBF8FE594E00197F1F700C00000089582
:101B9000CF93DF93C3E0D2E060E0CE010E948733B1
:101BA0002196C11584E0D807B9F7DF91CF91089548
:101BB0001F93CF93DF93122F8430D8F4611119C093
:101BC0004230B8F494E0899FE001112450E0440FC2
:101BD000551FC40FD51FC959DE4F632FCE010E9478
:101BE0008733612FCE010196DF91CF911F910C9425
:101BF0008733DF91CF911F9108950F931F93CF9358
:101C0000DF938901843048F5643038F54A3028F58F
:101C100021153C4531F420916D0330916E03232B47
:101C2000E1F0C42FD0E0CC0FDD1F94E1699FC00D1F
:101C3000D11D112490E5899FC00DD11D1124612F64
:101C4000CE0187960E948733602FCE018896DF9160
:101C5000CF911F910F910C948733DF91CF911F91FA
:101C60000F910895CF93C82F6FEF811168E383E23E
:101C700090E00E9487336FEFC1116EE084E290E044
:101C80000E9487336FEFC11163EA85E290E0CF9144
:101C90000C9487337F928F929F92AF92BF92CF9294
:101CA000DF92EF92FF920F931F93CF93DF93CDB705
:101CB000DEB764970FB6F894DEBF0FBECDBFA0901D
:101CC0006D03B0906E0381E090E090936E0380937B
:101CD0006D0386E2C82E85E0D82E10E0760100E084
:101CE00015C0F40125913491472D602F812F0E945A
:101CF000FD0D82E0880E911C7394EAE07E12F1CF14
:101D0000F4E1EF0EF11C0F5F043019F04701712C64
:101D1000E8CF21E030E040E060E0812F0E94D80D64
:101D200021E030E041E060E0812F0E94D80D1F5F8C
:101D300080E5C80ED11C143089F61A8219821C82E3
:101D40001B821E821D8218861F8288EC90E09A8773
:101D5000898707E711E04AE050E0B801CE0101961B
:101D60000E94AB33065F1F4F073CE1E01E0799F767
:101D70007E01FBE0EF0EF11C8AE0F70111928A95DB
:101D8000E9F74AE050E0B801C7010E94AB33065FB3
:101D90001F4F0330F2E01F07A1F7B0926E03A0922D
:101DA0006D0364960FB6F894DEBF0FBECDBFDF9112
:101DB000CF911F910F91FF90EF90DF90CF90BF9048
:101DC000AF909F908F907F90089580E00E94320E98
:101DD00060E086E290E00E9487330E944A0E0E94F3
:101DE000C80D81E00C94320E9B01883070F49AE0AB
:101DF000899FB001112469587E4F4AE050E0C90123
:101E00000E94593390E080E008958FEF9FEF08958E
:101E10008F929F92AF92BF92CF92DF92EF92FF92FA
:101E20000F931F93CF93DF93CDB7DEB72A970FB6EB
:101E3000F894DEBF0FBECDBF01E114E0F12CE12C20
:101E400080EFC82E87E2D82E9AE1A92E98E2B92E0B
:101E50002BEF822E26E2922EF801D182C082B3822D
:101E6000A28295828482F58AE48ABE016F5F7F4FE9
:101E70008E2D0E94F40E892B29F489859A85F8010C
:101E8000938B828BFFEFEF1AFF0A0A5E1F4F88E0E9
:101E9000E816F10409F72A960FB6F894DEBF0FBED4
:101EA000CDBFDF91CF911F910F91FF90EF90DF9009
:101EB000CF90BF90AF909F908F9008950F931F93F6
:101EC000CF93DF93843000F561111EC024E0829F20
:101ED0008001112450E0440F551F040F151F0959AC
:101EE0001E4FC8010E946933C82FD0E0DC2FCC27D9
:101EF000C80101960E9469339E01282BC901DF9118
:101F0000CF911F910F91089590E080E0F8CF0F934B
:101F10001F93CF93DF93843030F5643020F54A303F
:101F200010F5C42FD0E0CC0FDD1F24E1629FC00D5F
:101F3000D11D112430E5839FC00DD11D1124CE0188
:101F400087960E946933082F10E0102F0027CE01DA
:101F500088960E9469339801282BC901DF91CF919F
:101F60001F910F91089590E080E0F8CF462F2091C7
:101F7000710330917203232B91F47E3F39F46E3F4D
:101F800071F480916F03909170030895843038F458
:101F9000743028F46A3018F4672F0C94870F90E09F
:101FA00080E00895CF92DF92FF920F931F93CF931B
:101FB000DF936C010091010580910005082BC7E0BB
:101FC000D0E010E0FC2EC8010C2E02C0959587953C
:101FD0000A94E2F780FD0CC02197A0F7F12C8F2D19
:101FE000DF91CF911F910F91FF90DF90CF900895D7
:101FF000B6018C2F0E94B60F0E94DF09019761F392
:10200000EECFCF93DF93EC010E94D20FBE010E946E
:10201000B60FDF91CF910C94DF09FC018681978187
:10202000009791F00E94DF0992959F709630B9F069
:1020300080F4925F9F70923080F4803F19F058F4E2
:10204000883E58F481E00895808191810E940110BA
:10205000EBCF9A5FEFCF843FA9F380E00895883EED
:1020600088F3813FD1F7EECF1F93CF93DF9300D05A
:1020700000D00F92CDB7DEB7FC0126813781211544
:10208000310541F525E0DE01119601900D922A956A
:10209000E1F7FC01228189819A812223B9F066232C
:1020A000A9F00E94D20F182F682F89819A810E946F
:1020B000230C69817A81812F0F900F900F900F90E0
:1020C0000F90DF91CF911F910C94B60F0E94F60BE9
:1020D000182FEFCFC9010F900F900F900F900F9016
:1020E000DF91CF911F91089583E290E00E946933C0
:1020F000883389F484E290E00E9469338E3059F489
:1021000085E290E00E94693391E0833A09F090E023
:10211000892F8170089580E0FCCFCF9384E090E018
:102120000E946933C82F82E290E00E946933982FA1
:102130008C2FCF910895CF92DF92EF92FF920F9361
:102140001F93CF93DF93CDB7DEB72A970FB6F894DE
:10215000DEBF0FBECDBFE1E3F3E08CE3DF011D92F4
:102160008A95E9F7E7EDF3E08AE2DF011D928A95AF
:10217000E9F781E3C82E83E0D82E7F0107EC11E058
:10218000F701D182C0824AE050E0B801CE01019649
:102190000E94593388E0FE013196D60101900D92DC
:1021A0008A95E1F789859A85D70113969C938E933A
:1021B0001297BAE0CB0ED11CE7E0EE0EF11C065FE1
:1021C0001F4F0330F2E01F07D9F62A960FB6F89496
:1021D000DEBF0FBECDBFDF91CF911F910F91FF905A
:1021E000EF90DF90CF90089546E050E06CE170E012
:1021F00088EF92E00E9477331092F70208954F9291
:102200005F926F927F928F929F92AF92BF92CF9286
:10221000DF92EF92FF920F93CF93C090EE02D09097
:10222000EF02E090F002F090F1028FB7F894409046
:10223000C8045090C9046090CA047090CB048FBF4A
:10224000530142018C189D08AE08BF080E949205F8
:102250006093EE027093EF028093F0029093F1028C
:10226000A091C502E5ECF2E02A2F30E04FEFC40E5A
:10227000D41EE11CF11CC418D508E608F708A31306
:102280002AC02093C5022091F602C0E0211108C0A7
:102290002091F802C22FC37019F0C22FC695C695BF
:1022A000209113012130C1F1222341F1223009F4A0
:1022B00076C0233009F47EC0CF910F91FF90EF904C
:1022C000DF90CF90BF90AF909F908F907F906F9056
:1022D0005F904F900895418D528D2A01712C612C91
:1022E000C414D504E604F70420F421503F5F32966D
:1022F000C6CF480D591D528F418FF8CF1092100153
:102300006093F2027093F3028093F4029093F502CB
:1023100081E080931301D0CF8C2F0E948607CC23BD
:1023200059F20E94D60581FF20C001E029E044E671
:102330006FEF85E10E94950C2AE044E66FEF85E19E
:102340000E94950C809101050E94530C8230C9F0C7
:102350008330E9F0813009F0AFCF00E029E046E4B6
:102360006FEF84E90E94950CA7CF00E029E040E0E0
:1023700060E080E00E94950C2AE040E060E080E0B0
:10238000DFCF00E02AE046E46FEF85E5EBCF00E029
:1023900029E046E46FEF84E90E94950CF3CFC093E7
:1023A0000F018091F802837080930E010E94A10DAD
:1023B00083E0AFCF8091F70281110E94F410409129
:1023C000F2025091F3026091F4027091F5022FB77E
:1023D000F8948091C8049091C904A091CA04B09166
:1023E000CB042FBF841B950BA60BB70B4097A10501
:1023F000B10508F461CF109213015ECFE8EFF2E06F
:1024000085E080838091160190911701A0911801B9
:1024100081839283A3838FE784838FEF85830C94DA
:10242000F4104F925F926F927F928F929F92AF9231
:10243000BF92CF92DF92EF92FF920F931F93CF93B1
:10244000DF93CDB7DEB728970FB6F894DEBF0FBE87
:10245000CDBF8E010F5F1F4F88E0F80111928A9562
:10246000E9F79AE5E92E91E0F92E68012EE5422E72
:1024700021E0522E66246394712C48E6842E41E0BC
:10248000942EF70181917F018F3F09F445C0F894A4
:10249000E82FE295EF70F0E021A18F70A30102C058
:1024A000440F551F8A95E2F7CA01922F982B91A3EA
:1024B00092A18095892382A3789400C0EEE5F1E093
:1024C00021E030E0B12CA12C41914F3F09F476C0BE
:1024D000A42FA295AF70B0E090968C9190E04F70D1
:1024E00002C0959587954A95E2F780FD67C0C901BE
:1024F000A82AB92A220F331F8E169F0629F7F70143
:10250000319780818F3F11F00E94850950EA5A95DA
:10251000F1F7F601B182A082F2E0CF0ED11C4E1489
:102520005F0409F0AECF48E050E0B80186E792E0E2
:102530000E943C33FF24F394009709F4F12C892B7B
:1025400009F43FC088E0F801A6E7B2E001900D92DF
:102550008A95E1F781E0809375020E949E05909331
:1025600074028093730280917302909174020E94AE
:102570008305059750F180917602909177029093B0
:10258000900280938F0280917802909179029093CB
:1025900092028093910280917A0290917B029093B3
:1025A00094028093930280917C0290917D0290939B
:1025B0009602809395021092750207C090E080E029
:1025C00097CF809175028111CECF8F2D28960FB6AF
:1025D000F894DEBF0FBECDBFDF91CF911F910F9159
:1025E000FF90EF90DF90CF90BF90AF909F908F9033
:1025F0007F906F905F904F90089580910D0490911F
:102600000E04892B8093D20180917202882329F1D4
:102610000E949E052091700230917102821B930BE3
:102620008838934110F00E94670B8091D2019091FD
:102630007202892B8093D201809115018823D9F1F0
:102640008091CC0487FF37C08EE1E4EDF1E090E0AB
:10265000815098F591110E94670B40E250E060E5CF
:1026600072E082ED91E00E943C33892B59F180E2C7
:10267000E2EDF1E0A0E5B2E001900D928A95E1F77C
:10268000E091C304F091C4043097E1F0809115010A
:10269000882359F08091CC0487FF07C08091D20134
:1026A0008093D30186E08093D2010280F381E02DF4
:1026B00082ED91E0099486E0C8CF2191222341F276
:1026C0009F5FC6CF0895EF92FF920F931F93CF9312
:1026D000DF93EC018A85811134C0EB80FC8087E5B3
:1026E000F81A26E12E9DC0012F9D900D1124DC01CA
:1026F000AF5EBB4F1496ED91FC911597309731F07A
:1027000054966D917C91895E9B4F099586E18E9DD3
:1027100080018F9D100D11240F5E1B4FF8018781E2
:102720000E94790BF80180850E94720B0E94FD12B5
:10273000188219861B861E821D8210921004109228
:102740000F04DF91CF911F910F91FF90EF900895AB
:10275000CF93DF93EC01898981111BC081E0898BC4
:1027600080910D049F81892B80930D0480910E042C
:102770009885892B80930E040E94FD12EA81FB81CB
:10278000309739F06C897D89CE010696DF91CF9123
:102790000994DF91CF91089590E080E00E94C005F8
:1027A00090E080E00E94AA0510920E040E94FD12A3
:1027B00086E0EEE9F2E0DF011D928A95E9F71092DA
:1027C000980210929702109299020C942F08982F59
:1027D0009670963029F48860809301050C94CC1390
:1027E000877FFACF80910105982F9670963019F463
:1027F00088600C94E713877FFCCF21E030E001C0B4
:10280000220F8A95EAF720958091010582230C9486
:10281000E71390914F028095892380934F02282FD0
:10282000277091F4282F082E000C330B92171306F3
:1028300059F09091CD0492FD07C0859585958595B9
:102840000E94FD130C94800B0895CF93C091CD048A
:10285000C2FB992790F9981799F080FBC2F9C093B1
:10286000CD046091CC0484E090E00E9487336C2F0B
:1028700082E290E00E94873382E0CF910C940914A9
:10288000CF91089521E030E001C0220F8A95EAF748
:1028900080910105822B0C94E7139091CD0492FD59
:1028A00010C098E0899F90011124622B60934F0221
:1028B0000E9442140E949E0590934E0280934D0206
:1028C00008950C944214809300050C94CC1310923C
:1028D0000D0480911501E4EDF1E0882359F0809119
:1028E000CC0487FF07C08EE1DF011D928A95E9F7CE
:1028F0000C94CC1386E0F8CF1F93CF93DF93CDB722
:10290000DEB7AA970FB6F894DEBF0FBECDBF87EF34
:1029100094E02091F100DC012D93CD01B4E08F3FD4
:102920009B07B9F78091F804833009F472C0B8F4BA
:10293000813009F449C0823009F4B3C08091E800C5
:1029400083FF96C28091F7049091F8049A3008F0C2
:102950008FC2E92FF0E0EB53FC4C0C9426338A3005
:1029600009F48EC08B3009F471C0893039F7809139
:10297000F704813219F78091FB049091FC040097D1
:1029800011F00297D9F68091E800877F8093E800E4
:102990008091E80082FF38C09091F3008091F200AE
:1029A000029731F48091F100813011F0863021F4EA
:1029B0008091F1008093D3048091E8008B7780931D
:1029C000E8000E946F04BACF8091F704813A09F0C1
:1029D000B5CF8091E800877F8093E8008091FB0469
:1029E0009091FC04892B61F460E284ED94E070E046
:1029F0000E9421058091E8008B778093E8009ECFAC
:102A000060E090E080E0F3CF8091FF048111C0CFBF
:102A100095CF8091F704813A09F090CF8091FB0423
:102A20009091FC04892B09F089CF8091E800877F81
:102A30008093E8008091E80080FFFCCF8091150131
:102A40008093F1008091E8008E77B9CF8091F704F0
:102A5000813209F073CF8091FB049091FC04892BA3
:102A600009F06CCF8091E800877F8093E8000E9496
:102A70006F048091F904809315010E9467145ECF62
:102A80008091F704813209F059CF8091E800877F67
:102A90008093E8000E946F048091FA048093D2042E
:102AA0004DCF8091F704813A09F048CF8091E8003A
:102AB000877F8093E8008091E80080FFFCCF8091C1
:102AC000D204BECF803899F0823809F0D1C180910C
:102AD000FB048F70873008F0CBC18093E9008091B0
:102AE000EB0085FB882780F91092E90006C08091F1
:102AF000F4049091F504911182609091E800977F21
:102B00009093E8008093F1001092F1008091E8002A
:102B10008E77AAC1882309F498C1823009F0A8C130
:102B20008091F90481119BC18091FB048F702FEF7C
:102B3000280F263008F09CC18093E9002091EB001B
:102B400020FF8DC1933031F48091EB00806280933F
:102B5000EB0085C19091EB0090619093EB0021E038
:102B600030E001C0220F8A95EAF72093EA00109224
:102B7000EA008091EB008860EACF811179C1109161
:102B8000F9041F778091E3008078812B8093E30024
:102B90008091E800877F8093E8000E946F04809115
:102BA000E80080FFFCCF8091E30080688093E30021
:102BB00082E0111183E08093FF045AC18058823073
:102BC00008F056C12091F9043091FA042C3DE3E05D
:102BD0003E07A1F583E08A838AE289834FB7F894A0
:102BE000DE01139620E03EE051E2E32FF0E0509347
:102BF0005700E49120FF03C0E295EF703F5FEF7054
:102C00008E2F90E0EA30C0F0C7968D939D932F5F92
:102C1000243159F74FBF8091E800877F8093E80007
:102C20006AE270E0CE0101960E9421058091E800E1
:102C30008B778093E8001CC1C096E7CF8091FB049E
:102C40009091FC04432F55274330510509F44AC0A5
:102C500078F54130510509F485C08BE590E0E6E652
:102C6000F6E04230510509F003C12091E800277FCA
:102C70002093E8002091FD043091FE048217930711
:102C800008F49C0140E02115310509F070C04111A4
:102C90006EC08091E80082FDC9CF8091FF04882337
:102CA00029F2853019F28091E80083FFF2CFBECF80
:102CB0004132510509F447C04232510509F0D8C0EC
:102CC0008330910508F0D4C0FC01EE0FFF1FEC53D8
:102CD000FE4F0190F081E02D8F539E4FDC018C91CF
:102CE00090E01DC0332721303105E9F02115310571
:102CF00079F022303105F9F02330310509F0B8C000
:102D0000E3EDF6E0E4918E2F90E0E3EDF6E007C00E
:102D1000E1E2F7E0E4918E2F90E0E1E2F7E0009746
:102D200009F4A6C0A2CFE9E0F7E0E4918E2F90E08D
:102D3000E9E0F7E0F4CFE1EFF6E0E4918E2F90E0E8
:102D4000E1EFF6E0ECCF8330910508F091C0880FF9
:102D5000991FFC01E653FE4F0190F081E02D89E0C0
:102D600090E083CF82E190E0E1ECF6E07ECF8091CD
:102D7000FF04882309F45ACF853009F457CF809196
:102D8000E80083FD53CF8091E80082FD82CF8091DF
:102D9000E80080FF78CF9091F3008091F200211538
:102DA000310519F08830910550F041E0089709F09D
:102DB00040E08091E8008E778093E80064CF4491F2
:102DC0004093F1003196215031090196E8CF8038C7
:102DD00009F04EC08091E800877F8093E8008091E1
:102DE000F6048093F10092CE811142C01091F90453
:102DF0001230F0F58091E800877F8093E80010930F
:102E0000F6040E946F04112311F084E005C0809144
:102E1000E30087FDFACF81E08093FF0442E061EC9C
:102E200081E00E948E0442E261EC84E00E948E0404
:102E300042E261EC82E00E948E0442E260EC83E0B8
:102E40000E948E048091FF0413C08091F9048130A8
:102E500079F481E0933009F080E08093F5041092DA
:102E6000E9008091E800877F8093E8000E946F046A
:102E70008091E80083FF0AC08091E800877F8093FB
:102E8000E8008091EB0080628093EB00AA960FB679
:102E9000F894DEBF0FBECDBFDF91CF911F91089593
:102EA000882321F00E94720B0C94FD120895882350
:102EB00039F090910E04982B90930E040C94FD120F
:102EC0000895882321F00E94790B0C94FD12089537
:102ED000882339F090910D04982B90930D040C9455
:102EE000FD120895882309F452C0823871F40E94BB
:102EF000D60581FF4CC089E30E94B80B0E94FD12E9
:102F000089E30E948D0B0C94FD12833859F40E94C2
:102F1000D60580FF3CC083E50E94B80B0E94FD12DD
:102F200083E5EFCF843859F40E94D60582FF2FC085
:102F300087E40E94B80B0E94FD1287E4E2CF9CEF69
:102F4000980F913AF0F290E2980F983050F4877011
:102F500091E001C0990F8A95EAF7892F0E94790BB9
:102F6000D2CF9BE5980F933020F490E080E00C9452
:102F7000C00598E5980F973120F490E080E00C941C
:102F8000AA05803F20F00E9456080C942F0808954F
:102F9000CF93C82F882309F4AEC08238C1F40E94B1
:102FA000D60581FDA8C089E30E94B80B0E94FD12DE
:102FB0002FEF81EE94E0215080409040E1F700C077
:102FC000000089E30E948D0BCF910C94FD12833891
:102FD000A1F40E94D60580FD8EC083E50E94B80B47
:102FE0000E94FD122FEF81EE94E02150804090402E
:102FF000E1F700C0000083E5E5CF8438A1F40E942A
:10300000D60582FD78C087E40E94B80B0E94FD12AD
:103010002FEF81EE94E0215080409040E1F700C016
:10302000000087E4CFCF8CEF8C0F813A88F5809138
:103030001501882301F18091CC0487FF1CC0EC2F7F
:10304000E695E695E695F0E0EE52FE4F828190E03F
:103050004C2F477021E030E002C0220F331F4A9509
:10306000E2F782239323892B79F08C2F0E948D0B1A
:103070000E94FD1209C0E4EDF1E08191C817A9F3A7
:1030800021E0EA3DF207C9F78C2F0E94B80B9CCFD4
:1030900080E28C0F883068F4C77021E030E001C016
:1030A000220FCA95EAF780910D04822B80930D04BC
:1030B0008BCFEBE5EC0FE33040F4F0E0E75DFE4F43
:1030C000808190E0CF910C94C005E8E5EC0FE731EA
:1030D00050F4F0E0EE0FFF1FE45DFE4F8081918120
:1030E000CF910C94AA05C03F30F08C2F0E941B0991
:1030F000CF910C942F08CF9108951F93CF93DF9316
:10310000182FD0E0C0E0893311F4C0E5D0E0812F62
:103110000E94C817209731F4812FDF91CF911F9122
:103120000C9472178FE99FE00197F1F700C000003F
:103130002197F0CF0F931F93CF93DF93C62FD42FF8
:10314000022FFC0182818823A1F0609304050E9474
:103150009E059093030580930205C77081E001C02E
:10316000880FCA95EAF7DF91CF911F910F910C94C8
:10317000681780910405681335C08091020590910D
:1031800003050E948305883C910560F510E21D0F40
:10319000CD17B9F080E28C0F883040F4C77081E021
:1031A00001C0880FCA95EAF70E946117183048F4E9
:1031B00081E09D2F977001C0880F9A95EAF70E94D1
:1031C0006817802F0E947D18183098F4D77081E01E
:1031D00001C0880FDA95EAF7DF91CF911F910F9127
:1031E0000C946117C77081E001C0880FCA95EAF797
:1031F000F3CFDF91CF911F910F910895AF92BF92BE
:10320000CF92DF92EF92FF920F931F93CF93DF93B2
:10321000EC018AE0A82E2881222309F48CC02130F9
:10322000C9F599818A81913021F422960E947D18F6
:1032300005C0923029F422960E94C8172196EBCF40
:10324000933021F422960E947217F8CF943011F037
:103250002196F4CF229630E020E0AE014F5F5F4F21
:103260008053990B8A30910550F02150310930F389
:103270008FE99FE00197F1F700C00000F6CFA29E12
:10328000B001A39E700D11249C01260F371F898168
:10329000EA01E3CFE22FF0E0E650FE4FB490822F38
:1032A00086958695869590E0FC01E651FE4FE49068
:1032B0002770F12C022E02C0F594E7940A94E2F7ED
:1032C00031E0E322FF24FC01E652FE4FC490D12CF2
:1032D000022E02C0D594C7940A94E2F731E0C322CB
:1032E000DD24FC01E653FE4F049110E002C0159569
:1032F00007952A95E2F701701127E114F10419F0FE
:1033000081EE0E94C817C114D10419F086EE0E9404
:10331000C8178B2D0E947D18CD2819F086EE0E94CB
:103320007217EF2819F081EE0E947217012B09F431
:1033300085CF8CE27BCFDF91CF911F910F91FF90D2
:10334000EF90DF90CF90BF90AF90089590E080E035
:103350000E947133893E9E4F11F40C94741080E0EA
:10336000089569EE7EEF90E080E00E94A53360E072
:1033700082E090E00E94873360E083E090E00E946A
:1033800087331092000560E084E090E00E9487336C
:1033900060E082E290E00E94873360E085E090E0A8
:1033A0000E94873360E086E090E00E9487336FEFF1
:1033B00087E090E00E94873340E050E0BA0188E067
:1033C00090E00E94993360E08DE090E00E948733A6
:1033D00040E050E0BA0188E190E00E94993360E05B
:1033E00087E190E00E94873340E050E0BA018CE131
:1033F00090E00E94993370E060E080E290E00E94EB
:10340000A53340E050E0BA0188E190E00E94993392
:1034100080E00E94320E0E94E50E40E050E0BA01CA
:103420008FE090E00E94993340E050E0BA0183E1E0
:1034300090E00C9499339F92AF92BF92CF92DF921B
:10344000EF92FF920F931F93CF93DF9300D000D0A2
:10345000CDB7DEB77C01DC0113968D919C9114975A
:10346000892B39F08C9111969C9189238F3F09F01B
:10347000B1C50F900F900F900F90DF91CF911F91DA
:103480000F91FF90EF90DF90CF90BF90AF909F9003
:103490000895D60116968C9116978823D1F0199627
:1034A0008D919C910817190739F480910F04909120
:1034B00010040817190769F0F60197861487038727
:1034C000C6010E94A813C60106960E9463131092BB
:1034D0000E04FFEFAF1ABF0A26E1C20ED11C92C53F
:1034E000980122513F452031310508F043C58FEF47
:1034F00093E00E9469335EEED52ED00E03E012E019
:103500008823F9F080914F02877009F4B2CFD70178
:1035100012968C91882309F4ACCF8091CD0482FD62
:10352000A8CF82E00E940914A4CF011534E013074C
:1035300049F3C8010E946933811101C0DA940F5F19
:103540001F4FD110F2CF19821A821B821C8299243C
:103550009A9468014FEFC41AD40AC8010E946933D3
:1035600089831A82882371F2813009F073C058016F
:1035700052E0A50EB11CC6010E946933C82E8A8391
:10358000882309F4BFCFC5010E946933D82E8FEF7D
:103590008C0D833068F4580183E0A80EB11CDB82E7
:1035A000DD2021F0CE0101960E94FE188501D1CFC9
:1035B0008BEF8C0D833030F5C8010396DB825C0104
:1035C000DD20A1F35801A4E0AA0EB11C0E946933CA
:1035D0008C83882359F38B819C818130BFEF9B07BB
:1035E00010F0982F8827E6E0CE1631F0F7E0CF16DE
:1035F00031F00E94E627DACF0E944C27D7CF0E94F5
:10360000AC26D4CF24E0C212D1CF580134E0A30EAF
:10361000B11CC80103960E946933DD2009F472CF02
:10362000882309F46FCF8150990B989E9001999E41
:10363000300D11244D2D4150550BCA01820F931F9F
:10364000019708F4B3CFAFE9BFE01197F1F700C0DD
:103650000000F6CFCE0101960E94FE185601A6CFBB
:1036600081E00E9442140E94F2134CCF81E00E943C
:10367000FD13F9CF82E0F5CF2FEFC216D10411F080
:1036800008F08EC467E273E08C2D0E94F40E892B43
:1036900029F586E18C9DF0018D9DF00D1124EF5EE2
:1036A000FB4F8681813009F0B0C080912703909153
:1036B0002803892B99F08091290390912A03892B63
:1036C00069F080912B0390912C0320912D03309170
:1036D0002E03822B932B892B09F4A1C080910C011E
:1036E00090910D018C159D0524F4D0920D01C0928E
:1036F0000C01F701828196E19C9D50019D9DB00CCB
:10370000112495012F5E3B4F6901D90150968C938E
:103710005097928116968C911697992309F48DC033
:103720001A961C930E9319978F5F16968C930E948E
:103730009E05F60196878587809172028783809126
:103740000E0490910D04892B80870190F081E02D6B
:10375000309741F0D60154966D917C91C501895EF8
:103760009B4F09951093100400930F04F701828179
:10377000882309F45FC4109204050330FDE51F0798
:1037800008F08DC00A3F2CE5120730F4C8018250C2
:103790009C45449708F08DC00E948D109093CD04F5
:1037A0008093CC0401315CE5150709F454C108F09D
:1037B000D4C009309CE5190709F43BC108F0A1C049
:1037C0000530BCE51B0709F42CC108F087C00330A5
:1037D000FCE51F0709F41BC108F01FC18091CC0450
:1037E000816002301C4509F415C16091CC04109130
:1037F000CD0484E090E00E948733612F82E290E064
:103800000E9487330E9467147DCE823009F066CF14
:1038100080912B0390912C03892B09F45FCF26E133
:103820002C9DC0012D9D900D11248F5E9B4FDC01BE
:1038300050961C920E94A81351CF882309F496CF6A
:10384000F9018189882309F491CFC501895E9B4FD5
:103850000E9463138BCF053F8CE51807C9F0A0F0D9
:1038600027E245EE66EE063FACE51A0709F07ECF8B
:10387000C7010E949A1846CE27E245EE65EEF8CFC2
:1038800026E241EE60EEF4CF27E245EE64EEF0CFA3
:1038900026E241EE62EEECCF28E241E0EFCF0136C6
:1038A0003DE5130709F478CF053A4DE5140709F40F
:1038B00073CF0631ACE51A0709F025C480910D04D9
:1038C0008A7A91E009F490E09093F2018111F1C0BD
:1038D00089E20E94B80B0E94FD1214CE8091CC04A4
:1038E000806207304CE5140709F494C08091CC0441
:1038F000806108301C4508F48DC08091CC04806440
:1039000089C00D308CE5180709F499C098F48091AE
:10391000CC048E7F0B30ACE51A0709F47BC0809194
:10392000CC048C600C301C4508F474C08091CC042D
:103930008D7F70C08091CC048F7E0F30ECE51E0728
:1039400009F468C08091CC04877F00311C4508F4DD
:1039500061C08091CC048F7D5DC00D3F2CE51207C6
:1039600009F475C038F505314CE5140709F481C038
:1039700080F403318CE5180709F477C008F46FC0B0
:103980000E9467149091CC04892F97FB87F9805887
:1039900041C00B3FACE51A0709F447C008F053C01B
:1039A0008091CD0481600A3F1C4509F01ECF8093B1
:1039B000CD041BCF0130FDE51F0709F466C0B8F444
:1039C0008091CD048C7F0F3F3CE5130781F38091FC
:1039D000CD04836001151D4550F38091CD04982FCF
:1039E000909591708E7F892B90FB81F9E0CF013605
:1039F0005DE5150709F44FC0053A8DE5180709F490
:103A000051C002301D4509F0F0CE60E03FC080910A
:103A1000CC0482608093CC04E8CE8091CC04846096
:103A2000F9CF8091CC048860F5CF8091CD0482607D
:103A3000BECF0E9467148091CC048068EBCF809148
:103A4000CC048B7FE7CF8091CD048E7FB0CF809167
:103A5000CD048D7FACCF8091CC048F7BDBCF0E94D7
:103A600067148091CC048F77D5CF8091CC04837F6D
:103A7000D1CF8091CC0482FB992790F921E0922745
:103A800090FB82F990FB83F9C5CF61E08EE090E076
:103A90000E948733AACE9091CC04892F8F7E94FF09
:103AA0008061B8CF9091CC04892F8E7F90FF816088
:103AB000B1CF85E30ECF8091F201811104C089E27C
:103AC0000E948D0B08CF85E3FBCF49ED56E063EEF6
:103AD00076E00E942E0616CD43EE56E069ED76E0C4
:103AE000F8CF4CEA56E066EB76E0F3CF48E756E0D5
:103AF00065E876E0EECF61E081E00E94C00602CD8D
:103B00000E946714BFEFE4E3FCE0B150E040F040F6
:103B1000E1F700C000000E947D0D81E014C380E049
:103B200012C3828100811181882369F0C8010E943B
:103B3000D20FD82E682FC8010E94230CB8018D2DFA
:103B40000E94B60F08C3C8010E94F60BD82EF6CF0C
:103B5000212F2F70D22E107F19F0D29490EFD922FE
:103B6000CC20B9F0DD2069F080E2800F883010F0C1
:103B7000011109C080910D04D82AD0920D040E9431
:103B8000FD12802F46C080910E04D82AD0920E04D8
:103B9000F6CF802F0E947217DD20E9F180E2800FBE
:103BA000883010F0011104C08D2D0E94790B03C0E4
:103BB0008D2D0E94720B0E94FD122DC0312F3F707F
:103BC000D32E107F103219F0D29480EFD822002328
:103BD00081F0013009F48BC0CC2009F494C0BB20E3
:103BE00009F469C0F701858180FFCBCF8F70858391
:103BF00062C08091CD0482FF39C0CC2089F1DD20E4
:103C000039F080910D04D82AD0920D040E94FD1243
:103C100080E00E94C817292D2850330B243031052D
:103C200010F40E94D605AA20B1F080914F0280FDC9
:103C300012C0D70112961C928595859585950E9494
:103C40004214C7010E941B1A80914F0285958595E9
:103C500085950E94FD1360E0C7010E94341009CCD5
:103C600080E00E947217DD20B1F29ECFCC2039F1A6
:103C7000B11004C0809172028D291EC041E0B412BF
:103C800010C082FDC8CF80917202D82AD81619F2CE
:103C90000E949E059093710280937002D0927202EE
:103CA000BACF55E0B512E6CF0E94670B80914C0267
:103CB000D812D0924C028D2D0E946817ACCFB11053
:103CC00006C00E94670B8D2D0E946117A4CF81E072
:103CD000B81208C080910D048D2109F49CCF0E9478
:103CE000870BEFCF95E0B91609F495CFEACFCC203A
:103CF00029F0A5E0AB1508F48ECFDDCFB4E0BB15FD
:103D000008F489CFE0CFBB20F1F2093349F4FFEF8B
:103D100027EE33E0F15020403040E1F700C00000D2
:103D2000802F0E94721777CF812F8695869583709A
:103D300061F0813009F06FCFC8019370C11002C0EB
:103D400090E080E00E94AA0566CFC8019370C11080
:103D500002C090E080E00E94C0055DCF802FCC20A3
:103D600029F00E941B090E942F0855CF0E94560877
:103D7000FACF812F837089F5C1104DCF402F429526
:103D800046954770440F440F802F8F70042E01C05A
:103D9000880F0A94EAF7202F207104FF07C02FE054
:103DA00030E001C0220F4A95EAF720951695169546
:103DB0001370123069F050F430910005113029F081
:103DC000822B83230E94631426CF832B822BFACF6E
:103DD000282B809100058227F5CF8695CC2011F005
:103DE000812F8170882309F416CF402F4295469584
:103DF0004770440F440F802F8F70042E01C0880F2E
:103E00000A94EAF7202F207104FF07C02FE030E06A
:103E100001C0220F4A95EAF7209516951695137062
:103E2000123069F050F430910105113029F0822BE5
:103E300083230E94E713EFCE832B822BFACF282B0C
:103E4000809101058227F5CF1F70CC2029F0812FAA
:103E50000E944214802F30CF802F0E946117812F43
:103E60000E94FD13D8CE023F81F160F4003FB9F00B
:103E7000013F81F0CC2009F46DC0B11082CE812FBA
:103E80008F7127C0033F41F1043FA1F78091CD041A
:103E900082FF2DC0812F8F71CC2011F31AC0CC204E
:103EA00079F044E04B1508F4B6CE1F7181E090E044
:103EB00001C0880F1A95EAF7909101058927B9CFBB
:103EC00055E05B1508F4A7CEF0CF812F8F71C1109C
:103ED000C7CF0E9442149FCE80E0CC2009F4A9CF26
:103EE0001F7181E001C0880F1A95EAF7A2CF809177
:103EF0004C02CC20D9F00E94790B80914F02877040
:103F0000843041F40E94800B812F8F710E94FD1339
:103F1000A12C81CE84E08B15D8F31F71812F0E94D4
:103F2000421463E0812F0E944D14F2CF90910D0452
:103F3000982B90930D0494E09B1540F40E94800B05
:103F40000E94870B64E0812F8F71EDCF81E00E948A
:103F50000914DECFBB2059F0093309F0E1CEAFEFF1
:103F6000B7EEE3E0A150B040E040E1F7D7CE812FBB
:103F70008F7176CF0031BFE51B0709F471CB01319A
:103F8000EFE51E0709F476CB6801E7E5DE1A882322
:103F900009F472CBFFEFCF16D10409F008F49ECBE1
:103FA000033FFCE51F0709F46BCC08F054CC083D37
:103FB0003CE5130709F460CC093D4CE5140709F40E
:103FC0006BCC073D5CE5150709F0D0CB26E241EE4E
:103FD00061EE4ECC61E0C7010E9434108C01D70124
:103FE00012968C918823B1F080910C0190910D0173
:103FF000019681F061E1C62E64E0D62EB12CA12C91
:104000009924939480910C0190910D018A159B0540
:104010000CF03FCAF7018281811162CA0031FFE5CD
:104020001F0709F423CB01312FE5120709F0ACCFAC
:1040300082E01DCB0631BCE51B0709F43CCD809125
:104040000D048272093CECE51E0709F44FCDA8F57A
:10405000053C2CE5120709F444CDC8F4033C4CE5BB
:10406000140709F432CD08F037CD023C1C4509F0A5
:104070006CC08091F80291E089278093F802109239
:1040800013018091F70281608093F7023BCA42E9F5
:1040900056E06FE976E0073C9CE5190709F419CD75
:1040A00046EB56E06CEA76E0083C1C4508F411CD7E
:1040B0004FE956E062E976E00CCD0D3CBCE51B070C
:1040C00009F419CDB0F449E456E067E576E00B3C1D
:1040D000FCE51F0709F4FDCC45E856E068E776E00B
:1040E0000C3C1C4508F4F5CC47E556E069E476E065
:1040F000F0CC063D3CE5130708F404CA0D351D4518
:1041000009F400CA22C00A355DE5150709F405CD9A
:1041100058F401159CE5190709F4F2CC0E3D1C4535
:10412000A1F40E94B119EEC90B35BDE51B0709F4D6
:10413000F6CC0C351D4549F48091CD0482FB8827CF
:1041400080F991E089270E942514F70186819781E3
:10415000009709F4E6CC0E94DF098C01F701C280C8
:10416000B580B2943FE0B32280914F028770C1F0D6
:10417000AC2CCC20B1F0812F807F803421F080E204
:10418000800F883068F08091CD0482FD09C082E004
:104190000E94091480914F028770AA24A394811170
:1041A000A12C912E92942FE09222FBE0F91508F4B5
:1041B00032CDE92DF0E0E153FC4C0C942633CF9343
:1041C000DF9380910702807FA1F48091040288230D
:1041D00081F080914B02D0910A02609102027091AD
:1041E0000302A0910502B0910602C62FC723D8137F
:1041F00003C0DF91CF91089590E0109711F0CF3F69
:1042000019F401968770F3CF9C0143E0220F331F0E
:104210004A95E1F7F901E55FFD4F41814713F1CF81
:1042200040814613EECF42814111EBCF438154814F
:104230004A1B5B0B483C510520F7809107028F70A9
:10424000806180930702F901E05FFD4F80818F70EC
:104250008061808382E092E00E941B1ADF91CF91FF
:104260000C94EC0BAF92BF92CF92DF92EF92FF9241
:104270000F931F93CF93DF93CDB7DEB765970FB63C
:10428000F894DEBF0FBECDBF8C0185E0F801DE01E2
:10429000519601900D928A95E1F7F801E28062E073
:1042A000A62E62E0B62E609105027091060261159D
:1042B000710509F468C19091020240910302892FAF
:1042C00084238F3F09F45FC120813181C380D48072
:1042D000F0900402F601E61BF70BFF2009F41DC164
:1042E00080910702582F507FE83CF10508F0D0C0BC
:1042F000511181C0FE2C43132BC0921329C0609131
:10430000080270910902F801468157816417750708
:10431000F9F4E1101DC08F70806180930702C50120
:104320000E941B1A80910702F80185838F2D6596E4
:104330000FB6F894DEBF0FBECDBFDF91CF911F91B6
:104340000F91FF90EF90DF90CF90BF90AF900895C6
:10435000CD2829F0822F83238F3F09F02FC180E0E1
:10436000F82FF170DF2E80FF3CC080914B0240910E
:104370000A02841315C0298B3A8B89899A890E9475
:104380000110292F22952F702230F8F0243020F5CB
:104390009F70F9F0F8019581907FD9F4D12C1FC05E
:1043A00090E0FC0153E0EE0FFF1F5A95E1F7E55F47
:1043B000FD4F5181351306C05081251303C0528132
:1043C000E5120FC001968770D4CF9F7011F088233B
:1043D00029F3805E883010F3C8010E941B1AFD2C5F
:1043E000A5CFEE2009F4A2CF8091070281608093CF
:1043F0000702F12C9BCF43131BC0921319C04091AD
:10440000080250910902F8012681378142175307AB
:1044100079F4E1100DC08583C8010E941B1A88E061
:10442000F801A2E0B2E001900D928A95E1F77ECF0B
:10443000C8010E940D10882339F1EE2029F18091E6
:1044400007028032A0F020910202309103023A87E5
:1044500029871B86DD86CC868E8780910802909105
:104460000902988B8F87CE0109960E941B1A88E05B
:10447000F801A2E0B2E001900D928A95E1F70E9466
:10448000DF20FF24F39452CFC8010E941B1AF9CFFA
:1044900051110AC082E092E00E941B1A88E0F501E7
:1044A00011928A95E9F7A5CF431318C0921316C04D
:1044B0004091080250910902F80126813781421784
:1044C000530761F4E1100AC08583C8010E941B1ADA
:1044D00088E0F50111928A95E9F728CFC8010E947A
:1044E0000D10882389F2EE2079F280910702803244
:1044F00008F4BDCF20910202309103023A83298350
:104500001B82DD82CC828E83809108029091090209
:1045100098878F83CE010196A8CFE83CF105C0F6BD
:10452000FE2CEE2009F4B0CF43131FC092131DC020
:104530002091080230910902F8018681978128179D
:10454000390799F49091070290FD69CF907F09F4A3
:1045500066CF809107028583903F09F45DCF982F45
:10456000907F905F8F70892B56CFC8010E940D10ED
:1045700081117DCF80910702816080930702C8017D
:104580000E941B1AD3CEEE2009F47ECFC8010E94F0
:104590000D10F82E882309F477CF88E0F801A2E007
:1045A000B2E001900D928A95E1F78091020290911C
:1045B00003020E9401100E94DF20B8CE81E08E2508
:1045C000CFCECF93DF93CDB7DEB760970FB6F89419
:1045D000DEBF0FBECDBF29873A874B875C876D87CB
:1045E0007E878F87988BCE0109960E943221811198
:1045F00012C088E0FE013996DE01119601900D92FD
:104600008A95E1F78C859D85892B29F089859A8586
:1046100089238F3FA9F580914B0290910A0289135B
:104620001CC060960FB6F894DEBF0FBECDBFDF9101
:10463000CF91089593E0AA0FBB1F9A95E1F7A55F6C
:10464000BD4F98E0FE01319601900D929A95E1F7E9
:1046500080930A020E94EC0BDECFB8E08B9FC00172
:104660001124855F9D4F0E9432218823D1F28091D1
:104670004B0290E001968770992780934B02CBCF35
:10468000A0910A02B0E0CD01019687709927209190
:104690004B022817190671F60E94671410920A023D
:1046A00010924B0288E0E2E0F2E0DF011D928A9571
:1046B000E9F7B1CF0F931F93CF93DF9380917603E8
:1046C000E0917503CCE081111AC0DF91CF911F9169
:1046D0000F910895D1E0DE0FD09375030E2F10E0F7
:1046E000EC9FF0011124E958FC4F83819481892BC0
:1046F00029F08081918189238F3F51F4ED2F8091A2
:104700007603E81738F31092760310927503DDCF25
:10471000C09FD001C19FB00D1124A958BC4F16965F
:104720008D919C911797892B29F418968D919C91C6
:10473000019651F4208131814281538164817581D8
:10474000868197810E94E122C09FF001C19FF00DF8
:104750001124E958FC4F1482138210920E04CECF1C
:1047600010920C0410920B041092140180910A0410
:10477000809309040E9410060C945A233F924F9292
:104780005F926F927F928F929F92AF92BF92CF92E1
:10479000DF92EF92FF920F931F93CF93DF93C0911D
:1047A000090497E0892E01E010E02CE0322E3EEF64
:1047B000932E4424439480910A048C1315C00E94C4
:1047C0005A23DF91CF911F910F91FF90EF90DF90CF
:1047D000CF90BF90AF909F908F907F906F905F90A1
:1047E0004F903F900C941006D0E0FE01EE0FFF1F9B
:1047F000EF5FFB4F80819181889ED001899EB00D33
:104800001124A952BC4F14962C911497211157C012
:1048100050907603E7E7F3E030E020E0712C5D0193
:10482000251508F04AC0E284F384D501CD90DC90D0
:104830006FEF7FEF612C462D50E0DA01AA0FBB1F0E
:10484000AC0DBD1D0D90BC91A02D109731F0EA1656
:10485000FB0609F4BA016394EECF6F3F7607A1F12E
:10486000D80102C0AA0FBB1F6A95E2F77A2AB801E5
:1048700002C0660F771F6A94E2F7AB0141505109FD
:1048800074161506F9F4329EF001339EF00D1124D2
:10489000E958FC4F889ED001899EB00D1124A95281
:1048A000BC4F12962D913C911397378326839082AB
:1048B00091829187808715964C920E94E2052196FD
:1048C000C37079CF148213822F5F3F4F3C96A8CFDD
:1048D0002F923F924F925F926F927F928F929F9210
:1048E000AF92BF92CF92DF92EF92FF920F931F93FE
:1048F000CF93DF93CDB7DEB769970FB6F894DEBFDD
:104900000FBECDBF498B5A8B6B8B7C8B8D8B61110E
:1049100010920E041D861E861F86188A85E0FE01F1
:104920007196DE01199601900D928A95E1F78091BA
:10493000CD0482FD1CC00E949E0520914D02309145
:104940004E02821B930B8838934120F080914F02D6
:1049500082FFFEC10E949E0520917002309171027B
:10496000821B930B8838934110F00E94670B8C8553
:104970009D85892B31F089859A8589238F3F09F0A0
:10498000D3C129853A854B855C856D857E858F856C
:1049900098890E94E122C2C048EFC4164CE5D406B3
:1049A00029F4882379F00E94B023EBCF69EFC61673
:1049B0006CE5D60639F4882329F080911401811121
:1049C000F2CFC2C107ED13E0E12CB12CA12C882459
:1049D0008394912C2EEF522E44244394F80140816D
:1049E000518166246A94762C20E0822F90E0FC01AD
:1049F000EE0FFF1FE40FF51F6081718161157105D6
:104A000031F0C616D70609F43C012F5FEECFF12C2A
:104A1000FFEF6F167F0609F443C0F8014481F09060
:104A200014018F2D411180E0F82FF170FF2EF80155
:104A3000258086819B85992309F406C1FF2009F40E
:104A400003C1211013C0A40101C0440F6A94EAF706
:104A5000842B868380917303909174034E9730F476
:104A60006EE170E07093740360937303C40102C03D
:104A7000880F991F2A95E2F70197F80126812817D8
:104A8000190671F480910B0490910C04009709F4BD
:104A90005EC00E9483054F9708F459C0F801448214
:104AA000EF28FFEFAF1ABF0A095F1F4F26E0A216DB
:104AB000B10409F093CF8B85882309F420C1EE203F
:104AC00009F41DC10E949E0590930C0480930B0471
:104AD00080917603883010F591E0980F90937603DB
:104AE00098E0FE013996DE01119601900D929A959B
:104AF000E1F73CE0839FC001112489589C4F28E0D6
:104B0000FE013196DC0101900D922A95E1F72FEF1D
:104B10003FEFFC0131872087D386C28669960FB6A6
:104B2000F894DEBF0FBECDBFDF91CF911F910F91E3
:104B3000FF90EF90DF90CF90BF90AF909F908F90BD
:104B40007F906F905F904F903F902F90089580914D
:104B5000090450910A04982FF0E0E0E0851314C096
:104B6000909309040E171F0709F49ACF90E0FC01F7
:104B7000EE0FFF1FEF5FFB4FB182A08201968370A3
:104B8000992780930A048CCF282E312CF101EE0F47
:104B9000FF1FEF5FFB4F20813181F7E0F29FD001D3
:104BA000F39FB00D1124A952BC4F2D913C91119748
:104BB000398F288F40E020E030E0E32FF0E0EE0F67
:104BC000FF1F688D798DE60FF71F6080718061147B
:104BD0007104E1F0F8010190F081E02DFF8BEE8B84
:104BE00020E005C06616770609F44F2D2F5FE22FEF
:104BF000F0E0EE0FFF1F6E897F89E60FF71F6081DF
:104C000071816115710571F73F5FD7CF4423C9F0FA
:104C1000F801231708F0FD014482E017F10721F4A1
:104C200090930904F42E3CCF981305C0EA17FB07B4
:104C300011F49F5F937091012F5F3F4F822F83701C
:104C40008DCFF0E0E0E0F7CF90E021101FC0B4017D
:104C500002C0660F771F2A95E2F79B0121503109A8
:104C60008217930731F4442309F447C0C5010E9419
:104C7000E205C40101C0880F6A94EAF7982F909565
:104C8000F801868189238683F22C0ACF9C01062CA9
:104C900002C0359527950A94E2F7A901417055277E
:104CA000BC016150710986239723892B11F5452B8F
:104CB00001F1F80182819381892BC1F01B821C8252
:104CC0001D821E8259825A820E949E058160582F41
:104CD0009D838C83F801828193818F8398872981BA
:104CE0003A814B816D817E810E94E122F80115821B
:104CF000C0CFF22FF1702F2EBCCF2F2CBACF9091B6
:104D0000090480910A04981731F00E94BE23EE2016
:104D100009F437CE03CF0E945A2310920C0410924C
:104D20000B040E941006F3CF61E0CE0109960E94A9
:104D300034106C018B85F7EFCF16FCE5DF0609F028
:104D40002BCE882309F43ECE81E08093140119CE46
:104D500082E00E940914FECD0F931F93CF93DF933F
:104D600000D000D00F92CDB7DEB78C0190937003C6
:104D700080936F03011580E2180720F5802F0E94B1
:104D80007217C8010E94640C9801205E3109283016
:104D9000310510F0012B59F40F900F900F900F90E8
:104DA0000F90DF91CF911F910F910C9461170F908D
:104DB0000F900F900F900F90DF91CF911F910F9157
:104DC0000C9450178EEF89838A831B820E949E0564
:104DD0008160782F9D838C8349815A816B818D817D
:104DE0000F900F900F900F900F90DF91CF911F9128
:104DF0000F910C9468240F931F93CF93DF938C0132
:104E0000EB0167E273E08C2F0E94F40E892B71F4A2
:104E1000DD27C15EDC4F8881F80110821882833063
:104E200009F148F4813059F0823081F0DF91CF915F
:104E30001F910F9108958430D1F08530B9F780919A
:104E4000270390912803009789F306C080912903D6
:104E500090912A03009799F3DF91CF911F910F91C1
:104E60000C94AC2680912B0390912C03F3CF80916E
:104E70002D0390912E03009779F72091270330910D
:104E800028038091290390912A0321153105D9F235
:104E9000009711F7C901E0CF0F931F93CF93DF93D2
:104EA00000D000D00F92CDB7DEB78C019093700385
:104EB00080936F03011580E21807E8F4C8010E948F
:104EC000640C9801205E31092830310518F0011575
:104ED000110571F40E946817802F0F900F900F90AA
:104EE0000F900F90DF91CF911F910F910C94C817E5
:104EF0000E945717F1CF8EEF89838A8381E08B83DD
:104F00000E949E058160782F9D838C8349815A8100
:104F10006B818D810F900F900F900F900F90DF910C
:104F2000CF911F910F910C946824BF92CF92DF9282
:104F3000EF92FF920F931F93CF93DF93B82EC09001
:104F4000010580910005C82AC7E0D0E0D12CF12CE2
:104F5000E12CD701C6010C2E04C0B695A7959795F4
:104F600087950A94D2F780FF1FC04B2D60E08C2FED
:104F70000E945E0F8C0181309105B1F00E944C2798
:104F80008FE39CE90197F1F700C00000C8010E947F
:104F9000AC2681E0DF91CF911F910F91FF90EF90B0
:104FA000DF90CF90BF900895219798F64B2D60E049
:104FB00080E00E945E0FEC010E944C278FE39CE989
:104FC0000197F1F700C00000CE01E1CFCF93DF934E
:104FD000EC010E944C27CE01DF91CF910C94AC26BE
:104FE0000F931F93CF93DF938C01862F67E273E0BB
:104FF0000E94F40E892BC9F4C0912703D091280395
:10500000209799F0F8018081833069F4CE010E94E5
:10501000E627CE010E94E627CE01DF91CF911F91B6
:105020000F910C94E6278430B8F7DF91CF911F9150
:105030000F9108950F931F93CF93DF938C01EB0192
:1050400067E273E08C2F0E94F40E892B09F064C094
:10505000FE01FF27D8018C91E15EFC4F8130D9F42D
:1050600019969C911997992311F080830CC01A9678
:105070009C919923D1F382E08083809129039091C0
:105080002A030097D9F48091270390912803009771
:1050900009F442C013C08230E9F519968C91199732
:1050A00081112DC01A968C9181110EC083E08083EE
:1050B00080912B0390912C03009719F1DF91CF91F0
:1050C0001F910F910C944C2784E0808380912D03D5
:1050D00090912E03009791F78091270390912803D8
:1050E0000097F9F00E94E6278091290390912A0306
:1050F000009721F78091270390912803DFCF85E067
:1051000080838091270390912803009729F00E94C3
:10511000E627F0CF86E08083DF91CF911F910F913A
:1051200008958091290390912A03B1CF1F920F9285
:105130000FB60F9211242F933F934F935F936F936A
:105140007F938F939F93AF93BF93CF93DF93EF930F
:10515000FF93D091E900DF708091EC00C82FC170FF
:1051600080FDC0E81092E9008091F000877F809375
:10517000F00078940E947C141092E9008091F00075
:1051800088608093F000CD2BCF70C093E900FF9131
:10519000EF91DF91CF91BF91AF919F918F917F91CF
:1051A0006F915F914F913F912F910F900FBE0F9094
:1051B0001F9018951F920F920FB60F9211242F93E4
:1051C0003F934F935F936F937F938F939F93AF938F
:1051D000BF93EF93FF938091E10082FF09C080911C
:1051E000E20082FF05C08091E1008B7F8093E100A7
:1051F0008091DA0080FF24C08091D80080FF20C019
:105200008091DA008E7F8093DA008091D90080FF50
:105210009DC080E189BD82E189BD09B400FEFDCF5A
:1052200081E08093FF048091D104811109C00E9424
:10523000CD030E94C0048091E20084608093E2006C
:105240008091E10080FF17C08091E20080FF13C0D1
:105250008091E2008E7F8093E2008091E200806185
:105260008093E2008091D80080628093D80019BCBE
:1052700085E08093FF048091E10084FF2BC0809142
:10528000E20084FF27C080E189BD82E189BD89B544
:10529000982F917080FFFBCF8091D8008F7D8093F5
:1052A000D8008091E1008F7E8093E1008091E20040
:1052B0008F7E8093E2008091E20081608093E20023
:1052C0008091F604882309F447C084E08093FF04AA
:1052D0008091FF048091E10083FF27C08091E2006C
:1052E00083FF23C08091E100877F8093E10082E00B
:1052F0008093FF041092F6048091E1008E7F8093EA
:10530000E1008091E2008E7F8093E2008091E200D4
:1053100080618093E20042E060E080E00E948E04C1
:105320008091F00088608093F000FF91EF91BF9131
:10533000AF919F918F917F916F915F914F913F912D
:105340002F910F900FBE0F901F90189519BC1092BF
:10535000FF041092D10474CF8091E30087FD93E0A5
:105360009093FF04B5CF78941F921FB61F9211241B
:105370008F939F93AF93BF938091C8049091C9047A
:10538000A091CA04B091CB040196A11DB11D8093D8
:10539000C8049093C904A093CA04B093CB04BF91EE
:1053A000AF919F918F911F901FBE1F9018951F92D4
:1053B0001FB61F9211248F939F93AF93BF93809139
:1053C000C704811113C08091C8049091C904A091B1
:1053D000CA04B091CB044196A11DB11D8093C804AD
:1053E0009093C904A093CA04B093CB04BF91AF912A
:1053F0009F918F911F901FBE1F901895CDB7DEB75C
:10540000E8970FB6F894DEBF0FBECDBF84B7877F95
:1054100084BF0FB6F894A89580916000886180934E
:105420006000109260000FBE80E890E00FB6F89424
:1054300080936100909361000FBE85B7806885BF3F
:1054400085B7806885BF83E899E09093D101809308
:10545000D0010E94080F0E949B100E94CD030E9461
:10546000C0048091E20084608093E200789480918F
:10547000FF048823A1F01091E9001F709091EC00C7
:10548000892F817090FD80E8182B1092E90080919F
:10549000E80083FD0E947C141F701093E90082E0F5
:1054A00084BD93E095BD9AEF97BD80936E000E94F6
:1054B0007410811102C00E94E50E83E30E948509E9
:1054C00084E90E94850981EF0E94850986E60E9491
:1054D00085090EE511E0D8018D918D018F3F11F006
:1054E0000E948509B1E008361B07A9F788E0EFE8BC
:1054F000F2E0DF01282F1D922A95E9F7E6E7F2E0B6
:10550000DF011D928A95E9F70E94A619811102C058
:105510000E94B11982E090E00E94693380937E027C
:105520000E948D109093CD048093CC040E941112A0
:10553000EFE3FCE93197F1F700C000000E9411127F
:1055400080918F0280FF08C06FEF7FEF90E080E0D6
:105550000E94A5330E947D0D83E090E00E94693394
:105560000E9463141092C5028FEF9FEF9093DF02A9
:105570008093DE029093E1028093E0029093E30235
:105580008093E2029093E5028093E4029093E70215
:105590008093E6029093E9028093E8029093EB02F5
:1055A0008093EA029093ED028093EC020E94A61988
:1055B000811104C00E94B1190E94FE1146E050E022
:1055C0006CE170E088EF92E00E9459331092F7028C
:1055D0008091F8028C7F11F40E94FE1155985D9A1B
:1055E00053985B9A8FE891E00197F1F700C00000B3
:1055F00089B185FB882780F94B99ADC090E0892B54
:105600008093890280E091E09093C4048093C30466
:10561000332433948091FF0493E0F92E00E112E1EA
:10562000853009F4EAC00E94111281110E9492058E
:10563000AFE8B2E0EFE7F2E010E000E0602FED90BD
:10564000FD90219131912E153F0509F46BC22E2555
:105650003F25B12CCC24C394D12CA9014C215D2130
:10566000452B09F459C2BBA66CA7EC20FD2081E0B4
:10567000E114F10409F480E08DA70E949E05816089
:10568000782F9FA78EA74BA55CA56DA58FA50E941F
:105690006824F801EE0FFF1FE158FD4F80819181D2
:1056A000C826D926D182C082EF2871F08AE0809F77
:1056B000F001819FF00D1124E858FE4FEB0DF11D14
:1056C00080818F3F09F0A5C0D12C0D2D10E0809175
:1056D000C502800F912F911D09976CF188E090E031
:1056E0007C01E01AF10AB8016A537D4FA70186ECEC
:1056F00092E00E944933B80162537D4FA7018EECBE
:1057000092E00E944933A701440F551FB801660F6C
:10571000771F62527D4F8EED92E00E944933B801AF
:105720006A527D4FA70186ED92E00E94493388E0DE
:105730008D198093C5028091C50290E0A22DB0E042
:105740009D01220F331F20563E4FAA0FBB1FBD01E4
:105750006F557E4F76C092E052CF8091FF04843027
:1057600009F43AC00E94FF108091F60281110DC029
:105770000E94860710920F018091F8028370809337
:105780000E010E94A10DF0921301F1E0F093F602D8
:105790001092C70428E130E040E40FB6F894A895D1
:1057A000209360000FBE4093600083B7817F8460C8
:1057B00083BF83B7816083BF7894889583B78E7FDA
:1057C00083BF0FB6F894A89580916000886180939C
:1057D0006000109260000FBE8091F504882369F08C
:1057E0000E941112EFE8F2E081919191892B09F06A
:1057F000DDC682E0E739F807B9F78091FF0485300C
:1058000009F4ABCF0E9467140E94D6051092F602ED
:105810000ACF282EDD24D39458CF90E0FC01EB531F
:10582000FD4FD9015C915183DB015C915187218A45
:10583000880F991FFC01EB53FD4F128E118E91E0E2
:10584000842F41E0480F9D1540F38093C50280915D
:105850000C0190910D01F12CE6E1EE2E019609F07C
:10586000A5C1809114018111ABC10E94FF10E0918C
:105870008902EE0FEE0FE093890289B185FB88273C
:1058800080F98DAB1EAA4B99C6C180E02DA93EA917
:10589000822BE82BE0938902EF70F0E0E859FE4F8D
:1058A000808190918802890F8093880220E0843063
:1058B0004CF0809187028F5F8093870280E00E9486
:1058C000952721E0809188028D3F4CF480918702DA
:1058D00081508093870281E00E94952721E080918A
:1058E0008802082E000C990B64E070E00E941233CD
:1058F0008093880221110E94920586E0EEE9F2E091
:105900008E010F5F1F4FD80101900D928A95E1F72C
:10591000D090A002C090A102F090A202E090A30259
:105920001092A0021092A1021092A2021092A30261
:105930008D2D8C2909F448C080919C0290919D0284
:105940000E9483059C0190919802992309F451C605
:1059500025313105C8F19F3F19F09F5F9093980260
:10596000DD2059F00E94FB089FEF1D140CF491E01C
:10597000899F802D11248093A002CC2059F00E9491
:10598000FB089FEF1C140CF491E0899F802D1124DB
:105990008093A1023091A0023323B1F02091A102A3
:1059A000222391F045EB3403C0011124992309F41B
:1059B00035C19093A00245EB2403900111243323B9
:1059C00009F42FC13093A1028F2D8E2909F448C00C
:1059D00080919A0290919B020E9483059C01909174
:1059E0009702992309F400C621353105C8F19F3F7C
:1059F00019F09F5F90939702FF2059F00E94D908F9
:105A00009FEF1F140CF491E0899F802D1124809347
:105A1000A202EE2059F00E94D9089FEF1E140CF448
:105A200091E0899F802D11248093A3023091A202DE
:105A30003323B1F02091A302222391F045EB3403EC
:105A4000C0011124992309F4EFC09093A20245EB01
:105A5000240390011124332309F4E9C03093A302F5
:105A60008091A0029091A102892B9091A202892B92
:105A70009091A302892B11F00E942F0886E0F80173
:105A8000AEE9B2E001900D928A95E1F70E94D60549
:105A900090918A02891380938A028091FF04843056
:105AA00009F0B8CD83E08093E9008091E80082FF9F
:105AB000B1CD8091E80090E085FF0AC00E94EC0320
:105AC00070E2C72ED12C7801882309F4BDC091E083
:105AD0008091E8008B778093E800992309F49ACDB0
