:100000000C94BF050C94F7050C94F7050C94F705B8
:100010000C94F7050C94F7050C94F7050C94F70570
:100020000C94F7050C94F7050C94C51F0C94011F54
:100030000C946E230C94F7050C94F7050C94F705BB
:100040000C94F7050C94FA330C94F7050C94F7050F
:100050000C9473330C942D230C94F7050C94F70532
:100060000C94F7050C94F7050C94F7050C94F70520
:100070000C94F7050C94F7050C94F7050C94F70510
:100080000C94F7050C94F7050C94F7050C94F70500
:100090000C94F7050C94F7050C94F7050C94F705F0
:1000A0000C94F7050C94F7050C94F705ED0AED0A8E
:1000B000200B200BB60BD20B1F0D1F0DDD0B500CB0
:1000C000630C630C7C0D7E0D860DBC0DD50D960D5D
:1000D000F00D9814B214B914F11402151915251560
:1000E0003415C7153C1563158615B915BC15071DC4
:1000F0002E1DE31E2E1DE31E7A1D9D1DE31E9E1E5A
:10010000AE1E3E2534255225A025A625A625A025D0
:10011000A625A6257325A6257D258725A625A62502
:10012000A625A625A025A625A625A025A6256025C9
:10013000A625A625A225A225A225A225A225A2257F
:10014000A225A225A225A425A6253E253125A62542
:10015000A625A625A625A625A625A625A625A62547
:10016000A625A425A625A625A025A6259525952561
:100170009525952595259525952595259525A425A0
:1001800000047F3F1F643214783C1E1E140A05FDD4
:10019000377A585A000004E6D6B446020021011608
:1001A000000000742FE5A3E003D301815D003D88CA
:1001B00089C65436C3174FE4E6213E35DCBE4B37C3
:1001C00094CA7FD3A8FE859BD4F0F5621A3D22AE77
:1001D000083709727972773C952DD3353AAE39EFED
:1001E000D518C73D20EBD6E257C667C6BD89177F35
:1001F000A46D713BE620C38F8419805065B7EA393E
:100200006C1AC5E78C3C8A90A0C39BA88E8F049E75
:10021000E629579B0662C0E4ECA8EE2325A30DF463
:10022000FCEDA88E2A159ED8955ED42A959D67F27E
:10023000B6B6A0FDFED053BC9F0B38DE44A162F9D8
:100240003019F453F5345354EF7A147ADBD30AE0BF
:10025000DC5CB9D215BBC7F5A02CC89FA3E6378BD1
:1002600034FB03921B1B01ED2BA6CAB86DA9DAB0B3
:10027000D2A437A3D1822677939119B2EBF9A0507B
:100280005BC210318635A68BA3268E45C858D71879
:100290009F68C9DA2C9623F576EC0D7553C994A89E
:1002A0002F678297E550766F65FB465B5A9236362C
:1002B000842EEE42E14538EF8A8BAA41FD22179F3A
:1002C00067BB22098F5E93C17347D21747461B262F
:1002D0008A856985D4523CA5B6555C7C202A1B468C
:1002E0009458500F3D74A2EEE485EB058A59B26430
:1002F000CD455B09DED06E62149D3CBFF68F1012B7
:10030000D2EF5F06F6E8A56678A2FEC2A25AF10F08
:10031000EE813A2549A8B2B4AD94E60535C769FE29
:10032000C05C3BED1FED46CE8D12FDB0A8B00000C5
:10033000000000FFDFFA0AA51FF97A00019D03D42F
:10034000070000DB937489B1C467FB020000000062
:1003500004595A05010902A10185020901A10005FC
:1003600009190129051500250195057501810295D9
:1003700001750381010501093009311581257F953A
:10038000027508810609381581257F950175088158
:1003900006050C0A38021581257F9501750881062E
:1003A000C0C005010980A101850319012AB7001504
:1003B0000126B700950175108100C0050C0901A147
:1003C00001850419012AA002150126A002950175D4
:1003D000108100C005010906A1018506050719E085
:1003E00029E7150025019508750181020507190007
:1003F00029EF1500250195F0750181020508190105
:100400002905950575019102950175039101C006B5
:1004100060FF0961A1010962150026FF00952075A2
:100420000881020963150026FF00952075089102D6
:10043000C005010906A101050719E029E7150025F6
:10044000019508750181029501750881010507195B
:100450000029FF150026FF00950675088100050894
:100460001901290595057501910295017503910101
:10047000C009025B00030100A0FA090400000103A7
:10048000010100092111010001224000070581033B
:100490000800010904010002030000000921110104
:1004A0000001222200070582032000010705030343
:1004B00020000109040200010300000009211101CC
:1004C000000122BC00070584032000011201000284
:1004D00000000008707016240100010203011C03D3
:1004E0007600690061006C003A0066003600340056
:1004F0006300320062003300630000000E0353000B
:100500004E004F0050003600300000000A034E003D
:10051000610073007000000004030904165C1E00F3
:100520001F002000210022002300240025002600B7
:1005300027002D002E0031002B0014001A000800A7
:10054000150017001C0018000C00120013002F00EB
:1005500030002A00390004001600070009000A00D4
:100560000B000D000E000F003300340028000000C7
:10057000E1001D001B00060019000500110010001D
:10058000360037003800E50000002C00E000E300F2
:10059000E20000002C000000BF5C00002C00000006
:1005A000E600E700E4004C0035003A003B003C0068
:1005B0003D003E003F004000410042004300440037
:1005C00045004C00C25CC35C520001000100010008
:1005D0000100010001000100010001000100010013
:1005E000C15C500051004F000100010001000100FA
:1005F000010001000100010001000000BE5CBD5CC3
:10060000BF5C0100010001000100010001000100C8
:1006100001000100000001000100010001000000D4
:1006200001000000010000000100000001000100C5
:10063000005C010035003A003B003C003D003E00FC
:100640003F004000410042004300440045004C0090
:10065000C25CC35C52000100010001000100010006
:10066000010001000100010001000100C15C500017
:1006700051004F00010001000100010001000100D4
:100680000100010001000000BE5CBD5CBF5C010018
:100690000100010001000100010001000100010052
:1006A0000000010001000100010000000100000045
:1006B000010000000100000001000100005C0100D9
:1006C00035003A003B003C003D003E003F0040004A
:1006D000410042004300440045004C00C25CC35C42
:1006E00052000100010001000100010001000100B1
:1006F0000100010001000100C15C500051004F00E9
:1007000001000100010001000100010001000100E1
:1007100001000000BE5CBD5CBF5C01000100010087
:1007200001000100010001000100010000000100C2
:1007300001000100010000000100000001000000B4
:100740000100000001000100005C01000100010047
:1007500061029122C4220000020002005D02912287
:10076000C42200000300010062029122C4220000A2
:100770000400020047029122C422AA2105000100C0
:1007800063029122C4220000060002004902912265
:10079000C4220000070002005F029122C422000070
:1007A0000800010064029122C42200000900020036
:1007B0004B029122C42285210A0002004D0291229F
:1007C000C42285210B0002004F029122C422852100
:1007D0000C00020051029122C42285210D0002006A
:1007E00053029122C42285210E000200550291225B
:1007F000C42285210F00020057029122C4228521C4
:100800001000020059029122C42285211100020029
:100810005B029122C422852112000200650291220E
:10082000C42200001300020067029122C4220000CB
:100830001400010069029122C4220000150000008A
:100840000000FE201322000000010101010101014E
:100850000101020202020202020202030303030375
:100860000303030404040404040405050505050644
:100870000606060607070707070808080809090902
:10088000090A0A0A0B0B0B0C0C0C0D0D0D0E0E0EAB
:100890000F0F0F101011111112121313141415153C
:1008A00016161717181819191A1A1B1B1C1D1D1EAE
:1008B0001E1F202021222223242425262627282902
:1008C000292A2B2C2D2D2E2F303132323334353630
:1008D0003738393A3B3C3D3E3F4041424344454630
:1008E0004748494A4C4D4E4F50515354555658590C
:1008F0005A5B5D5E5F616264656668696B6C6D6FB3
:100900007072737577787A7B7D7E80828385878825
:100910008A8C8E8F91939596989A9C9EA0A2A3A55F
:10092000A7A9ABADAFB1B3B5B7BABCBEC0C2C4C660
:10093000C9CBCDCFD1D4D6D8DBDDDFE2E4E7E9EB1C
:10094000EEF0F3F5F8FAFDFFFFAA7F5540222325CC
:100950002628292A2C2D2F3032333536383A3B3D84
:100960003E4042434547494A4C4E505153555759D2
:100970005A5C5E6062646668696B6D6F71737577EF
:10098000797B7D7F81838587898A8C8E90929496EE
:10099000989A9C9E9FA1A3A5A7A8AAACAEAFB1B3FD
:1009A000B4B6B8B9BBBCBEBFC1C2C3C5C6C7C9CA4D
:1009B000CBCCCDCED0D1D2D2D3D4D5D6D7D7D8D90F
:1009C000D9DADADBDBDBDCDCDCDCDCDDDDDDDDDC6D
:1009D000DCDCDCDCDBDBDBDADAD9D9D8D7D7D6D57F
:1009E000D4D3D2D2D1D0CECDCCCBCAC9C7C6C5C341
:1009F000C2C1BFBEBCBBB9B8B6B4B3B1AFAEACAA8E
:100A0000A8A7A5A3A19F9E9C9A98969492908E8C3D
:100A10008A89878583817F7D7B79777573716F6D17
:100A20006B6968666462605E5C5A595755535150F1
:100A30004E4C4A4947454342403E3D3B3A383635A5
:100A40003332302F2D2C2A2928262523220000007E
:100A50000000000000000000010102030405060878
:100A60000A0C0F1114181C2024292E33393F464C30
:100A7000535B626A7179818A929AA2AAB2B9C1C89B
:100A8000CFD5DCE1E7EBF0F4F7FAFCFDFEFFFEFD6D
:100A9000FCFAF7F4F0EBE7E1DCD5CFC8C1B9B2AAB4
:100AA000A29A928A8179716A625B534C463F3933CC
:100AB0002E2924201C1814110F0C0A080605040303
:100AC0000201010000000000000000000000000022
:100AD0000000000000000000000000000000000016
:100AE0000000000000000000000000000000000006
:100AF000007E0F00D4FFFFFFC70000007800000059
:100B000000000000002A2B28000000000000000068
:100B1000000000000000000029000000002C1E342E
:100B200020212224342627252E362D3738271E1F34
:100B3000202122232425263333362E37381F04055F
:100B4000060708090A0B0C0D0E0F101112131415CD
:100B5000161718191A1B1C1D2F3130232D350405AB
:100B6000060708090A0B0C0D0E0F101112131415AD
:100B7000161718191A1B1C1D2F3130354C00112463
:100B80001FBECFEFDAE0DEBFCDBF04B603FE18C054
:100B900080914C0390914D03A0914E03B0914F036F
:100BA0008730904BA740B04B59F410924C031092F1
:100BB0004D0310924E0310924F03E0E0F8E30995C5
:100BC00011E0A0E0B1E0EEE5FFE602C005900D9275
:100BD000A03AB107D9F723E0A0EAB1E001C01D9225
:100BE000AC34B207E1F70E94D60E0C94AD370C94EA
:100BF00000006F927F928F929F92AF92BF92CF929E
:100C0000DF92EF92FF920F931F93CF93DF9300D069
:100C100000D0CDB7DEB77C01FC01438154816181F6
:100C200080810E944F3081110C94C30E61E0C70196
:100C30000E9495358C01F7018281882309F4C4C094
:100C4000C80182519F45489708F043C75EEED52EF4
:100C5000D00EFFE0FD1508F4C0C08FEF93E00E94B6
:100C6000BA368111BAC00BE812E0DD2071F001152F
:100C700024E0120709F4B1C0C8010E94BA368111FC
:100C800001C0DA940F5F1F4FF0CF19821A821B82C6
:100C90001C82AA24AA9468018FEFC81AD80AC80136
:100CA0000E94BA3689831A82882309F496C081305B
:100CB00009F085C0480192E0890E911CC6010E948E
:100CC000BA36B82E8A83882309F487C08FEF8B0D3C
:100CD000833060F46801E3E0CE0ED11CC4010E94B1
:100CE000BA368B8381116BC08601D5CF8BEF8B0D0C
:100CF0008330C0F53801F3E06F0E711CC4010E940F
:100D0000BA368B83811102C06301EECF680124E003
:100D1000C20ED11CC3010E94BA368C83882321F3F2
:100D20008B819C818130EFEF9E0718F0182F00E037
:100D300001C08C01F6E0BF1669F027E0B21671F031
:100D4000C8010E94B43280916502909166020E94AF
:100D5000DA2504C0C8010E94B432C6CFC8010E947F
:100D60008432C2CF84E0B81611F06401BDCFC40153
:100D70000E94BA36B82E680194E0C90ED11CC80191
:100D800003960E94BA36BB2041F1882331F1282F07
:100D900030E021503109A29EA001A39E500D1124E4
:100DA0008B2D90E00197840F951F019708F49CCF3D
:100DB000EFE9FFE03197F1F700C00000F6CFCE0178
:100DC00001960E94B93490CF0031FFE51F07B9F4B6
:100DD00081E00E94C6160E94141C8091EE0287706A
:100DE00009F4D1C7F7018281882309F4CCC7809127
:100DF0007A0282FDC8C782E00E94632FC4C7013116
:100E00002FE5120749F482E0E4CFF801EB5BFC45E3
:100E1000E730F10508F46CC68091620280FFBDC026
:100E20000E9462236C01F70182818823D9F18091AD
:100E3000110182FF08C02AEB31E040E0B60180E0FA
:100E400090E00E94E5250B31FCE51F0779F00C319D
:100E50002CE5120789F00A318CE51807A1F480917E
:100E60001101982F909590FB80F909C08091110194
:100E700081608093110107C0809111018E7F809362
:100E800011010E94A825C80190568115E0E29E0735
:100E900020F0905E8115904180F5109241021092F1
:100EA00040027BC0013E110521F4809111018F7E2B
:100EB00006C0053E110531F4809111018F7D8093AC
:100EC00011011BC0C8019056811520E2920720F045
:100ED000905E8115904188F48091110182FF5DC080
:100EE0008091640281FD59C02AEB31E040E0B601F7
:100EF00080E090E00E94E52550C08091110180FFC4
:100F00004CC0F70182810832110538F40E31110509
:100F1000B8F40430110578F41CC00933110538F415
:100F20000D32110590F40B32110579F012C0043620
:100F3000110559F00EC09091620294FD0AC0B7C12C
:100F40009091620293FD05C0B2C19091620292FF3E
:100F5000AEC1882311F11092410210924002033F6A
:100F6000FCE51F07B9F178F4083D8CE5180761F13D
:100F7000093D9CE5190709F44EC0073DECE51E0745
:100F800009F057C01BC0053FFCE51F07A1F168F140
:100F9000063F8CE51807C9F14CC0033FFCE51F076D
:100FA000C9F0F0F4083D8CE5180771F0093D9CE5A7
:100FB000190789F1073DECE51E07B1F506E221EEC0
:100FC00041EE67ED7CE52CC007E225EE45EE68EDCD
:100FD0007CE526C006E221EE40EE63EF7CE520C012
:100FE000053FFCE51F0739F060F407E225EE44EE0B
:100FF00064EF7CE515C006E221EE42EE65EF7CE58C
:101000000FC0063F8CE5180779F407E225EE46EE9F
:1010100066EF7CE505C008E221E045EE69ED7CE580
:10102000C7010E942C24D9CEF7012281222309F482
:1010300031C210926D020330FDE51F0758F40A3FDC
:101040002CE5120780F4C80182509C45449708F0B3
:10105000DBC109C001368DE5180729F0053A9DE589
:10106000190709F0D1C10E94AA2E90937A028093A9
:1010700079020131ECE51E0709F4C6C008F042C050
:1010800009302CE5120709F49BC000F505309CE5FA
:10109000190709F485C078F40330FCE51F0709F44B
:1010A00078C008F07AC002301C4509F0F7C0809182
:1010B00079028160F1C007309CE5190709F478C016
:1010C00008F07AC0809179028061E6C00D30FCE5BD
:1010D0001F0709F487C058F40B308CE5180709F492
:1010E00079C008F07BC08091790288606FC00F30B2
:1010F000ECE51E0709F480C008F082C080917902F7
:10110000877FCAC00D3F2CE5120709F471C000F5B6
:1011100005319CE5190709F485C068F40331FCE545
:101120001F0709F475C008F095C00E94041780914C
:1011300079028F77B1C00B3F8CE51807A9F108F051
:1011400054C00A3F1C4509F0A9C080917A0240C0F2
:101150000130FDE51F0709F489C058F40F3F8CE505
:10116000180709F45AC008F069C080917A028260B9
:101170002FC00136EDE51E0709F47EC0053AFDE5F6
:101180001F0709F483C002301D4509F087C060E0E5
:101190006EC08091790282607FC08091790216C012
:1011A00080917902886078C080917A0282604FC015
:1011B00080917902806270C08091790280646CC0F5
:1011C0000E94041780917902806866C0846064C0C0
:1011D00081603DC0809179028E7F5EC080917902EE
:1011E0008D7F5AC08091790216C080917A0218C012
:1011F00080917A028D7F2BC0809179028F7E4CC0C6
:10120000809179028F7D48C0809179028F7B44C0A4
:1012100080917902877F8B7F3FC080917A028D7F9A
:101220008E7F15C08091790282FB222720F991E000
:10123000922790FB82F990FB83F92EC080917A026D
:10124000982F909591708E7F892B90FB81F98093D8
:101250007A0224C00E9404178091790287FB22271A
:1012600020F991E0922790FB87F916C061E08EE0AB
:1012700090E00E94CE3612C08091790284FB222732
:1012800020F991E0922790FB84F906C080917902C1
:10129000982F909590FB80F9809379028091790244
:1012A00090917A020E949D2E0E94041796CD882369
:1012B00009F4A3C020911D0280911103982F922B55
:1012C000392F3D7F79F11092410210924002309106
:1012D000620231FD27C0F80143E0F695E7954A9593
:1012E000E1F7EE71FF27E25EFD4F98012F70332783
:1012F00081E090E002C0880F991F2A95E2F780955F
:101300009095208131818223932391838083A7014B
:1013100060E0C8010E94C625809111038D7F0E9464
:101320003B2F67C036E0F701AAEBB1E001900D92C8
:101330003A95E1F71092BC011092BE011092BD01E6
:10134000409140025091410204171507D1F53091A8
:10135000620235FF36C04091110141FF02C036FFE5
:1013600030C040913E0250913F02B601641B750BA4
:1013700040915F02509160026417750710F521FFDC
:1013800008C08091110180618093110182E00E9468
:101390004F2F80911D0285FF08C08091110180624E
:1013A0008093110180E20E944F2F60911101669598
:1013B0006170A70180914002909141020E94C62570
:1013C0000CCD969591702091110190FB21F92093FD
:1013D00011018D7F0E943B2F109341020093400228
:1013E000D0923F02C0923E028091110184608093AE
:1013F000110182E00E94632FF0CC970140E0B6011A
:10140000C8010E94E525E9CC06319CE5190709F0E1
:1014100063C021E080911D02982F9A7A3091610279
:1014200030FF04C0482F447409F090E031FF04C03D
:10143000482F417109F090E032FF04C0482F4878EE
:1014400009F090E033FF02C0827261F42223A1F020
:1014500081E0911101C080E08093A201992331F0D5
:1014600065E305C0222341F01092A20169E283E9FD
:1014700092E00E94BF230BC08091A201882311F04B
:1014800065E301C069E283E992E00E9497230E942C
:10149000C52FA3CC0631ECE51E0709F4BBCF809124
:1014A0001D0282720C3C9CE5190709F44FC408F038
:1014B000D4C3063CFCE51F0709F434C408F0A9C3F3
:1014C000033C9CE5190709F423C408F093C3023CCC
:1014D000FCE51F0709F4F7C3F7018281882389F12E
:1014E0000A35FDE51F0741F150F401158CE5180799
:1014F000A9F00E3D1C4529F50E94C62E6ECC0B3579
:10150000EDE51E07D9F00C351D45D9F480917A021E
:1015100082FB882780F991E0892711C00E94041777
:101520002FEF84E39CE0215080409040E1F700C021
:1015300000000E94092351CC81E001C080E00E949C
:10154000802FF701828100811181882349F0C80131
:101550000E942916D82E682FC8010E94951604C033
:10156000C8010E946516D82EB8018D2D0E942B2728
:101570000E94032D8C01982EF701B280C580C29481
:101580003FE0C3228091EE028770B9F0BB20A9F042
:10159000812F807F803421F080E2800F883068F0D6
:1015A00080917A0282FD09C082E00E94632F8091BF
:1015B000EE028770AA24A3948111A12C812E82941B
:1015C0002FE08222882D90E08C30910508F037C200
:1015D000FC01EA5AFF4F0C945C37912F9F70812FCA
:1015E000807FD92E19F0D29490EFD922BB20A9F098
:1015F000DD2009F404C280E2800F883010F09110E1
:1016000004C08D2D0E94562F05C080911C02D82A3F
:10161000D0921C020E94C52FF2C1802F0E943C175D
:10162000DD2009F40CC280E2800F883088F1992017
:1016300079F1D09480911C02D822D0921C022BC048
:10164000912F9F70812F807FD92E803219F0D294F4
:1016500080EFD822992029F0F1E09F1609F45CC0B0
:1016600067C080917A0282FF19C0BB2059F0DD204B
:1016700029F08D2D0E94562F0E94C52F80E00E94D8
:101680009C17DDC180E00E943C17DD2009F4D7C122
:101690008D2D0E944F2F0E94C52FD1C1BB2001F17B
:1016A000CC20D1F021E0C21206C0809111038D2917
:1016B0000E943B2FC4C180916302823068F0C8123F
:1016C0000BC00E94302F8091EB02D812D092EB0217
:1016D0008D2D0E943517B3C1809111038D29F9CF4B
:1016E000CC2079F08091630291E0C91210C0823061
:1016F00008F4A5C180911D028D2109F4A0C10E94AA
:1017000029300E94302F8D2D0E942E1798C18230D3
:10171000C0F3C812F6CF93C180916902BB2021F0BB
:101720008C1508F48CC1D4CFC81608F088C1EBCF53
:10173000BB20B1F0CC2061F220E0F7014081518163
:101740006281738184810E946C358091640281FD85
:1017500056C1F701858180FF52C18F708583B8CF54
:10176000CC2089F2F9E39F125AC154C1812F86958A
:101770008695837019F0813059F061C1BB2019F052
:10178000C801937002C080E090E00E940A245DC10D
:10179000BB2019F0C801937002C080E090E00E9465
:1017A000F42353C1802FBB2019F00E945E2B02C08E
:1017B0000E94512A0E94272A48C1812F8370A1F5D7
:1017C000B11041C1402F429546954770440F440FD8
:1017D000202F2F7030E0C901042E01C0880F0A9419
:1017E000EAF704FF08C02FE030E001C0220F4A955D
:1017F000EAF7209501C020E0312F369536953370F9
:10180000323069F040F440911203313019F0822BEC
:10181000842302C0842B822B0E94DD1614C1282B46
:10182000809112038227F8CFBB2019F0812F81709D
:1018300001C08695882309F406C1402F429546953C
:101840004770440F440F202F2F7030E0C901042E41
:1018500001C0880F0A94EAF704FF08C02FE030E0C7
:1018600001C0220F4A95EAF7209501C020E0312FF0
:10187000369536953370323051F070F4409117023E
:10188000313019F0822B842308C0842B05C0282B0B
:1018900080911702822701C0822B0E94C216D3C0FA
:1018A000212F2F70D22EBB2039F0822F0E94D2160A
:1018B000802F0E943517C7C0802F0E942E178D2DB4
:1018C0000E94C616C0C0802F92EF991639F1991563
:1018D00038F0E0EF9E1659F0F1EF9F16B9F18BC08A
:1018E00023EF921609F194EF991661F184C080916B
:1018F0006902BB2021F0C81608F0A1C003C08C15F6
:1019000008F49DC0212F2F7181E090E001C0880F65
:101910002A95EAF79091170289270FC0812F8F71BE
:10192000BB2009F470C087C0BB2051F081E0912F2B
:101930009F7101C0880F9A95EAF70E94C2167FC076
:1019400080E0FBCF80917A0282FF06C0812F8F71E9
:10195000BB2009F470C057C0809163028230A0F1AF
:101960008091EB02BB20E1F00E944F2F8091EE02AC
:101970008770843039F40E945C2F812F8F710E9410
:10198000C6165CC080916302C81608F057C0E12FEC
:10199000EF71DE2E8E2F0E94D21663E08D2D0DC0CA
:1019A0000E94562F80916302C81650F00E945C2F4F
:1019B0000E94293064E0812F8F710E94952F3EC0D4
:1019C00081E00E94632F3AC0BB2059F0F12FFF71D4
:1019D000DF2E8F2F0E94D21663E08D2D0E94952F4F
:1019E0002EC081E00E94632F21E02C1540F582E09B
:1019F0000E94632F24C0BB2049F0CC2011F0802F1F
:101A00003ECE812F8F710E94D21619C0CC2089F052
:101A1000893329F4809167029091680204C0809113
:101A20006502909166020E94DA25802F0E943C1781
:101A300006C0812F8F710E94C61601C0A12C88EFAD
:101A4000880D843010F40E942024C8010E94E11601
:101A5000811105C01092A4011092A3011EC0BB20E9
:101A600019F0C110F7CF19C0C110F4CF20E0F70171
:101A7000408151816281738184810E946C358091A3
:101A8000640283FFE7CF8091A3019091A4010297A4
:101A900009F7802F0E949718DDCFAA20A9F0809126
:101AA000EE0280FD11C0F70112828595859585951E
:101AB0000E94D216C7010E94F9058091EE02859519
:101AC000859585950E94C61660E0C7010E949535F0
:101AD0005AC100318FE5180711F481E006C00131C9
:101AE0009FE5190709F091C982E00E94D21673C9D7
:101AF000EE59FF4F0C945C3786E001C080E00E94F5
:101B00003034809147030E94053467C980914703B0
:101B1000982F96959695969549F1915E990F990F04
:101B2000990F8770892B8093470314C090914703C6
:101B3000892F8695869586958F5F8F7197708730F0
:101B400008F04BC0880F880F880F892B80934703BC
:101B500080914703887F91E009F490E080914703EA
:101B600090FB80F9809347030E94053480914703DE
:101B700086958695869523C020914703822F86956A
:101B800086958695482F50E04630510554F48F5F76
:101B9000982F990F990F990F822F8770892B809317
:101BA0004703809147038160DDCF8091470380FF29
:101BB00009C08E7F809347030E94053480E00E9415
:101BC0002F330BC9816080934703813019F489E07A
:101BD0008093470380914703C7CF90934703B8CFC3
:101BE0008091470381FF03C00E940A34F6C80E9417
:101BF0001D34F3C8043C2CE5120709F48EC0053CE3
:101C00009CE5190709F068CC40EC59E269EC79E2EF
:101C1000A1C0093CECE51E0709F48EC078F4073C2E
:101C20002CE5120709F483C0083C9CE5190709F06C
:101C300053CC44EB59E268EA79E28CC00A3CECE50B
:101C40001E0709F47EC00B3CFCE51F0709F044CCDD
:101C500044E158E265E278E27DC0013D2CE51207DF
:101C600009F4BBC8A0F40E3C9CE5190709F478C040
:101C700008F473C00F3CFCE51F0709F474C0003D75
:101C80002CE5120709F028CC6EE089E074C0043D11
:101C90008CE5180709F46DC058F4023DECE51E0709
:101CA00009F464C0033DFCE51F0709F496C814CC91
:101CB000053D2CE5120709F461C00D358DE51807C7
:101CC00009F48BC809CC8091420380FF1BC08E7F32
:101CD00080934203609142037091430380914403D7
:101CE000909145030E940228109292029FEFE0E734
:101CF000F2E09150E040F040E1F700C000000E94A7
:101D0000A8276BC881608093420361E0869538C044
:101D100044E15AE26DE17AE21DC04DE15AE264E12C
:101D20007AE218C049EC59E260EC79E213C048EA63
:101D300059E264EB79E20EC040E959E26CE979E2DC
:101D400009C04CE959E260E979E204C045E258E291
:101D500064E178E20E94863440C861E081E010C00E
:101D600065E082E008C068E086E005C061E18FE0E0
:101D700002C06BE182E10E9474342FC861E08CE103
:101D80000E94D2292AC80F900F900F900F90DF91D8
:101D9000CF911F910F91FF90EF90DF90CF90BF9068
:101DA000AF909F908F907F906F900895CF93DF9327
:101DB000CDB7DEB7E2970FB6F894DEBF0FBECDBF4A
:101DC00084B7877F84BF0FB6F894A8958091600090
:101DD000886180936000109260000FBE90E080E800
:101DE0000FB6F89480936100909361000FBE85B7A1
:101DF000806885BF85B7806885BF86EC9BE290933D
:101E0000A1018093A0010E94AD260E94451F0E945F
:101E1000641F8091E20084608093E2007894809156
:101E20000D028823A1F01091E9001F709091EC0041
:101E3000892F817090FD80E8182B1092E900809125
:101E4000E80083FD0E941F1C1F701093E90082E0D0
:101E500084BD93E095BD9AEF97BD80936E000E947C
:101E60001633811102C00E94073300E311E0B5E38D
:101E7000EB2EB1E0FB2ED8018D918D018F3F11F03B
:101E80000E940B2CE016F106B1F705E311E0A3E484
:101E9000EA2EA1E0FA2EF80181918F018F3F11F017
:101EA0000E940B2CE016F106B1F78AE0E3ECF1E0BA
:101EB000DF01282F1D922A95E9F7E5EAF1E0DF011D
:101EC0001D928A95E9F70E94BB2E811102C00E94E3
:101ED000C62E82E090E00E94BA36809343020E94B0
:101EE000AA2E90937A02809379020E94222CEFE32B
:101EF000FCE93197F1F700C000000E94222C80918C
:101F0000C30180FF08C06FEF7FEF80E090E00E9488
:101F1000EC360E94092383E090E00E94BA360E94CA
:101F2000DD16519A599882E08093800089E1809370
:101F300081008FEF9FEF90938700809386000E942F
:101F400049348091470381FF09C010924B031092DE
:101F50004A031092490381E0809348030E94493468
:101F60008091AF01811133C00E94BB2E811104C04A
:101F70000E94C62E0E94362888E090E00E94C23659
:101F8000609342037093430380934403909345030B
:101F90006E7F71F40E94362888E090E00E94C2367D
:101FA00060934203709343038093440390934503EB
:101FB0000E94EF27109292028091420380FF04C09A
:101FC00060E086950E94D22981E08093AF0180E095
:101FD00091E09093710280937002E8E16E2E712C73
:101FE000F0E45F2E8E010F5F1F4F4E01FBE08F0E5E
:101FF000911C80910D02853009F04AC060E1E62E07
:1020000072E1F72E80910D02853009F03BC080917E
:102010000D02843021F180E00E942F33109274026F
:102020000FB6F894A895609260000FBE50926000C1
:1020300083B7817F846083BF83B7816083BF7894D7
:10204000889583B78E7F83BF0FB6F894A89580914B
:102050006000886180936000109260000FBE8091E4
:102060000C02882309F4CECF0E94222CE3ECF1E08D
:1020700081919191892B09F0B2C521E0ED3CF207E5
:10208000B9F7C0CF0E9404170E9449340E9420244F
:102090000E94222C882359F08FB7F8944091750242
:1020A0005091760260917702709178028FBF53EC65
:1020B000A52E51E0B52EA0EBB1E0F501E12CF12CFD
:1020C0007E2D219131918D919D91822793270097AB
:1020D00079F160E0CC24C394D12CAC014C215D217A
:1020E000452B09F169A77AA72C213D2181E0232BFB
:1020F00009F480E08BA70E9462238160782F9DA75E
:102100008CA749A55AA56BA58DA50E94D135F701CD
:10211000EE0FFF1FE055FE4F80819181C826D92622
:10212000D182C0821CC06F5FCC0CDD1C6E30A9F662
:102130003FEFE31AF30A45E0E416F10409F68FEFE6
:102140008EA78FA718AA0E9462238160782F9AAB6E
:1021500089AB4EA55FA568A98AA90E94D135809157
:10216000620280FF1EC08091110182FF1AC00E948E
:10217000622320913E0230913F02AC01421B530B7F
:1021800020910F01309110014217530750F02AEBB4
:1021900031E041E0BC0180914002909141020E94F7
:1021A000E52580919202882309F475C080919102FF
:1021B000E0914203E695E81BE0938D02823059F4EA
:1021C000F0E0E557FE4FE491EE2EF12C2DEBC22E00
:1021D00021E3D22E3BC0863059F4F0E0E857FE4FA1
:1021E000E491EE2EF12C9DEAC92E91E3D92E2EC05A
:1021F000893061F4E695F0E0EB57FE4FE491EE2E66
:10220000F12C83E8C82E81E3D82E20C08F3059F4FA
:10221000F0E0EE57FE4FE491EE2EF12CB5E3CB2E1D
:10222000B1E3DB2E13C08C3149F4E0E8F1E0E59036
:10223000F490A5EFCA2EA0E3DA2E08C0E0EDEE2E52
:10224000E7E0FE2EF4EFCF2EF0E3DF2E80918E023A
:10225000882361F010928E020E94622390938C0278
:1022600080938B021092900210928F020E94622340
:10227000E0918B02F0918C028E1B9F0B8F3F9F474A
:1022800050F4EE0EFF1EF0928C02E0928B028BE86F
:1022900092E0F601099586E0E5E8F2E0D8010190C8
:1022A0000D928A95E1F7C0908702D0908802E09065
:1022B0008902F0908A02109287021092880210928E
:1022C000890210928A02C11003C0DD2009F45DC0AA
:1022D00080918302909184020E945323AC019091DB
:1022E0007F02992339F02091180130E02417350737
:1022F00058F04BC020911901FAE02F9F9001112452
:102300002417350718F041C09F3F19F09F5F909345
:102310007F02CC2061F00E940F2B1C1414F491E07A
:1023200001C09FEF899F802D112480938702DD20BB
:1023300061F00E940F2B1D1414F491E001C09FEF77
:10234000899F802D11248093880230918702332346
:10235000E1F0209188022223C1F045EB3403C00153
:102360001124992319F09093870203C081E0809390
:10237000870235EB2303C0011124992319F09093B0
:10238000880203C081E080938802E11003C0FF202F
:1023900009F45DC080918102909182020E945323D2
:1023A000AC0190917E02992339F020910D0130E02B
:1023B0002417350758F04BC020910E018AE0289F62
:1023C000900111242417350718F041C09F3F19F0E0
:1023D0009F5F90937E02EE2061F00E94D62A1E1429
:1023E00014F491E001C09FEF899F802D1124809308
:1023F0008902FF2061F00E94D62A1F1414F491E094
:1024000001C09FEF899F802D112480938A02309113
:1024100089023323E1F020918A022223C1F045EBA7
:102420003403C0011124992319F09093890203C049
:1024300081E08093890235EB2303C00111249923A5
:1024400019F090938A0203C081E080938A02809100
:10245000870281110BC080918802811107C0809191
:102460008902811103C080918A0281110E94272A6A
:10247000CB82DC82ED82FE8286E0F801A5E8B2E044
:1024800001900D928A95E1F70E9420249091C0015D
:1024900089138093C00180910D02843009F0A9CD89
:1024A00083E08093E9008091E80082FFA2CD8091D3
:1024B000E80085FF21C00E949C2081111BC070E2B2
:1024C000E72EF12C680109C08091F100D6018D93AF
:1024D0006D01B1E0EB1AF10869F08091E80085FD2B
:1024E000F3CF8091E8008B778093E8000E949C20D6
:1024F000882399F391E001C090E08091E8008B7708
:102500008093E800992309F474CDE0901A02F090CA
:102510001B028981E114F10461F08E3F09F037C399
:102520008A81833008F4F8C18550833008F02FC3C6
:10253000F3C1893009F41FC1D0F4843009F471C0AB
:1025400050F48230A1F108F05FC0813009F01DC362
:102550001A8289E08FC2863009F475C008F468C019
:10256000873009F473C0883009F4CDC00EC38031C0
:1025700009F46EC180F48D3009F40CC128F48C305C
:1025800009F003C380E168C18E3009F407C18F30C0
:1025900009F42FC1FAC2823109F460C108F45BC1A9
:1025A000833109F485C18E3F09F4B6C1EEC28A8138
:1025B000823009F42AC3833089F0813009F0E5C202
:1025C0002FB7F8948091750290917602A0917702CE
:1025D000B09178022FBFBB83AC8328C080911201D9
:1025E00090911301892B09F4D2C2F801D5018C9185
:1025F00011969C91B2E0AB0EB11C9283838332960C
:10260000E815F90599F7C3C28A81823009F0BDC285
:102610006B817C818D819E810E9462370E94E532B0
:10262000B6C24C816B818A810E9456329D83F4C26E
:102630002D813E813227232732274C816B818A816D
:102640000E942032A4C20E944727A1C28A818930F9
:1026500019F08A3071F015C08B81E6E08E9FC001C1
:1026600011246FEF70E00E941237862F0E943034E1
:1026700008C08B81811103C00E940A3402C00E94ED
:102680001D348A818138B1F050F4803809F07FC25E
:1026900020E04B81609144038091430331C0823834
:1026A00059F1833809F073C220E0409145036C81F1
:1026B0008B8126C060E08B810E94D2299B81809112
:1026C0004203911111C08E7F8093420310929202B7
:1026D000FFEF20E732E0F15020403040E1F700C04A
:1026E00000000E94A82753C281608093420360E0EB
:1026F00086950E94D2294BC28B818093460347C2A4
:102700000E94F52844C28A81893039F08A30A1F4C8
:102710008091470386958170ADC18091470386956E
:10272000869586954FEF849FC001112466E070E086
:102730000E9412376B832BC2813891F030F48038BD
:1027400009F025C28091450395C1823889F083380C
:1027500009F01DC2809143038B838091440350C1D3
:102760008091420380FF02C0869584C180E082C1CF
:10277000809146037FC1809147030E940534609198
:1027800042037091430380914403909145030E945A
:102790000228FDC181E08A8385E76CC1EA80FB8065
:1027A000FE24EF24FE24AC80B12C8DE1A816B104E8
:1027B00008F0EDC16801C70185579D4F9601201BA8
:1027C000310B2A153B0508F0E2C1A5E7EA16A1E0A6
:1027D000FA0628F40E94BA36F601848303C0D601B3
:1027E00014961C92BFEFEB1AFB0AEFEFCE1ADE0A2B
:1027F000E2CF8091120190911301892B09F4C7C196
:10280000EA80FB80FE24EF24FE24CC80D12CFDE165
:10281000CF16D10408F0BBC15801C70185579D4FA1
:102820009501201B310B2C153D0508F0B0C125E7A3
:10283000E21621E0F20628F4D50114966C910E946C
:10284000CE36BFEFEB1AFB0AEFEFAE1ABE0AE5CFAA
:102850000E941B279CC184E08A8399C1EA80FB8087
:10286000FE24EF24FE24AC80B12CFDE1AF16B104B0
:1028700008F08DC16801C70187969601201B310BB6
:102880002A153B0508F083C120E3E21622E0F20698
:1028900030F40E94BA36D60114968C9302C0F60129
:1028A0001482FFEFEF1AFF0A2FEFC21AD20AE3CF0A
:1028B000EA80FB80FE24EF24FE24CC80D12C3DE175
:1028C000C316D10408F063C140E3E41642E0F40605
:1028D00008F05DC180E392E08E199F098C159D057B
:1028E00008F455C15801C70187969501201B310B8B
:1028F0002C153D0508F04BC1A0E3EA16A2E0FA064C
:1029000020F4F50164810E94CE36FFEFEF1AFF0A32
:102910002FEFA21AB20AE7CFEA818E2F90E08E3015
:10292000910508F034C1FC01E759FF4F0C945C3766
:1029300088E0E8E2F1E0DE01919601900D928A953F
:10294000E1F780E2D8011D928A95E9F785E0898355
:1029500088E0FE01B196DE01159601900D928A95F0
:10296000E1F715C184EC898381E08A831B821C8294
:102970000EC18C8190E0982F88272B81820F911DAA
:10298000092E000CAA0BBB0B65E0880F991FAA1F2C
:10299000BB1F6A95D1F7AC01BD01405E5F4F6F4F21
:1029A0007F4F481759076A077B0708F4F0C0843C3B
:1029B000E1E09E07A105B10508F0E9C0453CF1E062
:1029C0005F076105710520F044EC51E060E070E0C4
:1029D000481B590BBC0161577E4FC8010E94B1369C
:1029E000D6C0FB80EC8040E06E2D8F2D0E94F6312A
:1029F00099838A8341E06E2D8F2D0E94F6319B834F
:102A00008C83C5C02E813F81322723273227211591
:102A10004CE5340741F48091120190911301892B08
:102A200011F420E030E04D816C818B810E94D13126
:102A3000AEC040E250E06FEF70E0C8010E94A637E0
:102A4000809112018983EA82A2C081E090E0909394
:102A50001B0280931A0282E390E09093C20180935C
:102A6000C1010E94622393C0809112018983EA828E
:102A70008091C1018B838BC0EB80FC8040E250E0F1
:102A80006FEF70E0C8010E94A6372CE437E080E0C9
:102A900090E0AC014E5F5F4F4132510508F077C0C6
:102AA000F90165917491E616F70630F4F801E80F24
:102AB000F91F71836083CA01245F3F4FA8E0283467
:102AC0003A0739F764C02B813C818CE497E0FC0124
:102AD000459154912417350731F00C96B8E08834AD
:102AE0009B07A9F752C0009709F44FC0FC01369626
:102AF000259134912115310509F447C04FE150E08B
:102B0000BE016E5F7F4FF901099540C02B813C816A
:102B100088E498E04CE4E42E47E0F42EF701459178
:102B200054912417350739F0FCE0EF0EF11C8E1597
:102B30009F05A1F72AC0E114F10439F1F701389695
:102B4000259134912115310501F14CE150E0BE0190
:102B50006B5F7F4FC701F90109950097B9F4F70141
:102B60003A9685919491009711F0FC01099580E0C7
:102B70000DC00E94D4260BC08B81811108C080E259
:102B8000D8011D928A95E9F702C08FEF8983809161
:102B90000D02843009F02DCA8091E9008F702091D8
:102BA000EC00922F917020FD90E8F92EF82A82E037
:102BB0008093E9008091E80080FF0CC040E050E085
:102BC00060E270E0C8010E94CF208091E8008E771B
:102BD0008093E8008F2D8F708093E9000ACAE9BCCA
:102BE000F9BC09B400FEFDCF8091D8008F7D8093A1
:102BF000D8008091E00082608093E0008091E00046
:102C000081FDFCCF0E940417FDC986E290E00E947E
:102C1000BA361B821C821D828E83B9CF80E090E081
:102C20000E940A2480E090E00E94F42310921C028B
:102C30000E94C52FE5E8F2E086E0DF011D928A954B
:102C4000E9F710927F0210927E02109280020C949B
:102C5000272ACF92DF92FF920F931F93CF93DF9398
:102C60006C010091170280911203082BC7E0D0E09D
:102C700010E0C8010C2E02C0959587950A94E2F7E2
:102C800080FD04C02197A8F7F12C09C0FC2EB601E5
:102C90008C2F0E942B270E94032D019799F38F2DD3
:102CA000DF91CF911F910F91FF90DF90CF9008950A
:102CB000CF93DF93EC010E942916BE010E942B27BF
:102CC0000E94032DDF91CF9108959E3F61F12EE088
:102CD000929F800D1124682F669566956695982FB2
:102CE000977083E0689FB001112440E050E080E0DD
:102CF000FB01E40FF51FE353FE4F208130E0092E66
:102D000002C0369527950A94E2F721703327042EE6
:102D100001C0220F0A94EAF7822B4F5F5F4F4330C6
:102D2000510531F7089580E008959E3F51F12EE05E
:102D3000929F800D1124E82FE695E695E695877021
:102D400051E001C0550F8A95EAF783E0E89FF00152
:102D50001124E353FE4F20E030E070E04081CB01CE
:102D6000022E02C0969587950A94E2F781708195AC
:102D700084278523842781932F5F3F4F233031059C
:102D800069F70895809317020C940E1621E030E045
:102D900001C0220F8A95EAF72095809117028223BD
:102DA0000C94C21621E030E001C0220F8A95EAF7A8
:102DB00080911702822B0C94C216809312030C94FC
:102DC0000E1692959F70963079F010F4925001C0D3
:102DD0009A50923068F4803F69F018F4883E40F4CD
:102DE00009C0843F29F406C0883E20F0813F11F0DD
:102DF00080E0089581E00895FC01808191810E9426
:102E000058160E94E116089510921D0280910C013F
:102E1000882331F08091790287FF02C08EE101C0E2
:102E200086E0E5E9F2E0DF011D928A95E9F70C946E
:102E30000E16882341F0809590911C02892380937F
:102E40001C020C94C52F0895882339F090911C0220
:102E5000892B80931C020C94C52F0895882321F0A0
:102E60000E944F2F0C94C52F0895882321F00E94B3
:102E7000562F0C94C52F0895882309F45CC082381E
:102E800069F40E94202481FF56C069E383E992E03F
:102E90000E94BF230E94C52F69E30EC0833891F4BE
:102EA0000E94202480FF47C063E583E992E00E94EE
:102EB000BF230E94C52F63E583E992E00E94972318
:102EC0000C94C52F843869F40E94202482FF33C0FB
:102ED00067E483E992E00E94BF230E94C52F67E464
:102EE000EBCF9CEF980F913A10F4682FE5CF90E26A
:102EF000980F983050F4877091E001C0990F8A952F
:102F0000EAF7892F0E944F2FDBCF9BE5980F933074
:102F100020F480E090E00C940A2498E5980F973113
:102F200020F480E090E00C94F423803F20F00E9495
:102F3000512A0C94272A0895CF93882309F4F5C0C9
:102F4000C82F8238B1F40E94202481FDEEC069E3CD
:102F500083E992E00E94BF230E94C52F2FEF81EEEC
:102F600094E0215080409040E1F700C0000069E308
:102F700017C08338E1F40E94202480FDD6C063E5A9
:102F800083E992E00E94BF230E94C52F2FEF81EEBC
:102F900094E0215080409040E1F700C0000063E5DC
:102FA00083E992E00E949723CF910C94C52F843837
:102FB000B1F40E94202482FDB8C067E483E992E066
:102FC0000E94BF230E94C52F2FEF81EE94E0215075
:102FD00080409040E1F700C0000067E4E1CF8CEF53
:102FE0008C0F813A98F580914202813081F030F067
:102FF000823049F58C2FCF910C94A32480911D022F
:10300000823209F05AC08C2F0E94252554C080912D
:103010001D028232C1F3C43199F068F4CB3009F457
:1030200048C0C03109F042C082E08093420288E388
:103030000E94A3243EC0C93219F0C833D1F136C072
:103040001092420233C01092420237C080E28C0FCD
:10305000883048F4C77081E001C0880FCA95EAF74C
:103060000E94562FA1CFEBE5EC0FE33040F4F0E0E7
:10307000E159FE4F808190E0CF910C940A24E8E55D
:10308000EC0FE73150F4F0E0EE0FFF1FEE58FE4F6B
:1030900080819181CF910C94F423C03F08F445C006
:1030A0008C2F0E945E2BCF910C94272A80E0817098
:1030B00002C081E0FCCF811138C080910C018823CF
:1030C000E1F08091790287FF18C0EC2FE695E69534
:1030D000E695F0E0ED56FD4F8281282F30E04C2F31
:1030E000477081E090E002C0880F991F4A95E2F78F
:1030F00082239323892B61F412C0E5E9F2E08BE986
:1031000092E02191C21721F08E179F07D1F707C0D7
:103110006C2F83E992E00E9497230E94C52F6C2FA9
:1031200083E992E00E94BF233FCFCF9108951F9380
:10313000CF93DF93182F893329F4C0916702D09180
:10314000680204C0C0916502D0916602812F0E947E
:103150009C17209741F08FE99FE00197F1F700C09D
:1031600000002197F6CF812FDF91CF911F910C9412
:103170003C17BF92CF92DF92EF92FF920F931F9373
:10318000CF93DF938091B80282958F7009F05EC073
:103190008091B502882309F459C0C091EA0286E003
:1031A000B82E8091B902C81709F450C0F090B3024C
:1031B000E090B402C090B602D090B702A6016E2D86
:1031C0008F2D0E944F30D0E081113DC0BC9E800108
:1031D000BD9E100D1124F801E654FD4F81818E1122
:1031E00032C080818F112FC0828181112CC0E38079
:1031F000F480EC18FD0860E083EB92E00E949535C6
:1032000080915F0290916002E816F906E0F48091E7
:10321000B8028F7080618093B802F801E154FD4FCD
:1032200080818F708061808383EB92E00E94F9053A
:10323000DF91CF911F910F91FF90EF90DF90CF9092
:10324000BF900C945E302196C770ABCFDF91CF91C9
:103250001F910F91FF90EF90DF90CF90BF90089556
:103260002F923F924F925F926F927F928F929F9296
:10327000AF92BF92CF92DF92EF92FF920F931F9384
:10328000CF93DF93CDB7DEB761970FB6F894DEBF6B
:103290000FBECDBF8C0185E0F801DE011D960190C7
:1032A0000D928A95E1F7D8014C9011965C90119798
:1032B0001296EC9012971396CD90DC90149760E0E4
:1032C00083EB92E00E94953583EBA82E82E0B82E26
:1032D0008090B6029090B702A4016091B4028091F0
:1032E000B3020E944F30F82E8111ADC13090B5026B
:1032F000F601E819F9094F0160E0332009F43CC1F7
:10330000C5010E94953560905F0270906002209028
:10331000B8028614970408F0F8C04091B6025091A4
:10332000B702B090B302A090B402822D807F6A2DC4
:1033300009F08CC08B2D0E944F30811119C0D8012B
:1033400011968C9111978A1113C08C918B1110C01A
:10335000E1100EC0822D8F7080618093B80283EBE4
:1033600092E00E94F9058091B802F801858387C137
:10337000F4EF6F16F1E07F0620F48091640280FF85
:1033800021C0A601652D842D0E944F30811103C0FC
:1033900081E08E2502C080E090E080FF13C04E2DBA
:1033A000652D842D0E942F30882361F083EB92E0FD
:1033B0000E94F905E3EBF2E086E0DF011D928A95B9
:1033C000E9F75DC1A601652D842D0E944F30811162
:1033D00003C081E08E2502C080E090E0B82FB1707C
:1033E000CB2E80FF2AC04E2D652D842D0E942F30BC
:1033F000D82E811122C04D865E868D859E850E94C5
:103400005816292F22952F70223018F0243078F486
:1034100005C09F7049F0811107C00DC09F7021F059
:10342000F8019581907F39F0805E883020F0C801E6
:103430000E94F905DC2CFD2C22C1EE2009F41EC1EE
:103440008091B80281608093B80219C18B2D0E94CF
:103450004F30811119C0D80111968C9111978A11A2
:1034600013C08C918B1110C0E1100EC015962C92D8
:10347000C8010E94F90586E0F801A3EBB2E00190D3
:103480000D928A95E1F75EC0C8010E94FC16882360
:10349000B1F1EE20A1F12091B802822F82958F70B8
:1034A00090E0029774F08091B3029091B4029887F3
:1034B0008F831986DB86CA862C87CE0107960E94E9
:1034C000F90586E0F801A3EBB2E001900D928A9530
:1034D000E1F70E94B91816C0F090B3029090B402C0
:1034E0004091B6025091B702692D8F2D0E944F3046
:1034F000882399F0C8010E94FC16811125C0C801DB
:103500000E94F905FF24F394BAC0822D807F21F731
:1035100083EB92E00E94F90590C0D80111968C913E
:1035200011978911E7CF8C918F11E4CFE110E2CF91
:1035300015962C92C8010E94F90586E0F5011192BA
:103540008A95E9F7F32C9BC0EE20C9F22091B802CE
:10355000822F82958F7090E002970CF4B2CF809109
:10356000B3029091B4029A8389831B82DD82CC825C
:103570002E83CE010196A3CF83EB92E00E94953576
:1035800080915F02909160028816990608F055C0FC
:10359000FE2CEE2009F4B3CFE090B302D090B40239
:1035A0004091B6025091B7026D2D8E2D0E944F3082
:1035B000811135C0D80111968C9111978D112FC0B2
:1035C0008C918E112CC08091640282FD1FC080916D
:1035D000B80280FD1BC082958F70482F50E04115C6
:1035E0005105A1F02091B80215962C9315974F30F4
:1035F000510549F08F5F982F9295907F822F8F70A1
:10360000892B15968C93C8010E94F90586E0F80174
:10361000A3EBB2E001900D928A95E1F730C0C801AA
:103620000E94FC1681114DCF8091B8028160809379
:10363000B802C8010E94F90522C086E0F501119286
:103640008A95E9F71CC0EE2009F459CFC8010E9401
:10365000FC16F82E882309F452CF86E0F801A3EB7C
:10366000B2E001900D928A95E1F78091B3029091BA
:10367000B4020E9458160E94B91801C0F12C8F2D77
:1036800061960FB6F894DEBF0FBECDBFDF91CF912C
:103690001F910F91FF90EF90DF90CF90BF90AF9070
:1036A0009F908F907F906F905F904F903F902F9062
:1036B000089580910F0287FF11C08091E80082FD7C
:1036C00005C080910D028111F8CF11C08091E800F2
:1036D0008B770BC080910D02882349F08091E80020
:1036E00080FFF8CF8091E8008E778093E8000895FE
:1036F000982F973068F59093E900981739F07091FA
:10370000EC002091ED005091F00003C0242F762FA3
:1037100050E021FD02C09F5FECCF3091EB003E7F77
:103720003093EB003091ED003D7F3093ED00309110
:10373000EB0031603093EB007093EC002093ED00D0
:103740005093F0002091EE0027FDE5CF80E0089532
:103750008F708093E90081E00895209115023091E7
:1037600016022617370748F06115710539F42091C4
:10377000E8002E772093E80001C0B901FC0120E0A9
:103780006115710579F180910D028823F1F1853081
:10379000F1F18091E80083FD3CC08091E80082FD5A
:1037A0002EC08091E80080FFEBCF2091F300809144
:1037B000F20090E0922B6115710551F0883091056F
:1037C00038F421912093F100615071090196F3CFF3
:1037D00021E0089709F020E08091E8008E7780933F
:1037E000E800CECF2111CFCF0AC080910D028823EF
:1037F00061F0853061F08091E80083FD0AC080911E
:10380000E80082FFF2CF80E0089582E0089583E02F
:10381000089581E008950895BC0184E00C94DF22AE
:10382000BC0183E00C94DF2280911702982F9670E0
:10383000963011F4886001C0877F0C94C2161F93E4
:10384000CF93DF93CDB7DEB7AA970FB6F894DEBF5C
:103850000FBECDBFEFE0F2E087E192E02091F100F2
:1038600021938E179F07D1F780911002833009F4BE
:1038700063C030F4813071F0823009F49DC0B4C06F
:103880008A3009F489C08B3009F46EC0893009F0A0
:10389000ABC020C080910F02813A09F0A5C0809191
:1038A000E800877F8093E8008091130290911402D2
:1038B000892B21F460E28BEE91E003C060E080E0B0
:1038C00090E070E00E94AD1B8091E8008B778093C0
:1038D000E8008AC080910F02813209F085C0809192
:1038E000130290911402009719F0029709F07CC01E
:1038F0008091E800877F8093E8008091E80082FD56
:1039000005C080910D028111F8CF6EC02091F300A7
:103910008091F20090E0922B029731F48091F100B7
:10392000813011F0863021F48091F1008093EA011A
:103930008091E8008B7754C080910F02813A09F0A2
:1039400053C08091130290911402892B09F04CC04E
:103950008091E800877F8093E8008091E80080FFF5
:10396000FCCF80910C0137C080910F028132E1F5CC
:103970008091130290911402892BB1F58091E80097
:10398000877F8093E8000E94591B809111028093E9
:103990000C010E94041728C080910F02813221F58A
:1039A0008091E800877F8093E8000E94591B8091F6
:1039B00012028093E90118C080910F02813AA1F4AC
:1039C0008091E800877F8093E8008091E80080FF85
:1039D000FCCF8091E9018093F1008091E8008E771F
:1039E0008093E8000E94591B8091E80083FFEBC19F
:1039F00080910F0290911002492F50E04A305105FA
:103A000008F0E1C1FA01E958FF4F0C945C378038A7
:103A100021F0823809F0D7C108C080910B02909143
:103A20000C02992389F082600FC0809113028F707D
:103A3000873008F0C8C18093E9008091EB0085FBD6
:103A4000882780F91092E9009091E800977F909381
:103A5000E8008093F1001092F1007CC1282F2D7FA7
:103A600009F0B1C1882319F0823061F0ACC18091B6
:103A70001102813009F0A7C1933009F080E08093F2
:103A80000C022EC08091110281112AC08091130274
:103A90008F702FEF280F263008F095C18093E90032
:103AA0002091EB0020FF1CC0933021F48091EB00AB
:103AB000806214C09091EB0090619093EB0021E044
:103AC00030E0A90102C0440F551F8A95E2F74093E8
:103AD000EA001092EA008091EB0088608093EB008E
:103AE0001092E9008091E800877F8093E8000E94AF
:103AF000591B69C1811167C1109111021F77809113
:103B0000E3008078812B8093E3008091E800877F39
:103B10008093E8000E94591B8091E80080FFFCCF51
:103B20008091E30080688093E300111102C082E07D
:103B300001C083E080930D0246C18058823008F0B6
:103B400042C120911102309112022C3D53E0350701
:103B500079F583E08A838AE289834FB7F894DE019E
:103B6000139620E03EE051E2E32FF0E0509357003F
:103B7000E49120FF03C0E295EF703F5FEF708E2F5E
:103B800090E0EA3010F0C79601C0C0968D939D93E7
:103B90002F5F243149F74FBF8091E800877F8093E2
:103BA000E8006AE270E0CE0101960E94AD1BC0C041
:103BB0008091130290911402432F552743305105F1
:103BC000B1F068F44130510509F40CC1423051059F
:103BD00009F0F9C08BE590E0E1E7F4E057C041322D
:103BE000510589F14232510509F43CC0ECC0C901CC
:103BF000992781309105B9F070F082309105D9F0A4
:103C0000039709F0E0C0EEEDF4E0E4918E2F90E030
:103C1000EEEDF4E038C0E8E1F5E0E4918E2F90E0BD
:103C2000E8E1F5E030C0ECE0F5E0E4918E2F90E0C3
:103C3000ECE0F5E028C0ECEFF4E0E4918E2F90E0AA
:103C4000ECEFF4E020C08330910508F0BCC0880F91
:103C5000991FFC01E45BFE4F0190F081E02D89E0AB
:103C600090E014C08330910508F0ADC0FC01EE0F68
:103C7000FF1FEA5BFE4F0190F081E02DDC01AD5BA0
:103C8000BE4F8C9190E0009709F49DC02091E80010
:103C9000277F2093E8002091150230911602281703
:103CA000390708F4C90140E0009789F120910D021D
:103CB000222309F43DC02530D9F12091E80023FDED
:103CC00037C02091E80022FD2FC02091E80020FF9E
:103CD000EBCF4091F3002091F20030E0342B0097BD
:103CE00059F02830310540F444914093F100319669
:103CF00001972F5F3F4FF3CF41E02830310509F0A6
:103D000040E02091E8002E772093E800CDCF4111CC
:103D1000CDCF0AC080910D02882351F0853041F04B
:103D20008091E80083FD04C08091E80082FFF2CF1B
:103D30008091E8008B778093E80045C0803809F0D7
:103D400042C08091E800877F8093E80080910E0256
:103D50008093F1008091E8008E77C7CE811133C047
:103D600080911102909112029927029764F5809137
:103D7000E800877F8093E8001091110210930E02F3
:103D80000E94591B111106C08091E30087FD02C0FB
:103D900081E001C084E080930D0242E061EC81E0AB
:103DA0000E94781B42E261EC84E00E94781B42E2B0
:103DB00061EC82E00E94781B42E260EC83E00E94AA
:103DC000781B80910D028091E80083FF10C08091E4
:103DD000E800877F8093E8008091EB008062809309
:103DE000EB0005C082E190E0ECECF4E04FCFAA9646
:103DF0000FB6F894DEBF0FBECDBFDF91CF911F91FC
:103E000008951F920F920FB60F9211242F933F9394
:103E10004F935F936F937F938F939F93AF93BF93D2
:103E2000CF93DF93EF93FF93C091E900CF70809120
:103E3000EC00D82FD17080FDD0E81092E90080917D
:103E4000F000877F8093F00078940E941F1C1092EE
:103E5000E9008091F00088608093F000CD2BCF7056
:103E6000C093E900FF91EF91DF91CF91BF91AF91A6
:103E70009F918F917F916F915F914F913F912F9182
:103E80000F900FBE0F901F901895E8EDF0E0808125
:103E90008E7F80831092E2001092DA001092E1008F
:103EA000A0EEB0E08C9181608C9380818F778083CD
:103EB00019BCA7EDB0E08C918E7F8C9380818F7EB2
:103EC00080831092E8010895CF92DF92EF92FF92E3
:103ED0000F931F93CF93DF93C8EDD0E088818F7E3F
:103EE0008883E7EDF0E080818160808384E082BF99
:103EF00081E08093E80188818E7F888302EE10E064
:103F0000F80110821092DA0081EEC82ED12CF60151
:103F1000108288818F7788838881806888838881F0
:103F20008F7D888319BC10920D0210920E021092A0
:103F30000C0210920B0290EEE92EF12CF701808119
:103F40008B7F808388818160888342E060E080E0AD
:103F50000E94781BF60180818E7F8083F80180812A
:103F600081608083808188608083F70180818E7F7B
:103F70008083888180618883DF91CF911F910F9129
:103F8000FF90EF90DF90CF9008951F920F920FB6A1
:103F90000F9211242F933F934F935F936F937F93CF
:103FA0008F939F93AF93BF93EF93FF938091E10023
:103FB00082FF09C08091E20082FF05C08091E1008C
:103FC0008B7F8093E1008091DA0080FF2AC080918E
:103FD000D80080FF26C08091DA008E7F8093DA00BF
:103FE0008091D90080FF18C080E189BD82E189BD40
:103FF00009B400FEFDCF81E080930D028091E801BD
:1040000081110FC00E94451F0E94641F8091E20031
:1040100084608093E20005C019BC10920D021092DA
:10402000E8018091E10080FF17C08091E20080FFED
:1040300013C08091E2008E7F8093E2008091E200C5
:1040400080618093E2008091D80080628093D800E4
:1040500019BC85E080930D028091E10084FF30C09F
:104060008091E20084FF2CC080E189BD82E189BD9E
:1040700009B400FEFDCF8091D8008F7D8093D800D9
:104080008091E1008F7E8093E1008091E2008F7E3D
:104090008093E2008091E20081608093E200809151
:1040A0000E02882311F084E007C08091E30087FDB1
:1040B00002C081E001C083E080930D0280910D0277
:1040C0008091E10083FF27C08091E20083FF23C03D
:1040D0008091E100877F8093E10082E080930D0270
:1040E00010920E028091E1008E7F8093E10080911A
:1040F000E2008E7F8093E2008091E20080618093F5
:10410000E20042E060E080E00E94781B8091F000D5
:1041100088608093F000FF91EF91BF91AF919F91E4
:104120008F917F916F915F914F913F912F910F9060
:104130000FBE0F901F9018952091E4003091E5007C
:1041400095E64091EC00842F817040FF23C0809160
:10415000E80080FD1DC080910D02882399F0853014
:1041600099F08091EB0085FD11C04091E4005091E1
:10417000E5002417350729F3915011F09A01E1CF9A
:1041800084E0089582E0089583E0089581E0089531
:1041900080E008954091E80042FFDDCF0895EF925E
:1041A000FF920F931F93CF93DF937C018B010E94AB
:1041B0009C20811119C0E70101151105A1F0809122
:1041C000E80085FD0AC08091E8008E778093E800C2
:1041D0000E949C20882381F307C089918093F1007D
:1041E00001501109E9CF80E0DF91CF911F910F912C
:1041F000FF90EF9008958091EA010895AF92BF92E9
:10420000CF92DF92EF92FF920F931F93CF93DF93A2
:104210004430510508F46CC04091790241FBCC2434
:10422000C0F8D12CCC0CDD1C42FB882780F9C82FAC
:10423000E0E0DE2FCC0FDD1FCC0FDD1FCC2ADD2A06
:1042400040FBEE24E0F8F12CEC28FD2843FBAA27E4
:10425000A0F9B0E023E0AA0FBB1F2A95E1F7EA2AF4
:10426000FB2A44FBEE27E0F9F0E034E0EE0FFF1FFD
:104270003A95E1F7EE29FF2945FB222720F930E0A6
:1042800055E0220F331F5A95E1F72E2B3F2B46FBAB
:10429000882780F990E0E6E0880F991FEA95E1F71A
:1042A000822B932B47FB442740F950E05695542F1F
:1042B000442757954795842B952B20917A02322FCE
:1042C0003170132F00E0082B192B26952170B22E88
:1042D000BB0CA12C0A291B29012E000C220B330B2D
:1042E000FB01008311832283338380E090E002C0CE
:1042F0008FEF9FEFDF91CF911F910F91FF90EF9084
:10430000DF90CF90BF90AF900895E7E4F2E0848112
:1043100095812AE030E0B9010E94123760931901BB
:10432000868180931801828580931701848580930C
:10433000160186859785B9010E94123760930E0198
:10434000808980930D0182898093150184898093EF
:1043500014010895809147029091480290931001B2
:1043600080930F01089524E02093E9002FEF30910E
:10437000E800215035FD06C035ED3A95F1F7000013
:104380002111F5CF2091E80025FF0BC040E050E05F
:1043900066E070E00E94CF208091E8008E778093E5
:1043A000E8000895CF93DF9320910C01222339F088
:1043B0002091790227FF03C060E224E002C068E098
:1043C00021E02093E9002FEF3091E800215035FDE6
:1043D00006C035ED3A95F1F700002111F5CF209197
:1043E000E80025FF1DC0EC0180910C01811105C082
:1043F00040E050E068E070E003C070E040E050E072
:10440000CE010E94CF208091E8008E778093E80053
:1044100080E2FE01ABEEB1E001900D928A95E1F7EA
:10442000DF91CF910895CF92DF92EF92FF924430C7
:10443000510508F46FC0FB01C080D180E280F38099
:104440000E94041780917902C0FA80F9B701A60191
:10445000769567955795479540FB81F9B701A60179
:1044600022E076956795579547952A95D1F740FBB9
:1044700082F9B701A60133E0769567955795479580
:104480003A95D1F740FB83F9B701A601E4E07695B0
:10449000679557954795EA95D1F740FB84F9B701A1
:1044A000A601F5E07695679557954795FA95D1F76A
:1044B00040FB85F9B701A601A6E07695679557956B
:1044C0004795AA95D1F740FB86F9B701A601B7E059
:1044D0007695679557954795BA95D1F740FB87F93B
:1044E0008093790280917A02D0FA80F999E0F6946B
:1044F000E794D794C7949A95D1F7C0FA81F980933D
:104500007A028091790290917A020E949D2E80E039
:1045100090E002C08FEF9FEFFF90EF90DF90CF9081
:1045200008959C01CA01F90132964591549184176E
:10453000950750F0CB01F9013496659174910E9472
:104540009D3780E090E008958FEF9FEF08950F93DF
:104550001F93CF93DF9307E412E0C7E6D2E0CE01CA
:104560000E94BA36F80161918F01681719F0CE01E7
:104570000E94CE362196CB38F2E0DF0781F7DF913B
:10458000CF911F910F910895DA019C012E5F3F4F4B
:10459000F90145915491F90125913491A217B3077E
:1045A00058F0FC013496859194910E949D370E94A9
:1045B000A72280E090E008958FEF9FEF0895809309
:1045C0007B0270937D0260937C0280910D028430A7
:1045D000F9F48093E9008FEF9091E800815095FD08
:1045E00006C095ED9A95F1F700008111F5CF809105
:1045F000E80085FF0DC040E050E063E070E08BE72D
:1046000092E00E94CF208091E8008E778093E800AE
:10461000089581E08093E00080E28093D8001092BA
:10462000C9008FE19EE40197F1F700C0000087E028
:1046300090EBDC0180934C0390934D03A0934E03C9
:10464000B0934F039CE088E10FB6F894A89580934F
:1046500060000FBE90936000FFCF78941F920F927E
:104660000FB60F9211248F939F93AF93BF938091B6
:10467000750290917602A0917702B091780201962E
:10468000A11DB11D8093750290937602A0937702CD
:10469000B0937802BF91AF919F918F910F900FBE11
:1046A0000F901F9018959C014FB7F8948091750258
:1046B00090917602A0917702B09178024FBF821B51
:1046C000930B08952FB7F89480917502909176021C
:1046D000A0917702B09178022FBF08951F920F9298
:1046E0000FB60F9211248F939F93AF93BF93809136
:1046F0007402811113C08091750290917602A0918D
:104700007702B09178024196A11DB11D8093750288
:1047100090937602A0937702B0937802BF91AF9105
:104720009F918F910F900FBE0F901F901895209121
:104730000C012223C9F02091790227FF15C0262FF2
:104740002695269526952E31C8F4FC01E20FF11D21
:10475000677081E090E001C0880F6A95EAF7809564
:104760009281892382830895FC0106962281621337
:1047700001C012823196E817F907C1F70895209118
:104780000C012223C1F02091790227FF14C0262FAB
:104790002695269526952E3130F5FC01E20FF11D68
:1047A000677081E090E001C0880F6A95EAF7928116
:1047B000892B82830895FC0132962FEF30E04191DE
:1047C000641789F02F3F19F4411101C0232F3F5F77
:1047D0003630A9F72F3F39F0FC01E20FF11D27FD1C
:1047E000FA956283089508952091720230917302C0
:1047F0002817390771F09093730280937202E09149
:104800007002F0917102309721F00084F185E02D63
:104810000994089520916E0230916F02281739078C
:1048200071F090936F0280936E02E0917002F091AC
:104830007102309721F00680F781E02D09940895E8
:10484000E0917002F0917102309721F00190F081B7
:10485000E02D099480E008950F931F93CF93DF9389
:10486000C42FD22FFC0182818823C9F040936D02AE
:104870000E94622390936C0280936B0280E28C0F03
:10488000883008F05BC0C77081E001C0880FCA950E
:10489000EAF7DF91CF911F910F910C94351780911A
:1048A0006D02481334C080916B0290916C020E949B
:1048B000532320915F02309160028217930738F5ED
:1048C00010E21D0FCD17B9F080E28C0F883040F454
:1048D000C77081E001C0880FCA95EAF70E942E17C1
:1048E000183028F581E09D2F977001C0880F9A95A8
:1048F000EAF70E943517802F0E9497181830F0F4BD
:10490000D77081E001C0880FDA95EAF70AC080E22B
:104910008C0F883098F4C77081E001C0880FCA9569
:10492000EAF7DF91CF911F910F910C942E17802FF2
:10493000DF91CF911F910F910C949718DF91CF9138
:104940001F910F910895893289F1F0F4843171F14A
:10495000B0F4873009F077C081E08093190184E1D9
:10496000809318018AE0809317018EE180931601ED
:1049700088E08093150188E28093140164C092EE70
:10498000980F9A30F0F05FC0803509F444C028F4E5
:104990008F3409F058C08AE03FC0813529F0823554
:1049A00009F051C081E038C08FEF36C080914602D7
:1049B000882379F110924602109245021092440227
:1049C00042C08D5180934602833099F038F4813093
:1049D00069F08230D9F488E191E00DC0853099F01A
:1049E00078F0863099F484E191E005C089E191E0A6
:1049F00002C087E191E0909345028093440223C076
:104A000086E191E0F8CF85E191E0F5CF1092460282
:104A10001AC080E0089586EFE0914402F0914502CB
:104A2000309789F02081082E000C990B820F911D80
:104A30008F3F910519F014F08FEF04C097FF02C06B
:104A4000108201C0808381E00895482F50E0FA0170
:104A50003597EF33F10508F079C0EF57FF4F0C940D
:104A60005C370E94C62E6CC080914302817F8E7F8E
:104A70008093430281E08093420208958091120165
:104A800090911301892B09F45BC00E9404172FEF4A
:104A900084E39CE0215080409040E1F700C000009A
:104AA0000E94092380914302982F9095917090FB6A
:104AB00080F980934302911143C0897F877F10C0A2
:104AC0008091430281FB222720F991E0922790FBFD
:104AD00081F980934302992399F180914302816087
:104AE000809343022DC08091430282FB222720F94C
:104AF00091E0922790FB82F9ECCF8091430283FBF7
:104B0000222720F991E0922790FB83F9E2CF0E94BF
:104B100004178091790287FB222720F991E09227E0
:104B200090FB87F9809379020BC0895391E001C013
:104B3000990F8A95EAF7892F0E94DD160E940417C3
:104B400081E008958D51F2CF81E0F6CF80E00895A5
:104B500080911101877F8093110190911C029D7FAC
:104B600090931C0284FF06C08F7E8093110182E027
:104B70000E94562F8091110185FF06C08F7D809382
:104B8000110180E20E94562F0C94C52F662329F054
:104B900020911C02226020931C029C01305621159A
:104BA00040E2340720F0305E2115304108F49927A7
:104BB0000C94B835009741F0EFE9FFE03197F1F739
:104BC00000C000000197F6CF0895AF92BF92CF9238
:104BD000DF92EF92FF920F931F93CF93DF935C01CD
:104BE0007B01C42E89018091110182FF8DC0C0918B
:104BF0004002D0914102CA15DB0521F0A114B10495
:104C000009F082C0809111018B7F8093110181FD99
:104C100011C080913E0290913F02A701481B590BA1
:104C200081E020910F01309110014217530718F4D1
:104C300080E001C081E08170D82E80911101D0FA0E
:104C400081F980931101FE01FF2784E0F695E79535
:104C50008A95E1F79E012F703327EE0FFF1FE25E6A
:104C6000FD4F81E090E002C0880F991F2A95E2F77E
:104C7000DD2029F020813181822B932B06C0809585
:104C80009095208131818223932391838083809129
:104C90001D0281FF08C08091110180618093110184
:104CA00082E00E944F2F80911D0285FF08C08091F5
:104CB000110180628093110180E20E944F2FA801B0
:104CC0006D2DCE010E94C625CC2031F0809162026C
:104CD00085FF02C086FF36C0809165029091660212
:104CE0000E94DA2580914002909141029C01305649
:104CF000211540E2340720F0305E2115304108F4E0
:104D000099270E949E3518C095013327C5019056FA
:104D1000811540E2940720F0905E8115904110F4D7
:104D2000C90101C0C5010E949E3580914002909149
:104D30004102A816B90611F40E94A825F0923F027C
:104D4000E0923E02DF91CF911F910F91FF90EF9083
:104D5000DF90CF90BF90AF9008950F931F93CF93A4
:104D6000DF9307E412E0C7E6D2E0CE010E94BA3634
:104D7000F80181938F012196CB38F2E0DF07A9F784
:104D8000C0E0D0E0FE01EA5AF84F85919491009777
:104D900011F0FC0109952C96CC3FD10599F7DF91D4
:104DA000CF911F910F910895E7E4F2E0128E138ED8
:104DB0004FEA50E05183408385E0848F88E893E197
:104DC000938382838AE090E09583848324E130E0BA
:104DD0003783268368E070E07187608793878287D6
:104DE0002EE130E0358724879787868720E530E0FD
:104DF000318B208B738B628B68E270E0758B648BD8
:104E000062E370E0778B668B518F408F158E978FA2
:104E1000868F31A320A382E082A30E94A7220E9452
:104E2000041710927A021092790280E090E00E94BA
:104E30009D2E0C94AD26CF93DF93CBE8D2E060E0BB
:104E4000CE010E94CE362196C11584E0D807B9F76D
:104E5000DF91CF910895462F20911A0230911B02C5
:104E6000232B91F47E3F39F46E3F71F48091180248
:104E7000909119020895843038F4753028F46E301A
:104E800018F4672F0C94563280E090E008958F92CA
:104E90009F92AF92BF92CF92DF92EF92FF920F93C9
:104EA0001F93CF93DF93C0901201D090130181E044
:104EB00090E09093130180931201E12CF12C912C3E
:104EC000812C00E010E0C0E0D0E05801AE0CBF1C27
:104ED000FE01EE0FFF1FEA0DFB1DE45EFA4F259168
:104EE00034914C2F682D892D0E9420322196CE308E
:104EF000D10571F7045E1F4F839485E08812E3CFDC
:104F000021E030E040E060E0892D0E94D13121E0D5
:104F100030E041E060E0892D0E94D13193948CE82B
:104F2000E80EF11C84E09812CBCF0E94D426D092D8
:104F30001301C0921201DF91CF911F910F91FF9049
:104F4000EF90DF90CF90BF90AF909F908F9008959B
:104F50008091420380FF0AC0219A85B18D7F95B16F
:104F600092602FB7F894E7E1F3E00BC0E7E1F3E0DC
:104F7000118210821282339633E0E134F307C1F7D5
:104F8000EBCF33E0E134F30789F0319148E095B994
:104F9000000000C037FF85B9330F000000C000C01B
:104FA00000C085B900C04A9591F7EBCF2FBF8FE5C0
:104FB00094E00197F1F700C000000895909142033A
:104FC00090FF0CC0E7E1F3E0818360834283339676
:104FD00093E0E134F907C1F70C94A8270895809174
:104FE0004203282F269530E02115310519F48170F0
:104FF000826005C02D31310524F081708863809373
:1050000042030895CF92DF92EF92FF926B017C01F1
:105010000E94EF27B701A60188E090E0FF90EF9093
:10502000DF90CF900C94E03680914603882319F0EE
:1050300081508093460360914203709143038091B5
:105040004403909145030C940228809146038330D9
:1050500018F48F5F8093460360914203709143037D
:1050600080914403909145030C940228E2E4F3E01C
:1050700083E0808311828FEF828383831482608137
:105080007181828193810C940228AF92BF92CF925A
:10509000DF92EF92FF920F931F93CF93DF93E82E4F
:1050A000F62EE901E42FF0E0611106C0E85BF74F4E
:1050B000E4914E2F2E2F71C0062F10E0E85BF74FC2
:1050C0004491F42FC42ED12C26E0829FC0011124DC
:1050D0002FEF30E0B9010E9412375BEA5603C0019E
:1050E000579F900D11248E0D911D8E0D911D582FDF
:1050F000550F580FD901A01BB10BAC9DC001AD9D40
:10510000900DBC9D900D1124E92FF59ED001112426
:10511000AB2FBB277901EA1AFB0AEC9CD001ED9C6E
:10512000B00DFC9CB00D11245901A51AB108A09E28
:105130007001A19EF00CB09EF00C1124EF2CFF2406
:105140002E193F092C9D80012D9D100D3C9D100DA9
:105150001124212F6230710591F048F46115710519
:10516000E1F061307105B9F4242F4B2F16C0643083
:10517000710569F040F06630710579F00CC0242F9C
:10518000492FE12F0AC0492FEF2F2B2F06C0292FBF
:10519000E42F412F02C0292FEB2F49832883EA8374
:1051A000DF91CF911F910F91FF90EF90DF90CF9003
:1051B000BF90AF900895CF93DF9300D01F92CDB7EB
:1051C000DEB79091420390FF0AC09E012F5F3F4FD0
:1051D0000E9445284B8169818A810E94DE270F90B9
:1051E0000F900F90DF91CF9108955F926F927F9211
:1051F0008F929F92AF92BF92CF92DF92EF92FF92E7
:105200000F931F93CF93DF9300D01F92CDB7DEB7DC
:10521000182F762E042F622E9091420390FF6DC0BE
:10522000E92FE695AE2FB0E0AE5ABE4F8C91809339
:1052300091029E7F923061F49E012F5F3F4F812F3C
:105240000E9445284B8169818A810E94DE2743C0E4
:10525000823019F4009145033EC0863019F4109154
:10526000430339C08930D9F38231A9F5E2518E2F39
:105270008170582EE695F0E0E85BF64FA590B4906B
:1052800087E1C82E83E0D82EE12CF12CBB249EE0D0
:10529000892E912CAE9CC001AF9C900DBE9C900DB0
:1052A0001124B4010E941237812F511002C0860FC1
:1052B00001C0861B9601402F672D0E9445288FEF65
:1052C000E81AF80A83E0C80ED11C8EE0E816F10453
:1052D00009F70E94A8271093430370924403009398
:1052E0004503662051F06091420370914303809121
:1052F0004403909145030E9402280F900F900F9055
:10530000DF91CF911F910F91FF90EF90DF90CF90A1
:10531000BF90AF909F908F907F906F905F90089517
:10532000E2E4F3E043812CE0421B08F440E021E09A
:10533000628181810C94F528E2E4F3E043812CE062
:10534000420F08F44FEF21E0628181810C94F5282F
:10535000E2E4F3E062812CE0621B08F460E021E00B
:10536000438181810C94F528E2E4F3E062812CE032
:10537000620F08F46FEF21E0438181810C94F528DE
:10538000E2E4F3E0818121E0438162818C500C945E
:10539000F528E2E4F3E0818121E043816281845FCA
:1053A0000C94F5289091420390FF3DC091708111BB
:1053B00002C0926006C08D3110F0986302C0880F61
:1053C000982B90934203662351F0609142037091B1
:1053D000430380914403909145030E940228609109
:1053E0004203669570E04BE050E08AE191E00E9454
:1053F0008337892B19F01092920209C081E08093C3
:1054000092020E94622390938C0280938B0281E02F
:1054100080938E0220E04091450360914403809187
:1054200043030C94F528089580914203869581509A
:1054300009F48CE161E00C94D229809142038695B5
:105440008F5F8D3108F081E061E00C94D2290E94D9
:10545000622320918702211104C020918802222317
:1054600021F090938402809383022091890221117C
:1054700004C020918A02222321F09093820280931B
:105480008102E0917002F0917102309749F082E060
:10549000809385020480F581E02D85E892E00994EF
:1054A0000895803F39F48091880287FF6AC0109286
:1054B000880267C0813F29F4809188021816BCF3E6
:1054C00060C090918702823F29F497FF5AC01092E2
:1054D000870257C0833F19F41916CCF352C090913C
:1054E0008902893F31F419160CF04BC010928902E1
:1054F00048C08A3F19F497FF44C0F8CF8B3F39F476
:1055000080918A0287FF3DC010928A023AC08C3F88
:1055100029F480918A021816BCF333C0843F21F429
:10552000809186028E7F17C0853F21F4809186028C
:105530008D7F11C0863F21F4809186028B7F0BC046
:10554000873F21F480918602877F05C0883F31F430
:10555000809186028F7E8093860213C08D3F21F456
:10556000809180028E7F0BC08E3F21F4809180025B
:105570008D7F05C08F3F29F4809180028B7F8093BF
:10558000800280918702811106C08091880281117A
:1055900002C010927F0280918902811106C0809121
:1055A0008A02811102C010927E02089580918002C9
:1055B00080FF08C06091150170E07595679575953D
:1055C000679521C081FF06C06091150170E0759557
:1055D000679519C082FF04C06091150170E010C08A
:1055E00090917E02992399F0609114019617A0F78B
:1055F00080911501899FC001112470E00E94263717
:105600006038710540F46115710519F406C061E058
:1056100070E0862F08958FE7089581E008958091C6
:10562000800220914F023091500280FF0CC0809187
:105630001701829FB001839F700D112476956795A5
:10564000769567952FC081FF0AC080911701829FD0
:10565000B001839F700D11247695679523C082FF5A
:1056600008C080911701829FB001839F700D1124A3
:1056700019C040917F02411102C0B90113C060916D
:105680001601461770F780911701849FA00111241D
:10569000429FC001439F900D529F900D112470E0D6
:1056A0000E9412376038710528F46115710521F0E8
:1056B000862F08958FE7089581E00895803F21F4B3
:1056C0000E940F2B819504C0813F29F40E940F2B6B
:1056D000809388020895823F21F40E940F2B8195C8
:1056E00004C0833F29F40E940F2B80938702089502
:1056F000893F19F40E94D62A05C08A3F31F40E94DE
:10570000D62A81958093890208958B3F21F40E94C7
:10571000D62A819504C08C3F29F40E94D62A809312
:105720008A020895843F21F480918602816017C027
:10573000853F21F480918602826011C0863F21F46A
:105740008091860284600BC0873F21F4809186029D
:10575000886005C0883F31F4809186028061809323
:10576000860208958D3F21F48091800281600BC0F4
:105770008E3F21F480918002826005C08F3F29F422
:1057800080918002846080938002089580E0089573
:105790009091790292FF0DC0282F2871283019F4BA
:1057A000877F846006C0282F2471243011F48B7FFA
:1057B000886093FF0DC0282F2871283119F4877E47
:1057C000846106C0282F2471243111F48B7E8861F6
:1057D00020917A0220FF0DC0382F3871383019F42B
:1057E000877F816006C0382F3171313011F48E7F90
:1057F000886021FF0DC0282F2871283119F4877E79
:10580000816106C0282F2171213111F48E7E8861BB
:1058100094FD877E0895F894E82FE295EF70F0E00C
:1058200031A1282F2F7081E090E001C0880F2A95C8
:10583000EAF7982F9095932391A392A1892B82A3A5
:10584000789408958F929F92AF92BF92CF92DF92F9
:10585000EF92FF920F931F93CF93DF93CDB7DEB7F5
:105860002A970FB6F894DEBF0FBECDBFAE014F5FD3
:105870005F4F7A018AE0FA0111928A95E9F700E315
:1058800011E06A01AA24A394B12CF80180818F3F12
:1058900009F447C0F894E82FE295EF70F0E021A1F9
:1058A0008F70A50102C0440F551F8A95E2F7CA0107
:1058B000922F982B91A392A18095892382A378940B
:1058C00000C0E5E3F1E021E030E0812C912C419132
:1058D0004F3F89F0A42FA295AF70B0E090968C91C5
:1058E00090E04F7002C0959587954A95E2F780FD4C
:1058F00002C0C90102C080E090E0882A992A220FE4
:10590000331F51E0E334F50711F7F80180818F3F31
:1059100011F00E940B2CF0EAFA95F1F7F601918252
:1059200080820F5F1F4FF2E0CF0ED11C41E00533A4
:10593000140709F0AACF4AE050E0B70185EA91E0E8
:105940000E94903711E0009709F410E0892B89F04C
:105950008AE0F701A5EAB1E001900D928A95E1F79E
:1059600081E0809315030E94622390931403809337
:10597000130380911503882391F180911303909173
:1059800014030E945323059750F18091A501909133
:10599000A6019093C4018093C3018091A7019091C7
:1059A000A8019093C6018093C5018091A9019091AF
:1059B000AA019093C8018093C7018091AB01909197
:1059C000AC019093CA018093C9018091AD0190917F
:1059D000AE019093CC018093CB0110921503812FDF
:1059E0002A960FB6F894DEBF0FBECDBFDF91CF91E0
:1059F0001F910F91FF90EF90DF90CF90BF90AF90ED
:105A00009F908F900895CF93DF938238910569F12D
:105A1000B0F48133910509F46FC048F489329105DF
:105A200009F465C08A32910509F46BC08AC08533D8
:105A3000910509F457C089339105B9F082C0833EBE
:105A4000910571F138F4803E9105B1F0823E9105E7
:105A500011F177C0863E9105B9F1873E9105C9F1F4
:105A6000843E910509F06DC024C02091790220FD8B
:105A700053C021FD51C065C08091790280FD46C0B0
:105A800080917A0280FF48C08091790284FD50C1E4
:105A900083EE90E04FC18091790282FF3AC0F4CF4B
:105AA0008091790282FD35C080917A0280FD34C0F8
:105AB000EBCF80917A0281FF35C08091790284FD1D
:105AC00037C187EE90E036C18091790283FF27C00D
:105AD000F4CF8091790283FD22C080917A0281FD0A
