:100000000C94BB050C94F3050C94F3050C94F305C8
:100010000C94F3050C94F3050C94F3050C94F30580
:100020000C94F3050C94F3050C94EA1F0C94261F12
:100030000C949F230C94F3050C94F3050C94F30596
:100040000C94F3050C94E7330C94F3050C94F3052E
:100050000C9460330C9452230C94F3050C94F30528
:100060000C94F3050C94F3050C94F3050C94F30530
:100070000C94F3050C94F3050C94F3050C94F30520
:100080000C94F3050C94F3050C94F3050C94F30510
:100090000C94F3050C94F3050C94F3050C94F30500
:1000A0000C94F3050C94F3050C94F305FD0B170C5D
:1000B0001E0C560C670C7E0C8A0C990C2C0DA10C96
:1000C000C80CEB0C1E0D210D70127012A312A3129E
:1000D00039135513A214A2146013D313E613E613B5
:1000E000F014F214FA14301549150A1564152C1D74
:1000F000531D081F531D081F9F1DC21D081FC31E2F
:10010000D31E6F2565258325D125D725D725D12554
:10011000D725D725A425D725AE25B825D725D7257A
:10012000D725D725D125D725D725D125D725912541
:10013000D725D725D325D325D325D325D325D325F7
:10014000D325D325D325D525D7256F256225D725BA
:10015000D725D725D725D725D725D725D725D725BF
:10016000D725D525D725D725D125D725C625C625D9
:10017000C625C625C625C625C625C625C625D52518
:100180000004643214783C1E1E140A05FD377A58A8
:100190005A000004E6D6B446020021011600000011
:1001A000742FE5A3E003D301815D003D8889C65427
:1001B00036C3174FE4E6213E35DCBE4B3794CA7F89
:1001C000D3A8FE859BD4F0F5621A3D22AE0837090C
:1001D000727972773C952DD3353AAE39EFD518C781
:1001E0003D20EBD6E257C667C6BD89177FA46D7167
:1001F0003BE620C38F8419805065B7EA396C1AC575
:10020000E78C3C8A90A0C39BA88E8F049EE629575A
:100210009B0662C0E4ECA8EE2325A30DF4FCEDA838
:100220008E2A159ED8955ED42A959D67F2B6B6A003
:10023000FDFED053BC9F0B38DE44A162F93019F4A7
:1002400053F5345354EF7A147ADBD30AE0DC5CB90B
:10025000D215BBC7F5A02CC89FA3E6378B34FB0390
:10026000921B1B01ED2BA6CAB86DA9DAB0D2A43738
:10027000A3D1822677939119B2EBF9A0505BC210FB
:10028000318635A68BA3268E45C858D7189F68C9D6
:10029000DA2C9623F576EC0D7553C994A82F678256
:1002A00097E550766F65FB465B5A923636842EEEA4
:1002B00042E14538EF8A8BAA41FD22179F67BB2296
:1002C000098F5E93C17347D21747461B268A8569FB
:1002D00085D4523CA5B6555C7C202A1B46945850C8
:1002E0000F3D74A2EEE485EB058A59B264CD455BFF
:1002F00009DED06E62149D3CBFF68F1012D2EF5F04
:1003000006F6E8A56678A2FEC2A25AF10FEE813A7F
:100310002549A8B2B4AD94E60535C769FEC05C3B7B
:10032000ED1FED46CE8D12FDB0A8B000000000001C
:10033000FFDFFA0AA51FF97A00019D03D407000028
:10034000DB937489B1C467FB020000000004595AB2
:1003500005010902A10185020901A1000509190190
:100360002905150025019505750181029501750383
:1003700081010501093009311581257F9502750834
:10038000810609381581257F950175088106050CC0
:100390000A38021581257F950175088106C0C005C0
:1003A000010980A101850319012AB700150126B7AB
:1003B00000950175108100C0050C0901A10185049B
:1003C00019012AA002150126A002950175108100CD
:1003D000C005010906A1018506050719E029E715F1
:1003E0000025019508750181020507190029EF15FF
:1003F00000250195F075018102050819012905956F
:100400000575019102950175039101C00660FF0910
:1004100061A1010962150026FF009520750881027F
:100420000963150026FF00952075089102C005019B
:100430000906A101050719E029E71500250195081E
:10044000750181029501750881010507190029FFD1
:10045000150026FF00950675088100050819012979
:1004600005950575019102950175039101C0090279
:100470005B00030100A0FA09040000010301010070
:100480000921110100012240000705810308000134
:1004900009040100020300000009211101000122EA
:1004A0002200070582032000010705030320000145
:1004B00009040200010300000009211101000122CA
:1004C000BC000705840320000112010002000000A7
:1004D00008707016240100010203011C03760069F4
:1004E0000061006C003A00660036003400630032A0
:1004F0000062003300630000000E0353004E004F03
:100500000050003600300000000A034E0061007306
:10051000007000000004030904165C1E001F002088
:100520000021002200230024002500260027002DA2
:10053000002E0031002B0014001A000800150017CF
:10054000001C0018000C00120013002F0030002ABD
:1005500000390004001600070009000A000B000D16
:10056000000E000F003300340028000000E1001DE1
:10057000001B0006001900050011001000360037AE
:10058000003800E50000002C00E000E300E200007D
:10059000002C000000BF5C00002C000000E600E71B
:1005A00000E4004C0035003A003B003C003D003EBA
:1005B000003F004000410042004300440045004C21
:1005C00000C25CC35C520001000100010001000197
:1005D00000010001000100010001000100C15C50A8
:1005E0000051004F00010001000100010001000165
:1005F000000100010001000000BE5CBD5CBF5C01A9
:1006000000010001000100010001000100010001E2
:1006100000000001000100010001000000010000D5
:1006200000010000000100000001000100005C0169
:100630000035003A003B003C003D003E003F0040DA
:1006400000410042004300440045004C00C25CC32E
:100650005C520001000100010001000100010001E5
:10066000000100010001000100C15C500051004F79
:100670000001000100010001000100010001000172
:100680000001000000BE5CBD5CBF5C010001000118
:100690000001000100010001000100010000000153
:1006A0000001000100010000000100000001000045
:1006B000000100000001000100005C010035003A6B
:1006C000003B003C003D003E003F00400041004236
:1006D000004300440045004C00C25CC35C52000172
:1006E0000001000100010001000100010001000102
:1006F0000001000100C15C500051004F00010001E9
:1007000000010001000100010001000100010000E2
:1007100000BE5CBD5CBF5C01000100010001000186
:1007200000010001000100010000000100010001C2
:1007300000010000000100000001000000010000B5
:100740000001000100005C0100010001005C02B634
:1007500022E9220000020002005802B622E922002B
:1007600000030001005D02B622E92200000400023D
:10077000004202B622E922CF21050001005E02B646
:1007800022E9220000060002004402B622E922000B
:1007900000070002005A02B622E922000008000108
:1007A000005F02B622E9220000090002004602B6FC
:1007B00022E922AA210A0002004802B622E922AA5E
:1007C000210B0002004A02B622E922AA210C0002F3
:1007D000004C02B622E922AA210D0002004E02B608
:1007E00022E922AA210E0002005002B622E922AA22
:1007F000210F0002005202B622E922AA21100002B3
:10080000005402B622E922AA21110002005602B6C3
:1008100022E922AA21120002006002B622E9220087
:1008200000130002006202B622E922000014000157
:10083000006402B622E92200001500000000002337
:100840002138220000000101010101010101010222
:100850000202020202020202030303030303030370
:10086000040404040404040505050505060606063B
:1008700006070707070708080808090909090A0AF7
:100880000A0B0B0B0C0C0C0D0D0D0E0E0E0F0F0F9B
:100890001010111111121213131414151516161726
:1008A00017181819191A1A1B1B1C1D1D1E1E1F2094
:1008B00020212222232424252626272829292A2BE1
:1008C0002C2D2D2E2F303132323334353637383906
:1008D0003A3B3C3D3E3F4041424344454647484900
:1008E0004A4C4D4E4F50515354555658595A5B5DD2
:1008F0005E5F616264656668696B6C6D6F70727370
:100900007577787A7B7D7E8082838587888A8C8ED6
:100910008F91939596989A9C9EA0A2A3A5A7A9AB08
:10092000ADAFB1B3B5B7BABCBEC0C2C4C6C9CBCDFA
:10093000CFD1D4D6D8DBDDDFE2E4E7E9EBEEF0F3AC
:10094000F5F8FAFDFF2223252628292A2C2D2F3001
:1009500032333536383A3B3D3E4042434547494ABB
:100960004C4E5051535557595A5C5E6062646668EC
:10097000696B6D6F71737577797B7D7F81838587F7
:10098000898A8C8E90929496989A9C9E9FA1A3A5FA
:10099000A7A8AAACAEAFB1B3B4B6B8B9BBBCBEBF22
:1009A000C1C2C3C5C6C7C9CACBCCCDCED0D1D2D2A5
:1009B000D3D4D5D6D7D7D8D9D9DADADBDBDBDCDCB0
:1009C000DCDCDCDDDDDDDDDCDCDCDCDCDBDBDBDA68
:1009D000DAD9D9D8D7D7D6D5D4D3D2D2D1D0CECDD3
:1009E000CCCBCAC9C7C6C5C3C2C1BFBEBCBBB9B8E0
:1009F000B6B4B3B1AFAEACAAA8A7A5A3A19F9E9C65
:100A00009A98969492908E8C8A89878583817F7D2F
:100A10007B79777573716F6D6B6968666462605E10
:100A20005C5A5957555351504E4C4A4947454342D9
:100A3000403E3D3B3A3836353332302F2D2C2A2973
:100A400028262523220000000000000000000000EE
:100A500001010203040506080A0C0F1114181C20DA
:100A600024292E33393F464C535B626A7179818A5F
:100A7000929AA2AAB2B9C1C8CFD5DCE1E7EBF0F4F3
:100A8000F7FAFCFDFEFFFEFDFCFAF7F4F0EBE7E100
:100A9000DCD5CFC8C1B9B2AAA29A928A8179716A0B
:100AA000625B534C463F39332E2924201C18141105
:100AB0000F0C0A08060504030201010000000000F3
:100AC0000000000000000000000000000000000026
:100AD0000000000000000000000000000000000016
:100AE0000000000000000000007E0F00D4FFFFFFA8
:100AF000C70000007800000000000000002A2B283A
:100B000000000000000000000000000000000000E5
:100B100029000000002C1E34202122243426272501
:100B20002E362D3738271E1F202122232425263339
:100B300033362E37381F0405060708090A0B0C0D3B
:100B40000E0F101112131415161718191A1B1C1D4D
:100B50002F3130232D350405060708090A0B0C0D2B
:100B60000E0F101112131415161718191A1B1C1D2D
:100B70002F3130354C0011241FBECFEFDAE0DEBF3D
:100B8000CDBF04B603FE18C0809146039091470381
:100B9000A0914803B09149038730904BA740B04BD8
:100BA00059F4109246031092470310924803109292
:100BB0004903E0E0F8E3099511E0A0E0B1E0E8E3E3
:100BC000FFE602C005900D92A839B107D9F723E0DE
:100BD000A8E9B1E001C01D92A634B207E1F70E9476
:100BE000F5050C949A370C940000CF93DF93CDB7A2
:100BF000DEB7E2970FB6F894DEBF0FBECDBF84B765
:100C0000877F84BF0FB6F894A895809160008861B3
:100C100080936000109260000FBE90E080E80FB6F5
:100C2000F89480936100909361000FBE85B780684F
:100C300085BF85B7806885BF89ED97E2909399015C
:100C4000809398010E94DE260E946A1F0E94891FDD
:100C50008091E20084608093E200789480910802A1
:100C60008823A1F01091E9001F709091EC00892F6A
:100C7000817090FD80E8182B1092E9008091E800C7
:100C800083FD0E94441C1F701093E90082E084BD24
:100C900093E095BD9AEF97BD80936E000E94033359
:100CA000811102C00E94F43204E211E089E2E82ED0
:100CB00081E0F82ED8018D918D018F3F11F00E94B7
:100CC0001E28E016F106B1F709E211E0B7E3EB2EBA
:100CD000B1E0FB2EF80181918F018F3F11F00E944E
:100CE0001E28E016F106B1F78AE0EBEBF1E0DF0138
:100CF000282F1D922A95E9F7EAE9F1E0DF011D921C
:100D00008A95E9F70E94CE2A811102C00E94D92A51
:100D100082E090E00E94A73680933E020E94BD2AA6
:100D200090937502809374020E943528EFE3FCE9EA
:100D30003197F1F700C000000E9435288091BB0177
:100D400080FF08C06FEF7FEF80E090E00E94D9360F
:100D50000E942E2383E090E00E94A7360E94021793
:100D6000519A599882E08093800089E180938100B4
:100D70008FEF9FEF90938700809386000E94363418
:100D80008091400381FF09C01092440310924303F5
:100D90001092420381E0809341030E943634809197
:100DA000A401811133C00E94CE2A811104C00E9487
:100DB000D92A0E94092D88E090E00E94AF36609306
:100DC0003B0370933C0380933D0390933E036E7FFF
:100DD00071F40E94092D88E090E00E94AF36609384
:100DE0003B0370933C0380933D0390933E030E942A
:100DF000C22C10920F0380913B0380FF04C060E07F
:100E000086950E945B2E81E08093A40152985A9AA5
:100E100053985B9A8FE891E00197F1F700C00000CA
:100E200089B182FB882780F94B9B02C092E001C008
:100E300090E0892B8093B70180E091E090936C0261
:100E400080936B02E8E16E2E712CF0E43F2EA5EC4E
:100E50008A2EA1E09A2E8E010F5F1F4F809108020B
:100E6000853009F049C060E1E62E72E1F72E8091ED
:100E70000802853009F03AC080910802843021F1DF
:100E800080E00E941C3310926F020FB6F894A89570
:100E9000609260000FBE3092600083B7817F8460F3
:100EA00083BF83B7816083BF7894889583B78E7F33
:100EB00083BF0FB6F894A8958091600088618093F5
:100EC0006000109260000FBE80910702882309F431
:100ED000CECF0E943528EBEBF1E081919191892BE7
:100EE00009F0E2C58E169F06C1F7C1CF0E942917EF
:100EF0000E9436340E9451240E94352881110E949C
:100F000087235BEBA52E51E0B52EE5EAF1E0D50194
:100F1000E12CF12C6E2D2D913D91819191918227A3
:100F20009327009779F170E0CC24C394D12CA601CB
:100F300048235923452B09F179A76AA72C213D2184
:100F400081E0232B09F480E08BA70E94932381602A
:100F5000782F9DA78CA749A55AA56BA58DA50E94A2
:100F6000BE35F701EE0FFF1FEB55FE4F80819181DB
:100F7000C826D926D182C0821CC07F5FCC0CDD1C64
:100F80007E30A9F69FEFE91AF90A25E0E216F1048E
:100F900009F68FEF8EA78FA718AA0E94932381606E
:100FA000782F9AAB89AB4EA55FA568A98AA90E9444
:100FB000BE3580915D0280FF1EC08091110182FFCD
:100FC0001AC00E9493232091390230913A02AC0159
:100FD000421B530B20910F01309110014217530710
:100FE00050F02FEA31E041E0BC0180913B0290914A
:100FF0003C020E94162680910F03882309F468C0E2
:1010000080910E03E0913B03E695E81BE0930A0311
:10101000823059F4F0E0E857FE4FE491EE2EF12CC7
:10102000B6E5CB2EB1E3DB2E2EC0863059F4F0E0CE
:10103000EB57FE4FE491EE2EF12CA6E4CA2EA1E36D
:10104000DA2E21C0893061F4E695F0E0EE57FE4FCC
:10105000E491EE2EF12CFCE1CF2EF1E3DF2E13C054
:101060008F3049F4E0E8F1E0E590F490ECEDCE2E1D
:10107000E0E3DE2E08C060EDE62E67E0F62E7BEDA5
:10108000C72E70E3D72E80910B03882361F0109256
:101090000B030E94932390930903809308031092FB
:1010A0000D0310920C030E949323E0910803F0912A
:1010B00009038E1B9F0B8F3F9F4750F4EE0EFF1EC0
:1010C000F0920903E092080388E093E0F6010995A5
:1010D0008091B701E82FEE0FEE0FE093B70189B1D1
:1010E00082FB442440F8512C4B9B03C082E090E0EB
:1010F00002C080E090E0842995298E2B8093B7016F
:101100008F70E82FF0E0E95CFE4F90818091B6018E
:10111000890F8093B60184305CF08091B5018F5FB8
:101120008093B50160E080E00E947E3221E001C042
:1011300020E08091B6018D3F54F48091B50181503B
:101140008093B50161E080E00E947E3221E08091D1
:10115000B601082E000C990B64E070E00E94133772
:101160008093B60121110E94872386E0E2E0F3E03C
:10117000D80101900D928A95E1F7C0900403D090B8
:101180000503E0900603F090070310920403109209
:1011900005031092060310920703C11003C0DD205F
:1011A00009F45DC080910003909101030E947823AF
:1011B000AC019091FC02992339F02091180130E0A4
:1011C0002417350758F04BC020911901FAE02F9FE2
:1011D000900111242417350718F041C09F3F19F0E2
:1011E0009F5F9093FC02CC2061F00E94982F1C140A
:1011F00014F491E001C09FEF899F802D112480930A
:101200000403DD2061F00E94982F1D1414F491E076
:1012100001C09FEF899F802D112480930503309199
:1012200004033323E1F0209105032223C1F045EBB1
:101230003403C0011124992319F09093040303C0CF
:1012400081E08093040335EB2303C001112499232B
:1012500019F09093050303C081E080930503E1102A
:1012600003C0FF2009F45DC08091FE029091FF024F
:101270000E947823AC019091FB02992339F02091D0
:101280000D0130E02417350758F04BC020910E01B6
:101290008AE0289F900111242417350718F041C0D7
:1012A0009F3F19F09F5F9093FB02EE2061F00E9438
:1012B0005F2F1E1414F491E001C09FEF899F802DD1
:1012C000112480930603FF2061F00E945F2F1F14FA
:1012D00014F491E001C09FEF899F802D1124809329
:1012E0000703309106033323E1F020910703222303
:1012F000C1F045EB3403C0011124992319F09093F8
:10130000060303C081E08093060335EB2303C0018D
:101310001124992319F09093070303C081E080936F
:1013200007038091040381110BC080910503811193
:1013300007C080910603811103C0809107038111CA
:101340000E94B02ECB82DC82ED82FE8286E0F80124
:10135000A2E0B3E001900D928A95E1F70E9451243A
:101360009091B80189138093B8018091080284306C
:1013700009F074CD83E08093E9008091E80082FF5A
:101380006DCD8091E80085FF21C00E94C1208111B0
:101390001BC050E2E52EF12C680109C08091F100DC
:1013A000D6018D936D01B1E0EB1AF10869F08091DF
:1013B000E80085FDF3CF8091E8008B778093E8000B
:1013C0000E94C120882399F391E001C090E08091B0
:1013D000E8008B778093E800992309F43FCDE090F3
:1013E0001502F09016028981E114F10461F08E3F3C
:1013F00009F032C38A81833008F4F3C18550833009
:1014000008F02AC3EEC1893009F41AC1D0F484303F
:1014100009F46CC050F48230A1F108F05AC0813058
:1014200009F018C31A8289E08AC2863009F470C0B4
:1014300008F463C0873009F46EC0883009F4C8C06E
:1014400009C3803109F469C180F48D3009F407C102
:1014500028F48C3009F0FEC280E163C18E3009F4BB
:1014600002C18F3009F42AC1F5C2823109F45BC18F
:1014700008F456C1833109F480C18E3F09F4B1C12B
:10148000E9C28A81823009F425C3833051F081306A
:1014900009F0E0C20E9487239B838C837D836E8347
:1014A000DBC28091120190911301892B09F4D4C2FF
:1014B000F801CE010B96D5012C9111963C91B2E02A
:1014C000AB0EB11C328323833296E817F90799F7E4
:1014D000C3C28A81823009F0BDC26B817C818D815B
:1014E0009E810E944F370E94D232B6C24C816B81DE
:1014F0008A810E94EF319D83F4C22D813E81322783
:10150000232732274C816B818A810E94B931A4C282
:101510000E947827A1C28A81893019F08A3071F03F
:1015200015C08B81E6E08E9FC00111246FEF70E043
:101530000E94FF36862F0E941D3408C08B818111C6
:1015400003C00E94F73302C00E940A348A818138A6
:10155000B1F050F4803809F07FC220E04B816091F7
:101560003D0380913C0331C0823859F1833809F042
:1015700073C220E040913E036C818B8126C060E005
:101580008B810E945B2E9B8180913B03911111C046
:101590008E7F80933B0310920F03FFEF20E732E032
:1015A000F15020403040E1F700C000000E947B2C49
:1015B00053C2816080933B0360E086950E945B2E5E
:1015C0004BC28B8180933F0347C20E94C82D44C207
:1015D0008A81893039F08A30A1F480914003869560
:1015E0008170ADC1809140038695869586954FEFB9
:1015F000849FC001112466E070E00E94FF366B8377
:101600002BC2813891F030F4803809F025C28091E6
:101610003E0395C1823889F0833809F01DC280915C
:101620003C038B8380913D0350C180913B0380FF3D
:1016300002C0869584C180E082C180913F037FC152
:10164000809140030E94F23360913B0370913C0310
:1016500080913D0390913E030E94D52CFDC181E015
:101660008A8385E76CC1EA80FB80FE24EF24FE2498
:10167000AC80B12C8DE1A816B10408F0EDC1680171
:10168000C70185579D4F9601201B310B2A153B053D
:1016900008F0E2C1A5E7EA16A1E0FA0628F40E94E4
:1016A000A736F601848303C0D60114961C92BFEFBF
:1016B000EB1AFB0AEFEFCE1ADE0AE2CF809112019D
:1016C00090911301892B09F4C7C1EA80FB80FE24A5
:1016D000EF24FE24CC80D12CFDE1CF16D10408F0FC
:1016E000BBC15801C70185579D4F9501201B310B88
:1016F0002C153D0508F0B0C125E7E21621E0F20601
:1017000028F4D50114966C910E94BB36BFEFEB1AFA
:10171000FB0AEFEFAE1ABE0AE5CF0E944C279CC130
:1017200084E08A8399C1EA80FB80FE24EF24FE24B2
:10173000AC80B12CFDE1AF16B10408F08DC1680199
:10174000C70187969601201B310B2A153B0508F02F
:1017500083C120E3E21622E0F20630F40E94A736AD
:10176000D60114968C9302C0F6011482FFEFEF1A93
:10177000FF0A2FEFC21AD20AE3CFEA80FB80FE24D1
:10178000EF24FE24CC80D12C3DE1C316D10408F017
:1017900063C140E3E41642E0F40608F05DC180E373
:1017A00092E08E199F098C159D0508F455C15801CA
:1017B000C70187969501201B310B2C153D0508F0BC
:1017C0004BC1A0E3EA16A2E0FA0620F4F501648119
:1017D0000E94BB36FFEFEF1AFF0A2FEFA21AB20AE0
:1017E000E7CFEA818E2F90E08E30910508F034C16A
:1017F000FC01EA5AFF4F0C94493788E0ECE1F1E034
:10180000DE01919601900D928A95E1F780E2D80170
:101810001D928A95E9F785E0898388E0FE01B196FB
:10182000DE01159601900D928A95E1F715C184ECC1
:10183000898381E08A831B821C820EC18C8190E0A7
:10184000982F88272B81820F911D092E000CAA0B3F
:10185000BB0B45E0880F991FAA1FBB1F4A95D1F704
:10186000AC01BD01405E5F4F6F4F7F4F4817590776
:101870006A077B0708F4F0C0843CE1E09E07A105FD
:10188000B10508F0E9C0453CF1E05F07610571056D
:1018900020F044EC51E060E070E0481B590BBC01C3
:1018A00064577E4FC8010E949E36D6C0FB80EC80F4
:1018B00040E06E2D8F2D0E948F3199838A8341E005
:1018C0006E2D8F2D0E948F319B838C83C5C02E81FE
:1018D0003F8132272327322721154CE5340741F475
:1018E0008091120190911301892B11F420E030E0D6
:1018F0004D816C818B810E946A31AEC040E250E024
:101900006FEF70E0C8010E949337809112018983C4
:10191000EA82A2C081E090E09093160280931502C3
:1019200082E390E09093BA018093B9010E949323DF
:1019300093C0809112018983EA828091B9018B83DF
:101940008BC0EB80FC8040E250E06FEF70E0C8019C
:101950000E94933729E437E080E090E0AC014E5FCD
:101960005F4F4132510508F077C0F90165917491DC
:10197000E616F70630F4F801E80FF91F718360836B
:10198000CA01245F3F4FA8E025343A0739F764C005
:101990002B813C8189E497E0FC0145915491241707
:1019A000350731F00C96B8E085349B07A9F752C093
:1019B000009709F44FC0FC0136962591349121150A
:1019C000310509F447C04FE150E0BE016E5F7F4F23
:1019D000F901099540C08B819C8129E4E22E27E022
:1019E000F22EF701259134912817390749F0FCE0D0
:1019F000EF0EF11C25E4E21628E0F20691F72AC06A
:101A0000E114F10439F1F70138962591349121154B
:101A1000310501F14CE150E0BE016B5F7F4FC70122
:101A2000F90109950097B9F4F7013A9685919491D7
:101A3000009711F0FC01099580E00DC00E94052778
:101A40000BC08B81811108C080E2D8011D928A955C
:101A5000E9F702C08FEF898380910802843009F092
:101A6000FDC98091E9008F702091EC00922F917058
:101A700020FD90E8F92EF82A82E08093E900809119
:101A8000E80080FF0CC040E050E060E270E0C80178
:101A90000E94F4208091E8008E778093E8008F2DDB
:101AA0008F708093E900DAC9E9BCF9BC09B400FE83
:101AB000FDCF8091D8008F7D8093D8008091E00089
:101AC00082608093E0008091E00081FDFCCF0E9465
:101AD0002917CDC986E290E00E94A7361B821C829E
:101AE0001D828E83B9CF6F927F928F929F92AF9219
:101AF000BF92CF92DF92EF92FF920F931F93CF93FB
:101B0000DF9300D000D0CDB7DEB77C01FC0143816C
:101B10005481618180810E94622C81110C94201675
:101B200061E0C7010E9482358C01F7018281882320
:101B300009F4C4C0C80182519F45489708F0DAC033
:101B40005EEED52ED00EFFE0FD1508F4C1C08FEF7C
:101B500093E00E94A7368111BBC00BE812E0DD20A4
:101B600071F0011524E0120709F4B2C0C8010E9407
:101B7000A736811101C0DA940F5F1F4FF0CF198291
:101B80001A821B821C82AA24AA9468018FEFC81AA9
:101B9000D80AC8010E94A73689831A82882309F4CB
:101BA00097C0813009F085C0480192E0890E911CF0
:101BB000C6010E94A736B82E8A83882309F488C0FC
:101BC0008FEF8B0D833060F46801E3E0CE0ED11C03
:101BD000C4010E94A7368B8381116BC08601D5CFCB
:101BE0008BEF8B0D8330C0F53801F3E06F0E711C65
:101BF000C4010E94A7368B83811102C06301EECF1E
:101C0000680124E0C20ED11CC3010E94A7368C8358
:101C1000882321F38B819C818130EFEF9E0718F0A0
:101C2000182F00E001C08C01F6E0BF1669F027E034
:101C3000B21671F0C8010E944D32809160029091FD
:101C400061020E940B2604C0C8010E944D32C6CF1B
:101C5000C8010E941D32C2CF84E0B81611F06401A1
:101C6000BDCFC4010E94A736B82E680194E0C90E0A
:101C7000D11CC80103960E94A736BB2049F18823D6
:101C800039F1282F30E021503109A29EA001A39EF6
:101C9000500D11248B2D90E00197840F951F019713
:101CA00008F49CCFEFE9FFE03197F1F700C00000A6
:101CB000F6CFCE0101960E94A63490CF00318FE579
:101CC000180709F00BC781E00E94EB160E94391C2F
:101CD0008091D402877009F4B3C7F7018281882309
:101CE00009F4AEC78091750282FDAAC782E00E9406
:101CF000762BA6C70031FFE51F0711F481E005C070
:101D000001312FE5120721F482E00E94F716DECFA1
:101D1000F801EB5BFC45E730F10508F45DC6809106
:101D20005D0280FFBDC00E9493236C01F701828198
:101D30008823D9F18091110182FF08C02FEA31E098
:101D400040E0B60180E090E00E9416260B31FCE5F1
:101D50001F0779F00C312CE5120789F00A318CE568
:101D60001807A1F480911101982F909590FB80F9AC
:101D700009C08091110181608093110107C0809199
:101D800011018E7F809311010E94D925C8019056C0
:101D90008115E0E29E0720F0905E8115904180F56C
:101DA00010923C0210923B027BC0013E110521F4CF
:101DB000809111018F7E06C0053E110531F480919E
:101DC00011018F7D809311011BC0C80190568115B0
:101DD00020E2920720F0905E8115904188F4809176
:101DE000110182FF5DC080915F0281FD59C02FEA21
:101DF00031E040E0B60180E090E00E94162650C03D
:101E00008091110180FF4CC0F701828108321105D9
:101E100038F40E311105B8F40430110578F41CC003
:101E20000933110538F40D32110590F40B32110508
:101E300079F012C00436110559F00EC090915D0280
:101E400094FD0AC0B7C190915D0293FD05C0B2C177
:101E500090915D0292FFAEC1882311F110923C0275
:101E600010923B02033FFCE51F07B9F178F4083DEF
:101E70008CE5180761F1093D9CE5190709F44EC08E
:101E8000073DECE51E0709F057C01BC0053FFCE508
:101E90001F07A1F168F1063F8CE51807C9F14CC096
:101EA000033FFCE51F07C9F0F0F4083D8CE5180777
:101EB00071F0093D9CE5190789F1073DECE51E0726
:101EC000B1F506E221EE41EE67ED7CE52CC007E2BC
:101ED00025EE45EE68ED7CE526C006E221EE40EEFB
:101EE00063EF7CE520C0053FFCE51F0739F060F497
:101EF00007E225EE44EE64EF7CE515C006E221EE34
:101F000042EE65EF7CE50FC0063F8CE5180779F4DB
:101F100007E225EE46EE66EF7CE505C008E221E02B
:101F200045EE69ED7CE5C7010E945D24D1CEF70145
:101F30002281222309F431C2109268020330FDE5A8
:101F40001F0758F40A3F2CE5120780F4C80182509D
:101F50009C45449708F0DBC109C001368DE51807A0
:101F600029F0053A9DE5190709F0D1C10E94BD2A63
:101F700090937502809374020131ECE51E0709F419
:101F8000C6C008F042C009302CE5120709F49BC016
:101F900000F505309CE5190709F485C078F4033095
:101FA000FCE51F0709F478C008F07AC002301C4530
:101FB00009F0F7C0809174028160F1C007309CE5A0
:101FC000190709F478C008F07AC080917402806122
:101FD000E6C00D30FCE51F0709F487C058F40B304C
:101FE0008CE5180709F479C008F07BC08091740271
:101FF00088606FC00F30ECE51E0709F480C008F060
:1020000082C080917402877FCAC00D3F2CE5120701
:1020100009F471C000F505319CE5190709F485C084
:1020200068F40331FCE51F0709F475C008F095C09A
:102030000E942917809174028F77B1C00B3F8CE505
:102040001807A9F108F054C00A3F1C4509F0A9C0BF
:102050008091750240C00130FDE51F0709F489C079
:1020600058F40F3F8CE5180709F45AC008F069C00E
:102070008091750282602FC00136EDE51E0709F4DC
:102080007EC0053AFDE51F0709F483C002301D45F7
:1020900009F087C060E06EC08091740282607FC0EA
:1020A0008091740216C080917402886078C080911B
:1020B000750282604FC080917402806270C080910E
:1020C000740280646CC00E94291780917402806839
:1020D00066C0846064C081603DC0809174028E7F60
:1020E0005EC0809174028D7F5AC08091740216C0C8
:1020F0008091750218C0809175028D7F2BC08091F0
:1021000074028F7E4CC0809174028F7D48C0809194
:1021100074028F7B44C080917402877F8B7F3FC0A5
:10212000809175028D7F8E7F15C08091740282FB35
:10213000222720F991E0922790FB82F990FB83F906
:102140002EC080917502982F909591708E7F892B6B
:1021500090FB81F98093750224C00E942917809119
:10216000740287FB222720F991E0922790FB87F9E0
:1021700016C061E08EE090E00E94BB3612C08091F4
:10218000740284FB222720F991E0922790FB84F9C6
:1021900006C080917402982F909590FB80F98093EF
:1021A000740280917402909175020E94B02A0E947C
:1021B00029178ECD882309F4A3C02091180280919D
:1021C000F702982F922B392F3D7F79F110923C0224
:1021D00010923B0230915D0231FD27C0F80143E0CF
:1021E000F695E7954A95E1F7EE71FF27E75EFD4F1B
:1021F00098012F70332781E090E002C0880F991F6B
:102200002A95E2F78095909520813181822393234E
:1022100091838083A70160E0C8010E94F725809127
:10222000F7028D7F0E944E2B67C036E0F701AFEAC0
:10223000B1E001900D923A95E1F71092B101109240
:10224000B3011092B20140913B0250913C0204173D
:102250001507D1F530915D0235FF36C0409111016F
:1022600041FF02C036FF30C04091390250913A021E
:10227000B601641B750B40915A0250915B026417C2
:10228000750710F521FF08C08091110180618093CE
:10229000110182E00E94622B8091180285FF08C024
:1022A0008091110180628093110180E20E94622B73
:1022B0006091110166956170A70180913B02909138
:1022C0003C020E94F72504CD969591702091110152
:1022D00090FB21F9209311018D7F0E944E2B1093CA
:1022E0003C0200933B02D0923A02C09239028091A4
:1022F000110184608093110182E00E94762BE8CC6A
:10230000970140E0B601C8010E941626E1CC0631D3
:102310009CE5190709F063C021E080911802982F0D
:102320009A7A30915C0230FF04C0482F447409F05F
:1023300090E031FF04C0482F417109F090E032FF76
:1023400004C0482F487809F090E033FF02C0827241
:1023500061F42223A1F081E0911101C080E080931B
:10236000C501992331F065E305C0222341F01092A5
:10237000C50169E289E792E00E94F0230BC08091D9
:10238000C501882311F065E301C069E289E792E0A5
:102390000E94C8230E94D82B9BCC0631ECE51E0777
:1023A00009F4BBCF8091180282720B3C9CE519079F
:1023B00009F42AC408F0BEC3063CFCE51F0709F473
:1023C0000FC408F0A1C3033C9CE5190709F4FEC340
:1023D00008F08BC3023CFCE51F0709F4D2C3F701E8
:1023E0008281882389F10A35FDE51F0741F150F408
:1023F00001158CE51807A9F00E3D1C4529F50E9432
:10240000D92A66CC0B35EDE51E07D9F00C351D45F4
:10241000D9F48091750282FB882780F991E08927A1
:1024200011C00E9429172FEF84E39CE021508040C7
:102430009040E1F700C000000E942E2349CC81E0CB
:1024400001C080E00E94932BF701828100811181FD
:10245000882349F0C8010E944E16D82E682FC80163
:102460000E94BA1604C0C8010E948A16D82EB8016C
:102470008D2D0E945C270E9416298C01982EF70151
:10248000B280C580C2943FE0C3228091D40287709D
:10249000B9F0BB20A9F0812F807F803421F080E249
:1024A000800F883068F08091750282FD09C082E05B
:1024B0000E94762B8091D4028770AA24A394811164
:1024C000A12C812E82942FE08222882D90E08C30E6
:1024D000910508F037C2FC01EC59FF4F0C944937C5
:1024E000912F9F70812F807FD92E19F0D29490EF79
:1024F000D922BB20A9F0DD2009F404C280E2800FBC
:10250000883010F0911004C08D2D0E94692B05C0F9
:1025100080911702D82AD09217020E94D82BF2C1BC
:10252000802F0E946117DD2009F40CC280E2800F29
:10253000883088F1992079F1D09480911702D822BF
:10254000D09217022BC0912F9F70812F807FD92EA0
:10255000803219F0D29480EFD822992029F0F1E04E
:102560009F1609F45CC067C08091750282FF19C094
:10257000BB2059F0DD2029F08D2D0E94692B0E948F
:10258000D82B80E00E94C117DDC180E00E94611756
:10259000DD2009F4D7C18D2D0E94622B0E94D82B1B
:1025A000D1C1BB2001F1CC20D1F021E0C21206C084
:1025B0008091F7028D290E944E2BC4C180915E024A
:1025C000823068F0C8120BC00E94432B8091D10268
:1025D000D812D092D1028D2D0E945A17B3C180918A
:1025E000F7028D29F9CFCC2079F080915E0291E03D
:1025F000C91210C0823008F4A5C1809118028D2143
:1026000009F4A0C10E943C2C0E94432B8D2D0E94F6
:10261000531798C18230C0F3C812F6CF93C180918E
:102620006402BB2021F08C1508F48CC1D4CFC816ED
:1026300008F088C1EBCFBB20B1F0CC2061F220E0E4
:10264000F701408151816281738184810E945935F3
:1026500080915F0281FD56C1F701858180FF52C1E3
:102660008F708583B8CFCC2089F2F9E39F125AC1CD
:1026700054C1812F86958695837019F0813059F069
:1026800061C1BB2019F0C801937002C080E090E0E6
:102690000E943B245DC1BB2019F0C801937002C0A9
:1026A00080E090E00E94252453C1802FBB2019F0C8
:1026B0000E94E72F02C00E94DA2E0E94B02E48C16D
:1026C000812F8370A1F5B11041C1402F42954695ED
:1026D0004770440F440F202F2F7030E0C901042EA3
:1026E00001C0880F0A94EAF704FF08C02FE030E029
:1026F00001C0220F4A95EAF7209501C020E0312F52
:10270000369536953370323069F040F44091450388
:10271000313019F0822B842302C0842B822B0E943B
:10272000021714C1282B809145038227F8CFBB20C4
:1027300019F0812F817001C08695882309F406C1A4
:10274000402F429546954770440F440F202F2F701D
:1027500030E0C901042E01C0880F0A94EAF704FF93
:1027600008C02FE030E001C0220F4A95EAF720951B
:1027700001C020E0312F369536953370323051F05C
:1027800070F440911202313019F0822B842308C07A
:10279000842B05C0282B80911202822701C0822B36
:1027A0000E94E716D3C0212F2F70D22EBB2039F004
:1027B000822F0E94F716802F0E945A17C7C0802FC1
:1027C0000E9453178D2D0E94EB16C0C0802F92EFF0
:1027D000991639F1991538F0E0EF9E1659F0F1EF9E
:1027E0009F16B9F18BC023EF921609F194EF991659
:1027F00061F184C080916402BB2021F0C81608F00A
:10280000A1C003C08C1508F49DC0212F2F7181E059
:1028100090E001C0880F2A95EAF79091120289276B
:102820000FC0812F8F71BB2009F470C087C0BB20FF
:1028300051F081E0912F9F7101C0880F9A95EAF7BE
:102840000E94E7167FC080E0FBCF8091750282FF77
:1028500006C0812F8F71BB2009F470C057C08091D2
:102860005E028230A0F18091D102BB20E1F00E9493
:10287000622B8091D4028770843039F40E946F2BD0
:10288000812F8F710E94EB165CC080915E02C8168A
:1028900008F057C0E12FEF71DE2E8E2F0E94F71641
:1028A00063E08D2D0DC00E94692B80915E02C816D9
:1028B00050F00E946F2B0E943C2C64E0812F8F719E
:1028C0000E94A82B3EC081E00E94762B3AC0BB201C
:1028D00059F0F12FFF71DF2E8F2F0E94F71663E062
:1028E0008D2D0E94A82B2EC081E00E94762B21E026
:1028F0002C1540F582E00E94762B24C0BB2049F0C5
:10290000CC2011F0802F3ECE812F8F710E94F716C0
:1029100019C0CC2089F0893329F48091620290910A
:10292000630204C080916002909161020E940B26B4
:10293000802F0E94611706C0812F8F710E94EB16B5
:1029400001C0A12C88EF880D843010F40E9451241E
:10295000C8010E940617811105C01092C70110928C
:10296000C6011EC0BB2019F0C110F7CF19C0C1109D
:10297000F4CF20E0F701408151816281738184812D
:102980000E94593580915F0283FFE7CF8091C60195
:102990009091C701029709F7802F0E94BC18DDCFE4
:1029A000AA20A9F08091D40280FD11C0F701128203
:1029B0008595859585950E94F716C7010E94730D30
:1029C0008091D4028595859585950E94EB1660E0EF
:1029D000C7010E94823534C1E059FF4F0C9449373A
:1029E00086E001C080E00E941D34809140030E9477
:1029F000F2336EC980914003982F969596959695DF
:102A000049F1915E990F990F990F8770892B8093E7
:102A1000400314C090914003892F86958695869532
:102A20008F5F8F719770873008F04BC0880F880FC9
:102A3000880F892B8093400380914003887F91E029
:102A400009F490E08091400390FB80F9809340036B
:102A50000E94F2338091400386958695869523C027
:102A600020914003822F869586958695482F50E0C9
:102A70004630510554F48F5F982F990F990F990F95
:102A8000822F8770892B809340038091400381605F
:102A9000DDCF8091400380FF09C08E7F809340038B
:102AA0000E94F23380E00E941C3312C9816080933F
:102AB0004003813019F489E0809340038091400302
:102AC000C7CF90934003B8CF8091400381FF03C0EC
:102AD0000E94F733FDC80E940A34FAC801319FE50D
:102AE000190709F01CC982E0EFC8043C2CE5120765
:102AF00009F471C0053C9CE5190709F070CC49E464
:102B00005EE262E57EE289C0083CECE51E0709F45E
:102B100071C008F46AC0093C2CE5120709F46FC0C3
:102B20000A3C9CE5190709F05ACC45E25EE269E1EE
:102B30007EE273C0003DECE51E0709F477C0A0F407
:102B40000D3C2CE5120709F46BC008F462C00E3C82
:102B5000ECE51E0709F467C00F3CFCE51F0709F010
:102B60003ECC68E086E064C0053D2CE5120709F420
:102B700062C008F4ADC80D359DE5190709F4A8C871
:102B80002ECC80913B0380FF1BC08E7F80933B0344
:102B900060913B0370913C0380913D0390913E0313
:102BA0000E94D52C10920F03EFEFF0E722E0E150E6
:102BB000F0402040E1F700C000000E947B2C88C854
:102BC000816080933B0361E0869537C04DE95EE20A
:102BD00066EA7EE222C046EA5EE26DE97EE21DC060
:102BE00042E55EE269E47EE218C041E35EE26DE345
:102BF0007EE213C04DE35EE261E37EE20EC049E196
:102C00005EE265E27EE209C047EE5CE268EF7CE2EC
:102C100004C048EF5CE267EE7CE20E94733458C85F
:102C200061E081E00AC065E082E002C06EE089E018
:102C30000E9461344DC861E08FE00E945B2E48C85D
:102C40000F900F900F900F90DF91CF911F910F91E8
:102C5000FF90EF90DF90CF90BF90AF909F908F90BC
:102C60007F906F90089580E090E00E943B2480E088
:102C700090E00E942524109217020E94D82BE2E0D7
:102C8000F3E086E0DF011D928A95E9F71092FC02DD
:102C90001092FB021092FD020C94B02ECF92DF92A4
:102CA000FF920F931F93CF93DF936C010091120259
:102CB00080914503082BC7E0D0E010E0C8010C2E3E
:102CC00002C0959587950A94E2F780FD04C021978C
:102CD000A8F7F12C09C0FC2EB6018C2F0E945C27AE
:102CE0000E941629019799F38F2DDF91CF911F91A3
:102CF0000F91FF90DF90CF900895CF93DF93EC0179
:102D00000E944E16BE010E945C270E941629DF9188
:102D1000CF9108959E3F61F12EE0929F800D112486
:102D2000682F669566956695982F977083E0689FE3
:102D3000B001112440E050E080E0FB01E40FF51FFA
:102D4000E853FE4F208130E0092E02C036952795CA
:102D50000A94E2F721703327042E01C0220F0A944F
:102D6000EAF7822B4F5F5F4F4330510531F70895EB
:102D700080E008959E3F51F12EE0929F800D112436
:102D8000E82FE695E695E695877051E001C0550F6E
:102D90008A95EAF783E0E89FF0011124E853FE4F9B
:102DA00020E030E070E04081CB01022E02C0969519
:102DB00087950A94E2F7817081958427852384277B
:102DC00081932F5F3F4F2330310569F7089580933A
:102DD00012020C94331621E030E001C0220F8A95D4
:102DE000EAF720958091120282230C94E71621E0E5
:102DF00030E001C0220F8A95EAF780911202822BFF
:102E00000C94E716809345030C94331692959F70AB
:102E1000963079F010F4925001C09A50923068F4D4
:102E2000803F69F018F4883E40F409C0843F29F4DB
:102E300006C0883E20F0813F11F080E0089581E0D7
:102E40000895FC01808191810E947D160E940617E1
:102E500008951092180280910C01882331F080911E
:102E6000740287FF02C08EE101C086E0EBE7F2E06A
:102E7000DF011D928A95E9F70C943316882341F0FF
:102E80008095909117028923809317020C94D82B78
:102E90000895882339F090911702892B80931702A7
:102EA0000C94D82B0895882321F00E94622B0C9457
:102EB000D82B0895882321F00E94692B0C94D82BDD
:102EC0000895882309F45CC0823869F40E94512473
:102ED00081FF56C069E389E792E00E94F0230E94D7
:102EE000D82B69E30EC0833891F40E94512480FFEF
:102EF00047C063E589E792E00E94F0230E94D82B47
:102F000063E589E792E00E94C8230C94D82B8438AB
:102F100069F40E94512482FF33C067E489E792E09C
:102F20000E94F0230E94D82B67E4EBCF9CEF980F10
:102F3000913A10F4682FE5CF90E2980F983050F452
:102F4000877091E001C0990F8A95EAF7892F0E9456
:102F5000622BDBCF9BE5980F933020F480E090E06C
:102F60000C943B2498E5980F973120F480E090E092
:102F70000C942524803F20F00E94DA2E0C94B02E71
:102F80000895CF93882309F4F5C0C82F8238B1F48F
:102F90000E94512481FDEEC069E389E792E00E941E
:102FA000F0230E94D82B2FEF81EE94E02150804037
:102FB0009040E1F700C0000069E317C08338E1F4F6
:102FC0000E94512480FDD6C063E589E792E00E940B
:102FD000F0230E94D82B2FEF81EE94E02150804007
:102FE0009040E1F700C0000063E589E792E00E94AD
:102FF000C823CF910C94D82B8438B1F40E9451246B
:1030000082FDB8C067E489E792E00E94F0230E9445
:10301000D82B2FEF81EE94E0215080409040E1F7D3
:1030200000C0000067E4E1CF8CEF8C0F813A98F587
:1030300080913D02813081F030F0823049F58C2F53
:10304000CF910C94D42480911802823209F05AC096
:103050008C2F0E94562554C0809118028232C1F3F1
:10306000C43199F068F4CB3009F448C0C03109F09C
:1030700042C082E080933D0288E30E94D4243EC097
:10308000C93219F0C833D1F136C010923D0233C0B5
:1030900010923D0237C080E28C0F883048F4C77030
:1030A00081E001C0880FCA95EAF70E94692BA1CF81
:1030B000EBE5EC0FE33040F4F0E0EA5AFE4F80819C
:1030C00090E0CF910C943B24E8E5EC0FE73150F40D
:1030D000F0E0EE0FFF1FE75AFE4F80819181CF9104
:1030E0000C942524C03F08F445C08C2F0E94E72F84
:1030F000CF910C94B02E80E0817002C081E0FCCFB3
:10310000811138C080910C018823E1F08091740214
:1031100087FF18C0EC2FE695E695E695F0E0E758B6
:10312000FD4F8281282F30E04C2F477081E090E0E6
:1031300002C0880F991F4A95E2F782239323892BB7
:1031400061F412C0EBE7F2E081E892E02191C2174E
:1031500021F08E179F07D1F707C06C2F89E792E007
:103160000E94C8230E94D82B6C2F89E792E00E940E
:10317000F0233FCFCF9108951F93CF93DF93182F64
:10318000893329F4C0916202D091630204C0C091D6
:103190006002D0916102812F0E94C117209741F0F7
:1031A0008FE99FE00197F1F700C000002197F6CF6B
:1031B000812FDF91CF911F910C946117BF92CF9215
:1031C000DF92EF92FF920F931F93CF93DF93809143
:1031D0009E0282958F7009F05EC080919B028823C9
:1031E00009F459C0C091D00286E0B82E80919F02A8
:1031F000C81709F450C0F0909902E0909A02C0906C
:103200009C02D0909D02A6016E2D8F2D0E94622CF3
:10321000D0E081113DC0BC9E8001BD9E100D1124E7
:10322000F801E056FD4F81818E1132C080818F11EF
:103230002FC0828181112CC0E380F480EC18FD083E
:1032400060E089E992E00E94823580915A02909173
:103250005B02E816F906E0F480919E028F708061AF
:1032600080939E02F801EB55FD4F80818F70806145
:10327000808389E992E00E94730DDF91CF911F91C5
:103280000F91FF90EF90DF90CF90BF900C94712C36
:103290002196C770ABCFDF91CF911F910F91FF9017
:1032A000EF90DF90CF90BF9008952F923F924F9272
:1032B0005F926F927F928F929F92AF92BF92CF92C6
:1032C000DF92EF92FF920F931F93CF93DF93CDB7CF
:1032D000DEB761970FB6F894DEBF0FBECDBF8C018D
:1032E00085E0F801DE011D9601900D928A95E1F7C7
:1032F000D8014C9011965C9011971296EC90129711
:103300001396CD90DC90149760E089E992E00E94DA
:10331000823589E9A82E82E0B82E80909C02909098
:103320009D02A40160919A02809199020E94622CF0
:10333000F82E8111ADC130909B02F601E819F90910
:103340004F0160E0332009F43CC1C5010E94823581
:1033500060905A0270905B0220909E02861497043F
:1033600008F0F8C040919C0250919D02B0909902E3
:10337000A0909A02822D807F6A2D09F08CC08B2D3F
:103380000E94622C811119C0D80111968C9111975D
:103390008A1113C08C918B1110C0E1100EC0822DC8
:1033A0008F70806180939E0289E992E00E94730D84
:1033B00080919E02F801858387C1F4EF6F16F1E0DA
:1033C0007F0620F480915F0280FF21C0A601652D59
:1033D000842D0E94622C811103C081E08E2502C0E1
:1033E00080E090E080FF13C04E2D652D842D0E945B
:1033F000422C882361F089E992E00E94730DE9E98B
:10340000F2E086E0DF011D928A95E9F75DC1A60131
:10341000652D842D0E94622C811103C081E08E25D0
:1034200002C080E090E0B82FB170CB2E80FF2AC0A0
:103430004E2D652D842D0E94422CD82E811122C044
:103440004D865E868D859E850E947D16292F22954C
:103450002F70223018F0243078F405C09F7049F0A6
:10346000811107C00DC09F7021F0F8019581907FF8
:1034700039F0805E883020F0C8010E94730DDC2C8A
:10348000FD2C22C1EE2009F41EC180919E028160B4
:1034900080939E0219C18B2D0E94622C811119C04C
:1034A000D80111968C9111978A1113C08C918B11B0
:1034B00010C0E1100EC015962C92C8010E94730D29
:1034C00086E0F801A9E9B2E001900D928A95E1F752
:1034D0005EC0C8010E9421178823B1F1EE20A1F13E
:1034E00020919E02822F82958F7090E0029774F057
:1034F0008091990290919A0298878F831986DB8632
:10350000CA862C87CE0107960E94730D86E0F801CB
:10351000A9E9B2E001900D928A95E1F70E94DE18C8
:1035200016C0F090990290909A0240919C0250919E
:103530009D02692D8F2D0E94622C882399F0C8016D
:103540000E942117811125C0C8010E94730DFF241C
:10355000F394BAC0822D807F21F789E992E00E941E
:10356000730D90C0D80111968C9111978911E7CFF6
:103570008C918F11E4CFE110E2CF15962C92C80107
:103580000E94730D86E0F50111928A95E9F7F32CFC
:103590009BC0EE20C9F220919E02822F82958F70EF
:1035A00090E002970CF4B2CF8091990290919A0228
:1035B0009A8389831B82DD82CC822E83CE01019681
:1035C000A3CF89E992E00E94823580915A029091BE
:1035D0005B028816990608F055C0FE2CEE2009F40F
:1035E000B3CFE0909902D0909A0240919C02509102
:1035F0009D026D2D8E2D0E94622C811135C0D80147
:1036000011968C9111978D112FC08C918E112CC019
:1036100080915F0282FD1FC080919E0280FD1BC0D1
:1036200082958F70482F50E041155105A1F02091EF
:103630009E0215962C9315974F30510549F08F5FD8
:10364000982F9295907F822F8F70892B15968C934F
:10365000C8010E94730D86E0F801A9E9B2E001906B
:103660000D928A95E1F730C0C8010E94211781119F
:103670004DCF80919E02816080939E02C8010E947E
:10368000730D22C086E0F50111928A95E9F71CC0FE
:10369000EE2009F459CFC8010E942117F82E882383
:1036A00009F452CF86E0F801A9E9B2E001900D9249
:1036B0008A95E1F78091990290919A020E947D1675
:1036C0000E94DE1801C0F12C8F2D61960FB6F89480
:1036D000DEBF0FBECDBFDF91CF911F910F91FF9045
:1036E000EF90DF90CF90BF90AF909F908F907F90A2
:1036F0006F905F904F903F902F90089580910A02B5
:1037000087FF11C08091E80082FD05C0809108020A
:103710008111F8CF11C08091E8008B770BC08091A8
:103720000802882349F08091E80080FFF8CF80915B
:10373000E8008E778093E8000895982F973068F519
:103740009093E900981739F07091EC002091ED000A
:103750005091F00003C0242F762F50E021FD02C0CD
:103760009F5FECCF3091EB003E7F3093EB003091C8
:10377000ED003D7F3093ED003091EB0031603093F0
:10378000EB007093EC002093ED005093F00020913B
:10379000EE0027FDE5CF80E008958F708093E9006B
:1037A00081E0089520911002309111022617370709
:1037B00048F06115710539F42091E8002E772093C7
:1037C000E80001C0B901FC0120E06115710579F143
:1037D000809108028823F1F18530F1F18091E800B1
:1037E00083FD3CC08091E80082FD2EC08091E800FE
:1037F00080FFEBCF2091F3008091F20090E0922BBC
:103800006115710551F08830910538F421912093AC
:10381000F100615071090196F3CF21E0089709F09A
:1038200020E08091E8008E778093E800CECF2111D0
:10383000CFCF0AC080910802882361F0853061F003
:103840008091E80083FD0AC08091E80082FFF2CFFA
:1038500080E0089582E0089583E0089581E008956E
:103860000895BC0184E00C940423BC0183E00C9413
:10387000042380911202982F9670963011F488607C
:1038800001C0877F0C94E7161F93CF93DF93CDB7CA
:10389000DEB7AA970FB6F894DEBF0FBECDBFEAE041
:1038A000F2E082E192E02091F10021938E179F07D0
:1038B000D1F780910B02833009F463C030F481307A
:1038C00071F0823009F49DC0B4C08A3009F489C017
:1038D0008B3009F46EC0893009F0ABC020C08091F4
:1038E0000A02813A09F0A5C08091E800877F8093A1
:1038F000E80080910E0290910F02892B21F460E282
:1039000086EE91E003C060E080E090E070E00E940D
:10391000D21B8091E8008B778093E8008AC0809169
:103920000A02813209F085C080910E0290910F0247
:10393000009719F0029709F07CC08091E800877F1A
:103940008093E8008091E80082FD05C08091080224
:103950008111F8CF6EC02091F3008091F20090E0C9
:10396000922B029731F48091F100813011F0863072
:1039700021F48091F1008093E5018091E8008B773C
:1039800054C080910A02813A09F053C080910E021E
:1039900090910F02892B09F04CC08091E800877F3D
:1039A0008093E8008091E80080FFFCCF80910C01BB
:1039B00037C080910A028132E1F580910E02909128
:1039C0000F02892BB1F58091E800877F8093E80092
:1039D0000E947E1B80910C0280930C010E9429178B
:1039E00028C080910A02813221F58091E800877F0A
:1039F0008093E8000E947E1B80910D028093E40179
:103A000018C080910A02813AA1F48091E800877F72
:103A10008093E8008091E80080FFFCCF8091E40172
:103A20008093F1008091E8008E778093E8000E94F7
:103A30007E1B8091E80083FFEBC180910A02909188
:103A40000B02492F50E04A30510508F0E1C1FA015C
:103A5000E958FF4F0C944937803821F0823809F03B
:103A6000D7C108C08091060290910702992389F07E
:103A700082600FC080910E028F70873008F0C8C13D
:103A80008093E9008091EB0085FB882780F91092F4
:103A9000E9009091E800977F9093E8008093F1000F
:103AA0001092F1007CC1282F2D7F09F0B1C188232D
:103AB00019F0823061F0ACC180910C02813009F0C4
:103AC000A7C1933009F080E0809307022EC0809157
:103AD0000C0281112AC080910E028F702FEF280FE7
:103AE000263008F095C18093E9002091EB0020FF7B
:103AF0001CC0933021F48091EB00806214C090913F
:103B0000EB0090619093EB0021E030E0A90102C04E
:103B1000440F551F8A95E2F74093EA001092EA009D
:103B20008091EB0088608093EB001092E900809117
:103B3000E800877F8093E8000E947E1B69C18111A5
:103B400067C110910C021F778091E3008078812B70
:103B50008093E3008091E800877F8093E8000E94D3
:103B60007E1B8091E80080FFFCCF8091E30080689D
:103B70008093E300111102C082E001C083E08093D2
:103B8000080246C18058823008F042C120910C02E0
:103B900030910D022C3D53E0350779F583E08A839F
:103BA0008AE289834FB7F894DE01139620E03EE065
:103BB00051E2E32FF0E050935700E49120FF03C05F
:103BC000E295EF703F5FEF708E2F90E0EA3010F0DB
:103BD000C79601C0C0968D939D932F5F243149F7FE
:103BE0004FBF8091E800877F8093E8006AE270E031
:103BF000CE0101960E94D21BC0C080910E0290910E
:103C00000F02432F552743305105B1F068F441307E
:103C1000510509F40CC14230510509F0F9C08BE59A
:103C200090E0EEE6F4E057C04132510589F14232AE
:103C3000510509F43CC0ECC0C901992781309105B8
:103C4000B9F070F082309105D9F0039709F0E0C027
:103C5000EBEDF4E0E4918E2F90E0EBEDF4E038C072
:103C6000E5E1F5E0E4918E2F90E0E5E1F5E030C08C
:103C7000E9E0F5E0E4918E2F90E0E9E0F5E028C07E
:103C8000E9EFF4E0E4918E2F90E0E9EFF4E020C05A
:103C90008330910508F0BCC0880F991FFC01E05BE0
:103CA000FE4F0190F081E02D89E090E014C0833058
:103CB000910508F0ADC0FC01EE0FFF1FE65BFE4F63
:103CC0000190F081E02DDC01A95BBE4F8C9190E06A
:103CD000009709F49DC02091E800277F2093E80019
:103CE00020911002309111022817390708F4C901F8
:103CF00040E0009789F120910802222309F43DC099
:103D00002530D9F12091E80023FD37C02091E8004B
:103D100022FD2FC02091E80020FFEBCF4091F3005F
:103D20002091F20030E0342B009759F02830310513
:103D300040F444914093F100319601972F5F3F4F3B
:103D4000F3CF41E02830310509F040E02091E80050
:103D50002E772093E800CDCF4111CDCF0AC08091BE
:103D60000802882351F0853041F08091E80083FDFE
:103D700004C08091E80082FFF2CF8091E8008B7749
:103D80008093E80045C0803809F042C08091E80087
:103D9000877F8093E800809109028093F1008091F1
:103DA000E8008E77C7CE811133C080910C029091CC
:103DB0000D029927029764F58091E800877F809330
:103DC000E80010910C02109309020E947E1B111151
:103DD00006C08091E30087FD02C081E001C084E05D
:103DE0008093080242E061EC81E00E949D1B42E268
:103DF00061EC84E00E949D1B42E261EC82E00E9443
:103E00009D1B42E260EC83E00E949D1B80910802B2
:103E10008091E80083FF10C08091E800877F809345
:103E2000E8008091EB0080628093EB0005C082E1A6
:103E300090E0E9ECF4E04FCFAA960FB6F894DEBF1D
:103E40000FBECDBFDF91CF911F9108951F920F92AA
:103E50000FB60F9211242F933F934F935F936F935D
:103E60007F938F939F93AF93BF93CF93DF93EF9302
:103E7000FF93C091E900CF708091EC00D82FD170F2
:103E800080FDD0E81092E9008091F000877F809358
:103E9000F00078940E94441C1092E9008091F00098
:103EA00088608093F000CD2BCF70C093E900FF9124
:103EB000EF91DF91CF91BF91AF919F918F917F91C2
:103EC0006F915F914F913F912F910F900FBE0F9087
:103ED0001F901895E8EDF0E080818E7F808310922E
:103EE000E2001092DA001092E100A0EEB0E08C91B6
:103EF00081608C9380818F77808319BCA7EDB0E0BF
:103F00008C918E7F8C9380818F7E80831092E301D1
:103F10000895CF92DF92EF92FF920F931F93CF936A
:103F2000DF93C8EDD0E088818F7E8883E7EDF0E0F5
:103F300080818160808384E082BF81E08093E3019F
:103F400088818E7F888302EE10E0F8011082109243
:103F5000DA0081EEC82ED12CF601108288818F778D
:103F6000888388818068888388818F7D888319BC55
:103F70001092080210920902109207021092060293
:103F800090EEE92EF12CF70180818B7F8083888170
:103F90008160888342E060E080E00E949D1BF60122
:103FA00080818E7F8083F801808181608083808121
:103FB00088608083F70180818E7F80838881806123
:103FC0008883DF91CF911F910F91FF90EF90DF9049
:103FD000CF9008951F920F920FB60F9211242F9336
:103FE0003F934F935F936F937F938F939F93AF9381
:103FF000BF93EF93FF938091E10082FF09C080910E
:10400000E20082FF05C08091E1008B7F8093E10098
:104010008091DA0080FF2AC08091D80080FF26C0FE
:104020008091DA008E7F8093DA008091D90080FF42
:1040300018C080E189BD82E189BD09B400FEFDCFD1
:1040400081E0809308028091E30181110FC00E94FA
:104050006A1F0E94891F8091E20084608093E200C1
:1040600005C019BC109208021092E3018091E10092
:1040700080FF17C08091E20080FF13C08091E200B2
:104080008E7F8093E2008091E20080618093E20065
:104090008091D80080628093D80019BC85E080931D
:1040A00008028091E10084FF30C08091E20084FF2B
:1040B0002CC080E189BD82E189BD09B400FEFDCF3D
:1040C0008091D8008F7D8093D8008091E1008F7E11
:1040D0008093E1008091E2008F7E8093E2008091E6
:1040E000E20081608093E20080910902882311F050
:1040F00084E007C08091E30087FD02C081E001C039
:1041000083E080930802809108028091E10083FFA0
:1041100027C08091E20083FF23C08091E100877F68
:104120008093E10082E0809308021092090280915E
:10413000E1008E7F8093E1008091E2008E7F80938A
:10414000E2008091E20080618093E20042E060E062
:1041500080E00E949D1B8091F00088608093F000B9
:10416000FF91EF91BF91AF919F918F917F916F914F
:104170005F914F913F912F910F900FBE0F901F9025
:1041800018952091E4003091E50095E64091EC000F
:10419000842F817040FF23C08091E80080FD1DC006
:1041A00080910802882399F0853099F08091EB0086
:1041B00085FD11C04091E4005091E50024173507BA
:1041C00029F3915011F09A01E1CF84E0089582E043
:1041D000089583E0089581E0089580E00895409176
:1041E000E80042FFDDCF0895EF92FF920F931F93F7
:1041F000CF93DF937C018B010E94C120811119C0F4
:10420000E70101151105A1F08091E80085FD0AC0C4
:104210008091E8008E778093E8000E94C120882377
:1042200081F307C089918093F10001501109E9CF12
:1042300080E0DF91CF911F910F91FF90EF90089553
:104240008091E5010895AF92BF92CF92DF92EF92F5
:10425000FF920F931F93CF93DF934430510508F4DF
:104260006CC04091740241FBCC24C0F8D12CCC0C22
:10427000DD1C42FB882780F9C82FE0E0DE2FCC0F41
:10428000DD1FCC0FDD1FCC2ADD2A40FBEE24E0F839
:10429000F12CEC28FD2843FBAA27A0F9B0E023E08D
:1042A000AA0FBB1F2A95E1F7EA2AFB2A44FBEE2757
:1042B000E0F9F0E034E0EE0FFF1F3A95E1F7EE2968
:1042C000FF2945FB222720F930E055E0220F331F5C
:1042D0005A95E1F72E2B3F2B46FB882780F990E07B
:1042E000E6E0880F991FEA95E1F7822B932B47FBB5
:1042F000442740F950E05695542F44275795479549
:10430000842B952B20917502322F3170132F00E0F2
:10431000082B192B26952170B22EBB0CA12C0A2933
:104320001B29012E000C220B330BFB010083118390
:104330002283338380E090E002C08FEF9FEFDF9114
:10434000CF911F910F91FF90EF90DF90CF90BF9092
:10435000AF900895E2E4F2E0848195812AE030E0B4
:10436000B9010E94FF36609319018681809318017C
:1043700082858093170184858093160186859785B1
:10438000B9010E94FF3660930E01808980930D0170
:104390008289809315018489809314010895809106
:1043A0004202909143029093100180930F0108956F
:1043B00024E02093E9002FEF3091E800215035FDF3
:1043C00006C035ED3A95F1F700002111F5CF2091A7
:1043D000E80025FF0BC040E050E066E070E00E947E
:1043E000F4208091E8008E778093E8000895CF93C1
:1043F000DF9320910C01222339F02091740227FFD2
:1044000003C060E224E002C068E021E02093E900FC
:104410002FEF3091E800215035FD06C035ED3A957B
:10442000F1F700002111F5CF2091E80025FF1DC014
:10443000EC0180910C01811105C040E050E068E082
:1044400070E003C070E040E050E0CE010E94F42034
:104450008091E8008E778093E80080E2FE01A6EE6E
:10446000B1E001900D928A95E1F7DF91CF91089527
:10447000CF92DF92EF92FF924430510508F46FC063
:10448000FB01C080D180E280F3800E9429178091D7
:104490007402C0FA80F9B701A60176956795579521
:1044A000479540FB81F9B701A60122E07695679513
:1044B000579547952A95D1F740FB82F9B701A60198
:1044C00033E076956795579547953A95D1F740FB38
:1044D00083F9B701A601E4E076956795579547956E
:1044E000EA95D1F740FB84F9B701A601F5E076958E
:1044F000679557954795FA95D1F740FB85F9B70130
:10450000A601A6E07695679557954795AA95D1F7A8
:1045100040FB86F9B701A601B7E0769567955795F8
:104520004795BA95D1F740FB87F980937402809143
:104530007502D0FA80F999E0F694E794D794C7947D
:104540009A95D1F7C0FA81F980937502809174022F
:10455000909175020E94B02A80E090E002C08FEF37
:104560009FEFFF90EF90DF90CF9008959C01CA01DC
:10457000F9013296459154918417950750F0CB017B
:10458000F9013496659174910E948A3780E090E039
:1045900008958FEF9FEF08950F931F93CF93DF93AD
:1045A00002E412E0C7E6D2E0CE010E94A736F8018D
:1045B00061918F01681719F0CE010E94BB362196D8
:1045C000CB38F2E0DF0781F7DF91CF911F910F9198
:1045D0000895DA019C012E5F3F4FF90145915491F6
:1045E000F90125913491A217B30758F0FC013496D4
:1045F000859194910E948A370E94CC2280E090E0BD
:1046000008958FEF9FEF089580937602709378025C
:1046100060937702809108028430F9F48093E90076
:104620008FEF9091E800815095FD06C095ED9A9529
:10463000F1F700008111F5CF8091E80085FF0DC0F2
:1046400040E050E063E070E086E792E00E94F420F2
:104650008091E8008E778093E800089581E0809350
:10466000E00080E28093D8001092C9008FE19EE4C0
:104670000197F1F700C0000087E090EBDC01809328
:10468000460390934703A0934803B09349039CE0EB
:1046900088E10FB6F894A895809360000FBE9093C0
:1046A0006000FFCF78941F920F920FB60F921124E3
:1046B0008F939F93AF93BF938091700290917102FB
:1046C000A0917202B09173020196A11DB11D809359
:1046D000700290937102A0937202B0937302BF9123
:1046E000AF919F918F910F900FBE0F901F901895D3
:1046F0009C014FB7F8948091700290917102A09143
:104700007202B09173024FBF821B930B08952FB7B3
:10471000F894609170027091710280917202909190
:1047200073022FBF08952FB7F89480917002909173
:104730007102A0917202B09173022FBF08951F926F
:104740000F920FB60F9211248F939F93AF93BF9345
:1047500080916F02811113C080917002909171025B
:10476000A0917202B09173024196A11DB11D809378
:10477000700290937102A0937202B0937302BF9182
:10478000AF919F918F910F900FBE0F901F90189532
:1047900020910C012223C9F02091740227FF15C03B
:1047A000262F2695269526952E31C8F4FC01E20F7A
:1047B000F11D677081E090E001C0880F6A95EAF70B
:1047C00080959281892382830895FC010696228137
:1047D000621301C012823196E817F907C1F70895F4
:1047E00020910C012223C1F02091740227FF14C0F4
:1047F000262F2695269526952E3130F5FC01E20FC1
:10480000F11D677081E090E001C0880F6A95EAF7BA
:104810009281892B82830895FC0132962FEF30E03C
:104820004191641789F02F3F19F4411101C0232FE2
:104830003F5F3630A9F72F3F39F0FC01E20FF11D41
:1048400027FDFA9562830895089520916D023091B5
:104850006E022817390771F090936E0280936D02F3
:10486000E0916B02F0916C02309721F00084F185A9
:10487000E02D099408952091690230916A02281769
:10488000390771F090936A0280936902E0916B029C
:10489000F0916C02309721F00680F781E02D0994A9
:1048A0000895E0916B02F0916C02309721F0019035
:1048B000F081E02D099480E008950F931F93CF932A
:1048C000DF93C42FD22FFC0182818823C9F040934B
:1048D00068020E949323909367028093660280E2AD
:1048E0008C0F883008F05BC0C77081E001C0880F72
:1048F000CA95EAF7DF91CF911F910F910C945A1747
:1049000080916802481334C08091660290916702DA
:104910000E94782320915A0230915B0282179307FC
:1049200038F510E21D0FCD17B9F080E28C0F8830FA
:1049300040F4C77081E001C0880FCA95EAF70E9471
:104940005317183028F581E09D2F977001C0880F0C
:104950009A95EAF70E945A17802F0E94BC181830C7
:10496000F0F4D77081E001C0880FDA95EAF70AC049
:1049700080E28C0F883098F4C77081E001C0880F06
:10498000CA95EAF7DF91CF911F910F910C945317BD
:10499000802FDF91CF911F910F910C94BC18DF9164
:1049A000CF911F910F910895893289F1F0F48431EC
:1049B00071F1B0F4873009F077C081E0809319017C
:1049C00084E1809318018AE0809317018EE180933F
:1049D000160188E08093150188E28093140164C079
:1049E00092EE980F9A30F0F05FC0803509F444C021
:1049F00028F48F3409F058C08AE03FC0813529F08F
:104A0000823509F051C081E038C08FEF36C0809107
:104A10004102882379F110924102109240021092D3
:104A20003F0242C08D5180934102833099F038F4A7
:104A3000813069F08230D9F488E191E00DC0853091
:104A400099F078F0863099F484E191E005C089E12D
:104A500091E002C087E191E09093400280933F0291
:104A600023C086E191E0F8CF85E191E0F5CF109287
:104A700041021AC080E0089586EFE0913F02F09174
:104A80004002309789F02081082E000C990B820F8C
:104A9000911D8F3F910519F014F08FEF04C097FF1F
:104AA00002C0108201C0808381E00895482F50E049
:104AB000FA013597EF33F10508F079C0EF57FF4F52
:104AC0000C9449370E94D92A6CC080913E02817FA4
:104AD0008E7F80933E0281E080933D020895809115
:104AE000120190911301892B09F45BC00E942917D0
:104AF0002FEF84E39CE0215080409040E1F700C01C
:104B000000000E942E2380913E02982F9095917074
:104B100090FB80F980933E02911143C0897F877F8B
:104B200010C080913E0281FB222720F991E092275C
:104B300090FB81F980933E02992399F180913E0286
:104B4000816080933E022DC080913E0282FB22272D
:104B500020F991E0922790FB82F9ECCF80913E0200
:104B600083FB222720F991E0922790FB83F9E2CF83
:104B70000E9429178091740287FB222720F991E077
:104B8000922790FB87F9809374020BC0895391E0C0
:104B900001C0990F8A95EAF7892F0E9402170E9497
:104BA000291781E008958D51F2CF81E0F6CF80E0A2
:104BB000089580911101877F8093110190911702D0
:104BC0009D7F9093170284FF06C08F7E8093110112
:104BD00082E00E94692B8091110185FF06C08F7DC4
:104BE0008093110180E20E94692B0C94D82B6623DC
:104BF00029F0209117022260209317029C01305661
:104C0000211540E2340720F0305E2115304108F4D0
:104C100099270C94A535009741F0EFE9FFE0319713
:104C2000F1F700C000000197F6CF0895AF92BF9250
:104C3000CF92DF92EF92FF920F931F93CF93DF9368
:104C40005C017B01C42E89018091110182FF8DC01E
:104C5000C0913B02D0913C02CA15DB0521F0A114A2
:104C6000B10409F082C0809111018B7F8093110102
:104C700081FD11C08091390290913A02A701481B31
:104C8000590B81E020910F01309110014217530719
:104C900018F480E001C081E08170D82E809111016C
:104CA000D0FA81F980931101FE01FF2784E0F69587
:104CB000E7958A95E1F79E012F703327EE0FFF1FCE
:104CC000E75EFD4F81E090E002C0880F991F2A95B2
:104CD000E2F7DD2029F020813181822B932B06C061
:104CE00080959095208131818223932391838083C5
:104CF0008091180281FF08C080911101806180932A
:104D0000110182E00E94622B8091180285FF08C089
:104D10008091110180628093110180E20E94622BD8
:104D2000A8016D2DCE010E94F725CC2031F0809195
:104D30005D0285FF02C086FF36C0809160029091BF
:104D400061020E940B2680913B0290913C029C01E3
:104D50003056211540E2340720F0305E21153041F5
:104D600008F499270E948B3518C095013327C50197
:104D70009056811540E2940720F0905E8115904195
:104D800010F4C90101C0C5010E948B3580913B021E
:104D900090913C02A816B90611F40E94D925F09210
:104DA0003A02E0923902DF91CF911F910F91FF906B
:104DB000EF90DF90CF90BF90AF9008950F931F9327
:104DC000CF93DF9302E412E0C7E6D2E0CE010E9467
:104DD000A736F80181938F012196CB38F2E0DF07E7
:104DE000A9F7C0E0D0E0FE01ED5AF84F859194910B
:104DF000009711F0FC0109952C96CC3FD10599F74D
:104E0000DF91CF911F910F910895E2E4F2E0128EAD
:104E1000138E4FEA50E05183408385E0848F88E809
:104E200093E1938382838AE090E09583848324E1F5
:104E300030E03783268368E070E07187608793876E
:104E400082872EE130E0358724879787868720E5A3
:104E500030E0318B208B738B628B68E270E0758B56
:104E6000648B62E370E0778B668B518F408F158E79
:104E7000978F868F31A320A382E082A30E94CC2249
:104E80000E942917109275021092740280E090E03F
:104E90000E94B02A0C94DE26CF93DF93CBE8D2E0B9
:104EA00060E0CE010E94BB362196C11584E0D80790
:104EB000B9F7DF91CF910895462F209115023091D7
:104EC0001602232B91F47E3F39F46E3F71F48091EA
:104ED0001302909114020895843038F4753028F448
:104EE0006E3018F4672F0C94EF3180E090E0089555
:104EF0008F929F92AF92BF92CF92DF92EF92FF92EA
:104F00000F931F93CF93DF93C0901201D0901301A2
:104F100081E090E09093130180931201E12CF12C39
:104F2000912C812C00E010E0C0E0D0E05801AE0CE4
:104F3000BF1CFE01EE0FFF1FEA0DFB1DE75EFA4FDF
:104F4000259134914C2F682D892D0E94B9312196DD
:104F5000CE30D10571F7045E1F4F839485E088122F
:104F6000E3CF21E030E040E060E0892D0E946A312B
:104F700021E030E041E060E0892D0E946A319394A5
:104F80008CE8E80EF11C84E09812CBCF0E94052734
:104F9000D0921301C0921201DF91CF911F910F9116
:104FA000FF90EF90DF90CF90BF90AF909F908F9049
:104FB000089580E008959091740292FF0DC0282F0B
:104FC0002871283019F4877F846006C0282F247147
:104FD000243011F48B7F886093FF0DC0282F287137
:104FE000283119F4877E846106C0282F247124316A
:104FF00011F48B7E88612091750220FF0DC0382F3F
:105000003871383019F4877F816006C0382F3171CC
:10501000313011F48E7F886021FF0DC0282F287158
:10502000283119F4877E816106C0282F2171213132
:1050300011F48E7E886194FD877E0895F894E82FA0
:10504000E295EF70F0E031A1282F2F7081E090E021
:1050500001C0880F2A95EAF7982F9095932391A382
:1050600092A1892B82A3789408958F929F92AF92F8
:10507000BF92CF92DF92EF92FF920F931F93CF9345
:10508000DF93CDB7DEB72A970FB6F894DEBF0FBE19
:10509000CDBFAE014F5F5F4F7A018AE0FA011192F6
:1050A0008A95E9F704E211E06A01AA24A394B12CDD
:1050B000F80180818F3F09F447C0F894E82FE2950A
:1050C000EF70F0E021A18F70A50102C0440F551FC1
:1050D0008A95E2F7CA01922F982B91A392A180950D
:1050E000892382A3789400C0E9E2F1E021E030E076
:1050F000812C912C41914F3F89F0A42FA295AF7044
:10510000B0E090968C9190E04F7002C09595879595
:105110004A95E2F780FD02C0C90102C080E090E03C
:10512000882A992A220F331F51E0E733F50711F738
:10513000F80180818F3F11F00E941E28F0EAFA9555
:10514000F1F7F601918280820F5F1F4FF2E0CF0EE0
:10515000D11C41E00932140709F0AACF4AE050E01F
:10516000B7018AE991E00E947D3711E0009709F4C8
:1051700010E0892B89F08AE0F701AAE9B1E00190FB
:105180000D928A95E1F781E08093FA020E949323C1
:105190009093F9028093F8028091FA02882391F1AA
:1051A0008091F8029091F9020E947823059750F1BE
:1051B00080919A0190919B019093BC018093BB01D7
:1051C00080919C0190919D019093BE018093BD01BF
:1051D00080919E0190919F019093C0018093BF01A7
:1051E0008091A0019091A1019093C2018093C1018F
:1051F0008091A2019091A3019093C4018093C30177
:105200001092FA02812F2A960FB6F894DEBF0FBED5
:10521000CDBFDF91CF911F910F91FF90EF90DF9065
:10522000CF90BF90AF909F908F900895CF93DF93D2
:105230008238910569F1B0F48133910509F46FC0AA
:1052400048F48932910509F465C08A32910509F460
:105250006BC08AC08533910509F457C08933910525
:10526000B9F082C0833E910571F138F4803E91051A
:10527000B1F0823E910511F177C0863E9105B9F1FA
:10528000873E9105C9F1843E910509F06DC024C0A7
:105290002091740220FD53C021FD51C065C0809152
:1052A000740280FD46C08091750280FF48C08091E5
:1052B000740284FD50C183EE90E04FC1809174026E
:1052C00082FF3AC0F4CF8091740282FD35C0809194
:1052D000750280FD34C0EBCF8091750281FF35C02F
:1052E0008091740284FD37C187EE90E036C18091D1
:1052F000740283FF27C0F4CF8091740283FD22C023
:105300008091750281FD21C0EBCF8091740285FDF3
:105310001FC021C08091740285FD1DC019C08091FD
:10532000740286FD1BC01DC08091740286FD19C0E9
:1053300015C089E390E011C182EE90E00EC180EECD
:1053400090E00BC186EE90E008C184EE90E005C1CC
:1053500089E290E002C185E390E0FFC08AE290E03C
:10536000FCC081E390E0F9C0811531E5930708F0B6
:1053700069C0811540E59407F0F09C0174E0369512
:1053800027957A95E1F7922F9370482F437021E08B
:1053900030E002C0220F331F4A95E2F73C68392BF8
:1053A000982F9F709695969540E2949FC001112486
:1053B000822B932BD2C0883E910568F5803E9105E3
:1053C00008F0CBC0883A9105B8F4853A910548F0C9
:1053D000855AE82FF0E0EA5AFE4F808190E0906411
:1053E000BCC08130910509F4B3C008F4B4C0843066
:1053F000910508F4B0C0B1C08F3B910508F0ABC077
:10540000885AE82FF0E0EE0FFF1FE75AFE4F808129
:1054100091819464A2C0811520E2920758F481150D
:1054200031E0930708F099C0803F910508F493C0DC
:10543000906593C0811540E4940708F48CC09F7078
:10544000906A8BC0811525E5920708F042C081154E
:1054500034E5930728F0982F8827846F906A7DC0E1
:10546000811543E59407B0F09C012370332741E098
:1054700050E002C0440F551F2A95E2F7282F2695C9
:10548000269580E2289F90011124CA01822B932B3C
:105490009A6863C0811522E5920728F4982F88271F
:1054A000816F906A5AC09C012370332741E050E01D
:1054B00002C0440F551F2A95E2F7282F26952695FE
:1054C00080E2289F90011124CA01822B932B9C68B3
:1054D00044C0EC01811539E59307A8F4811598457E
:1054E00028F09C2F8827806F906A37C0C11586E509
:1054F000D80788F58C2F0E94DB278F7190E0982FBA
:10550000882790622AC081152AE5920790F48C2F93
:105510008F700E94DB2794E0D695C7959A95E1F7A6
:10552000CF70D0E0DC2FCC27D0699E01282BC90199
:1055300014C090568115904270F48D2F8F710E9487
:10554000DB27282F2F71CE0199279062922B05C05F
:1055500081E090E002C080E090E0DF91CF9108957B
:10556000CF93C92F682F84E090E00E94BB366C2F48
:1055700082E290E0CF910C94BB36CF9384E090E030
:105580000E94A736C82F82E290E00E94A7362C2FF7
:1055900030E0A901582BCA01CF91089580E090E036
:1055A0000E94B536893E9E4F11F40C94033380E07F
:1055B000089569EE7EEF80E090E00E94D93660E0C9
:1055C00082E090E00E94BB3660E083E090E00E94C1
:1055D000BB361092450360E084E090E00E94BB3649
:1055E00060E082E290E00E94BB3660E085E090E0FF
:1055F0000E94BB3660E086E090E00E94BB366FEF11
:1056000087E090E00E94BB3640E050E0BA0188E0BD
:1056100090E00E94CD3660E08DE090E00E94BB36C5
:1056200040E050E0BA0188E190E00E94CD3660E0B1
:1056300087E190E00E94BB3640E050E0BA018CE187
:1056400090E00E94CD3660E070E080E290E00E9441
:10565000D93640E050E0BA0188E190E00E94CD36B2
:1056600080E00E94D6320E94F43240E050E0BA015D
:105670008FE090E00E94CD3640E050E0BA0183E137
:1056800090E00C94CD368091F702882331F010928F
:10569000F7021092F6021092F5020895CF939091BE
:1056A000750292FD0DC09091F702981749F0C82F2E
:1056B0000E9493239093F6028093F502C093F70221
:1056C000CF910895809590911802892380931802B4
:1056D000089590911802892B8093180208951092D2
:1056E000D4021092D3021092D20208952091D402D3
:1056F000809582238093D402982F977099F430E09C
:10570000482F082E000C550B2417350759F090919F
:10571000750292FD07C08595859585950E94EB16CB
:105720000C946F2B08959091750292FB222720F91B
:10573000281769F080FB92F99093750280917402AA
:10574000909175020E94B02A82E00C94762B089505
:105750009091750292FD10C098E0899F90011124EC
:10576000262B2093D4020E94F7160E949323909335
:10577000D3028093D20208950C94F71680914402CC
:1057800090914502892B89F00E9493232091F50284
:105790003091F602AC01421B530B81E02091440290
:1057A000309145024217530708F480E08170089554
:1057B0009091180280911702892B80937902809131
:1057C000F702882351F18091440290914502892B80
:1057D00029F00E94BE2B81110E94432B90917902E7
:1057E0008091F702892B8093790280910C018823A4
:1057F00031F08091740287FF02C08EE101C086E023
:10580000EBE7F2E090E0815028F021912223D9F3D8
:105810009F5FF9CF91110E94432B40E250E065ED6C
:1058200072E089E792E00E947D37892B21F180E2C6
:10583000E9E7F2E0A5EDB2E001900D928A95E1F77B
:10584000E0916B02F0916C023097A9F080910C010D
:10585000882359F08091740287FF07C080917902F4
:1058600080937A0286E0809379020280F381E02DB2
:1058700089E792E0099408958091D10281111092F4
:10588000D10208952091D00290919F0256E02917ED
:10589000A9F030E0529FF001539FF00D1124E05623
:1058A000FD4F7181761306C07081781303C0728139
:1058B000741306C02F5F3F4F2770E9CF80E0089533
:1058C00081E00895452B41F06F3F41F491E08F3F17
:1058D00009F090E0892F03C081E001C080E0817071
:1058E00008958091D00290919F02891719F08F5FDF
:1058F0008770FBCF089580913B0380FF0AC0219AF7
:1059000085B18D7F95B192602FB7F894E0E1F3E017
:105910000BC0E0E1F3E0118210821282339633E093
:10592000EA33F307C1F7EBCF33E0EA33F30789F04B
:10593000319148E095B9000000C037FF85B9330FB9
:10594000000000C000C000C085B900C04A9591F7B2
:10595000EBCF2FBF8FE594E00197F1F700C0000077
:10596000089590913B0390FF0CC0E0E1F3E0818348
:1059700060834283339693E0EA33F907C1F70C94CE
:105980007B2C089580913B03282F269530E021152C
:10599000310519F48170826005C02031310524F091
:1059A00081708E6180933B030895CF92DF92EF92D6
:1059B000FF926B017C010E94C22CB701A60188E016
:1059C00090E0FF90EF90DF90CF900C94CD368091D7
:1059D0003F03882319F0815080933F0360913B037C
:1059E00070913C0380913D0390913E030C94D52C23
:1059F00080913F03833018F48F5F80933F03609161
:105A00003B0370913C0380913D0390913E030C94C5
:105A1000D52CEBE3F3E083E0808311828FEF828368
:105A20008383148260817181828193810C94D52C4F
:105A3000AF92BF92CF92DF92EF92FF920F931F939C
:105A4000CF93DF93E82EF62EE901E42FF0E0611109
:105A500006C0EB5BF74FE4914E2F2E2F71C0062F3F
:105A600010E0EB5BF74F4491F42FC42ED12C26E0CD
:105A7000829FC00111242FEF30E0B9010E94FF3650
:105A80005BEA5603C001579F900D11248E0D911DA6
:105A90008E0D911D582F550F580FD901A01BB10B1A
:105AA000AC9DC001AD9D900DBC9D900D1124E92FC2
:105AB000F59ED0011124AB2FBB277901EA1AFB0A0E
:105AC000EC9CD001ED9CB00DFC9CB00D1124590153
:105AD000A51AB108A09E7001A19EF00CB09EF00C1A
