:100000000C9468040C94A0040C94A0040C94A00418
:100010000C94A0040C94A0040C94A0040C94A004D0
:100020000C94A0040C94A0040C9461190C949D18D9
:100030000C94582C0C94A0040C94A0040C94A004D0
:100040000C94A0040C94A0040C94A0040C94A004A0
:100050000C94A0040C940B2C0C94A0040C94A004FD
:100060000C94A0040C94A0040C94A0040C94A00480
:100070000C94A0040C94A0040C94A0040C94A00470
:100080000C94A0040C94A0040C94A0040C94A00460
:100090000C94A0040C94A0040C94A0040C94A00450
:1000A0000C94A0040C94A0040C94A0043E0B3E0BF2
:1000B000710B710B0A0C280C6E0D6E0D330CA60C17
:1000C000B90CB90CDF12F512FC12341345135C1392
:1000D00068137713AE147F13A613C913FF1302140A
:1000E000A316CA167F18CA167F18161739177F1855
:1000F0003A184A18092FFF2E1D2F6B2F712F712FC1
:100100006B2F712F712F3E2F712F482F522F712F70
:10011000712F712F712F6B2F712F712F6B2F712FEB
:100120002B2F712F712F6D2F6D2F6D2F6D2F6D2F29
:100130006D2F6D2F6D2F6D2F6F2F712F092FFC2EAF
:10014000712F712F712F712F712F712F712F712FAF
:10015000712F712F6F2F712F712F6B2F712F602FB8
:10016000602F602F602F602F602F602F602F602F17
:100170006F2FFD377A585A000004E6D6B4460200C5
:10018000210116000000742FE5A3E003C101765D94
:10019000003D8889C65436C3174FE4E6213E35DC5E
:1001A000BE4B3794CA7FD3A8FE859BD4F0F5621A64
:1001B0003D22AE083709727972773C952DD3353AD6
:1001C000AE39EFD518C73D20EBD6E257B68D73B1E7
:1001D000204BDF6AE8793C4588DCEA7C60C961F83D
:1001E000FAEE8D3B7657807B9E22B42F49FF8744E1
:1001F0001A0CD4188400557DDB1A6BB3E75C70BD14
:100200000F26BD922F8F717E91B152D3BF16364407
:100210000FDC5571B7103CDF45623D4FF52F51FBA8
:100220001F3ED5E16298BB9D10BFA8B68CE26C64FE
:10023000CE86E76962E5086F736999CCE7FAC63C38
:100240008562523CD04AABFC6261817582A4DFE1D9
:100250000A06BEEE8B22CF17766DFEF30A9AEF2BBD
:10026000528D77582044081406BB2218F277554166
:10027000AE46F6FDA4D83EBE49B14AC17B55829137
:100280006A5A986E393F83B23048CCC1AE3F7CE1A8
:10029000D4A92D98CEE6AC032D38A65E1D6223624C
:1002A000E4457680A4ABDDD747E3F369AD58CEB61D
:1002B0006B2E8CFF529BA584BCFE3E611115A2F5EE
:1002C000762BE4312EA08E8558BF1AE703ED90F50A
:1002D000A8A5C2475788C1FB885660EC75332FA983
:1002E000CE00D85EE9D48ABEA442B77375FDBB9A2E
:1002F000513D1D57A5346F7B8F23D51EDD4F61EB1C
:1003000063669A152EBB00000000E7412C23ABDB8F
:10031000D29400019203C20700004D29500DB1C4D0
:1003200067FB020000000004595A05010902A101FF
:1003300085020901A10005091901290515002501FA
:10034000950575018102950175038101050109304B
:1003500009311581257F95027508810609381581B7
:10036000257F950175088106050C0A38021581253F
:100370007F950175088106C0C005010980A101852E
:100380000319012AB700150126B7009501751081E0
:1003900000C0050C0901A101850419012AA002155C
:1003A0000126A002950175108100C005010906A172
:1003B000018506050719E029E7150025019508754F
:1003C0000181020507190029EF1500250195F07537
:1003D000018102050819012905950575019102950C
:1003E0000175039101C00660FF0961A10109621551
:1003F0000026FF009520750881020963150026FF7D
:1004000000952075089102C005010906A1010507A4
:1004100019E029E71500250195087501810295016C
:10042000750881010507190029FF150026FF0095B1
:1004300006750881000508190129059505750191C2
:1004400002950175039101C009025B00030100A040
:10045000FA09040000010301010009211101000152
:10046000224000070581030800010904010002037E
:10047000000000092111010001222200070582036A
:100480002000010705030320000109040200010305
:1004900000000009211101000122BC0007058403AE
:1004A00020000112010002000000087070162401F3
:1004B00000010203011C037600690061006C003A30
:1004C00000660036003400630032006200330063CF
:1004D0000000000E0353004E004F00500036003065
:1004E0000000000A034E0061007300700000000469
:1004F000030904165C1E001F0020002100220023B7
:100500000024002500260027002D002E0031002B9E
:100510000014001A000800150017001C0018000C39
:1005200000120013002F0030002A003900040016CA
:1005300000070009000A000B000D000E000F003339
:1005400000340028000000E1001D001B0006001917
:1005500000050011001000360037003800E50000EB
:10056000002C00E000E300E20000002C000000BFCF
:100570005C00002C000000E600E700E4004C0035C1
:10058000003A003B003C003D003E003F004000417F
:100590000042004300440045004C00C25CC35C5272
:1005A0000001000100010001000100010001000143
:1005B00000010001000100C15C500051004F00012A
:1005C0000001000100010001000100010001000123
:1005D000000000BE5CBD5CBF5C01000100010001C9
:1005E0000001000100010001000100000001000104
:1005F00000010001000000010000000100000001F6
:1006000000000001000100005C010035003A003BE1
:10061000003C003D003E003F0040004100420043DE
:1006200000440045004C00C25CC35C520001000164
:1006300000010001000100010001000100010001B2
:10064000000100C15C500051004F00010001000199
:10065000000100010001000100010001000000BED6
:100660005CBD5CBF5C0100010001000100010001F4
:100670000001000100010000000100010001000173
:100680000000000100000001000000010000000166
:10069000000100005C010035003A003B003C003DD9
:1006A000003E003F0040004100420043004400453E
:1006B000004C00C25CC35C5200010001000100015B
:1006C000000100010001000100010001000100C162
:1006D0005C500051004F00010001000100010001C9
:1006E0000001000100010001000000BE5CBD5CBF14
:1006F0005C01000100010001000100010001000196
:1007000000010000000100010001000100000001E3
:1007100000000001000000010000000100010000D5
:100720005C0100010001008404CA1BFD1B000002E3
:100730000002008004CA1BFD1B00000300010085AD
:1007400004CA1BFD1B0000040002006A04CA1BFD52
:100750001B431B050001008604CA1BFD1B0000068D
:100760000002006C04CA1BFD1B000007000200828F
:1007700004CA1BFD1B0000080001008704CA1BFD02
:100780001B0000090002006E04CA1BFD1B1E1B0A91
:100790000002007004CA1BFD1B1E1B0B000200722E
:1007A00004CA1BFD1B1E1B0C0002007404CA1BFDA7
:1007B0001B1E1B0D0002007604CA1BFD1B1E1B0E18
:1007C0000002007804CA1BFD1B1E1B0F0002007AEA
:1007D00004CA1BFD1B1E1B100002007C04CA1BFD6B
:1007E0001B1E1B110002007E04CA1BFD1B1E1B12D8
:1007F0000002008804CA1BFD1B0000130002008ACF
:1008000004CA1BFD1B0000140001008C04CA1BFD60
:100810001B0000150000000000971A4C1B00000090
:1008200000000000000000000000000000000000C8
:1008300000000000000000000000000000000000B8
:100840000000007E0F00D4FFFFFFC700000078000B
:10085000000000000000002A2B280000000000001B
:100860000000000000000000000029000000002C33
:100870001E3420212224342627252E362D373827D2
:100880001E1F202122232425263333362E37381FDE
:100890000405060708090A0B0C0D0E0F10111213A0
:1008A0001415161718191A1B1C1D2F3130232D353E
:1008B0000405060708090A0B0C0D0E0F1011121380
:1008C0001415161718191A1B1C1D2F3130354C0022
:1008D00011241FBECFEFDAE0DEBFCDBF04B603FEAA
:1008E00018C08091A4049091A504A091A604B09191
:1008F000A7048730904BA740B04B59F41092A40442
:100900001092A5041092A6041092A704E0E0F8E368
:10091000099511E0A0E0B1E0EEE2FEE602C005902C
:100920000D92A838B107D9F724E0A8E8B1E001C0DA
:100930001D92A43AB207E1F70E94D80D0C94153726
:100940000C9400002F923F924F925F926F927F9291
:100950008F929F92AF92BF92CF92DF92EF92FF92CF
:100960000F931F93CF93DF93CDB7DEB72C970FB6BE
:10097000F894DEBF0FBECDBF7C01DC0113964D9114
:100980005C91149711966C9111978C910E94732F22
:1009900081110C94BF0D61E0C7010E941B318C01D5
:1009A000F7012280222009F4C2C082519F45489756
:1009B00008F0ADC50251003108F0C2C08FEF93E0DE
:1009C0000E9479368111BCC06BE2A62E63E0B62E80
:1009D000002379F0A114F4E0BF0609F4B1C0C50109
:1009E0000E947936811101C001502FEFA21AB20A7C
:1009F000EFCF19821A821B821C82CC24CA948501F3
:100A00000F5F1F4FC5010E94793689831A828823A0
:100A100009F496C0813009F085C0450132E0830EAB
:100A2000911CC8010E947936582E8A83882309F4C4
:100A300087C08FEF850D833050F40E5F1F4FC401C8
:100A40000E9479368B8381116DC05801D8CF8BEF0E
:100A5000850D8330D8F5350143E0640E711CC40167
:100A60000E9479368B83811102C08301EECF85010C
:100A70000C5F1F4FC3010E9479368C83882329F3B2
:100A80008B819C8181305FEF950718F0D82EB12CB7
:100A900002C0B82ED92E86E0581671F097E059168C
:100AA00081F08B2D9D2D0E94BB2080918804909118
:100AB00089040E94DB1C05C08B2D9D2D0E94BB204C
:100AC000C4CF8B2D9D2D0E948B20BFCFA4E05A1642
:100AD00011F08401BACFC4010E947936D82E850165
:100AE0000C5F1F4FC50103960E947936DD2041F14E
:100AF000882331F1282F30E021503109C29EA00116
:100B0000C39E500D11248D2D90E00197840F951FE9
:100B1000019708F49ACFEFE9FFE03197F1F700C0B1
:100B20000000F6CFCE0101960E943F308ECF80317B
:100B30002FE59207E9F481E00E946C220E94B01533
:100B400080916603877011F40C94BF0DD701129643
:100B50008C91882311F40C94BF0D80919D0482FF29
:100B600002C00C94BF0D82E00E94E5290C94BF0DD9
:100B700081319F4511F482E0DFCF4801F0EE8F1AFA
:100B8000910880910001811105C08091850480FF4A
:100B900011C275C13090890380916303382A809116
:100BA000D502382A38E08316910480F49801277022
:100BB000332781E090E001C0880F2A95EAF72220D0
:100BC00011F0382A18C08095382215C0222009F467
:100BD00016C110938B0100938A010E94402C6093F0
:100BE0005F04709360048093610490936204109298
:100BF000670410926604D7018D919C910E940B228C
:100C000021E030E0F90102C0EE0FFF1F8A95E2F704
:100C1000FC87EB87209168043091690438872F8323
:100C200040918A0150918B015A8749871D82422C3D
:100C3000512C5D81E52FF0E0EE0FFF1FE95BFD4FCA
:100C4000C080D180C114D10409F4F0C0311005C0B6
:100C5000D60112968C918111CEC0F601838190E06D
:100C60002B853C8582239323892B09F4C4C080857E
:100C7000982F977009F487E038E08316910440F4C8
:100C8000222019F081FD09C0B6C082FD06C0B3C0A4
:100C9000222009F4B0C080FFAEC0D601AD90BC9058
:100CA0000A151B0519F4222009F4A5C0EF81F88567
:100CB000CE16DF0609F49FC0D6011D96ED91FC917A
:100CC0001E97309721F08081882309F494C0632D0A
:100CD000C6010E944E2E882309F48DC00A151B05FB
:100CE00011F4320102C0612C712CB62DB170BE839B
:100CF00081E0A114B10441F0B11106C0E985FA8583
:100D0000AE16BF0609F080E080FF75C080E00E944B
:100D1000DE2DD0926904C092680481E0809365045E
:100D2000D60115968C9180936304BE81B11113C0D6
:100D3000AB2889F0F601808191819C012450310912
:100D4000213A310530F4682F8DE893E00E94812C20
:100D500002C00E94E922D6011696AD90BC9017976A
:100D6000C5019A9581159F4110F4E0EEBE225524ED
:100D70005394C5010197853A9D4508F0512CD60141
:100D80001996ED91FC911A97309739F01B966D9159
:100D90007C911C9781E009955822552029F1F60194
:100DA000868197810E94903380936404C501F8E0A6
:100DB0008F16910418F40E948D2D16C00497813A65
:100DC000910530F46A2D8DE893E00E94A92C0EC0A5
:100DD0000E94472A8FE39CE90197F1F700C00000C9
:100DE0008A2D0E94653502C00E94472A91E069263B
:100DF00060FE1EC1CACEAD81AF5FAD831ACF8091B8
:100E00008A0190918B010817190781F410928B01C8
:100E100010928A0110925F04109260041092610493
:100E20001092620410926704109266048091680424
:100E300090916904009709F4A8CEB8E08B1691044C
:100E400038F4632D0E944E2E81119FCE81E014C094
:100E5000FC01208131810217130729F4211006C0FB
:100E60001092650408C0222009F48FCEDC01189688
:100E70008C9185FD8ACE80E00E94DE2D86CE0E9478
:100E80004C2C6C01F70182818823D9F180911201E9
:100E900082FF08C023EA31E040E0B60180E090E044
:100EA0000E94E61C0B31FCE51F0779F00C312CE5A4
:100EB000120789F00A313CE51307A1F48091120171
:100EC000982F909590FB80F909C080911201816064
:100ED0008093120107C0809112018E7F80931201CE
:100EE0000E94A91CC8019056811540E2940720F089
:100EF000905E8115904180F51092F9021092F802EF
:100F000059C0013E110521F4809112018F7E06C067
:100F1000053E110531F4809112018F7D80931201FD
:100F20001BC0C80190568115A0E29A0720F0905E80
:100F30008115904188F48091120182FF3BC080911D
:100F4000870481FD37C023EA31E040E0B60180E04C
:100F500090E00E94E61C2EC08091120180FF2AC002
:100F6000F70182810832110538F40E311105B8F409
:100F70000430110578F41CC00933110538F40D3222
:100F8000110590F40B32110579F012C004361105E9
:100F900059F00EC09091850494FD0AC04CC0909108
:100FA000850493FD05C047C09091850492FF43C01E
:100FB0008111EEC0033FFCE51F0709F416C108F0DC
:100FC0001AC1083D3CE5130709F409C1093D4CE588
:100FD000140709F42CC1073D5CE5150709F4F9C0B5
:100FE000F701228121112CC10631BCE51B0709F054
:100FF000BCC28091D502982F9A7A3091840430FD3A
:101000005FC231FD63C232FD67C233FD6BC2222372
:1010100009F471C281E0911101C080E080938C01DC
:10102000992309F466C265E38DE893E00E94A92C38
:101030000E94472A85CD882309F4A3C02091D502B8
:1010400080918903982F922B392F3D7F79F110924F
:10105000F9021092F8023091850431FD27C0F801A1
:1010600043E0F695E7954A95E1F7EE71FF27EA52DE
:10107000FD4F98012F70332781E090E002C0880F68
:10108000991F2A95E2F780959095208131818223DE
:10109000932391838083A70160E0C8010E94C71C4D
:1010A000809189038D7F0E94BD2967C038E0F701D8
:1010B000A3EAB1E001900D923A95E1F71092A501F3
:1010C0001092A7011092A6014091F8025091F902E6
:1010D00004171507D1F53091850435FF36C04091CE
:1010E000120141FF02C036FF30C04091F60250911C
:1010F000F702B601641B750B409182045091830482
:101100006417750710F521FF08C0809112018061F6
:101110008093120182E00E94D1298091D50285FF3F
:1011200008C08091120180628093120180E20E94C7
:10113000D1296091120166956170A7018091F80232
:101140009091F9020E94C71CFBCC9695917020915A
:10115000120190FB21F9209312018D7F0E94BD297D
:101160001093F9020093F802D092F702C092F602AF
:101170008091120184608093120182E00E94E5292F
:10118000DFCC970140E0B601C8010E94E61CD8CC34
:101190001092F9021092F802033FFCE51F0729F1B3
:1011A00070F4083D3CE51307D1F0093D4CE5140708
:1011B000F1F1073D5CE5150709F042C00AC0053FA3
:1011C0008CE5180719F1E0F0063FACE51A0749F184
:1011D00037C006E221EE41EE67ED7CE52DC007E267
:1011E00025EE45EE68ED7CE527C006E221EE40EEF7
:1011F00063EF7CE521C0053F8CE5180739F060F40A
:1012000007E225EE44EE64EF7CE516C006E221EE2F
:1012100042EE65EF7CE510C0063FACE51A0709F029
:10122000DFCE07E225EE46EE66EF7CE505C008E27C
:1012300021E045EE69ED7CE5C7010E94162D80CCCA
:10124000109290040330FDE51F0758F40A3F2CE587
:10125000120780F4C80182509C45449708F02EC1C3
:1012600009C001363DE5130729F0053A4DE514079D
:1012700009F024C10E94372990939D0480939C0417
:1012800001315CE5150709F4C6C008F042C0093019
:101290009CE5190709F49BC000F50530BCE51B0768
:1012A00009F485C078F40330FCE51F0709F478C021
:1012B00008F07AC002301C4509F0F7C080919C0408
:1012C0008160F1C007304CE5140709F478C008F0DC
:1012D0007AC080919C048061E6C00D308CE51807CF
:1012E00009F487C058F40B30ACE51A0709F479C04B
:1012F00008F07BC080919C0488606FC00F30ECE5E3
:101300001E0709F480C008F082C080919C04877F8A
:10131000CAC00D3F2CE5120709F471C000F5053174
:101320004CE5140709F485C068F403318CE518070F
:1013300009F475C008F095C00E94B12280919C0408
:101340008F77B1C00B3FACE51A07A9F108F054C084
:101350000A3F1C4509F0A9C080919D0440C001309E
:10136000FDE51F0709F489C058F40F3F3CE513075A
:1013700009F45AC008F069C080919D0482602FC0B2
:1013800001365DE5150709F47EC0053A8DE51807BD
:1013900009F483C002301D4509F087C060E06EC0CB
:1013A00080919C0482607FC080919C0416C08091D3
:1013B0009C04886078C080919D0482604FC08091B9
:1013C0009C04806270C080919C0480646CC00E9408
:1013D000B12280919C04806866C0846064C0816092
:1013E0003DC080919C048E7F5EC080919C048D7F67
:1013F0005AC080919C0416C080919D0418C08091B1
:101400009D048D7F2BC080919C048F7E4CC0809169
:101410009C048F7D48C080919C048F7B44C0809148
:101420009C04877F8B7F3FC080919D048D7F8E7F42
:1014300015C080919C0482FB222720F991E092271D
:1014400090FB82F990FB83F92EC080919D04982F28
:10145000909591708E7F892B90FB81F980939D04EC
:1014600024C00E94B12280919C0487FB222720F98E
:1014700091E0922790FB87F916C061E08EE090E042
:101480000E94873612C080919C0484FB222720F999
:1014900091E0922790FB84F906C080919C04982FDC
:1014A000909590FB80F980939C0480919C0490918E
:1014B0009D040E942A290E94B12242CB21E094CDB2
:1014C000482F447409F49DCD90E09BCD482F417185
:1014D00009F499CD90E097CD482F487809F495CD3F
:1014E00090E093CD827209F492CD222321F01092E4
:1014F0008C0169E299CD80918C01882311F065E31C
:1015000001C069E28DE893E00E94812C91CD003109
:101510009FE5190711F481E005C00131AFE51A0715
:1015200021F482E00E94782209CB0F354DE51407A3
:1015300021F481E08093000103CB00365DE51507BF
:1015400031F41092000180E00E94DE2DF9CA0E35C0
:101550008DE5180729F480910001882351F3F1CF1C
:10156000480120EE821A91080CCBF7018281882372
:1015700089F10A35ADE51A0741F150F40115ECE5A2
:101580001E07A9F00E3D1C4529F50E944829D8CA1E
:101590000B352DE51207D9F00C351D45D9F4809196
:1015A0009D0482FB882780F991E0892711C00E9461
:1015B000B1224FEF54E38CE0415050408040E1F7BE
:1015C00000C000000E94E72BBBCA81E001C080E0A0
:1015D0000E94022AF701868197810097B9F4F701EA
:1015E000828100811181882349F0C8010E94CF21A6
:1015F000D82E682FC8010E943B2204C0C8010E9457
:101600000B22D82EB8018D2D0E94851F0E94902795
:10161000182F092FD7011296BC9012971596CC90CF
:10162000C2943FE0C322809166038770B9F0BB206B
:10163000A9F0892F807F803421F080E2810F8830EB
:1016400068F080919D0482FD09C082E00E94E52936
:10165000809166038770AA24A3948111A12C902EF7
:1016600092942FE09222892D90E08C30910508F021
:1016700035C2FC01EA5AFF4F0C94EB36902F9F7055
:10168000802F807FD92E19F0D29490EFD922BB20E1
:10169000A9F0DD2009F402C280E2810F883010F049
:1016A000111104C08D2D0E94D82905C08091FC0223
:1016B000D82AD092FC020E94472AF0C1812F0E94B2
:1016C000E922DD2009F40AC280E2810F883080F12E
:1016D000112371F1D0948091FC02D822D092FC02A7
:1016E0002AC0902F9F70802F807FD92E803219F0D2
:1016F000D29480EFD822112321F0113009F45CC07C
:1017000067C080919D0482FF19C0BB2059F0DD2085
:1017100029F08D2D0E94D8290E94472A80E00E943E
:101720006535DCC180E00E94E922DD2009F4D6C1E4
:101730008D2D0E94D1290E94472AD0C1BB2001F1E2
:10174000CC20D1F0B1E0CB1206C0809189038D2965
:101750000E94BD29C3C180918604823068F0C812FE
:101760000BC00E94B22980916303D812D092630308
:101770008D2D0E94E222B2C1809189038D29F9CF7B
:10178000CC2079F080918604E1E0CE1210C0823046
:1017900008F4A4C18091D5028D2109F49FC10E9453
:1017A000B72A0E94B2298D2D0E94DB2297C1823078
:1017B000C0F3C812F6CF92C180918C04BB2021F0F7
:1017C0008C1508F48BC1D4CFC81608F087C1EBCFB5
:1017D000BB20E9F0CC2061F220E0D7014C911196BA
:1017E0005C91119712966C91129713967C911397B6
:1017F00014968C910E94F2308091870481FD4EC135
:10180000F701858180FF4AC18F708583B1CFC110F8
:101810004EC1C9CF802F86958695837019F081308F
:1018200061F05CC1BB2021F0812F902F937002C02A
:1018300080E090E00E94F42C57C1BB2021F0812F62
:10184000902F937002C080E090E00E94DE2C4CC18B
:10185000812FBB2019F00E94FD3402C00E94F0339A
:101860000E948A2141C1802F8370A1F5B1103AC135
:10187000412F429546954770440F440F212F2F70FA
:1018800030E0C901042E01C0880F0A94EAF714FF62
:1018900008C02FE030E001C0220F4A95EAF72095FA
:1018A00001C020E0302F369536953370323069F024
:1018B00040F44091F501313019F0822B842302C0AD
:1018C000842B822B0E9483220DC1282B8091F5014D
:1018D0008227F8CFBB2019F0802F817001C0869538
:1018E000882309F4FFC0412F429546954770440F65
:1018F000440F212F2F7030E0C901042E01C0880F42
:101900000A94EAF714FF08C02FE030E001C0220F6C
:101910004A95EAF7209501C020E0302F369536959C
:101920003370323051F070F44091EA01313019F0E7
:10193000822B842308C0842B05C0282B8091EA01C8
:10194000822701C0822B0E946822CCC0F02FFF703A
:10195000DF2EBB2039F08F2F0E947822812F0E942A
:10196000E222C0C0812F0E94DB228D2D0E946C22BA
:10197000B9C0123F11F128F4103F41F0113FA9F115
:1019800089C0133F01F1143F61F184C080918C0440
:10199000BB2021F0C81608F0A1C003C08C1508F4C4
:1019A0009DC0202F2F7181E090E001C0880F2A9503
:1019B000EAF79091EA0189270FC0802F8F71BB2031
:1019C00009F470C087C0BB2051F081E0902F9F7157
:1019D00001C0880F9A95EAF70E9468227FC080E0D4
:1019E000FBCF80919D0482FF06C0802F8F71BB20AA
:1019F00009F470C057C0809186048230A0F18091B4
:101A00006303BB20E1F00E94D129809166038770B7
:101A1000843039F40E94DE29802F8F710E946C225D
:101A20005CC080918604C81608F057C0202F2F7123
:101A3000D22E822F0E94782263E08D2D0DC00E944D
:101A4000D82980918604C81650F00E94DE290E9491
:101A5000B72A64E0802F8F710E94172A3EC081E070
:101A60000E94E5293AC0BB2059F0302F3F71D32E98
:101A7000832F0E94782263E08D2D0E94172A2EC0AA
:101A800081E00E94E52941E04C1540F582E00E948A
:101A9000E52924C0BB2049F0CC2011F0812F3FCE96
:101AA000802F8F710E94782219C0CC2089F01933C1
:101AB00029F480918A0490918B0404C08091880459
:101AC000909189040E94DB1C812F0E94E92206C0AC
:101AD000802F8F710E946C2201C0A12C88EF890D8C
:101AE000843010F40E940A2D812F902F0E948722AB
:101AF000811105C010928E0110928D0125C0BB206E
:101B000019F0C110F7CF20C0C110F4CF20E0D701E9
:101B10004C9111965C91119712966C9112971396B5
:101B20007C91139714968C910E94F23080918704D7
:101B300083FFE0CF80918D0190918E010297D1F6C5
:101B4000812F0E944923D6CFAA20A9F08091660355
:101B500080FD11C0F70112828595859585950E94BB
:101B60007822C7010E94A20480916603859585951D
:101B700085950E946C2260E0C7010E941B312C9663
:101B80000FB6F894DEBF0FBECDBFDF91CF911F918E
:101B90000F91FF90EF90DF90CF90BF90AF909F900C
:101BA0008F907F906F905F904F903F902F9008950F
:101BB000CF93DF93CDB7DEB7E4970FB6F894DEBFCF
:101BC0000FBECDBF84B7877F84BF0FB6F894A895AA
:101BD00080916000886180936000109260000FBE69
:101BE00090E080E80FB6F8948093610090936100D4
:101BF0000FBE85B7806885BF85B7806885BF83E5E0
:101C000096E290938901809388010E9432200E947D
:101C1000A11F0E94AE1D0E94E1180E940019809130
:101C2000E20084608093E20078948091E001882350
:101C3000A1F01091E9001F709091EC00892F817044
:101C400090FD80E8182B1092E9008091E80083FD58
:101C50000E94BB151F701093E90082E084BD93E0E1
:101C600095BD9AEF97BD80936E000E9471218111FE
:101C700002C00E94622104E211E0D8018D918D0121
:101C80008F3F11F00E949826B1E009321B07A9F797
:101C900009E211E0F80181918F018F3F11F00E945C
:101CA0009826F1E007331F07A9F78AE0E1EBF1E09E
:101CB000DF01282F1D922A95E9F7EFE8F1E0DF0117
:101CC0001D928A95E9F780E090E00E948136893E76
:101CD0009E4F21F40E947121811102C00E94482967
:101CE00082E090E00E947936809353040E94372965
:101CF00090939D0480939C040E94AF26EFE3FCE93F
:101D00003197F1F700C000000E94AF268091B10129
:101D100080FF08C06FEF7FEF80E090E00E94A53663
:101D20000E94E72B83E090E00E9479360E94832294
:101D300052985A9A53985B9A8FE891E00197F1F77D
:101D400000C0000089B182FB882780F94B9B02C04C
:101D500092E001C090E0892B8093AD0181E091E099
:101D60009093940480939304E8E16E2E712CF0E438
:101D70003F2EABEB8A2EA1E09A2E8E010F5F1F4FF4
:101D80008091E001853009F043C060E1E62E72E108
:101D9000F72E8091E001853009F036C08091E00196
:101DA000843009F1109297040FB6F894A8956092C8
:101DB00060000FBE3092600083B7817F846083BF74
:101DC00083B7816083BF7894889583B78E7F83BF04
:101DD0000FB6F894A89580916000886180936000A8
:101DE000109260000FBE8091DF01882391F20E9463
:101DF000AF26E1EBF1E081919191892B09F0D6C5F5
:101E00008E169F06C1F7C5CF0E94B1220E940A2DEF
:101E10000E94AF2681110E94402C51EBA52E51E06B
:101E2000B52EE9E9F1E0D501E12CF12C6E2D2D91D3
:101E30003D918191919182279327009779F170E0EC
:101E4000CC24C394D12CA60148235923452B09F156
:101E50007BA76CA72C213D2181E0232B09F480E096
:101E60008DA70E944C2C8160782F9FA78EA74BA531
:101E70005CA56DA58FA50E942931F701EE0FFF1F0C
:101E8000E756FE4F80819181C826D926D182C08233
:101E90001CC07F5FCC0CDD1C7E30A9F69FEFE91AD9
:101EA000F90A25E0E216F10409F68FEF88AB89AB59
:101EB0001AAA0E944C2C8160782F9CAB8BAB48A94E
:101EC00059A96AA98CA90E94293180916604909130
:101ED0006704892B09F43EC040915B0450915C0477
:101EE00060915D0470915E042FB7F894809198041E
:101EF00090919904A0919A04B0919B042FBF841BE8
:101F0000950BA60BB70B4091570450915804609164
:101F1000590470915A0484179507A607B707D0F0A3
:101F200080916604909167040E94D73310926704F1
:101F30001092660410925B0410925C0410925D048F
:101F400010925E0410925704109258041092590493
:101F500010925A0480911301882341F1809150041A
:101F600090915104009711F10E94312C2091FA02B6
:101F70003091FB0228173907C8F490914E048091E4
:101F80004F04981759F00E94902F1092FB02109264
:101F9000FA02109251041092500408C00E94461C8C
:101FA00010925104109250040E94981C8091850454
:101FB00080FF1EC08091120182FF1AC00E944C2C2B
:101FC0002091F6023091F702AC01421B530B209195
:101FD0001001309111014217530750F023EA31E00C
:101FE00041E0BC018091F8029091F9020E94E61C48
:101FF0008091AD01E82FEE0FEE0FE093AD0189B1B6
:1020000082FB442440F8512C4B9B03C082E090E0BB
:1020100002C080E090E0842995298E2B8093AD0149
:102020008F70E82FF0E0E95CFE4F90818091AC0169
:10203000890F8093AC0184305CF08091AB018F5F9D
:102040008093AB0160E080E00E94EC2021E001C0C1
:1020500020E08091AC018D3F54F48091AB01815020
:102060008093AB0161E080E00E94EC2021E0809150
:10207000AC01082E000C990B64E070E00E94D7368A
:102080008093AC0121110E94402C86E0EFEEF1E03C
:10209000D80101900D928A95E1F7C090F101D0909E
:1020A000F201E090F301F090F4011092F10110922E
:1020B000F2011092F3011092F401C11003C0DD206F
:1020C00009F45DC08091ED019091EE010E94312CE8
:1020D000AC019091A204992339F020911A0130E0CB
:1020E0002417350758F04BC020911B018AE0289F28
:1020F000900111242417350718F041C09F3F19F0B3
:102100009F5F9093A204CC2061F00E94AE341C1417
:1021100014F491E001C09FEF899F802D11248093DA
:10212000F101DD2061F00E94AE341D1414F491E041
:1021300001C09FEF899F802D11248093F20130917F
:10214000F1013323E1F02091F2012223C1F045EBAC
:102150003403C0011124992319F09093F10103C0B5
:1021600081E08093F10135EB2303C0011124992311
:1021700019F09093F20103C081E08093F201E11025
:1021800003C0FF2009F45DC08091EB019091EC0148
:102190000E94312CAC019091A104992339F0209137
:1021A0000E0130E02417350758F04BC020910F0185
:1021B0008AE0289F900111242417350718F041C0A8
:1021C0009F3F19F09F5F9093A104EE2061F00E9461
:1021D00075341E1414F491E001C09FEF899F802D87
:1021E00011248093F301FF2061F00E9475341F14C5
:1021F00014F491E001C09FEF899F802D11248093FA
:10220000F4013091F3013323E1F02091F401222312
:10221000C1F045EB3403C0011124992319F09093C8
:10222000F30103C081E08093F30135EB2303C00188
:102230001124992319F09093F40103C081E0809355
:10224000F4018091F10181110BC08091F2018111A3
:1022500007C08091F301811103C08091F4018111C5
:102260000E948A21CB82DC82ED82FE8286E0F80128
:10227000AFEEB1E001900D928A95E1F70E940A2D30
:102280009091AE0189138093AE018091E00184307A
:1022900009F076CD83E08093E9008091E80082FF29
:1022A0006FCD8091E80085FF21C00E94381A81110E
:1022B0001BC050E2E52EF12C680109C08091F100AD
:1022C000D6018D936D01B1E0EB1AF10869F08091B0
:1022D000E80085FDF3CF8091E8008B778093E800DC
:1022E0000E94381A882399F391E001C090E0809110
:1022F000E8008B778093E800992309F441CDE090C2
:10230000D302F090D4028981E114F10461F08E3F90
:1023100009F024C38A81833008F445C18550833095
:1023200008F01CC340C1893009F416C3F0F48430AE
:1023300009F470C050F48230C1F108F05EC0813001
:1023400009F00AC31A8289E0D8C1863009F469C04D
:1023500008F002C32D813E813227232732274C818A
:102360006B818A810E947B1EF9C2803109F4B7C05B
:1023700080F48D3009F458C028F48C3009F0ECC298
:1023800080E1B1C08E3009F452C08F3009F479C0B9
:10239000E3C2823109F4A9C008F4A4C0833109F46E
:1023A000CEC08E3F09F4FFC0D7C28A81823009F4C3
:1023B00013C3833051F0813009F0CEC20E94402C0B
:1023C0009B838C837D836E83C9C28091140190911D
:1023D0001501892B09F4C2C2F801CE010B96D50173
:1023E0002C9111963C91B2E0AB0EB11C3283238349
:1023F0003296E817F90799F7B1C28A81823009F05D
:10240000ABC26B817C818D819E810E94F1360E94DE
:102410004021A4C24C816B818A810E94571F9D83F9
:10242000E2C20E94B11E9AC21A8285ED66C1EA809C
:10243000FB80FE24EF24FE24AC80B12CEDE1AE162F
:10244000B10408F08BC26801C701855D9C4F9601FD
:10245000201B310B2A153B0508F080C2F5EDEF1665
:10246000F10430F40E947936D60114968C9302C0A0
:10247000F6011482FFEFEF1AFF0A2FEFC21AD20AF9
:10248000E3CF8091140190911501892B09F466C264
:10249000EA80FB80FE24EF24FE24CC80D12C3DE199
:1024A000C316D10408F05AC25801C701855D9C4F7C
:1024B0009501201B310B2C153D0508F04FC245ED51
:1024C000E416F10428F4D50114966C910E94873625
:1024D000BFEFEB1AFB0AEFEFAE1ABE0AE6CF0E947F
:1024E0001C1E3CC284E08A8339C2EA80FB80FE2441
:1024F000EF24FE24AC80B12CFDE1AF16B10408F04E
:102500002DC26801C70187969601201B310B2A1541
:102510003B0508F023C220E3E21622E0F20630F485
:102520000E947936D60114968C9302C0F60114826B
:10253000FFEFEF1AFF0A2FEFC21AD20AE3CFEA80A9
:10254000FB80FE24EF24FE24CC80D12C3DE1C31679
:10255000D10408F003C240E3E41642E0F40608F0B8
:10256000FDC180E392E08E199F098C159D0508F44A
:10257000F5C15801C70187969501201B310B2C1519
:102580003D0508F0EBC1A0E3EA16A2E0FA0620F44C
:10259000F50164810E948736FFEFEF1AFF0A2FEFE3
:1025A000A21AB20AE7CFEA818E2F90E08E30910511
:1025B00008F0D4C1FC01EE59FF4F0C94EB3688E0D3
:1025C000ECE1F1E0DE01919601900D928A95E1F740
:1025D00080E2D8011D928A95E9F785E0898388E039
:1025E000FE01B196DE01159683C188EB898381E0F7
:1025F0008A831B821C82B2C18C8190E0982F88272D
:102600002B81820F911D092E000CAA0BBB0B45E0FC
:10261000880F991FAA1FBB1F4A95D1F7AC01BD01B6
:10262000405E5F4F6F4F7F4F481759076A077B0720
:1026300008F494C1883BE1E09E07A105B10508F0CC
:102640008DC1493BF1E05F076105710520F048EB62
:1026500051E060E070E0481B590BBC016E587E4FA2
:10266000C8010E9460367AC1FB80EC8040E06E2D8C
:102670008F2D0E94511E99838A8341E06E2D8F2DEC
:102680000E94511E9B838C8369C12E813F8132271A
:102690002327322721154CE5340741F4809114019A
:1026A00090911501892B11F420E030E04D816C816F
:1026B0008B810E942C1E52C140E250E06FEF70E00F
:1026C000C8010E940E37809114018983EA8246C1B5
:1026D00081E090E09093D4028093D30282E390E073
:1026E0009093B0018093AF010E944C2C37C1809130
:1026F00014018983EA828091AF018B832FC1EB8023
:10270000FC8040E250E06FEF70E0C8010E940E379D
:1027100023E237E080E090E0AC014E5F5F4F413252
:10272000510508F01BC1F90165917491E616F70691
:1027300030F4F801E80FF91F71836083CA01245F48
:102740003F4FA8E02F313A0739F708C12B813C8170
:1027500083E297E0FC01459154912417350731F04D
:102760000C96B8E08F319B07A9F7F6C0009709F4E3
:10277000F3C0FC013696259134912115310509F4F9
:10278000EBC04FE150E0BE016E5F7F4FF90109954C
:10279000E4C08B819C8123E2E22E27E0F22EF70138
:1027A000259134918217930749F0FCE0EF0EF11C5C
:1027B0002FE1E21628E0F20691F7CEC0E114F10411
:1027C00009F4CAC0F70138962591349121153105D5
:1027D00009F4C2C04CE150E0BE016B5F7F4FC701FE
:1027E000F9010995009709F0B8C0F7013A9685916B
:1027F0009491009711F0FC01099580E0AEC00E9411
:10280000D51DACC08B81843039F128F4882351F078
:10281000833081F0A3C0853009F44DC0863009F4BF
:102820006CC09CC080E2D8011D928A95E9F788E0CF
:102830008A8363CF6C81CE0181962AE0FC011192DC
:102840002A95E9F7683008F04CC0FAE06F9FB001B4
:10285000112465577D4F3FC06C818AE0FE0135969B
:10286000DE01919601900D928A95E1F789A59AA5CE
:1028700081152CE5920741F4209114013091150146
:10288000232B11F480E090E09AA789A7683070F4B8
:102890003AE0639FB001112465577D4F4AE050E054
:1028A000CE0181960E94AB3680E001C08FEF898314
:1028B0000E94322053C06C81CE0181962AE0DC0157
:1028C0001D922A95E9F7683060F4BAE06B9FB00179
:1028D000112465527D4F4AE050E00E94693680E045
:1028E00001C08FEF89838AE0FE01B196DE01129666
:1028F00001900D928A95E1F731C06C818AE0FE016A
:102900003596DE01919601900D928A95E1F78BA1A3
:102910009CA18115ECE59E0741F4209114013091B2
:102920001501232B11F480E090E09CA38BA3683069
:1029300070F4FAE06F9FB001112465527D4F4AE0B8
:1029400050E0CE0181960E94AB3680E001C08FEF4F
:1029500089830E94A11F02C08FEF89838091E001CB
:10296000843009F00DCA8091E9008F702091EC004D
:10297000922F917020FD90E8F92EF82A82E0809342
:10298000E9008091E80080FF0CC040E050E060E288
:1029900070E0C8010E946B1A8091E8008E778093E6
:1029A000E8008F2D8F708093E900EAC9E9BCF9BC7B
:1029B00009B400FEFDCF8091D8008F7D8093D800B0
:1029C0008091E00082608093E0008091E00081FDD2
:1029D000FCCF0E94B122DDC986E290E00E947936E8
:1029E0001B821C821D828E83B9CF8091E20187FFFA
:1029F00011C08091E80082FD05C08091E001811145
:102A0000F8CF11C08091E8008B770BC08091E00176
:102A1000882349F08091E80080FFF8CF8091E8009A
:102A20008E778093E8000895982F973068F59093FB
:102A3000E900981739F07091EC002091ED00509169
:102A4000F00003C0242F762F50E021FD02C09F5FCD
:102A5000ECCF3091EB003E7F3093EB003091ED00F6
:102A60003D7F3093ED003091EB0031603093EB000F
:102A70007093EC002093ED005093F0002091EE0055
:102A800027FDE5CF80E008958F708093E90081E015
:102A900008952091E8013091E9012617370748F0A1
:102AA0006115710539F42091E8002E772093E80034
:102AB00001C0B901FC0120E06115710579F1809137
:102AC000E0018823F1F18530F1F18091E80083FD88
:102AD0003CC08091E80082FD2EC08091E80080FF1C
:102AE000EBCF2091F3008091F20090E0922B6115E2
:102AF000710551F08830910538F421912093F1004F
:102B0000615071090196F3CF21E0089709F020E0A8
:102B10008091E8008E778093E800CECF2111CFCF4F
:102B20000AC08091E001882361F0853061F08091D6
:102B3000E80083FD0AC08091E80082FFF2CF80E0C8
:102B4000089582E0089583E0089581E0089508954E
:102B5000BC0184E00C94BD2BBC0183E00C94BD2B24
:102B60008091EA01982F9670963011F4886001C028
:102B7000877F0C9468221F93CF93DF93CDB7DEB786
:102B8000AA970FB6F894DEBF0FBECDBFE2EEF1E01C
:102B90008AEE91E02091F10021938E179F07D1F7E3
:102BA0008091E301833009F463C030F4813071F027
:102BB000823009F49DC0B4C08A3009F489C08B30DA
:102BC00009F46EC0893009F0ABC020C08091E201E9
:102BD000813A09F0A5C08091E800877F8093E800E2
:102BE0008091E6019091E701892B21F460E28EEB60
:102BF00091E003C060E080E090E070E00E94491541
:102C00008091E8008B778093E8008AC08091E20190
:102C1000813209F085C08091E6019091E70100972B
:102C200019F0029709F07CC08091E800877F8093BB
:102C3000E8008091E80082FD05C08091E0018111EB
:102C4000F8CF6EC02091F3008091F20090E0922BBB
:102C5000029731F48091F100813011F0863021F437
:102C60008091F1008093BD018091E8008B7754C082
:102C70008091E201813A09F053C08091E601909180
:102C8000E701892B09F04CC08091E800877F809391
:102C9000E8008091E80080FFFCCF80910D0137C0F3
:102CA0008091E2018132E1F58091E6019091E701A6
:102CB000892BB1F58091E800877F8093E8000E941E
:102CC000F5148091E40180930D010E94B12228C087
:102CD0008091E201813221F58091E800877F809325
:102CE000E8000E94F5148091E5018093BC0118C0B2
:102CF0008091E201813AA1F48091E800877F80937E
:102D0000E8008091E80080FFFCCF8091BC018093B7
:102D1000F1008091E8008E778093E8000E94F5141E
:102D20008091E80083FFEBC18091E2019091E30183
:102D3000492F50E04A30510508F0E1C1FA01E0594D
:102D4000FF4F0C94EB36803821F0823809F0D7C160
:102D500008C08091DE019091DF01992389F08260A3
:102D60000FC08091E6018F70873008F0C8C1809352
:102D7000E9008091EB0085FB882780F91092E9003B
:102D80009091E800977F9093E8008093F100109273
:102D9000F1007CC1282F2D7F09F0B1C1882319F0E3
:102DA000823061F0ACC18091E401813009F0A7C1AB
:102DB000933009F080E08093DF012EC08091E40120
:102DC00081112AC08091E6018F702FEF280F2630E5
:102DD00008F095C18093E9002091EB0020FF1CC012
:102DE000933021F48091EB00806214C09091EB004D
:102DF00090619093EB0021E030E0A90102C0440F04
:102E0000551F8A95E2F74093EA001092EA008091FC
:102E1000EB0088608093EB001092E9008091E8005D
:102E2000877F8093E8000E94F51469C1811167C112
:102E30001091E4011F778091E3008078812B8093CB
:102E4000E3008091E800877F8093E8000E94F514FA
:102E50008091E80080FFFCCF8091E3008068809340
:102E6000E300111102C082E001C083E08093E00121
:102E700046C18058823008F042C12091E40130916F
:102E8000E5012C3D53E0350779F583E08A838AE23A
:102E900089834FB7F894DE01139620E03EE051E2BB
:102EA000E32FF0E050935700E49120FF03C0E29538
:102EB000EF703F5FEF708E2F90E0EA3010F0C79612
:102EC00001C0C0968D939D932F5F243149F74FBF6A
:102ED0008091E800877F8093E8006AE270E0CE018D
:102EE00001960E944915C0C08091E6019091E701CA
:102EF000432F552743305105B1F068F44130510557
:102F000009F40CC14230510509F0F9C08BE590E09D
:102F1000E8E4F4E057C04132510589F142325105ED
:102F200009F43CC0ECC0C901992781309105B9F082
:102F300070F082309105D9F0039709F0E0C0E5EB1D
:102F4000F4E0E4918E2F90E0E5EBF4E038C0EFEE92
:102F5000F4E0E4918E2F90E0EFEEF4E030C0E3EE89
:102F6000F4E0E4918E2F90E0E3EEF4E028C0E3ED8E
:102F7000F4E0E4918E2F90E0E3EDF4E020C08330A4
:102F8000910508F0BCC0880F991FFC01E05BFE4F63
:102F90000190F081E02D89E090E014C0833091052C
:102FA00008F0ADC0FC01EE0FFF1FE65BFE4F019085
:102FB000F081E02DDC01A95BBE4F8C9190E0009781
:102FC00009F49DC02091E800277F2093E80020911C
:102FD000E8013091E9012817390708F4C90140E0F8
:102FE000009789F12091E001222309F43DC02530AA
:102FF000D9F12091E80023FD37C02091E80022FD9F
:103000002FC02091E80020FFEBCF4091F3002091EA
:10301000F20030E0342B009759F02830310540F4AD
:1030200044914093F100319601972F5F3F4FF3CFCA
:1030300041E02830310509F040E02091E8002E778A
:103040002093E800CDCF4111CDCF0AC08091E0019F
:10305000882351F0853041F08091E80083FD04C061
:103060008091E80082FFF2CF8091E8008B77809317
:10307000E80045C0803809F042C08091E800877FB1
:103080008093E8008091E1018093F1008091E80055
:103090008E77C7CE811133C08091E4019091E50114
:1030A0009927029764F58091E800877F8093E80074
:1030B0001091E4011093E1010E94F514111106C072
:1030C0008091E30087FD02C081E001C084E080932D
:1030D000E00142E061EC81E00E94141542E261EC03
:1030E00084E00E94141542E261EC82E00E94141513
:1030F00042E260EC83E00E9414158091E00180912F
:10310000E80083FF10C08091E800877F8093E8008B
:103110008091EB0080628093EB0005C082E190E03B
:10312000E3EAF4E04FCFAA960FB6F894DEBF0FBEE5
:10313000CDBFDF91CF911F9108951F920F920FB6CF
:103140000F9211242F933F934F935F936F937F932D
:103150008F939F93AF93BF93CF93DF93EF93FF939F
:10316000C091E900CF708091EC00D82FD17080FD24
:10317000D0E81092E9008091F000877F8093F00002
:1031800078940E94BB151092E9008091F00088604D
:103190008093F000CD2BCF70C093E900FF91EF91A9
:1031A000DF91CF91BF91AF919F918F917F916F915F
:1031B0005F914F913F912F910F900FBE0F901F90F5
:1031C0001895E8EDF0E080818E7F80831092E20018
:1031D0001092DA001092E100A0EEB0E08C918160D4
:1031E0008C9380818F77808319BCA7EDB0E08C91A0
:1031F0008E7F8C9380818F7E80831092BB01089597
:10320000CF92DF92EF92FF920F931F93CF93DF93B2
:10321000C8EDD0E088818F7E8883E7EDF0E0808183
:103220008160808384E082BF81E08093BB018881DC
:103230008E7F888302EE10E0F80110821092DA008F
:1032400081EEC82ED12CF601108288818F77888379
:1032500088818068888388818F7D888319BC1092DB
:10326000E0011092E1011092DF011092DE0190EE78
:10327000E92EF12CF70180818B7F8083888181602A
:10328000888342E060E080E00E941415F6018081AE
:103290008E7F8083F8018081816080838081886057
:1032A0008083F70180818E7F80838881806188831D
:1032B000DF91CF911F910F91FF90EF90DF90CF9012
:1032C00008951F920F920FB60F9211242F933F93E0
:1032D0004F935F936F937F938F939F93AF93BF931E
:1032E000EF93FF938091E10082FF09C08091E2009B
:1032F00082FF05C08091E1008B7F8093E100809187
:10330000DA0080FF2AC08091D80080FF26C080911B
:10331000DA008E7F8093DA008091D90080FF18C098
:1033200080E189BD82E189BD09B400FEFDCF81E065
:103330008093E0018091BB0181110FC00E94E118D0
:103340000E9400198091E20084608093E20005C031
:1033500019BC1092E0011092BB018091E10080FF46
:1033600017C08091E20080FF13C08091E2008E7F41
:103370008093E2008091E20080618093E20080917E
:10338000D80080628093D80019BC85E08093E0016A
:103390008091E10084FF30C08091E20084FF2CC066
:1033A00080E189BD82E189BD09B400FEFDCF809135
:1033B000D8008F7D8093D8008091E1008F7E80932C
:1033C000E1008091E2008F7E8093E2008091E20034
:1033D00081608093E2008091E101882311F084E014
:1033E00007C08091E30087FD02C081E001C083E057
:1033F0008093E0018091E0018091E10083FF27C08C
:103400008091E20083FF23C08091E100877F809359
:10341000E10082E08093E0011092E1018091E100FF
:103420008E7F8093E1008091E2008E7F8093E200A6
:103430008091E20080618093E20042E060E080E001
:103440000E9414158091F00088608093F000FF9135
:10345000EF91BF91AF919F918F917F916F915F910C
:103460004F913F912F910F900FBE0F901F90189585
:103470002091E4003091E50095E64091EC00842F26
:10348000817040FF23C08091E80080FD1DC08091C5
:10349000E001882399F0853099F08091EB0085FD5B
:1034A00011C04091E4005091E5002417350729F33D
:1034B000915011F09A01E1CF84E0089582E00895DF
:1034C00083E0089581E0089580E008954091E80048
:1034D00042FFDDCF0895EF92FF920F931F93CF939A
:1034E000DF937C018B010E94381A811119C0E7011A
:1034F00001151105A1F08091E80085FD0AC08091B9
:10350000E8008E778093E8000E94381A882381F3C0
:1035100007C089918093F10001501109E9CF80E043
:10352000DF91CF911F910F91FF90EF900895AF928F
:10353000BF92CF92DF92EF92FF920F931F93CF93A0
:10354000DF934430510508F46CC040919C0441FB6A
:10355000CC24C0F8D12CCC0CDD1C42FB882780F990
:10356000C82FE0E0DE2FCC0FDD1FCC0FDD1FCC2AF3
:10357000DD2A40FBEE24E0F8F12CEC28FD2843FB8B
:10358000AA27A0F9B0E023E0AA0FBB1F2A95E1F714
:10359000EA2AFB2A44FBEE27E0F9F0E034E0EE0FE4
:1035A000FF1F3A95E1F7EE29FF2945FB222720F975
:1035B00030E055E0220F331F5A95E1F72E2B3F2BB9
:1035C00046FB882780F990E0E6E0880F991FEA958E
:1035D000E1F7822B932B47FB442740F950E05695A7
:1035E000542F442757954795842B952B20919D0464
:1035F000322F3170132F00E0082B192B26952170E4
:10360000B22EBB0CA12C0A291B29012E000C220B67
:10361000330BFB01008311832283338380E090E02E
:1036200002C08FEF9FEFDF91CF911F910F91FF901D
:10363000EF90DF90CF90BF90AF900895EAE6F4E06E
:10364000848195812AE030E0B9010E94C3366093FD
:103650001B01868180931A018285809319018485DC
:103660008093180186859785B9010E94C3366093BF
:103670000F01808980930E018289809317018489CC
:1036800080931601089580916A0490916B04909341
:103690001101809310010895CF92DF92EF92FF9273
:1036A0004430510508F46FC0FB01C080D180E28036
:1036B000F3800E94B12280919C04C0FA80F9B70186
:1036C000A601769567955795479540FB81F9B70117
:1036D000A60122E076956795579547952A95D1F7EB
:1036E00040FB82F9B701A60133E0769567955795BF
:1036F00047953A95D1F740FB83F9B701A601E4E07D
:103700007695679557954795EA95D1F740FB84F9EB
:10371000B701A601F5E07695679557954795FA9517
:10372000D1F740FB85F9B701A601A6E0769567952C
:1037300057954795AA95D1F740FB86F9B701A601A1
:10374000B7E07695679557954795BA95D1F740FBC1
:1037500087F980939C0480919D04D0FA80F999E0C8
:10376000F694E794D794C7949A95D1F7C0FA81F963
:1037700080939D0480919C0490919D040E942A292D
:1037800080E090E002C08FEF9FEFFF90EF90DF901E
:10379000CF9008959C01CA01F90132964591549148
:1037A0008417950750F0CB01F90134966591749117
:1037B0000E94053780E090E008958FEF9FEF089515
:1037C0000F931F93CF93DF930AE614E0C7E6D2E08E
:1037D000CE010E947936F80161918F01681719F0C6
:1037E000CE010E9487362196CB38F2E0DF0781F7C1
:1037F000DF91CF911F910F910895DA019C012E5F07
:103800003F4FF90145915491F90125913491A21747
:10381000B30758F0FC013496859194910E940537C6
:103820000E94E01B80E090E008958FEF9FEF0895E5
:10383000BC0140914E0480914F04942F981729F1B8
:10384000292F30E0F901EE0FFF1FEA5BFB4F0190DB
:10385000F081E02DE617F70799F487E0869FF001E5
:10386000879FF00D1124E25FFB4F81E08483941366
:103870000CC02F5F3F4F2370332720934E040895D1
:103880002F5F3F4F922F9370D9CF0895EF92FF9201
:103890000F931F93CF93DF938091AD03882309F497
:1038A00040C00091FD028CE0F82E8091AD03081716
:1038B000A0F5EE24E394E00EE092FD0210E0F09E0D
:1038C000E001F19ED00D1124C255DC4F4B815C818B
:1038D000698188810E94732F81111DC08E819F8113
:1038E000892B21F488859985019651F428813981A5
:1038F0004A815B816C817D818E819F810E94CC2574
:10390000F09EF001F19EF00D1124E255FC4F14825F
:1039100013821092FC020E2DC8CF1092AD031092AC
:10392000FD02DF91CF911F910F91FF90EF900895CD
:103930001092FB021092FA02EEE0F4E08581811110
:1039400002C014821682379684E0E634F807B1F795
:10395000089580911201877F809312019091FC025B
:103960009D7F9093FC0284FF06C08F7E809312019E
:1039700082E00E94D8298091120185FF06C08F7DC8
:103980008093120180E20E94D8290C94472A662372
:1039900029F02091FC0222602093FC029C01305609
:1039A000211540E2340720F0305E2115304108F443
:1039B00099270C94D733009741F0EFE9FFE0319756
:1039C000F1F700C000000197F6CF0895AF92BF92C3
:1039D000CF92DF92EF92FF920F931F93CF93DF93DB
:1039E0005C017B01C42E89018091120182FF8DC090
:1039F000C091F802D091F902CA15DB0521F0A1149B
:103A0000B10409F082C0809112018B7F8093120172
:103A100081FD11C08091F6029091F702A701481B29
:103A2000590B81E020911001309111014217530789
:103A300018F480E001C081E08170D82E80911201DD
:103A4000D0FA81F980931201FE01FF2784E0F695F8
:103A5000E7958A95E1F79E012F703327EE0FFF1F40
:103A6000EA52FD4F81E090E002C0880F991F2A952D
:103A7000E2F7DD2029F020813181822B932B06C0D3
:103A80008095909520813181822393239183808337
:103A90008091D50281FF08C08091120180618093DE
:103AA000120182E00E94D1298091D50285FF08C0D1
:103AB0008091120180628093120180E20E94D129DC
:103AC000A8016D2DCE010E94C71CCC2031F0809141
:103AD000850485FF02C086FF36C0809188049091DE
:103AE00089040E94DB1C8091F8029091F9029C01EC
:103AF0003056211540E2340720F0305E2115304168
:103B000008F499270E94BD3318C095013327C501D9
:103B10009056811540E2940720F0905E8115904107
:103B200010F4C90101C0C5010E94BD338091F802A3
:103B30009091F902A816B90611F40E94A91CF092FE
:103B4000F702E092F602DF91CF911F910F91FF9063
:103B5000EF90DF90CF90BF90AF9008950F931F9399
:103B6000CF93DF930AE614E0C7E6D2E0CE010E94CD
:103B70007936F80181938F012196CB38F2E0DF0787
:103B8000A9F7C0E0D0E0FE01E35DF84F8591949184
:103B9000009711F0FC0109952C96CC3FD10599F7BF
:103BA000DF91CF911F910F910895EAE6F4E0128E14
:103BB000138E4FEA50E05183408385E0848F88E87C
:103BC00093E1938382838AE090E09583848324E168
:103BD00030E03783268368E070E0718760879387E1
:103BE00082872EE130E0358724879787868720E516
:103BF00030E0318B208B738B628B68E270E0758BC9
:103C0000648B62E370E0778B668B518F408F158EEB
:103C1000978F868F31A320A382E082A30E94E01BAE
:103C20000E94B12210929D0410929C0480E090E0CA
:103C30000E942A290C94AE1DCF93DF93CBE2D3E0F0
:103C400060E0CE010E9487362196C11584E0D80736
:103C5000B9F7DF91CF9108951F93CF93DF9384300D
:103C6000E0F461111AC04230C0F4632F122FC42F48
:103C7000D0E0CC0FDD1F94E0899FC00DD11D112431
:103C8000C95ADD4FCE010E948736612FCE010196C1
:103C9000DF91CF911F910C948736DF91CF911F91C7
:103CA00008950F931F93CF93DF938430E8F461114D
:103CB0001BC04230C8F4C42FD0E0CC0FDD1F24E07D
:103CC000829FC00DD11D1124C95ADD4FCE010E9423
:103CD000793690E0182F0027CE0101960E947936A0
:103CE0009801282BC90102C080E090E0DF91CF91BC
:103CF0001F910F9108950F931F93CF93DF938430FB
:103D000058F5653048F54E3038F521159CE53907F2
:103D100031F4E0911401F0911501EF2BE9F08901E4
:103D2000C42FD0E0CC0FDD1F9CE1699FC00DD11DD9
:103D300011249CE8899FC00DD11D1124612FCE0153
:103D400087960E948736602FCE018896DF91CF91AB
:103D50001F910F910C948736DF91CF911F910F9196
:103D600008956F927F928F929F92AF92BF92CF925F
:103D7000DF92EF92FF920F931F93CF93DF93CDB714
:103D8000DEB764970FB6F894DEBF0FBECDBFA0902C
:103D90001401B090150181E090E09093150180939B
:103DA0001401C12CD12C712C612CE12CF12C00E0E0
:103DB00010E047018C0C9D1CF801EE0FFF1FE80D71
:103DC000F91DED50FB4F25913491402F662D872D25
:103DD0000E947B1E0F5F1F4F0E30110569F78CE1AB
:103DE000E80EF11C639495E06912E1CF21E030E028
:103DF00040E060E0872D0E942C1E21E030E041E091
:103E000060E0872D0E942C1E7394ECE8CE0ED11C2E
:103E1000F4E07F12C9CF0E94D51DCE0101967C012E
:103E20008AE0F70111928A95E9F70BE812E04AE07F
:103E300050E0B801C7010E94AB36065F1F4F0B3D33
:103E4000F2E01F07A1F77E018BE0E80EF11C8AE08B
:103E5000F70111928A95E9F78FEF9FEF988B8F8783
:103E600087E08C8B4AE050E0B801C7010E94AB3676
:103E7000065F1F4F0B32F3E01F07A1F7B092150149
:103E8000A092140164960FB6F894DEBF0FBECDBFAA
:103E9000DF91CF911F910F91FF90EF90DF90CF9026
:103EA000BF90AF909F908F907F906F9008950F93E9
:103EB0001F93CF93DF93843008F56530F8F44E30CC
:103EC000E8F4C42FD0E0CC0FDD1F2CE1629FC00DC1
:103ED000D11D11243CE8839FC00DD11D1124CE01BA
:103EE00087960E94793690E0182F0027CE01889699
:103EF0000E9479369801282BC90102C080E090E029
:103F0000DF91CF911F910F910895462F2091D302F9
:103F10003091D402232B91F47E3F39F46E3F71F43B
:103F20008091D1029091D2020895843038F4753096
:103F300028F46E3018F4672F0C94571F80E090E03F
:103F400008958F929F92AF92BF92CF92DF92EF929D
:103F5000FF920F931F93CF93DF93CDB7DEB72A97CE
:103F60000FB6F894DEBF0FBECDBF09E512E087E4BF
:103F7000C82E82E0D82E9BEDE92E92E0F92E2FE09C
:103F8000922E36E4A32E32E0B32E88248394F601D9
:103F9000019311936F014AE050E0B701CE01019601
:103FA0000E946936F801892D11928A95E9F7898175
:103FB0009A81F801918380838F8182838D818383AD
:103FC00088858483898585838B819C81978386837B
:103FD00010868A8587FF03C01686158603C0F80100
:103FE000B686A58680FF02C0F801808681FF04C0E6
:103FF000F80190859260908782FF04C0F801908557
:104000009460908783FF04C0F80190859860908742
:1040100084FF04C0F80190859061908785FF04C0FB
:10402000F801808580628087015F1F4FFAE0EF0E04
:10403000F11C8BE2E81683E0F80609F0A8CF2A9677
:104040000FB6F894DEBF0FBECDBFDF91CF911F91A9
:104050000F91FF90EF90DF90CF90BF90AF909F9027
:104060008F900895CF92DF92EF92FF920F931F935C
:10407000CF93DF93CDB7DEB72A970FB6F894DEBFA4
:104080000FBECDBF80E5E6EFF1E0DF011D928A951E
:10409000E9F788E3EEE0F4E0DF011D928A95E9F7A5
:1040A00086EFC82E81E0D82E7F010BE812E0F701E1
:1040B000D182C0824AE050E0B801CE0101960E9450
:1040C000693688E0FE013196D60101900D928A95FD
:1040D000E1F789859A85D70113969C938E93129761
:1040E000BAE0CB0ED11CE7E0EE0EF11C065F1F4FCD
:1040F0000B3DF2E01F07D9F62A960FB6F894DEBF03
:104100000FBECDBFDF91CF911F910F91FF90EF9028
:10411000DF90CF900895CF93DF9300D000D01F920F
:10412000CDB7DEB79093D2028093D102811520E201
:10413000920748F40F900F900F900F900F90DF911F
:10414000CF910C94BD338EEF89838A831B820E94AA
:104150004C2C8160782F9D838C8349815A816B819F
:104160008D810E9429310F900F900F900F900F902A
:10417000DF91CF910895CF93DF9300D000D01F92AD
:10418000CDB7DEB79093D2028093D102811520E2A1
:10419000920748F40F900F900F900F900F90DF91BF
:1041A000CF910C94D7338EEF89838A8381E08B8300
:1041B0000E944C2C8160782F9D838C8349815A8189
:1041C0006B818D810E9429310F900F900F900F907D
:1041D0000F90DF91CF910895AF92BF92CF92DF926F
:1041E000EF92FF920F931F93CF93DF93B82EA62EDB
:1041F000C090EA018091F501C82AC7E0D0E0D12C37
:10420000E12CF12CD701C6010C2E04C0B695A79560
:10421000979587950A94D2F780FF13C04A2D6B2D8E
:104220008C2F0E94511E8C018130910551F00E940B
:10423000BB208FE39CE90197F1F700C00000C801A3
:1042400011C02197F8F64A2D6B2D80E00E94511E77
:10425000EC010E94BB208FE39CE90197F1F700C0BD
:104260000000CE010E948B2081E0DF91CF911F9151
:104270000F91FF90EF90DF90CF90BF90AF90089597
:1042800086E290E00C948736CF93C82F811102C04C
:104290006FEF01C062E483E290E00E948736C111B3
:1042A00002C06FEF01C061EC84E290E00E948736AB
:1042B000C11102C06FEF01C065E985E290E0CF91C6
:1042C0000C94873680E00E94442160E070E0CB01CE
:1042D0000E9440210E94B11E0E941C1E81E00C948D
:1042E000442183E290E00E947936823481F484E2B2
:1042F00090E00E947936813C51F485E290E00E9482
:10430000793691E0853909F090E0892F01C080E08D
:10431000817008950E944C2C2091F101211104C05C
:104320002091F201222321F09093EE018093ED0180
:104330002091F301211104C02091F401222321F0E6
:104340009093EC018093EB01E0919304F09194043D
:10435000309749F082E08093EF010480F581E02DF1
:104360008FEE91E00994089580E090E00E94F42C93
:1043700080E090E00E94DE2C1092FC020E94472A0E
:10438000EFEEF1E086E0DF011D928A95E9F71092E9
:10439000A2041092A1041092A3040C948A21CF923B
:1043A000DF92FF920F931F93CF93DF936C010091E5
:1043B000EA018091F501082BC7E0D0E010E0C801C8
:1043C0000C2E02C0959587950A94E2F780FD04C0F3
:1043D0002197A8F7F12C09C0FC2EB6018C2F0E9462
:1043E000851F0E949027019799F38F2DDF91CF9120
:1043F0001F910F91FF90DF90CF900895CF93DF939F
:10440000EC010E94CF21BE010E94851F0E949027CF
:10441000DF91CF9108959E3F61F12EE0929F800D34
:104420001124682F669566956695982F977083E09E
:10443000689FB001112440E050E080E0FB01E40FF0
:10444000F51FE250FD4F208130E0092E02C0369565
:1044500027950A94E2F721703327042E01C0220F1A
:104460000A94EAF7822B4F5F5F4F4330510531F7D3
:10447000089580E008959E3F51F12EE0929F800DB7
:104480001124E82FE695E695E695877051E001C086
:10449000550F8A95EAF783E0E89FF0011124E25076
:1044A000FD4F20E030E070E04081CB01022E02C0E1
:1044B000969587950A94E2F78170819584278523E4
:1044C000842781932F5F3F4F2330310569F708958B
:1044D0008093EA010C94B42121E030E001C0220F66
:1044E0008A95EAF720958091EA0182230C9468224C
:1044F00021E030E001C0220F8A95EAF78091EA01BD
:10450000822B0C9468228093F5010C94B42192952F
:104510009F70963079F010F4925001C09A5092300A
:1045200068F4803F69F018F4883E40F409C0843F85
:1045300029F406C0883E20F0813F11F080E0089504
:1045400081E00895FC0186819781009719F00E940F
:10455000902704C0808191810E94FE210E948722C1
:1045600008951092D50280910D01882331F0809139
:104570009C0487FF02C08EE101C086E0EFE8F3E013
:10458000DF011D928A95E9F70C94B421882341F04C
:1045900080959091FC0289238093FC020C94472A19
:1045A0000895882339F09091FC02892B8093FC02B6
:1045B0000C94472A0895882321F00E94D1290C9455
:1045C000472A0895882321F00E94D8290C94472A6D
:1045D0000895882309F45CC0823869F40E940A2D8A
:1045E00081FF56C069E38DE893E00E94A92C0E94E8
:1045F000472A69E30EC0833891F40E940A2D80FF98
:1046000047C063E58DE893E00E94A92C0E94472AE9
:1046100063E58DE893E00E94812C0C94472A84384E
:1046200069F40E940A2D82FF33C067E48DE893E0AD
:104630000E94A92C0E94472A67E4EBCF9CEF980FB9
:10464000913A10F4682FE5CF90E2980F983050F42B
:10465000877091E001C0990F8A95EAF7892F0E942F
:10466000D129DBCF9BE5980F933020F480E090E0D8
:104670000C94F42C98E5980F973120F480E090E0AA
:104680000C94DE2C803F20F00E94F0330C948A21A1
:1046900008951F93CF93DF93182F893329F4C09186
:1046A0008A04D0918B0404C0C0918804D0918904FD
:1046B000812F0E946535209741F08FE99FE0019797
:1046C000F1F700C000002197F6CF812FDF91CF9145
:1046D0001F910C94E9222F923F924F925F926F921A
:1046E0007F928F929F92AF92BF92CF92DF92EF9282
:1046F000FF920F931F93CF93DF93CDB7DEB76597EC
:104700000FB6F894DEBF0FBECDBF8C0185E0F80177
:10471000DE01519601900D928A95E1F7D8014C90F7
:1047200011965C9011971296EC9012971396CD907B
:10473000DC90149760E089E193E00E941B3189E1ED
:10474000A82E83E0B82E80901C0390901D03A40136
:1047500060911A03809119030E94732FF82E811122
:10476000E5C130901B03F601E819F9094F0160E03B
:10477000332009F469C1C5010E941B316090820495
:104780007090830420901E038614970408F014C1CF
:1047900040911C0350911D03B0901903A0901A037F
:1047A000822D807F6A2D09F097C08B2D0E94732F78
:1047B000811124C0D80111968C9111978A111EC0C5
:1047C0008C918B111BC020911F03309120031696F2
:1047D0008D919C9117972817390781F4E1100EC02D
:1047E000822D8F70806180931E0389E193E00E9487
:1047F000A20480911E03F8018583B4C1F4EF6F1603
:10480000F1E07F0620F48091870480FF21C0A6019B
:10481000652D842D0E94732F811103C081E08E25A8
:1048200002C080E090E080FF13C04E2D652D842DE6
:104830000E94BD2A882361F089E193E00E94A204CE
:10484000E9E1F3E088E0DF011D928A95E9F78AC18A
:10485000A601652D842D0E94732F811103C081E074
:104860008E2502C080E090E0B82FB170CB2E80FF83
:104870002AC04E2D652D842D0E94BD2AD82E81116F
:1048800022C0498A5A8A89899A890E94FE21292F41
:1048900022952F70223018F0243078F405C09F70D4
:1048A00049F0811107C00DC09F7021F0F80195817A
:1048B000907F39F0805E883020F0C8010E94A20409
:1048C000DC2CFD2C4FC1EE2009F44BC180911E035E
:1048D000816080931E0346C18B2D0E94732F81112E
:1048E00024C0D80111968C9111978A111EC08C9109
:1048F0008B111BC020911F033091200316968D91C0
:104900009C9117972817390781F4E1100EC015966E
:104910002C92C8010E94A20488E0F801A9E1B3E04A
:1049200001900D928A95E1F76FC0C8010E94A22202
:104930008823E1F1EE20D1F120911E03822F829590
:104940008F7090E00297A4F08091190390911A0360
:104950009A8789871B86DD86CC862E8780911F03E8
:1049600090912003988B8F87CE0109960E94A20414
:1049700088E0F801A9E1B3E001900D928A95E1F792
:104980000E94E72A16C0F090190390901A034091F4
:104990001C0350911D03692D8F2D0E94732F8823B6
:1049A00099F0C8010E94A222811130C0C8010E9462
:1049B000A204FF24F394D6C0822D807F21F789E1E1
:1049C00093E00E94A204ACC0D80111968C9111977B
:1049D0008911E7CF8C918F11E4CF20911F03309183
:1049E000200316968D919C91179728173907C9F6C1
:1049F000E110D7CF15962C92C8010E94A20488E03E
:104A0000F50111928A95E9F7F32CACC0EE2071F212
:104A100020911E03822F82958F7090E002970CF4F4
:104A2000A7CF8091190390911A039A8389831B82DF
:104A3000DD82CC822E8380911F0390912003988782
:104A40008F83CE01019692CF89E193E00E941B31C2
:104A500080918204909183048816990608F060C0C2
:104A6000FE2CEE2009F4A2CFE0901903D0901A0397
:104A700040911C0350911D036D2D8E2D0E94732FAC
:104A8000811140C0D80111968C9111978D113AC0B7
:104A90008C918E1137C020911F0330912003169600
:104AA0008D919C9117972817390761F5809187049C
:104AB00082FD1FC080911E0380FD1BC082958F70F8
:104AC000482F50E041155105A1F020911E03159685
:104AD0002C9315974F30510549F08F5F982F929581
:104AE000907F822F8F70892B15968C93C8010E941E
:104AF000A20488E0F801A9E1B3E001900D928A9543
:104B0000E1F730C0C8010E94A222811131CF80910B
:104B10001E03816080931E03C8010E94A20422C06C
:104B200088E0F50111928A95E9F71CC0EE2009F49E
:104B30003DCFC8010E94A222F82E882309F436CF67
:104B400088E0F801A9E1B3E001900D928A95E1F7C0
:104B50008091190390911A030E94FE210E94E72A76
:104B600001C0F12C8F2D65960FB6F894DEBF0FBEF5
:104B7000CDBFDF91CF911F910F91FF90EF90DF900C
:104B8000CF90BF90AF909F908F907F906F905F90ED
:104B90004F903F902F900895EF92FF920F931F93A5
:104BA000CF93DF93CDB7DEB760970FB6F894DEBF33
:104BB0000FBECDBF29873A874B875C876D877E877D
:104BC0008F87988BCE0109960E946B2381114AC072
:104BD00088E0FE013996DE01119601900D928A95CA
:104BE000E1F7E984FA840C851D85A8016F2D8E2DCF
:104BF0000E94732F811136C0A0912103B0E0CD0136
:104C00000196877099272091620330E082179307FD
:104C100081F1E982FA821D830C8393E0AA0FBB1F06
:104C20009A95E1F7AE5DBC4F98E0FE013196019098
:104C30000D929A95E1F7809321030E94DD2A12C01C
:104C400028E0829FC00111248E5D9C4F0E946B233F
:104C50008823E1F08091620390E0019687709927A4
:104C60008093620380916203909121038913E8CFBE
:104C70000DC00E94B1221092210310926203E9E15B
:104C8000F3E088E0DF011D928A95E9F760960FB6A0
:104C9000F894DEBF0FBECDBFDF91CF911F910F9172
:104CA000FF90EF90089580E0089590919C0492FF0A
:104CB0000DC0282F2871283019F4877F846006C022
:104CC000282F2471243011F48B7F886093FF0DC04E
:104CD000282F2871283119F4877E846106C0282F77
:104CE0002471243111F48B7E886120919D0420FF72
:104CF0000DC0382F3871383019F4877F816006C0B5
:104D0000382F3171313011F48E7F886021FF0DC052
:104D1000282F2871283119F4877E816106C0282F39
:104D20002171213111F48E7E886194FD877E089572
:104D3000F894E82FE295EF70F0E031A1282F2F7062
:104D400081E090E001C0880F2A95EAF7982F9095AE
:104D5000932391A392A1892B82A3789408958F9293
:104D60009F92AF92BF92CF92DF92EF92FF920F93FA
:104D70001F93CF93DF93CDB7DEB72A970FB6F89482
:104D8000DEBF0FBECDBFAE014F5F5F4F7A018AE03D
:104D9000FA0111928A95E9F704E211E06A01AA2466
:104DA000A394B12CF80180818F3F09F447C0F89497
:104DB000E82FE295EF70F0E021A18F70A50102C00D
:104DC000440F551F8A95E2F7CA01922F982B91A3A1
:104DD00092A18095892382A3789400C0E9E2F1E052
:104DE00021E030E0812C912C41914F3F89F0A42F9C
:104DF000A295AF70B0E090968C9190E04F7002C099
:104E0000959587954A95E2F780FD02C0C90102C0D9
:104E100080E090E0882A992A220F331F51E0E7337F
:104E2000F50711F7F80180818F3F11F00E94982655
:104E3000F0EAFA95F1F7F601918280820F5F1F4F39
:104E4000F2E0CF0ED11C41E00932140709F0AACFDD
:104E50004AE050E0B7018FE891E00E94F83611E097
:104E6000009709F410E0892B89F08AE0F701AFE898
:104E7000B1E001900D928A95E1F781E080938C0377
:104E80000E944C2C90938B0380938A0380918C0317
:104E9000882391F180918A0390918B030E94312C99
:104EA000059750F180918F01909190019093B201FC
:104EB0008093B10180919101909192019093B401FE
:104EC0008093B30180919301909194019093B601E6
:104ED0008093B50180919501909196019093B801CE
:104EE0008093B70180919701909198019093BA01B6
:104EF0008093B90110928C03812F2A960FB6F894F3
:104F0000DEBF0FBECDBFDF91CF911F910F91FF90FC
:104F1000EF90DF90CF90BF90AF909F908F900895CB
:104F2000CF93DF938238910569F1B0F48133910515
:104F300009F46FC048F48932910509F465C08A32DA
:104F4000910509F46BC08AC08533910509F457C0F7
:104F500089339105B9F082C0833E910571F138F42F
:104F6000803E9105B1F0823E910511F177C0863EF9
:104F70009105B9F1873E9105C9F1843E910509F08B
:104F80006DC024C020919C0420FD53C021FD51C060
:104F900065C080919C0480FD46C080919D0480FF87
:104FA00048C080919C0484FD50C183EE90E04FC1C5
:104FB00080919C0482FF3AC0F4CF80919C0482FDD2
:104FC00035C080919D0480FD34C0EBCF80919D045D
:104FD00081FF35C080919C0484FD37C187EE90E04D
:104FE00036C180919C0483FF27C0F4CF80919C043C
:104FF00083FD22C080919D0481FD21C0EBCF809173
:105000009C0485FD1FC021C080919C0485FD1DC0AE
:1050100019C080919C0486FD1BC01DC080919C041A
:1050200086FD19C015C089E390E011C182EE90E0C1
:105030000EC180EE90E00BC186EE90E008C184EED8
:1050400090E005C189E290E002C185E390E0FFC0F5
:105050008AE290E0FCC081E390E0F9C0811531E57F
:10506000930708F069C0811540E59407F0F09C01B2
:1050700074E0369527957A95E1F7922F9370482F33
:10508000437021E030E002C0220F331F4A95E2F75F
:105090003C68392B982F9F709695969540E2949F87
:1050A000C0011124822B932BD2C0883E910568F554
:1050B000803E910508F0CBC0883A9105B8F4853A56
:1050C000910548F0855AE82FF0E0EA5AFE4F8081BA
:1050D00090E09064BCC08130910509F4B3C008F43D
:1050E000B4C08430910508F4B0C0B1C08F3B9105C5
:1050F00008F0ABC0885AE82FF0E0EE0FFF1FE75A28
:10510000FE4F808191819464A2C0811520E29207B4
:1051100058F4811531E0930708F099C0803F91055C
:1051200008F493C0906593C0811540E4940708F497
:105130008CC09F70906A8BC0811525E5920708F09E
:1051400042C0811534E5930728F0982F8827846F93
:10515000906A7DC0811543E59407B0F09C012370EF
:10516000332741E050E002C0440F551F2A95E2F773
:10517000282F2695269580E2289F90011124CA01A8
:10518000822B932B9A6863C0811522E5920728F43D
:10519000982F8827816F906A5AC09C01237033270B
:1051A00041E050E002C0440F551F2A95E2F7282F36
:1051B0002695269580E2289F90011124CA01822B12
:1051C000932B9C6844C0EC01811539E59307A8F442
:1051D0008115984528F09C2F8827806F906A37C0EA
:1051E000C11586E5D80788F58C2F0E9455268F714A
:1051F00090E0982F882790622AC081152AE59207AF
:1052000090F48C2F8F700E94552694E0D695C79508
:105210009A95E1F7CF70D0E0DC2FCC27D0699E01C2
:10522000282BC90114C090568115904270F48D2F1F
:105230008F710E945526282F2F71CE0199279062D9
:10524000922B05C081E090E002C080E090E0DF9109
:10525000CF910895CF93C92F682F84E090E00E94EA
:1052600087366C2F82E290E0CF910C948736CF93F3
:1052700084E090E00E947936C82F82E290E00E949C
:1052800079362C2F30E0A901582BCA01CF9108950F
:1052900069EE7EEF80E090E00E94A53660E082E05B
:1052A00090E00E94873660E083E090E00E948736BD
:1052B0001092F50160E084E090E00E94873660E0A3
:1052C00082E290E00E94873660E085E090E00E94F4
:1052D000873660E086E090E00E9487366FEF87E0D7
:1052E00090E00E94873640E050E0BA0188E090E00C
:1052F0000E94993660E08DE090E00E94873640E0A1
:1053000050E0BA0188E190E00E94993660E087E1C0
:1053100090E00E94873640E050E0BA018CE190E0D6
:105320000E94993660E070E080E290E00E94A5362D
:1053300040E050E0BA0188E190E00E94993680E0B8
:105340000E9444210E94622140E050E0BA018FE0B7
:1053500090E00E94993640E050E0BA0183E190E08D
:105360000C94993680918903882331F01092890337
:1053700010928803109287030895CF9390919D0413
:1053800092FD0DC090918903981749F0C82F0E9493
:105390004C2C9093880380938703C0938903CF910B
:1053A000089580959091D50289238093D502089520
:1053B0009091D502892B8093D502089510926603AF
:1053C00010926503109264030895209166038095FE
:1053D000822380936603982F977099F430E0482FCA
:1053E000082E000C550B2417350759F090919D0499
:1053F00092FD07C08595859585950E946C220C9439
:10540000DE29089590919D0492FB222720F9281708
:1054100069F080FB92F990939D0480919C04909197
:105420009D040E942A2982E00C94E5290895909118
:105430009D0492FD10C098E0899F90011124262BB5
:10544000209366030E9478220E944C2C909365035F
:105450008093640308950C94782280916C04909159
:105460006D04892B89F00E944C2C20918703309188
:105470008803AC01421B530B81E020916C043091F6
:105480006D044217530708F480E081700895CF93AC
:105490009091D5028091FC02892B80938D0380919D
:1054A0008903882351F180916C0490916D04892BBC
:1054B00029F00E942D2A81110E94B22990918D031A
:1054C00080918903892B80938D0380910D0188231E
:1054D00031F080919C0487FF02C08EE101C086E01C
:1054E000EFE8F3E090E0815028F021912223D9F3F6
:1054F0009F5FF9CF91110E94B229C0916304C095BA
:1055000080918D03C82380916404C82BC0938D03C0
:1055100040E250E067E673E08DE893E00E94F836E1
:10552000892B19F180E2EDE8F3E0A7E6B3E0019002
:105530000D928A95E1F7E0919304F09194043097ED
:10554000A1F080910D01882349F080919C0487FF90
:1055500005C0C0938E0386E080938D030280F381A3
:10556000E02D8DE893E0CF910994CF91089580913B
:105570006303811110926303089520916203909157
:1055800021032917B1F030E0F90153E0EE0FFF1FBE
:105590005A95E1F7EE5DFC4F5181561306C05081DC
:1055A000581303C05281541306C02F5F3F4F27701A
:1055B000E8CF80E0089581E00895809162039091A2
:1055C0002103891719F08F5F8770FBCF0895CF9261
:1055D000DF92EF92FF920F931F93CF93DF9380910F
:1055E0001E0382958F7009F05CC080911B03882395
:1055F00009F457C0C091620380912103C81709F4D0
:1056000050C0F0901903E0901A03C0901C03D09092
:105610001D03A6016E2D8F2D0E94732FD0E08111E6
:105620003DC08E0183E0000F111F8A95E1F7F8015C
:10563000EE5DFC4F81818E1131C080818F112EC0B3
:10564000828181112BC0E380F480EC18FD0860E0BA
:1056500089E193E00E941B31809182049091830440
:10566000E816F906D8F480911E038F70806180934C
:105670001E03F801E95DFC4F80818F70806180839B
:1056800089E193E00E94A204DF91CF911F910F91D5
:10569000FF90EF90DF90CF900C94DD2A2196C77099
:1056A000ABCFDF91CF911F910F91FF90EF90DF90E3
:1056B000CF9008958091BD01089524E02093E900E2
:1056C0002FEF3091E800215035FD06C035ED3A95B9
:1056D000F1F700002111F5CF2091E80025FF0BC064
:1056E00040E050E066E070E00E946B1A8091E800B4
:1056F0008E778093E8000895CF93DF9320910D017A
:10570000222339F020919C0427FF03C060E224E0AB
:1057100002C068E021E02093E9002FEF3091E8001B
:10572000215035FD06C035ED3A95F1F70000211105
:10573000F5CF2091E80025FF1DC0EC0180910D01FF
:10574000811105C040E050E068E070E003C070E007
:1057500040E050E0CE010E946B1A8091E8008E7705
:105760008093E80080E2FE01AEEBB1E001900D9283
:105770008A95E1F7DF91CF91089580939E0470930D
:10578000A00460939F048091E0018430F9F4809339
:10579000E9008FEF9091E800815095FD06C095EDEE
:1057A0009A95F1F700008111F5CF8091E80085FF0F
:1057B0000DC040E050E063E070E08EE994E00E94AC
:1057C0006B1A8091E8008E778093E800089581E05D
:1057D0008093E00080E28093D8001092C9008FE1AE
:1057E0009EE40197F1F700C0000087E090EBDC0138
:1057F0008093A4049093A504A093A604B093A70457
:105800009CE088E10FB6F894A895809360000FBEE5
:1058100090936000FFCF78941F920F920FB60F9273
:1058200011248F939F93AF93BF938091980490918D
:105830009904A0919A04B0919B040196A11DB11DF9
:105840008093980490939904A0939A04B0939B0436
:10585000BF91AF919F918F910F900FBE0F901F90AE
:1058600018959C014FB7F8948091980490919904F1
:10587000A0919A04B0919B044FBF821B930B089593
:105880002FB7F894609198047091990480919A04CC
:1058900090919B042FBF08952FB7F894809198049E
:1058A00090919904A0919A04B0919B042FBF089500
:1058B0001F920F920FB60F9211248F939F93AF9365
:1058C000BF9380919704811113C0809198049091A7
:1058D0009904A0919A04B0919B044196A11DB11D19
:1058E0008093980490939904A0939A04B0939B0496
:1058F000BF91AF919F918F910F900FBE0F901F900E
:10590000189520910D012223C9F020919C0427FFB6
:1059100015C0262F2695269526952E31C8F4FC0114
:10592000E20FF11D677081E090E001C0880F6A9579
:10593000EAF780959281892382830895FC01069677
:105940002281621301C012823196E817F907C1F76C
:10595000089520910D012223C1F020919C0427FF7E
:1059600014C0262F2695269526952E3130F5FC015C
:10597000E20FF11D677081E090E001C0880F6A9529
:10598000EAF79281892B82830895FC0132962FEFEA
:1059900030E04191641789F02F3F19F4411101C0A3
:1059A000232F3F5F3630A9F72F3F39F0FC01E20F7C
:1059B000F11D27FDFA9562830895089520919504BD
:1059C000309196042817390771F0909396048093CC
:1059D0009504E0919304F0919404309721F00084B1
:1059E000F185E02D0994089520919104309192045D
:1059F0002817390771F09093920480939104E091F5
:105A00009304F0919404309721F00680F781E02D03
:105A100009940895E0919304F0919404309721F053
:105A20000190F081E02D099480E008950F931F9379
:105A3000CF93DF93C42FD22FFC0182818823C9F03A
:105A4000409390040E944C2C90938F0480938E047A
:105A500080E28C0F883008F05BC0C77081E001C025
:105A6000880FCA95EAF7DF91CF911F910F910C949F
:105A7000E22280919004481334C080918E0490916A
:105A80008F040E94312C209182043091830482176C
:105A9000930738F510E21D0FCD17B9F080E28C0F97
:105AA000883040F4C77081E001C0880FCA95EAF7DA
:105AB0000E94DB22183028F581E09D2F977001C0ED
:105AC000880F9A95EAF70E94E222802F0E944923CC
:105AD0001830F0F4D77081E001C0880FDA95EAF74A
