:100000000C9468040C94A0040C94A0040C94A00418
:100010000C94A0040C94A0040C94A0040C94A004D0
:100020000C94A0040C94A0040C94BC200C94F81F15
:100030000C94962C0C94A0040C94A0040C94A00492
:100040000C94A0040C94A0040C94A0040C94A004A0
:100050000C94A0040C94492C0C94A0040C94A004BF
:100060000C94A0040C94A0040C94A0040C94A00480
:100070000C94A0040C94A0040C94A0040C94A00470
:100080000C94A0040C94A0040C94A0040C94A00460
:100090000C94A0040C94A0040C94A0040C94A00450
:1000A0000C94A0040C94A0040C94A0043E0B3E0BF2
:1000B000710B710B0A0C280C6E0D6E0D330CA60C17
:1000C000B90CB90C83129912A012D812E9120013BC
:1000D0000C131B13521423134A136D13A313A613EB
:1000E000FE1D251EDA1F251EDA1F711E941EDA1F43
:1000F000951FA51F472F3D2F5B2FA92FAF2FAF2F88
:10010000A92FAF2FAF2F7C2FAF2F862F902FAF2F80
:10011000AF2FAF2FAF2FA92FAF2FAF2FA92FAF2FFB
:10012000692FAF2FAF2FAB2FAB2FAB2FAB2FAB2F39
:10013000AB2FAB2FAB2FAB2FAD2FAF2F472F3A2FBE
:10014000AF2FAF2FAF2FAF2FAF2FAF2FAF2FAF2FBF
:10015000AF2FAF2FAD2FAF2FAF2FA92FAF2F9E2FC8
:100160009E2F9E2F9E2F9E2F9E2F9E2F9E2F9E2F27
:10017000AD2FFD377A585A000004E6D6B446020087
:10018000210116000000742FE5A3E003C101765D94
:10019000003D8889C65436C3174FE4E6213E35DC5E
:1001A000BE4B3794CA7FD3A8FE859BD4F0F5621A64
:1001B0003D22AE083709727972773C952DD3353AD6
:1001C000AE39EFD518C73D20EBD6E257B68D73B1E7
:1001D000204BDF6AE8793C4588DCEA7C60C961F83D
:1001E000FAEE8D3B7657807B9E22B42F49FF8744E1
:1001F0001A0CD4188400557DDB1A6BB3E75C70BD14
:100200000F26BD922F8F717E91B152D3BF16364407
:100210000FDC5571B7103CDF45623D4FF52F51FBA8
:100220001F3ED5E16298BB9D10BFA8B68CE26C64FE
:10023000CE86E76962E5086F736999CCE7FAC63C38
:100240008562523CD04AABFC6261817582A4DFE1D9
:100250000A06BEEE8B22CF17766DFEF30A9AEF2BBD
:10026000528D77582044081406BB2218F277554166
:10027000AE46F6FDA4D83EBE49B14AC17B55829137
:100280006A5A986E393F83B23048CCC1AE3F7CE1A8
:10029000D4A92D98CEE6AC032D38A65E1D6223624C
:1002A000E4457680A4ABDDD747E3F369AD58CEB61D
:1002B0006B2E8CFF529BA584BCFE3E611115A2F5EE
:1002C000762BE4312EA08E8558BF1AE703ED90F50A
:1002D000A8A5C2475788C1FB885660EC75332FA983
:1002E000CE00D85EE9D48ABEA442B77375FDBB9A2E
:1002F000513D1D57A5346F7B8F23D51EDD4F61EB1C
:1003000063669A152EBB00000000E7412C23ABDB8F
:10031000D29400019203C20700004D29500DB1C4D0
:1003200067FB020000000004595A165C1E001F0003
:1003300020002100220023002400250026002700A1
:100340002D002E0031002B0014001A0008001500AB
:1003500017001C0018000C00120013002F003000C2
:100360002A00390004001600070009000A000B00EB
:100370000D000E000F003300340028000000E100E3
:100380001D001B00060019000500110010003600BA
:1003900037003800E50000002C00E000E300E20038
:1003A00000002C000000BF5C00002C000000E600F4
:1003B000E700E4004C0035003A003B003C003D0003
:1003C0003E003F0040004100420043004400450021
:1003D0004C00C25CC35C520001000100010001003E
:1003E0000100010001000100010001000100C15CE9
:1003F000500051004F000100010001000100010008
:1004000001000100010001000000BE5CBD5CBF5C9A
:1004100001000100010001000100010001000100D4
:1004200001000000010001000100010000000100C6
:100430000000010000000100000001000100005C5C
:10044000010035003A003B003C003D003E003F000B
:100450004000410042004300440045004C00C25CA3
:10046000C35C520001000100010001000100010015
:1004700001000100010001000100C15C50005100B9
:100480004F00010001000100010001000100010016
:10049000010001000000BE5CBD5CBF5C010001000A
:1004A0000100010001000100010001000100000045
:1004B0000100010001000100000001000000010036
:1004C00000000100000001000100005C0100350097
:1004D0003A003B003C003D003E003F004000410030
:1004E00042004300440045004C00C25CC35C520023
:1004F00001000100010001000100010001000100F4
:10050000010001000100C15C500051004F000100DA
:1005100001000100010001000100010001000100D3
:100520000000BE5CBD5CBF5C010001000100010079
:1005300001000100010001000100000001000100B4
:1005400001000100000001000000010000000100A6
:10055000000001000100005C0100010001007404C2
:10056000CC15FF150000020002007004CC15FF1529
:100570000000030001007504CC15FF150000040005
:1005800002005A04CC15FF1545150500010076043C
:10059000CC15FF150000060002005C04CC15FF1509
:1005A0000000070002007204CC15FF1500000800CF
:1005B00001007704CC15FF150000090002005E045D
:1005C000CC15FF1520150A0002006004CC15FF159C
:1005D00020150B0002006204CC15FF1520150C003D
:1005E00002006404CC15FF1520150D0002006604FE
:1005F000CC15FF1520150E0002006804CC15FF1560
:1006000020150F0002006A04CC15FF1520151000FC
:1006100002006C04CC15FF152015110002006E04B9
:10062000CC15FF152015120002007804CC15FF151B
:100630000000130002007A04CC15FF15000014001E
:1006400001007C04CC15FF1500001500000000001F
:1006500099144E15000005010902A1018502090146
:10066000A100050919012905150025019505750148
:100670008102950175038101050109300931158158
:10068000257F95027508810609381581257F95011A
:1006900075088106050C0A38021581257F950175BC
:1006A000088106C0C005010980A101850319012A3E
:1006B000B700150126B700950175108100C0050C23
:1006C0000901A101850419012AA002150126A00231
:1006D000950175108100C005010906A10185060577
:1006E0000719E029E7150025019508750181020524
:1006F00007190029EF1500250195F0750181020504
:100700000819012905950575019102950175039157
:1007100001C00660FF0961A1010962150026FF0002
:100720009520750881020963150026FF0095207544
:10073000089102C005010906A101050719E029E792
:100740001500250195087501810295017508810143
:100750000507190029FF150026FF00950675088179
:100760000005081901290595057501910295017586
:10077000039101C009025B00030100A0FA09040013
:1007800000010301010009211101000122400007BD
:1007900005810308000109040100020300000009AB
:1007A0002111010001222200070582032000010718
:1007B00005030320000109040200010300000009F1
:1007C000211101000122BC00070584032000011251
:1007D00001000200000008707016240100010203ED
:1007E000011C037600690061006C003A0066003667
:1007F0000034006300320062003300630000000E2A
:100800000353004E004F0050003600300000000A35
:10081000034E00610073007000000004030904002F
:1008200000000000000000000000000000000000C8
:1008300000000000000000000000000000000000B8
:100840000000007E0F00D4FFFFFFC700000078000B
:10085000000000000000002A2B280000000000001B
:100860000000000000000000000029000000002C33
:100870001E3420212224342627252E362D373827D2
:100880001E1F202122232425263333362E37381FDE
:100890000405060708090A0B0C0D0E0F10111213A0
:1008A0001415161718191A1B1C1D2F3130232D353E
:1008B0000405060708090A0B0C0D0E0F1011121380
:1008C0001415161718191A1B1C1D2F3130354C0022
:1008D00011241FBECFEFDAE0DEBFCDBF04B603FEAA
:1008E00018C08091910490919204A0919304B091CA
:1008F00094048730904BA740B04B59F41092910468
:10090000109292041092930410929404E0E0F8E3A1
:10091000099511E0A0E0B1E0E0EDFCE602C0059031
:100920000D92A837B107D9F724E0A8E7B1E001C0DC
:100930001D92A139B207E1F70E94D80D0C946636DA
:100940000C9400002F923F924F925F926F927F9291
:100950008F929F92AF92BF92CF92DF92EF92FF92CF
:100960000F931F93CF93DF93CDB7DEB72C970FB6BE
:10097000F894DEBF0FBECDBF7C01DC0113964D9114
:100980005C91149711966C9111978C910E94B12FE4
:1009900081110C94BF0D61E0C7010E9459318C0197
:1009A000F7012280222009F4C2C082519F45489756
:1009B00008F0ADC50251003108F0C2C08FEF93E0DE
:1009C0000E94CA358111BCC06BE2A62E63E0B62E30
:1009D000002379F0A114F4E0BF0609F4B1C0C50109
:1009E0000E94CA35811101C001502FEFA21AB20A2C
:1009F000EFCF19821A821B821C82CC24CA948501F3
:100A00000F5F1F4FC5010E94CA3589831A82882350
:100A100009F496C0813009F085C0450132E0830EAB
:100A2000911CC8010E94CA35582E8A83882309F474
:100A300087C08FEF850D833050F40E5F1F4FC401C8
:100A40000E94CA358B8381116DC05801D8CF8BEFBE
:100A5000850D8330D8F5350143E0640E711CC40167
:100A60000E94CA358B83811102C08301EECF8501BC
:100A70000C5F1F4FC3010E94CA358C83882329F362
:100A80008B819C8181305FEF950718F0D82EB12CB7
:100A900002C0B82ED92E86E0581671F097E059168C
:100AA00081F08B2D9D2D0E94BE1A8091780490912B
:100AB00079040E94DD1605C08B2D9D2D0E94BE1A63
:100AC000C4CF8B2D9D2D0E948E1ABFCFA4E05A1645
:100AD00011F08401BACFC4010E94CA35D82E850115
:100AE0000C5F1F4FC50103960E94CA35DD2041F1FE
:100AF000882331F1282F30E021503109C29EA00116
:100B0000C39E500D11248D2D90E00197840F951FE9
:100B1000019708F49ACFEFE9FFE03197F1F700C0B1
:100B20000000F6CFCE0101960E947D308ECF80313D
:100B30002FE59207E9F481E00E94AA220E940B1D92
:100B400080915503877011F40C94BF0DD701129654
:100B50008C91882311F40C94BF0D80918D0482FF39
:100B600002C00C94BF0D82E00E94232A0C94BF0D9A
:100B700081319F4511F482E0DFCF4801F0EE8F1AFA
:100B8000910880910001811105C08091750480FF5A
:100B900011C275C13090780380915203382A809138
:100BA0009402382A38E08316910480F49801277063
:100BB000332781E090E001C0880F2A95EAF72220D0
:100BC00011F0382A18C08095382215C0222009F467
:100BD00016C110937B0100937A010E947E2C6093D2
:100BE0004F047093500480935104909352041092D8
:100BF000570410925604D7018D919C910E9449226E
:100C000021E030E0F90102C0EE0FFF1F8A95E2F704
:100C1000FC87EB87209158043091590438872F8343
:100C200040917A0150917B015A8749871D82422C5D
:100C3000512C5D81E52FF0E0EE0FFF1FEA5FFD4FC5
:100C4000C080D180C114D10409F4F0C0311005C0B6
:100C5000D60112968C918111CEC0F601838190E06D
:100C60002B853C8582239323892B09F4C4C080857E
:100C7000982F977009F487E038E08316910440F4C8
:100C8000222019F081FD09C0B6C082FD06C0B3C0A4
:100C9000222009F4B0C080FFAEC0D601AD90BC9058
:100CA0000A151B0519F4222009F4A5C0EF81F88567
:100CB000CE16DF0609F49FC0D6011D96ED91FC917A
:100CC0001E97309721F08081882309F494C0632D0A
:100CD000C6010E948C2E882309F48DC00A151B05BD
:100CE00011F4320102C0612C712CB62DB170BE839B
:100CF00081E0A114B10441F0B11106C0E985FA8583
:100D0000AE16BF0609F080E080FF75C080E00E944B
:100D10001C2ED0925904C092580481E0809355044F
:100D2000D60115968C9180935304BE81B11113C0E6
:100D3000AB2889F0F601808191819C012450310912
:100D4000213A310530F4682F8DE793E00E94BF2CE3
:100D500002C00E942723D6011696AD90BC9017972B
:100D6000C5019A9581159F4110F4E0EEBE225524ED
:100D70005394C5010197853A9D4508F0512CD60141
:100D80001996ED91FC911A97309739F01B966D9159
:100D90007C911C9781E009955822552029F1F60194
:100DA000868197810E94CE3380935404C501F8E078
:100DB0008F16910418F40E94CB2D16C00497813A27
:100DC000910530F46A2D8DE793E00E94E72C0EC068
:100DD0000E94852A8FE39CE90197F1F700C000008B
:100DE0008A2D0E942E3402C00E94852A91E0692635
:100DF00060FE1EC1CACEAD81AF5FAD831ACF8091B8
:100E00007A0190917B010817190781F410927B01F8
:100E100010927A0110924F041092500410925104D3
:100E20001092520410925704109256048091580464
:100E300090915904009709F4A8CEB8E08B1691045C
:100E400038F4632D0E948C2E81119FCE81E014C056
:100E5000FC01208131810217130729F4211006C0FB
:100E60001092550408C0222009F48FCEDC01189698
:100E70008C9185FD8ACE80E00E941C2E86CE0E9439
:100E80008A2C6C01F70182818823D9F180911101AC
:100E900082FF08C023E931E040E0B60180E090E045
:100EA0000E94E8160B31FCE51F0779F00C312CE5A8
:100EB000120789F00A313CE51307A1F48091110172
:100EC000982F909590FB80F909C080911101816065
:100ED0008093110107C0809111018E7F80931101D1
:100EE0000E94AB16C8019056811540E2940720F08D
:100EF000905E8115904180F51092B8021092B70271
:100F000059C0013E110521F4809111018F7E06C068
:100F1000053E110531F4809111018F7D80931101FF
:100F20001BC0C80190568115A0E29A0720F0905E80
:100F30008115904188F48091110182FF3BC080911E
:100F4000770481FD37C023E931E040E0B60180E05D
:100F500090E00E94E8162EC08091110180FF2AC007
:100F6000F70182810832110538F40E311105B8F409
:100F70000430110578F41CC00933110538F40D3222
:100F8000110590F40B32110579F012C004361105E9
:100F900059F00EC09091750494FD0AC04CC0909118
:100FA000750493FD05C047C09091750492FF43C03E
:100FB0008111EEC0033FFCE51F0709F416C108F0DC
:100FC0001AC1083D3CE5130709F409C1093D4CE588
:100FD000140709F42CC1073D5CE5150709F4F9C0B5
:100FE000F701228121112CC10631BCE51B0709F054
:100FF000BCC280919402982F9A7A3091740430FD8B
:101000005FC231FD63C232FD67C233FD6BC2222372
:1010100009F471C281E0911101C080E080937C01EC
:10102000992309F466C265E38DE793E00E94E72CFB
:101030000E94852A85CD882309F4A3C020919402BB
:1010400080917803982F922B392F3D7F79F1109260
:10105000B8021092B7023091750431FD27C0F80133
:1010600043E0F695E7954A95E1F7EE71FF27EB56D9
:10107000FD4F98012F70332781E090E002C0880F68
:10108000991F2A95E2F780959095208131818223DE
:10109000932391838083A70160E0C8010E94C91651
:1010A000809178038D7F0E94FB2967C038E0F701AB
:1010B000A3E9B1E001900D923A95E1F71092950104
:1010C00010929701109296014091B7025091B80288
:1010D00004171507D1F53091750435FF36C04091DE
:1010E000110141FF02C036FF30C04091B50250915E
:1010F000B602B601641B750B4091720450917304E3
:101100006417750710F521FF08C0809111018061F7
:101110008093110182E00E940F2A8091940285FF42
:1011200008C08091110180628093110180E20E94C9
:101130000F2A6091110166956170A7018091B70235
:101140009091B8020E94C916FBCC9695917020919F
:10115000110190FB21F9209311018D7F0E94FB2941
:101160001093B8020093B702D092B602C092B502B3
:101170008091110184608093110182E00E94232AF2
:10118000DFCC970140E0B601C8010E94E816D8CC38
:101190001092B8021092B702033FFCE51F0729F135
:1011A00070F4083D3CE51307D1F0093D4CE5140708
:1011B000F1F1073D5CE5150709F042C00AC0053FA3
:1011C0008CE5180719F1E0F0063FACE51A0749F184
:1011D00037C006E221EE41EE67ED7CE52DC007E267
:1011E00025EE45EE68ED7CE527C006E221EE40EEF7
:1011F00063EF7CE521C0053F8CE5180739F060F40A
:1012000007E225EE44EE64EF7CE516C006E221EE2F
:1012100042EE65EF7CE510C0063FACE51A0709F029
:10122000DFCE07E225EE46EE66EF7CE505C008E27C
:1012300021E045EE69ED7CE5C7010E94542D80CC8C
:10124000109280040330FDE51F0758F40A3F2CE597
:10125000120780F4C80182509C45449708F02EC1C3
:1012600009C001363DE5130729F0053A4DE514079D
:1012700009F024C10E94752990938D0480938C04F9
:1012800001315CE5150709F4C6C008F042C0093019
:101290009CE5190709F49BC000F50530BCE51B0768
:1012A00009F485C078F40330FCE51F0709F478C021
:1012B00008F07AC002301C4509F0F7C080918C0418
:1012C0008160F1C007304CE5140709F478C008F0DC
:1012D0007AC080918C048061E6C00D308CE51807DF
:1012E00009F487C058F40B30ACE51A0709F479C04B
:1012F00008F07BC080918C0488606FC00F30ECE5F3
:101300001E0709F480C008F082C080918C04877F9A
:10131000CAC00D3F2CE5120709F471C000F5053174
:101320004CE5140709F485C068F403318CE518070F
:1013300009F475C008F095C00E94EF2280918C04DA
:101340008F77B1C00B3FACE51A07A9F108F054C084
:101350000A3F1C4509F0A9C080918D0440C00130AE
:10136000FDE51F0709F489C058F40F3F3CE513075A
:1013700009F45AC008F069C080918D0482602FC0C2
:1013800001365DE5150709F47EC0053A8DE51807BD
:1013900009F483C002301D4509F087C060E06EC0CB
:1013A00080918C0482607FC080918C0416C08091F3
:1013B0008C04886078C080918D0482604FC08091D9
:1013C0008C04806270C080918C0480646CC00E9428
:1013D000EF2280918C04806866C0846064C0816064
:1013E0003DC080918C048E7F5EC080918C048D7F87
:1013F0005AC080918C0416C080918D0418C08091D1
:101400008D048D7F2BC080918C048F7E4CC0809189
:101410008C048F7D48C080918C048F7B44C0809168
:101420008C04877F8B7F3FC080918D048D7F8E7F62
:1014300015C080918C0482FB222720F991E092272D
:1014400090FB82F990FB83F92EC080918D04982F38
:10145000909591708E7F892B90FB81F980938D04FC
:1014600024C00E94EF2280918C0487FB222720F960
:1014700091E0922790FB87F916C061E08EE090E042
:101480000E94D83512C080918C0484FB222720F959
:1014900091E0922790FB84F906C080918C04982FEC
:1014A000909590FB80F980938C0480918C049091AE
:1014B0008D040E9468290E94EF2242CB21E094CD46
:1014C000482F447409F49DCD90E09BCD482F417185
:1014D00009F499CD90E097CD482F487809F495CD3F
:1014E00090E093CD827209F492CD222321F01092E4
:1014F0007C0169E299CD80917C01882311F065E33C
:1015000001C069E28DE793E00E94BF2C91CD0031CC
:101510009FE5190711F481E005C00131AFE51A0715
:1015200021F482E00E94B62209CB0F354DE5140765
:1015300021F481E08093000103CB00365DE51507BF
:1015400031F41092000180E00E941C2EF9CA0E3581
:101550008DE5180729F480910001882351F3F1CF1C
:10156000480120EE821A91080CCBF7018281882372
:1015700089F10A35ADE51A0741F150F40115ECE5A2
:101580001E07A9F00E3D1C4529F50E948629D8CAE0
:101590000B352DE51207D9F00C351D45D9F4809196
:1015A0008D0482FB882780F991E0892711C00E9471
:1015B000EF224FEF54E38CE0415050408040E1F780
:1015C00000C000000E94252CBBCA81E001C080E061
:1015D0000E94402AF701868197810097B9F4F701AC
:1015E000828100811181882349F0C8010E940D2267
:1015F000D82E682FC8010E94792204C0C8010E9419
:101600004922D82EB8018D2D0E9488190E94CE271C
:10161000182F092FD7011296BC9012971596CC90CF
:10162000C2943FE0C322809155038770B9F0BB207C
:10163000A9F0892F807F803421F080E2810F8830EB
:1016400068F080918D0482FD09C082E00E94232A07
:10165000809155038770AA24A3948111A12C902E08
:1016600092942FE09222892D90E08C30910508F021
:1016700035C2FC01EA5AFF4F0C943C36902F9F7004
:10168000802F807FD92E19F0D29490EFD922BB20E1
:10169000A9F0DD2009F402C280E2810F883010F049
:1016A000111104C08D2D0E94162A05C08091BB0225
:1016B000D82AD092BB020E94852AF0C1812F0E94B5
:1016C0002723DD2009F40AC280E2810F883080F1EF
:1016D000112371F1D0948091BB02D822D092BB0229
:1016E0002AC0902F9F70802F807FD92E803219F0D2
:1016F000D29480EFD822112321F0113009F45CC07C
:1017000067C080918D0482FF19C0BB2059F0DD2095
:1017100029F08D2D0E94162A0E94852A80E00E94C1
:101720002E34DCC180E00E942723DD2009F4D6C1DD
:101730008D2D0E940F2A0E94852AD0C1BB2001F165
:10174000CC20D1F0B1E0CB1206C0809178038D2976
:101750000E94FB29C3C180917604823068F0C812D0
:101760000BC00E94F02980915203D812D0925203EC
:101770008D2D0E942023B2C1809178038D29F9CF4D
:10178000CC2079F080917604E1E0CE1210C0823056
:1017900008F4A4C1809194028D2109F49FC10E9494
:1017A000F52A0E94F0298D2D0E94192397C18230BD
:1017B000C0F3C812F6CF92C180917C04BB2021F007
:1017C0008C1508F48BC1D4CFC81608F087C1EBCFB5
:1017D000BB20E9F0CC2061F220E0D7014C911196BA
:1017E0005C91119712966C91129713967C911397B6
:1017F00014968C910E9430318091770481FD4EC106
:10180000F701858180FF4AC18F708583B1CFC110F8
:101810004EC1C9CF802F86958695837019F081308F
:1018200061F05CC1BB2021F0812F902F937002C02A
:1018300080E090E00E94322D57C1BB2021F0812F23
:10184000902F937002C080E090E00E941C2D4CC14C
:10185000812FBB2019F00E94E81B02C00E94631B6D
:101860000E94391B41C1802F8370A1F5B1103AC18C
:10187000412F429546954770440F440F212F2F70FA
:1018800030E0C901042E01C0880F0A94EAF714FF62
:1018900008C02FE030E001C0220F4A95EAF72095FA
:1018A00001C020E0302F369536953370323069F024
:1018B00040F440917903313019F0822B842302C027
:1018C000842B822B0E94C1220DC1282B8091790389
:1018D0008227F8CFBB2019F0802F817001C0869538
:1018E000882309F4FFC0412F429546954770440F65
:1018F000440F212F2F7030E0C901042E01C0880F42
:101900000A94EAF714FF08C02FE030E001C0220F6C
:101910004A95EAF7209501C020E0302F369536959C
:101920003370323051F070F44091EC02313019F0E4
:10193000822B842308C0842B05C0282B8091EC02C5
:10194000822701C0822B0E94A622CCC0F02FFF70FC
:10195000DF2EBB2039F08F2F0E94B622812F0E94EC
:101960002023C0C0812F0E9419238D2D0E94AA22FE
:10197000B9C0123F11F128F4103F41F0113FA9F115
:1019800089C0133F01F1143F61F184C080917C0450
:10199000BB2021F0C81608F0A1C003C08C1508F4C4
:1019A0009DC0202F2F7181E090E001C0880F2A9503
:1019B000EAF79091EC0289270FC0802F8F71BB202E
:1019C00009F470C087C0BB2051F081E0902F9F7157
:1019D00001C0880F9A95EAF70E94A6227FC080E096
:1019E000FBCF80918D0482FF06C0802F8F71BB20BA
:1019F00009F470C057C0809176048230A0F18091C4
:101A00005203BB20E1F00E940F2A8091550387709A
:101A1000843039F40E941C2A802F8F710E94AA22E0
:101A20005CC080917604C81608F057C0202F2F7133
:101A3000D22E822F0E94B62263E08D2D0DC00E940F
:101A4000162A80917604C81650F00E941C2A0E9423
:101A5000F52A64E0802F8F710E94552A3EC081E0F4
:101A60000E94232A3AC0BB2059F0302F3F71D32E59
:101A7000832F0E94B62263E08D2D0E94552A2EC02E
:101A800081E00E94232A41E04C1540F582E00E944B
:101A9000232A24C0BB2049F0CC2011F0812F3FCE57
:101AA000802F8F710E94B62219C0CC2089F0193383
:101AB00029F480917A0490917B0404C08091780489
:101AC000909179040E94DD16812F0E94272306C081
:101AD000802F8F710E94AA2201C0A12C88EF890D4E
:101AE000843010F40E94482D812F902F0E94C5222F
:101AF000811105C010927E0110927D0125C0BB208E
:101B000019F0C110F7CF20C0C110F4CF20E0D701E9
:101B10004C9111965C91119712966C9112971396B5
:101B20007C91139714968C910E94303180917704A8
:101B300083FFE0CF80917D0190917E010297D1F6E5
:101B4000812F0E948723D6CFAA20A9F08091550328
:101B500080FD11C0F70112828595859585950E94BB
:101B6000B622C7010E94A2048091550385958595F0
:101B700085950E94AA2260E0C7010E9459312C96E7
:101B80000FB6F894DEBF0FBECDBFDF91CF911F918E
:101B90000F91FF90EF90DF90CF90BF90AF909F900C
:101BA0008F907F906F905F904F903F902F9008950F
:101BB000CF93DF93CDB7DEB7E4970FB6F894DEBFCF
:101BC0000FBECDBF84B7877F84BF0FB6F894A895AA
:101BD00080916000886180936000109260000FBE69
:101BE00090E080E80FB6F8948093610090936100D4
:101BF0000FBE85B7806885BF85B7806885BF81E9DE
:101C000096E290937901809378010E94351A0E94A0
:101C1000A4190E94B0170E943C200E945B20809172
:101C2000E20084608093E20078948091E20288234D
:101C3000A1F01091E9001F709091EC00892F817044
:101C400090FD80E8182B1092E9008091E80083FD58
:101C50000E94161D1F701093E90082E084BD93E07E
:101C600095BD9AEF97BD80936E000E94201B811155
:101C700002C00E94111B04E211E089E2E82E81E01B
:101C8000F82ED8018D918D018F3F11F00E94D6263C
:101C9000E016F106B1F709E211E0B7E3EB2EB1E08F
:101CA000FB2EF80181918F018F3F11F00E94D62603
:101CB000E016F106B1F78AE0EEE9F1E0DF01282F46
:101CC0001D922A95E9F7EFE7F1E0DF011D928A9571
:101CD000E9F780E090E00E94D235893E9E4F21F4E2
:101CE0000E94201B811102C00E94862982E090E0A0
:101CF0000E94CA35809343040E94752990938D04F5
:101D000080938C040E94ED26EFE3FCE93197F1F714
:101D100000C000000E94ED2680919E0180FF08C057
:101D20006FEF7FEF80E090E00E94F6350E94252C57
:101D300083E090E00E94CA350E94C12281E091E0D8
:101D4000909384048093830478E1672E712CE0E4FF
:101D50003E2EF0E14F2EA0E15A2E8E010F5F1F4F55
:101D60004E01FBE08F0E911C8091E202853009F05C
:101D700042C062E1F62E8091E202853009F037C060
:101D80008091E202843009F1109287040FB6F89432
:101D9000A895609260000FBE3092600083B7817F8B
:101DA000846083BF83B7816083BF7894889583B74D
:101DB0008E7F83BF0FB6F894A895809160008861EC
:101DC00080936000109260000FBE8091E102882332
:101DD00091F20E94ED26EEE9F1E081919191892B3B
:101DE00009F088C521E0E83AF207B9F7C4CF0E94AC
:101DF000EF220E94482D0E94ED2681110E947E2C28
:101E00005EE9A52E51E0B52EA9E8B1E0F501E12C7F
:101E1000F12C6E2D219131918D919D9182279327E7
:101E2000009779F170E0CC24C394D12CAC014C2103
:101E30005D21452B09F17BA76CA72C213D2181E079
:101E4000232B09F480E08DA70E948A2C8160782FD3
:101E50009FA78EA74BA55CA56DA58FA50E94673196
:101E6000F701EE0FFF1FE757FE4F80819181C826D3
:101E7000D926D182C0821CC07F5FCC0CDD1C7E3095
:101E8000A9F63FEFE31AF30A45E0E416F10409F678
:101E90008FEF88AB89AB1AAA0E948A2C8160782FB9
:101EA0009CAB8BAB48A959A96AA98CA90E94673140
:101EB0008091560490915704892B09F43EC04091BB
:101EC0004B0450914C0460914D0470914E042FB717
:101ED000F8948091880490918904A0918A04B0912B
:101EE0008B042FBF841B950BA60BB70B40914704A7
:101EF000509148046091490470914A0484179507F1
:101F0000A607B707D0F080915604909157040E941D
:101F10001534109257041092560410924B041092EC
:101F20004C0410924D0410924E04109247041092EB
:101F300048041092490410924A04809113018823A6
:101F400041F18091400490914104009711F10E9469
:101F50006F2C2091B9023091BA0228173907C8F4C2
:101F600090913E0480913F04981759F00E94CE2F23
:101F70001092BA021092B9021092410410924004D9
:101F800008C00E94481610924104109240040E941A
:101F90009A168091750480FF1EC08091110182FF06
:101FA0001AC00E948A2C2091B5023091B602AC0171
:101FB000421B530B20910F01309110014217530720
:101FC00050F023E931E041E0BC018091B7029091EB
:101FD000B8020E94E81686E0EFEAF1E0D80101902D
:101FE0000D928A95E1F7C090B101D090B201E090D6
:101FF000B301F090B4011092B1011092B2011092AD
:10200000B3011092B401C11003C0DD2009F45DC01A
:102010008091AD019091AE010E946F2CAC01909126
:10202000A901992339F020911A0130E024173507CE
:1020300058F04BC020911B018AE0289F9001112489
:102040002417350718F041C09F3F19F09F5F909308
:10205000A901CC2061F00E9462351C1414F491E0B7
:1020600001C09FEF899F802D11248093B101DD2055
:1020700061F00E9462351D1414F491E001C09FEFDD
:10208000899F802D11248093B2013091B1013323B7
:10209000E1F02091B2012223C1F045EB3403C001ED
:1020A0001124992319F09093B10103C081E080932A
:1020B000B10135EB2303C0011124992319F090934A
:1020C000B20103C081E08093B201E11003C0FF20A0
:1020D00009F45DC08091AB019091AC010E946F2C1E
:1020E000AC019091A801992339F020910D0130E0C5
:1020F0002417350758F04BC020910E018AE0289F25
:10210000900111242417350718F041C09F3F19F0A2
:102110009F5F9093A801EE2061F00E9429351E1464
:1021200014F491E001C09FEF899F802D11248093CA
:10213000B301FF2061F00E9429351F1414F491E0CF
:1021400001C09FEF899F802D11248093B4013091AD
:10215000B3013323E1F02091B4012223C1F045EB18
:102160003403C0011124992319F09093B30103C0E3
:1021700081E08093B30135EB2303C001112499233F
:1021800019F09093B40103C081E08093B401809171
:10219000B10181110BC08091B201811107C0809102
:1021A000B301811103C08091B40181110E94391BD8
:1021B000CB82DC82ED82FE8286E0F801AFEAB1E0FC
:1021C00001900D928A95E1F70E94482D90919B0114
:1021D000891380939B018091E202843009F0C4CD81
:1021E00083E08093E9008091E80082FFBDCD80917B
:1021F000E80085FF21C00E94932181111BC070E27D
:10220000E72EF12C680109C08091F100D6018D9371
:102210006D01B1E0EB1AF10869F08091E80085FDED
:10222000F3CF8091E8008B778093E8000E949321A0
:10223000882399F391E001C090E08091E8008B77CA
:102240008093E800992309F48FCDE0909202F090FA
:1022500093028981E114F10461F08E3F09F022C3F9
:102260008A81833008F443C18550833008F01AC353
:102270003EC1893009F414C3F0F4843009F46EC00F
:1022800050F48230C1F108F05CC0813009F008C31D
:102290001A8289E0D6C1863009F467C008F000C30D
:1022A0002D813E813227232732274C816B818A8101
:1022B0000E947E18F7C2803109F4B5C080F48D30D9
:1022C00009F456C028F48C3009F0EAC25A82EAC2F6
:1022D0008E3009F450C08F3009F477C0E1C28231EA
:1022E00009F4A7C008F4A2C0833109F4CCC08E3F22
:1022F00009F4FDC0D5C28A81823009F411C383304C
:1023000051F0813009F0CCC20E947E2C9B838C83DB
:102310007D836E83C7C28091140190911501892B32
:1023200009F4C0C2F801D5018C9111969C91B2E0DC
:10233000AB0EB11C928383833296E815F90599F7A9
:10234000B1C28A81823009F0ABC26B817C818D8100
:102350009E810E9442360E94EF1AA4C24C816B817A
:102360008A810E945A199D83E2C20E94B4189AC2BF
:102370001A8285ED66C1EA80FB80FE24EF24FE24EC
:10238000AC80B12CEDE1AE16B10408F08BC268014F
:10239000C701855D9C4F9601201B310B2A153B051B
:1023A00008F080C2F5EDEF16F10430F40E94CA3552
:1023B000D60114968C9302C0F6011482FFEFEF1A37
:1023C000FF0A2FEFC21AD20AE3CF80911401909135
:1023D0001501892B09F466C2EA80FB80FE24EF24F4
:1023E000FE24CC80D12C3DE1C316D10408F05AC2A2
:1023F0005801C701855D9C4F9501201B310B2C15A1
:102400003D0508F04FC245EDE416F10428F4D5016E
:1024100014966C910E94D835BFEFEB1AFB0AEFEFD0
:10242000AE1ABE0AE6CF0E941F183CC284E08A831F
:1024300039C2EA80FB80FE24EF24FE24AC80B12C5C
:10244000FDE1AF16B10408F02DC26801C7018796FF
:102450009601201B310B2A153B0508F023C220E30F
:10246000E21622E0F20630F40E94CA35D601149634
:102470008C9302C0F6011482FFEFEF1AFF0A2FEFD0
:10248000C21AD20AE3CFEA80FB80FE24EF24FE24A6
:10249000CC80D12C3DE1C316D10408F003C240E347
:1024A000E41642E0F40608F0FDC180E392E08E19E4
:1024B0009F098C159D0508F4F5C15801C701879641
:1024C0009501201B310B2C153D0508F0EBC1A0E355
:1024D000EA16A2E0FA0620F4F50164810E94D835DC
:1024E000FFEFEF1AFF0A2FEFA21AB20AE7CFEA8135
:1024F0008E2F90E08E30910508F0D4C1FC01EE598A
:10250000FF4F0C943C3688E0ECE1F1E0DE0191965F
:1025100001900D928A95E1F780E2D8011D928A958B
:10252000E9F785E0898388E0FE01B196DE01159622
:1025300083C188EB898381E08A831B821C82B2C1BC
:102540008C8190E0982F88272B81820F911D092E76
:10255000000CAA0BBB0B65E0880F991FAA1FBB1FBD
:102560006A95D1F7AC01BD01405E5F4F6F4F7F4F61
:10257000481759076A077B0708F494C1883BE1E0D4
:102580009E07A105B10508F08DC1493BF1E05F0749
:102590006105710520F048EB51E060E070E0481BF8
:1025A000590BBC016E587E4FC8010E94B1357AC1EB
:1025B000FB80EC8040E06E2D8F2D0E945418998393
:1025C0008A8341E06E2D8F2D0E9454189B838C834B
:1025D00069C12E813F8132272327322721154CE5FF
:1025E000340741F48091140190911501892B11F465
:1025F00020E030E04D816C818B810E942F1852C108
:1026000040E250E06FEF70E0C8010E945F368091B9
:1026100014018983EA8246C181E090E0909393029D
:102620008093920282E390E090939D0180939C01BD
:102630000E948A2C37C1809114018983EA8280919B
:102640009C018B832FC1EB80FC8040E250E06FEF58
:1026500070E0C8010E945F362AE535E080E090E036
:10266000AC014E5F5F4F4132510508F01BC1F901CB
:1026700065917491E616F70630F4F801E80FF91F3A
:1026800071836083CA01245F3F4FA6E026353A0775
:1026900039F708C12B813C818AE595E0FC01459121
:1026A00054914217530731F00C96B6E086359B07DC
:1026B000A9F7F6C0009709F4F3C0FC0136962591FE
:1026C00034912115310509F4EBC04FE150E0BE0112
:1026D0006E5F7F4FF9010995E4C02B813C8186E54F
:1026E00096E04AE5E42E45E0F42EF7014591549139
:1026F0002417350739F0FCE0EF0EF11C8E159F050D
:10270000A1F7CEC0E114F10409F4CAC0F70138966C
:10271000259134912115310509F4C2C04CE150E0F6
:10272000BE016B5F7F4FC701F9010995009709F062
:10273000B8C0F7013A9685919491009711F0FC0189
:10274000099580E0AEC00E94D717ACC08B81843061
:1027500039F128F4882351F0833081F0A3C085300B
:1027600009F44DC0863009F46CC09CC080E2D801E9
:102770001D928A95E9F788E08A8363CF6C81CE0148
:1027800081962AE0FC0111922A95E9F7683008F059
:102790004CC0FAE06F9FB001112465577D4F3FC0D8
:1027A0006C818AE0FE013596DE01919601900D92D2
:1027B0008A95E1F789A59AA581152CE5920741F440
:1027C0002091140130911501232B11F480E090E049
:1027D0009AA789A7683070F43AE0639FB00111248A
:1027E00065577D4F4AE050E0CE0181960E94FC354E
:1027F00080E001C08FEF89830E94351A53C06C813D
:10280000CE0181962AE0DC011D922A95E9F7683015
:1028100060F4BAE06B9FB001112465527D4F4AE02D
:1028200050E00E94BA3580E001C08FEF89838AE0D2
:10283000FE01B196DE01129601900D928A95E1F7A4
:1028400031C06C818AE0FE013596DE0191960190DF
:102850000D928A95E1F78BA19CA18115ECE59E076D
:1028600041F42091140130911501232B11F480E0E3
:1028700090E09CA38BA3683070F4FAE06F9FB001E6
:10288000112465527D4F4AE050E0CE0181960E94AE
:10289000FC3580E001C08FEF89830E94A41902C03B
:1028A0008FEF89838091E202843009F05DCA8091C4
:1028B000E9008F702091EC00922F917020FD90E83C
:1028C000F92EF82A82E08093E9008091E80080FFE9
:1028D0000CC040E050E060E270E0C8010E94C621F8
:1028E0008091E8008E778093E8008F2D8F70809321
:1028F000E9003ACA49BCF9BC09B400FEFDCF809199
:10290000D8008F7D8093D8008091E0008260809312
:10291000E0008091E00081FDFCCF0E94EF222BCAF5
:1029200086E290E00E94CA351B821C821D828E8343
:10293000B9CFAF92BF92CF92DF92EF92FF920F93F7
:102940001F93CF93DF934430510508F46CC040913E
:102950008C0441FBCC24C0F8D12CCC0CDD1C42FBF8
:10296000882780F9C82FE0E0DE2FCC0FDD1FCC0FC9
:10297000DD1FCC2ADD2A40FBEE24E0F8F12CEC2808
:10298000FD2843FBAA27A0F9B0E023E0AA0FBB1F54
:102990002A95E1F7EA2AFB2A44FBEE27E0F9F0E06A
:1029A00034E0EE0FFF1F3A95E1F7EE29FF2945FBD2
:1029B000222720F930E055E0220F331F5A95E1F726
:1029C0002E2B3F2B46FB882780F990E0E6E0880F0E
:1029D000991FEA95E1F7822B932B47FB442740F997
:1029E00050E05695542F442757954795842B952BA7
:1029F00020918D04322F3170132F00E0082B192BFA
:102A000026952170B22EBB0CA12C0A291B29012E60
:102A1000000C220B330BFB010083118322833383D1
:102A200080E090E002C08FEF9FEFDF91CF911F9188
:102A30000F91FF90EF90DF90CF90BF90AF900895EF
:102A4000EAE5F4E0848195812AE030E0B9010E9452
:102A5000143660931B01868180931A0182858093CE
:102A6000190184858093180186859785B9010E9494
:102A7000143660930E01808980930D0182898093C2
:102A80001701848980931601089580915A049091CA
:102A90005B049093100180930F010895CF92DF9211
:102AA000EF92FF924430510508F46FC0FB01C080E3
:102AB000D180E280F3800E94EF2280918C04C0FAE2
:102AC00080F9B701A601769567955795479540FB24
:102AD00081F9B701A60122E076956795579547954C
:102AE0002A95D1F740FB82F9B701A60133E076952C
:102AF0006795579547953A95D1F740FB83F9B7010C
:102B0000A601E4E07695679557954795EA95D1F744
:102B100040FB84F9B701A601F5E0769567955795D6
:102B20004795FA95D1F740FB85F9B701A601A6E0D4
:102B30007695679557954795AA95D1F740FB86F905
:102B4000B701A601B7E07695679557954795BA9571
:102B5000D1F740FB87F980938C0480918D04D0FAE3
:102B600080F999E0F694E794D794C7949A95D1F7B1
:102B7000C0FA81F980938D0480918C0490918D042A
:102B80000E94682980E090E002C08FEF9FEFFF90E5
:102B9000EF90DF90CF9008959C01CA01F901329621
:102BA000459154918417950750F0CB01F901349663
:102BB000659174910E94563680E090E008958FEF01
:102BC0009FEF08950F931F93CF93DF930AE514E0CF
:102BD000C7E6D2E0CE010E94CA35F80161918F01AB
:102BE000681719F0CE010E94D8352196CB38F2E053
:102BF000DF0781F7DF91CF911F910F910895DA01DF
:102C00009C012E5F3F4FF90145915491F9012591A7
:102C10003491A217B30758F0FC0134968591949132
:102C20000E9456360E94E21580E090E008958FEFF2
:102C30009FEF0895BC0140913E0480913F04942F82
:102C4000981729F1292F30E0F901EE0FFF1FEA5CF8
:102C5000FB4F0190F081E02DE617F70799F487E02C
:102C6000869FF001879FF00D1124E250FC4F81E018
:102C7000848394130CC02F5F3F4F2370332720931E
:102C80003E0408952F5F3F4F922F9370D9CF089540
:102C9000EF92FF920F931F93CF93DF9380919D0349
:102CA000882309F440C00091BC028CE0F82E80918A
:102CB0009D030817A0F5EE24E394E00EE092BC0219
:102CC00010E0F09EE001F19ED00D1124C256DC4FC1
:102CD0004B815C81698188810E94B12F81111DC067
:102CE0008E819F81892B21F488859985019651F4E5
:102CF000288139814A815B816C817D818E819F81B0
:102D00000E940A26F09EF001F19EF00D1124E25679
:102D1000FC4F148213821092BB020E2DC8CF10926A
:102D20009D031092BC02DF91CF911F910F91FF90F4
:102D3000EF9008951092BA021092B902EEEFF3E00C
:102D40008581811102C014821682379684E0E633B1
:102D5000F807B1F7089580911101877F80931101E1
:102D60009091BB029D7F9093BB0284FF06C08F7E33
:102D70008093110182E00E94162A8091110185FF43
:102D800006C08F7D8093110180E20E94162A0C9468
:102D9000852A662329F02091BB0222602093BB0282
:102DA0009C013056211540E2340720F0305E211599
:102DB000304108F499270C941534009741F0EFE95D
:102DC000FFE03197F1F700C000000197F6CF0895BA
:102DD000AF92BF92CF92DF92EF92FF920F931F9329
:102DE000CF93DF935C017B01C42E89018091110197
:102DF00082FF8DC0C091B702D091B802CA15DB0521
:102E000021F0A114B10409F082C0809111018B7FDF
:102E10008093110181FD11C08091B5029091B6029D
:102E2000A701481B590B81E020910F01309110013F
:102E30004217530718F480E001C081E08170D82E5A
:102E400080911101D0FA81F980931101FE01FF27D1
:102E500084E0F695E7958A95E1F79E012F70332778
:102E6000EE0FFF1FEB56FD4F81E090E002C0880F90
:102E7000991F2A95E2F7DD2029F020813181822BEC
:102E8000932B06C0809590952081318182239323D6
:102E9000918380838091940281FF08C08091110109
:102EA00080618093110182E00E940F2A8091940238
:102EB00085FF08C08091110180628093110180E23A
:102EC0000E940F2AA8016D2DCE010E94C916CC20A8
:102ED00031F08091750485FF02C086FF36C0809175
:102EE0007804909179040E94DD168091B702909148
:102EF000B8029C013056211540E2340720F0305EC4
:102F00002115304108F499270E94FB3318C0950120
:102F10003327C5019056811540E2940720F0905E5A
:102F20008115904110F4C90101C0C5010E94FB3315
:102F30008091B7029091B802A816B90611F40E94C8
:102F4000AB16F092B602E092B502DF91CF911F91DD
:102F50000F91FF90EF90DF90CF90BF90AF900895CA
:102F60000F931F93CF93DF930AE514E0C7E6D2E0F7
:102F7000CE010E94CA35F80181938F012196CB388A
:102F8000F2E0DF07A9F7C0E0D0E0FE01EC59FA4F0C
:102F900085919491009711F0FC0109952C96CC3FF6
:102FA000D10599F7DF91CF911F910F910895EAE52F
:102FB000F4E0128E138E8FEA90E09183808325E0F7
:102FC000248F88E893E1938382838AE090E095835D
:102FD000848344E150E05783468368E070E0718762
:102FE0006087938782874EE150E0558744879787B3
:102FF000868740E550E0518B408B738B628B68E293
:1030000070E0758B648B62E370E0778B668B68ECA5
:1030100070E0718F608F158E978F868F51A340A3BC
:1030200022A30E94E2150E94EF2210928D041092BA
:103030008C0480E090E00E9468290C94B017CF9334
:10304000DF93CBE2D3E060E0CE010E94D835219639
:10305000C11584E0D807B9F7DF91CF9108951F9388
:10306000CF93DF938430E0F461111AC04230C0F492
:10307000632F122FC42FD0E0CC0FDD1F94E0899F67
:10308000C00DD11D1124C95ADD4FCE010E94D83583
:10309000612FCE010196DF91CF911F910C94D8350D
:1030A000DF91CF911F9108950F931F93CF93DF93DB
:1030B0008430E8F461111BC04230C8F4C42FD0E062
:1030C000CC0FDD1F24E0829FC00DD11D1124C95AF1
:1030D000DD4FCE010E94CA3590E0182F0027CE01A7
:1030E00001960E94CA359801282BC90102C080E0D0
:1030F00090E0DF91CF911F910F9108950F931F934F
:10310000CF93DF93843058F5653048F54E3038F56D
:1031100021159CE5390731F4E0911401F091150176
:10312000EF2BE9F08901C42FD0E0CC0FDD1F9CE12B
:10313000699FC00DD11D11249CE8899FC00DD11D30
:103140001124612FCE0187960E94D835602FCE01C1
:103150008896DF91CF911F910F910C94D835DF9114
:10316000CF911F910F9108956F927F928F929F92AE
:10317000AF92BF92CF92DF92EF92FF920F931F9385
:10318000CF93DF93CDB7DEB764970FB6F894DEBF69
:103190000FBECDBFA0901401B090150181E090E06A
:1031A0009093150180931401C12CD12C712C612CAA
:1031B000E12CF12C00E010E047018C0C9D1CF80183
:1031C000EE0FFF1FE80DF91DE65DFC4F25913491D0
:1031D000402F662D872D0E947E180F5F1F4F0E30E7
:1031E000110569F78CE1E80EF11C639495E0691212
:1031F000E1CF21E030E040E060E0872D0E942F1811
:1032000021E030E041E060E0872D0E942F187394A8
:10321000ECE8CE0ED11CF4E07F12C9CF0E94D71784
:10322000CE0101967C018AE0F70111928A95E9F7B7
:103230000BE812E04AE050E0B801C7010E94FC35FB
:10324000065F1F4F0B3DF2E01F07A1F77E018BE0E9
:10325000E80EF11C8AE0F70111928A95E9F78FEFE9
:103260009FEF988B8F8787E08C8B4AE050E0B80106
:10327000C7010E94FC35065F1F4F0B32F3E01F07AA
:10328000A1F7B0921501A092140164960FB6F894BC
:10329000DEBF0FBECDBFDF91CF911F910F91FF9089
:1032A000EF90DF90CF90BF90AF909F908F907F90E6
:1032B0006F9008950F931F93CF93DF93843008F599
:1032C0006530F8F44E30E8F4C42FD0E0CC0FDD1FA9
:1032D0002CE1629FC00DD11D11243CE8839FC00DDD
:1032E000D11D1124CE0187960E94CA3590E0182F77
:1032F0000027CE0188960E94CA359801282BC90163
:1033000002C080E090E0DF91CF911F910F9108956E
:10331000462F2091920230919302232B91F47E3F0D
:1033200039F46E3F71F4809190029091910208956A
:10333000843038F4753028F46E3018F4672F0C940C
:103340005A1980E090E008958F929F92AF92BF92B9
:10335000CF92DF92EF92FF920F931F93CF93DF9361
:10336000CDB7DEB72A970FB6F894DEBF0FBECDBF3C
:1033700008E112E086E0C82E82E0D82E9BEDE92E0F
:1033800092E0F92E2FE0922E35E0A32E32E0B32EFC
:1033900088248394F601019311936F014AE050E071
:1033A000B701CE0101960E94BA35F801892D11921C
:1033B0008A95E9F789819A81F801918380838F81C9
:1033C00082838D81838388858483898585838B81AE
:1033D0009C819783868310868A8587FF03C0168623
:1033E000158603C0F801B686A58680FF02C0F801E5
:1033F000808681FF04C0F80190859260908782FFEB
:1034000004C0F80190859460908783FF04C0F801A0
:1034100090859860908784FF04C0F8019085906142
:10342000908785FF04C0F801808580628087015FF6
:103430001F4FFAE0EF0EF11C8BE2E81683E0F8066E
:1034400009F0A8CF2A960FB6F894DEBF0FBECDBF05
:10345000DF91CF911F910F91FF90EF90DF90CF9070
:10346000BF90AF909F908F900895CF92DF92EF9290
:10347000FF920F931F93CF93DF93CDB7DEB72A97B9
:103480000FB6F894DEBF0FBECDBF80E5E5EBF1E0EF
:10349000DF011D928A95E9F788E3EEEFF3E0DF01A3
:1034A0001D928A95E9F785EBC82E81E0D82E7F0121
:1034B0000BE812E0F701D182C0824AE050E0B80187
:1034C000CE0101960E94BA3588E0FE013196D60100
:1034D00001900D928A95E1F789859A85D701139617
:1034E0009C938E931297BAE0CB0ED11CE7E0EE0EC0
:1034F000F11C065F1F4F0B3DF2E01F07D9F62A961D
:103500000FB6F894DEBF0FBECDBFDF91CF911F91F4
:103510000F91FF90EF90DF90CF900895CF93DF93BE
:1035200000D000D01F92CDB7DEB790939102809368
:103530009002811520E2920748F40F900F900F90AF
:103540000F900F90DF91CF910C94FB338EEF898316
:103550008A831B820E948A2C8160782F9D838C83B2
:1035600049815A816B818D810E9467310F900F9044
:103570000F900F900F90DF91CF910895CF93DF932D
:1035800000D000D01F92CDB7DEB790939102809308
:103590009002811520E2920748F40F900F900F904F
:1035A0000F900F90DF91CF910C9415348EEF89839B
:1035B0008A8381E08B830E948A2C8160782F9D838F
:1035C0008C8349815A816B818D810E9467310F9074
:1035D0000F900F900F900F90DF91CF91089586E29A
:1035E00090E00C94D835CF93C82F811102C06FEFB3
:1035F00001C060E383E290E00E94D835C11102C0AF
:103600006FEF01C063E284E290E00E94D835C111FF
:1036100002C06FEF01C06FE885E290E0CF910C949B
:10362000D83580E00E94F31A60E070E0CB010E9480
:10363000EF1A0E94B4180E941F1881E00C94F31A2C
:1036400083E290E00E94CA35803381F484E290E006
:103650000E94CA35833251F485E290E00E94CA3557
:1036600091E08F3809F090E0892F01C080E08170EF
:1036700008950E948A2C2091B101211104C020914B
:10368000B201222321F09093AE018093AD012091ED
:10369000B301211104C02091B401222321F09093A1
:1036A000AC018093AB01E0918304F09184043097E6
:1036B00049F082E08093AF010480F581E02D8FEA2C
:1036C00091E009940895803F39F48091B20187FF19
:1036D0006AC01092B20167C0813F29F48091B201A3
:1036E0001816BCF360C09091B101823F29F497FF96
:1036F0005AC01092B10157C0833F19F41916CCF388
:1037000052C09091B301893F31F419160CF04BC0AF
:103710001092B30148C08A3F19F497FF44C0F8CF14
:103720008B3F39F48091B40187FF3DC01092B40102
:103730003AC08C3F29F48091B4011816BCF333C011
:10374000843F21F48091B0018E7F17C0853F21F422
:103750008091B0018D7F11C0863F21F48091B0012E
:103760008B7F0BC0873F21F48091B001877F05C01C
:10377000883F31F48091B0018F7E8093B00113C0F7
:103780008D3F21F48091AA018E7F0BC08E3F21F4E2
:103790008091AA018D7F05C08F3F29F48091AA01F5
:1037A0008B7F8093AA018091B101811106C0809125
:1037B000B201811102C01092A9018091B30181115F
:1037C00006C08091B401811102C01092A801089531
:1037D000803F21F40E946235819504C0813F29F425
:1037E0000E9462358093B2010895823F21F40E94C5
:1037F0006235819504C0833F29F40E94623580932D
:10380000B1010895893F19F40E94293505C08A3F06
:1038100031F40E94293581958093B30108958B3F3F
:1038200021F40E942935819504C08C3F29F40E941F
:1038300029358093B4010895843F21F48091B0012B
:10384000816017C0853F21F48091B001826011C072
:10385000863F21F48091B00184600BC0873F21F442
:103860008091B001886005C0883F31F48091B0013B
:1038700080618093B00108958D3F21F48091AA0169
:1038800081600BC08E3F21F48091AA01826005C047
:103890008F3F29F48091AA0184608093AA01089542
:1038A0008091E40287FF11C08091E80082FD05C08D
:1038B0008091E2028111F8CF11C08091E8008B77EE
:1038C0000BC08091E202882349F08091E80080FFDC
:1038D000F8CF8091E8008E778093E8000895982FC4
:1038E000973068F59093E900981739F07091EC00E3
:1038F0002091ED005091F00003C0242F762F50E06E
:1039000021FD02C09F5FECCF3091EB003E7F3093F2
:10391000EB003091ED003D7F3093ED003091EB00F6
:1039200031603093EB007093EC002093ED005093E6
:10393000F0002091EE0027FDE5CF80E008958F7024
:103940008093E90081E008952091EA023091EB0232
:103950002617370748F06115710539F42091E80002
:103960002E772093E80001C0B901FC0120E0611529
:10397000710579F18091E2028823F1F18530F1F14E
:103980008091E80083FD3CC08091E80082FD2EC05C
:103990008091E80080FFEBCF2091F3008091F2004E
:1039A00090E0922B6115710551F08830910538F443
:1039B00021912093F100615071090196F3CF21E02C
:1039C000089709F020E08091E8008E778093E80066
:1039D000CECF2111CFCF0AC08091E202882361F0BF
:1039E000853061F08091E80083FD0AC08091E80095
:1039F00082FFF2CF80E0089582E0089583E0089589
:103A000081E008950895BC0184E00C94FB2BBC0177
:103A100083E00C94FB2B8091EC02982F96709630EB
:103A200011F4886001C0877F0C94A6221F93CF9366
:103A3000DF93CDB7DEB7AA970FB6F894DEBF0FBEFF
:103A4000CDBFE4EEF2E08CEE92E02091F100219304
:103A50008E179F07D1F78091E502833009F463C088
:103A600030F4813071F0823009F49DC0B4C08A30E6
:103A700009F489C08B3009F46EC0893009F0ABC0FD
:103A800020C08091E402813A09F0A5C08091E8004D
:103A9000877F8093E8008091E8029091E902892B6A
:103AA00021F460E280EC92E003C060E080E090E00E
:103AB00070E00E94A41C8091E8008B778093E8005E
:103AC0008AC08091E402813209F085C08091E802C9
:103AD0009091E902009719F0029709F07CC080915B
:103AE000E800877F8093E8008091E80082FD05C0B0
:103AF0008091E2028111F8CF6EC02091F300809195
:103B0000F20090E0922B029731F48091F100813025
:103B100011F0863021F48091F1008093BF028091F2
:103B2000E8008B7754C08091E402813A09F053C0D9
:103B30008091E8029091E902892B09F04CC08091B4
:103B4000E800877F8093E8008091E80080FFFCCF49
:103B50008091120137C08091E4028132E1F58091B9
:103B6000E8029091E902892BB1F58091E800877F06
:103B70008093E8000E94501C8091E602809312011D
:103B80000E94EF2228C08091E402813221F58091C9
:103B9000E800877F8093E8000E94501C8091E70234
:103BA0008093BE0218C08091E402813AA1F4809112
:103BB000E800877F8093E8008091E80080FFFCCFD9
:103BC0008091BE028093F1008091E8008E7780930F
:103BD000E8000E94501C8091E80083FFEBC18091B7
:103BE000E4029091E502492F50E04A30510508F077
:103BF000E1C1FA01E059FF4F0C943C36803821F0C6
:103C0000823809F0D7C108C08091E0029091E102AA
:103C1000992389F082600FC08091E8028F7087300D
:103C200008F0C8C18093E9008091EB0085FB8827EC
:103C300080F91092E9009091E800977F9093E80056
:103C40008093F1001092F1007CC1282F2D7F09F0A4
:103C5000B1C1882319F0823061F0ACC18091E602D5
:103C6000813009F0A7C1933009F080E08093E10230
:103C70002EC08091E60281112AC08091E8028F70E7
:103C80002FEF280F263008F095C18093E90020918E
:103C9000EB0020FF1CC0933021F48091EB00806288
:103CA00014C09091EB0090619093EB0021E030E024
:103CB000A90102C0440F551F8A95E2F74093EA001C
:103CC0001092EA008091EB0088608093EB001092E4
:103CD000E9008091E800877F8093E8000E94501CF3
:103CE00069C1811167C11091E6021F778091E300DD
:103CF0008078812B8093E3008091E800877F809318
:103D0000E8000E94501C8091E80080FFFCCF809169
:103D1000E30080688093E300111102C082E001C0DB
:103D200083E08093E20246C18058823008F042C1AD
:103D30002091E6023091E7022C3D53E0350779F5FA
:103D400083E08A838AE289834FB7F894DE01139671
:103D500020E03EE051E2E32FF0E050935700E49181
:103D600020FF03C0E295EF703F5FEF708E2F90E071
:103D7000EA3010F0C79601C0C0968D939D932F5FD7
:103D8000243149F74FBF8091E800877F8093E80096
:103D90006AE270E0CE0101960E94A41CC0C080912E
:103DA000E8029091E902432F552743305105B1F0C5
:103DB00068F44130510509F40CC14230510509F055
:103DC000F9C08BE590E0E4E7F7E057C041325105D8
:103DD00089F14232510509F43CC0ECC0C901992770
:103DE00081309105B9F070F082309105D9F00397D8
:103DF00009F0E0C0E1EEF7E0E4918E2F90E0E1EE13
:103E0000F7E038C0EBE1F8E0E4918E2F90E0EBE1D1
:103E1000F8E030C0EFE0F8E0E4918E2F90E0EFE0C2
:103E2000F8E028C0EFEFF7E0E4918E2F90E0EFEF9D
:103E3000F7E020C08330910508F0BCC0880F991FBF
:103E4000FC01E05CFE4F0190F081E02D89E090E004
:103E500014C08330910508F0ADC0FC01EE0FFF1FC8
:103E6000E65CFE4F0190F081E02DDC01A95CBE4FC5
:103E70008C9190E0009709F49DC02091E800277F85
:103E80002093E8002091EA023091EB0228173907CD
:103E900008F4C90140E0009789F12091E202222351
:103EA00009F43DC02530D9F12091E80023FD37C049
:103EB0002091E80022FD2FC02091E80020FFEBCFE9
:103EC0004091F3002091F20030E0342B009759F03C
:103ED0002830310540F444914093F1003196019728
:103EE0002F5F3F4FF3CF41E02830310509F040E02C
:103EF0002091E8002E772093E800CDCF4111CDCF5F
:103F00000AC08091E202882351F0853041F080910F
:103F1000E80083FD04C08091E80082FFF2CF809129
:103F2000E8008B778093E80045C0803809F042C0F4
:103F30008091E800877F8093E8008091E30280937E
:103F4000F1008091E8008E77C7CE811133C0809157
:103F5000E6029091E7029927029764F58091E800C4
:103F6000877F8093E8001091E6021093E3020E949D
:103F7000501C111106C08091E30087FD02C081E052
:103F800001C084E08093E20242E061EC81E00E94A3
:103F90006F1C42E261EC84E00E946F1C42E261EC23
:103FA00082E00E946F1C42E260EC83E00E946F1C82
:103FB0008091E2028091E80083FF10C08091E800C8
:103FC000877F8093E8008091EB0080628093EB0014
:103FD00005C082E190E0EFECF7E04FCFAA960FB674
:103FE000F894DEBF0FBECDBFDF91CF911F91089532
:103FF0001F920F920FB60F9211242F933F934F935E
:104000005F936F937F938F939F93AF93BF93CF9360
:10401000DF93EF93FF93C091E900CF708091EC00A4
:10402000D82FD17080FDD0E81092E9008091F00087
:10403000877F8093F00078940E94161D1092E9000B
:104040008091F00088608093F000CD2BCF70C093FA
:10405000E900FF91EF91DF91CF91BF91AF919F91D7
:104060008F917F916F915F914F913F912F910F9021
:104070000FBE0F901F901895E8EDF0E080818E7FC5
:1040800080831092E2001092DA001092E100A0EE1C
:10409000B0E08C9181608C9380818F77808319BC94
:1040A000A7EDB0E08C918E7F8C9380818F7E808392
:1040B0001092BD020895CF92DF92EF92FF920F937C
:1040C0001F93CF93DF93C8EDD0E088818F7E8883E4
:1040D000E7EDF0E080818160808384E082BF81E051
:1040E0008093BD0288818E7F888302EE10E0F80104
:1040F00010821092DA0081EEC82ED12CF6011082C7
:1041000088818F77888388818068888388818F7D84
:10411000888319BC1092E2021092E3021092E1022D
:104120001092E00290EEE92EF12CF70180818B7F56
:10413000808388818160888342E060E080E00E9423
:104140006F1CF60180818E7F8083F8018081816001
:104150008083808188608083F70180818E7F808367
:10416000888180618883DF91CF911F910F91FF90AB
:10417000EF90DF90CF9008951F920F920FB60F929D
:1041800011242F933F934F935F936F937F938F935C
:104190009F93AF93BF93EF93FF938091E10082FFD2
:1041A00009C08091E20082FF05C08091E1008B7F11
:1041B0008093E1008091DA0080FF2AC08091D800CE
:1041C00080FF26C08091DA008E7F8093DA00809194
:1041D000D90080FF18C080E189BD82E189BD09B4A2
:1041E00000FEFDCF81E08093E2028091BD0281114B
:1041F0000FC00E943C200E945B208091E2008460FE
:104200008093E20005C019BC1092E2021092BD0238
:104210008091E10080FF17C08091E20080FF13C011
:104220008091E2008E7F8093E2008091E2008061C5
:104230008093E2008091D80080628093D80019BCFE
:1042400085E08093E2028091E10084FF30C080919C
:10425000E20084FF2CC080E189BD82E189BD09B400
:1042600000FEFDCF8091D8008F7D8093D800809193
:10427000E1008F7E8093E1008091E2008F7E809349
:10428000E2008091E20081608093E2008091E3028D
:10429000882311F084E007C08091E30087FD02C00D
:1042A00081E001C083E08093E2028091E20280918C
:1042B000E10083FF27C08091E20083FF23C080914B
:1042C000E100877F8093E10082E08093E202109218
:1042D000E3028091E1008E7F8093E1008091E20013
:1042E0008E7F8093E2008091E20080618093E20003
:1042F00042E060E080E00E946F1C8091F0008860E6
:104300008093F000FF91EF91BF91AF919F918F91BA
:104310007F916F915F914F913F912F910F900FBEC1
:104320000F901F9018952091E4003091E50095E6DC
:104330004091EC00842F817040FF23C08091E80001
:1043400080FD1DC08091E202882399F0853099F0AC
:104350008091EB0085FD11C04091E4005091E50093
:104360002417350729F3915011F09A01E1CF84E029
:10437000089582E0089583E0089581E0089580E043
:1043800008954091E80042FFDDCF0895EF92FF923B
:104390000F931F93CF93DF937C018B010E94932196
:1043A000811119C0E70101151105A1F08091E80004
:1043B00085FD0AC08091E8008E778093E8000E9416
:1043C0009321882381F307C089918093F1000150E4
:1043D0001109E9CF80E0DF91CF911F910F91FF90FC
:1043E000EF90089580E090E00E94322D80E090E010
:1043F0000E941C2D1092BB020E94852AEFEAF1E078
:1044000086E0DF011D928A95E9F71092A9011092CA
:10441000A8011092AA010C94391BCF92DF92FF924F
:104420000F931F93CF93DF936C010091EC02809167
:104430007903082BC7E0D0E010E0C8010C2E02C0C1
:10444000959587950A94E2F780FD04C02197A8F717
:10445000F12C09C0FC2EB6018C2F0E9488190E94F5
:10446000CE27019799F38F2DDF91CF911F910F9157
:10447000FF90DF90CF900895CF93DF93EC010E94DF
:104480000D22BE010E9488190E94CE27DF91CF9194
:1044900008959E3F61F12EE0929F800D1124682FB8
:1044A000669566956695982F977083E0689FB00132
:1044B000112440E050E080E0FB01E40FF51FE351E0
:1044C000FD4F208130E0092E02C0369527950A94D1
:1044D000E2F721703327042E01C0220F0A94EAF775
:1044E000822B4F5F5F4F4330510531F7089580E0D5
:1044F00008959E3F51F12EE0929F800D1124E82FE8
:10450000E695E695E695877051E001C0550F8A95CE
:10451000EAF783E0E89FF0011124E351FD4F20E02A
:1045200030E070E04081CB01022E02C09695879565
:104530000A94E2F7817081958427852384278193EB
:104540002F5F3F4F2330310569F708958093EC02C8
:104550000C94F22121E030E001C0220F8A95EAF7A5
:1045600020958091EC0282230C94A62221E030E079
:1045700001C0220F8A95EAF78091EC02822B0C94FD
:10458000A622809379030C94F22192959F70963025
:1045900079F010F4925001C09A50923068F4803F44
:1045A00069F018F4883E40F409C0843F29F406C03D
:1045B000883E20F0813F11F080E0089581E0089569
:1045C000FC0186819781009719F00E94CE2704C0D4
:1045D000808191810E943C220E94C5220895109200
:1045E000940280911201882331F080918C0487FF1E
:1045F00002C08EE101C086E0EFE7F3E0DF011D922B
:104600008A95E9F70C94F221882341F080959091E6
:10461000BB0289238093BB020C94852A08958823CA
:1046200039F09091BB02892B8093BB020C94852AB0
:104630000895882321F00E940F2A0C94852A08955A
:10464000882321F00E94162A0C94852A0895882335
:1046500009F45CC0823869F40E94482D81FF56C07D
:1046600069E38DE793E00E94E72C0E94852A69E3C5
:104670000EC0833891F40E94482D80FF47C063E547
:104680008DE793E00E94E72C0E94852A63E58DE781
:1046900093E00E94BF2C0C94852A843869F40E9410
:1046A000482D82FF33C067E48DE793E00E94E72C3A
:1046B0000E94852A67E4EBCF9CEF980F913A10F4A3
:1046C000682FE5CF90E2980F983050F4877091E012
:1046D00001C0990F8A95EAF7892F0E940F2ADBCF34
:1046E0009BE5980F933020F480E090E00C94322DFD
:1046F00098E5980F973120F480E090E00C941C2D01
:10470000803F20F00E94631B0C94391B08951F9377
:10471000CF93DF93182F893329F4C0917A04D09175
:104720007B0404C0C0917804D0917904812F0E9449
:104730002E34209741F08FE99FE00197F1F700C0F8
:1047400000002197F6CF812FDF91CF911F910C941C
:1047500027232F923F924F925F926F927F928F9278
:104760009F92AF92BF92CF92DF92EF92FF920F9300
:104770001F93CF93DF93CDB7DEB765970FB6F8944D
:10478000DEBF0FBECDBF8C0185E0F801DE01519682
:1047900001900D928A95E1F7D8014C9011965C90AA
:1047A00011971296EC9012971396CD90DC90149777
:1047B00060E088E093E00E94593188E0A82E83E011
:1047C000B82E80900B0390900C03A4016091090314
:1047D000809108030E94B12FF82E8111E5C130901D
:1047E0000A03F601E819F9094F0160E0332009F4E2
:1047F00069C1C5010E9459316090720470907304C0
:1048000020900D038614970408F014C140910B0307
:1048100050910C03B0900803A0900903822D807F73
:104820006A2D09F097C08B2D0E94B12F811124C0F1
:10483000D80111968C9111978A111EC08C918B1101
:104840001BC020910E0330910F0316968D919C9101
:1048500017972817390781F4E1100EC0822D8F7049
:10486000806180930D0388E093E00E94A204809110
:104870000D03F8018583B4C1F4EF6F16F1E07F06F4
:1048800020F48091770480FF21C0A601652D842D3E
:104890000E94B12F811103C081E08E2502C080E00B
:1048A00090E080FF13C04E2D652D842D0E94FB2AC1
:1048B000882361F088E093E00E94A204E8E0F3E03E
:1048C00088E0DF011D928A95E9F78AC1A601652D6E
:1048D000842D0E94B12F811103C081E08E2502C07A
:1048E00080E090E0B82FB170CB2E80FF2AC04E2D13
:1048F000652D842D0E94FB2AD82E811122C0498A61
:104900005A8A89899A890E943C22292F22952F70E0
:10491000223018F0243078F405C09F7049F08111DE
:1049200007C00DC09F7021F0F8019581907F39F08C
:10493000805E883020F0C8010E94A204DC2CFD2C8F
:104940004FC1EE2009F44BC180910D03816080932B
:104950000D0346C18B2D0E94B12F811124C0D801B7
:1049600011968C9111978A111EC08C918B111BC0CE
:1049700020910E0330910F0316968D919C911797FD
:104980002817390781F4E1100EC015962C92C80142
:104990000E94A20488E0F801A8E0B3E001900D9223
:1049A0008A95E1F76FC0C8010E94E0228823E1F1F7
:1049B000EE20D1F120910D03822F82958F7090E02F
:1049C0000297A4F080910803909109039A87898740
:1049D0001B86DD86CC862E8780910E0390910F0377
:1049E000988B8F87CE0109960E94A20488E0F80177
:1049F000A8E0B3E001900D928A95E1F70E94252B83
:104A000016C0F09008039090090340910B03509159
:104A10000C03692D8F2D0E94B12F882399F0C801B6
:104A20000E94E022811130C0C8010E94A204FF242C
:104A3000F394D6C0822D807F21F788E093E00E9416
:104A4000A204ACC0D80111968C9111978911E7CFBF
:104A50008C918F11E4CF20910E0330910F031696A5
:104A60008D919C91179728173907C9F6E110D7CF78
:104A700015962C92C8010E94A20488E0F5011192BB
:104A80008A95E9F7F32CACC0EE2071F220910D036A
:104A9000822F82958F7090E002970CF4A7CF8091BF
:104AA0000803909109039A8389831B82DD82CC825B
:104AB0002E8380910E0390910F0398878F83CE01F0
:104AC000019692CF88E093E00E9459318091720460
:104AD000909173048816990608F060C0FE2CEE20B1
:104AE00009F4A2CFE0900803D090090340910B0392
:104AF00050910C036D2D8E2D0E94B12F811140C05D
:104B0000D80111968C9111978D113AC08C918E110C
:104B100037C020910E0330910F0316968D919C9112
:104B200017972817390761F58091770482FD1FC018
:104B300080910D0380FD1BC082958F70482F50E03F
:104B400041155105A1F020910D0315962C93159751
:104B50004F30510549F08F5F982F9295907F822FAB
:104B60008F70892B15968C93C8010E94A20488E04F
:104B7000F801A8E0B3E001900D928A95E1F730C00A
:104B8000C8010E94E022811131CF80910D03816024
:104B900080930D03C8010E94A20422C088E0F501A1
:104BA00011928A95E9F71CC0EE2009F43DCFC801A7
:104BB0000E94E022F82E882309F436CF88E0F8011D
:104BC000A8E0B3E001900D928A95E1F78091080387
:104BD000909109030E943C220E94252B01C0F12CD8
:104BE0008F2D65960FB6F894DEBF0FBECDBFDF9157
:104BF000CF911F910F91FF90EF90DF90CF90BF90DA
:104C0000AF909F908F907F906F905F904F903F906C
:104C10002F900895EF92FF920F931F93CF93DF93FE
:104C2000CDB7DEB760970FB6F894DEBF0FBECDBF2D
:104C300029873A874B875C876D877E878F87988B1C
:104C4000CE0109960E94A92381114AC088E0FE0185
:104C50003996DE01119601900D928A95E1F7E9846B
:104C6000FA840C851D85A8016F2D8E2D0E94B12F11
:104C7000811136C0A0911003B0E0CD01019687707C
:104C800099272091510330E08217930781F1E9823F
:104C9000FA821D830C8393E0AA0FBB1F9A95E1F75C
:104CA000AF5EBC4F98E0FE01319601900D929A954F
:104CB000E1F7809310030E941B2B12C028E0829F13
:104CC000C00111248F5E9C4F0E94A9238823E1F02C
:104CD0008091510390E0019687709927809351034A
:104CE00080915103909110038913E8CF0DC00E9469
:104CF000EF221092100310925103E8E0F3E088E0F5
:104D0000DF011D928A95E9F760960FB6F894DEBF31
:104D10000FBECDBFDF91CF911F910F91FF90EF900C
:104D2000089580E0089590918C0492FF0DC0282F83
:104D30002871283019F4877F846006C0282F2471D9
:104D4000243011F48B7F886093FF0DC0282F2871C9
:104D5000283119F4877E846106C0282F24712431FC
:104D600011F48B7E886120918D0420FF0DC0382FB7
:104D70003871383019F4877F816006C0382F31715F
:104D8000313011F48E7F886021FF0DC0282F2871EB
:104D9000283119F4877E816106C0282F21712131C5
:104DA00011F48E7E886194FD877E0895F894E82F33
:104DB000E295EF70F0E031A1282F2F7081E090E0B4
:104DC00001C0880F2A95EAF7982F9095932391A315
:104DD00092A1892B82A3789408958F929F92AF928B
:104DE000BF92CF92DF92EF92FF920F931F93CF93D8
:104DF000DF93CDB7DEB72A970FB6F894DEBF0FBEAC
:104E0000CDBFAE014F5F5F4F7A018AE0FA01119288
:104E10008A95E9F704E211E06A01AA24A394B12C6F
:104E2000F80180818F3F09F447C0F894E82FE2959C
:104E3000EF70F0E021A18F70A50102C0440F551F53
:104E40008A95E2F7CA01922F982B91A392A180959F
:104E5000892382A3789400C0E9E2F1E021E030E008
:104E6000812C912C41914F3F89F0A42FA295AF70D6
:104E7000B0E090968C9190E04F7002C09595879528
:104E80004A95E2F780FD02C0C90102C080E090E0CF
:104E9000882A992A220F331F51E0E733F50711F7CB
:104EA000F80180818F3F11F00E94D626F0EAFA9532
:104EB000F1F7F601918280820F5F1F4FF2E0CF0E73
:104EC000D11C41E00932140709F0AACF4AE050E0B2
:104ED000B7018FE791E00E94493611E0009709F48D
:104EE00010E0892B89F08AE0F701AFE7B1E001908B
:104EF0000D928A95E1F781E080937C030E948A2CD1
:104F000090937B0380937A0380917C03882391F1B3
:104F100080917A0390917B030E946F2C059750F14A
:104F200080917F019091800190939F0180939E01D9
:104F300080918101909182019093A1018093A001C1
:104F400080918301909184019093A3018093A201A9
:104F500080918501909186019093A5018093A40191
:104F600080918701909188019093A7018093A60179
:104F700010927C03812F2A960FB6F894DEBF0FBEE5
:104F8000CDBFDF91CF911F910F91FF90EF90DF90F8
:104F9000CF90BF90AF909F908F900895CF93DF9365
:104FA0008238910569F1B0F48133910509F46FC03D
:104FB00048F48932910509F465C08A32910509F4F3
:104FC0006BC08AC08533910509F457C089339105B8
:104FD000B9F082C0833E910571F138F4803E9105AD
:104FE000B1F0823E910511F177C0863E9105B9F18D
:104FF000873E9105C9F1843E910509F06DC024C03A
:1050000020918C0420FD53C021FD51C065C08091CA
:105010008C0480FD46C080918D0480FF48C0809143
:105020008C0484FD50C183EE90E04FC180918C04CC
:1050300082FF3AC0F4CF80918C0482FD35C080910C
:105040008D0480FD34C0EBCF80918D0481FF35C08D
:1050500080918C0484FD37C187EE90E036C1809149
:105060008C0483FF27C0F4CF80918C0483FD22C081
:1050700080918D0481FD21C0EBCF80918C0485FD52
:105080001FC021C080918C0485FD1DC019C0809176
:105090008C0486FD1BC01DC080918C0486FD19C048
:1050A00015C089E390E011C182EE90E00EC180EE60
:1050B00090E00BC186EE90E008C184EE90E005C15F
:1050C00089E290E002C185E390E0FFC08AE290E0CF
:1050D000FCC081E390E0F9C0811531E5930708F049
:1050E00069C0811540E59407F0F09C0174E03695A5
:1050F00027957A95E1F7922F9370482F437021E01E
:1051000030E002C0220F331F4A95E2F73C68392B8A
:10511000982F9F709695969540E2949FC001112418
:10512000822B932BD2C0883E910568F5803E910575
:1051300008F0CBC0883A9105B8F4853A910548F05B
:10514000855AE82FF0E0EA5BFE4F808190E09064A2
:10515000BCC08130910509F4B3C008F4B4C08430F8
:10516000910508F4B0C0B1C08F3B910508F0ABC009
:10517000885AE82FF0E0EE0FFF1FE75BFE4F8081BB
:1051800091819464A2C0811520E2920758F48115A0
:1051900031E0930708F099C0803F910508F493C06F
:1051A000906593C0811540E4940708F48CC09F700B
:1051B000906A8BC0811525E5920708F042C08115E1
:1051C00034E5930728F0982F8827846F906A7DC074
:1051D000811543E59407B0F09C012370332741E02B
:1051E00050E002C0440F551F2A95E2F7282F26955C
:1051F000269580E2289F90011124CA01822B932BCF
:105200009A6863C0811522E5920728F4982F8827B1
:10521000816F906A5AC09C012370332741E050E0AF
:1052200002C0440F551F2A95E2F7282F2695269590
:1052300080E2289F90011124CA01822B932B9C6845
:1052400044C0EC01811539E59307A8F48115984510
:1052500028F09C2F8827806F906A37C0C11586E59B
:10526000D80788F58C2F0E9493268F7190E0982F95
:10527000882790622AC081152AE5920790F48C2F26
:105280008F700E94932694E0D695C7959A95E1F782
:10529000CF70D0E0DC2FCC27D0699E01282BC9012C
:1052A00014C090568115904270F48D2F8F710E941A
:1052B0009326282F2F71CE0199279062922B05C03B
:1052C00081E090E002C080E090E0DF91CF9108950E
:1052D000CF93C92F682F84E090E00E94D8356C2FBF
:1052E00082E290E0CF910C94D835CF9384E090E0A7
:1052F0000E94CA35C82F82E290E00E94CA352C2F46
:1053000030E0A901582BCA01CF91089569EE7EEFD4
:1053100080E090E00E94F63560E082E090E00E943C
:10532000D83560E083E090E00E94D8351092790390
:1053300060E084E090E00E94D83560E082E290E096
:105340000E94D83560E085E090E00E94D83560E0AA
:1053500086E090E00E94D8356FEF87E090E00E94F1
:10536000D83540E050E0BA0188E090E00E94EA358C
:1053700060E08DE090E00E94D83540E050E0BA0156
:1053800088E190E00E94EA3560E087E190E00E94C9
:10539000D83540E050E0BA018CE190E00E94EA3557
:1053A00060E070E080E290E00E94F63540E050E07E
:1053B000BA0188E190E00E94EA3580E00E94F31A89
:1053C0000E94111B40E050E0BA018FE090E00E9483
:1053D000EA3540E050E0BA0183E190E00C94EA3510
:1053E00080917803882331F010927803109277032C
:1053F000109276030895CF9390918D0492FD0DC085
:1054000090917803981749F0C82F0E948A2C9093A6
:10541000770380937603C0937803CF9108958095A6
:10542000909194028923809394020895909194021C
:10543000892B80939402089510925503109254037F
:1054400010925303089520915503809582238093F1
:105450005503982F977099F430E0482F082E000CD0
:10546000550B2417350759F090918D0492FD07C014
:105470008595859585950E94AA220C941C2A0895ED
:1054800090918D0492FB222720F9281769F080FB68
:1054900092F990938D0480918C0490918D040E94D8
:1054A000682982E00C94232A089590918D0492FD3E
:1054B00010C098E0899F90011124262B209355035A
:1054C0000E94B6220E948A2C909354038093530327
:1054D00008950C94B62280915C0490915D04892B10
:1054E00089F00E948A2C2091760330917703AC01D9
:1054F000421B530B81E020915C0430915D04421704
:10550000530708F480E081700895CF93909194023E
:105510008091BB02892B80937D038091780388233F
:1055200051F180915C0490915D04892B29F00E94D7
:105530006B2A81110E94F02990917D03809178035C
:10554000892B80937D0380911201882331F0809113
:105550008C0487FF02C08EE101C086E0EFE7F3E034
:1055600090E0815028F021912223D9F39F5FF9CF59
:1055700091110E94F029C0915304C09580917D0340
:10558000C82380915404C82BC0937D0340E250E0AF
:1055900066E573E08DE793E00E944936892B19F1A7
:1055A00080E2EDE7F3E0A6E5B3E001900D928A9585
:1055B000E1F7E0918304F09184043097A1F08091A9
:1055C0001201882349F080918C0487FF05C0C093A5
:1055D0007E0386E080937D030280F381E02D8DE7DA
:1055E00093E0CF910994CF91089580915203811156
:1055F000109252030895209151039091100329179E
:10560000B1F030E0F90153E0EE0FFF1F5A95E1F7DA
:10561000EF5EFC4F5181561306C05081581303C0F2
:105620005281541306C02F5F3F4F2770E8CF80E0B0
:10563000089581E008958091510390911003891796
:1056400019F08F5F8770FBCF0895CF92DF92EF92B2
:10565000FF920F931F93CF93DF9380910D03829559
:105660008F7009F05CC080910A03882309F457C049
:10567000C091510380911003C81709F450C0F090F5
:105680000803E0900903C0900B03D0900C03A6011F
:105690006E2D8F2D0E94B12FD0E081113DC08E0163
:1056A00083E0000F111F8A95E1F7F801EF5EFC4FD0
:1056B00081818E1131C080818F112EC08281811134
:1056C0002BC0E380F480EC18FD0860E088E093E0F4
:1056D0000E9459318091720490917304E816F90682
:1056E000D8F480910D038F70806180930D03F801D1
:1056F000EA5EFC4F80818F708061808388E093E058
:105700000E94A204DF91CF911F910F91FF90EF9023
:10571000DF90CF900C941B2B2196C770ABCFDF91FD
:10572000CF911F910F91FF90EF90DF90CF90089550
:105730008091BF02089524E02093E9002FEF30917B
:10574000E800215035FD06C035ED3A95F1F700002F
:105750002111F5CF2091E80025FF0BC040E050E07B
:1057600066E070E00E94C6218091E8008E77809309
:10577000E8000895CF93DF9320911201222339F09E
:1057800020918C0427FF03C060E224E002C068E09F
:1057900021E02093E9002FEF3091E800215035FD02
:1057A00006C035ED3A95F1F700002111F5CF2091B3
:1057B000E80025FF1DC0EC0180911201811105C098
:1057C00040E050E068E070E003C070E040E050E08E
:1057D000CE010E94C6218091E8008E778093E80078
:1057E00080E2FE01A0ECB2E001900D928A95E1F713
:1057F000DF91CF91089580938E047093900460930D
:105800008F048091E2028430F9F48093E9008FEFF5
:105810009091E800815095FD06C095ED9A95F1F7BD
:1058200000008111F5CF8091E80085FF0DC040E0B8
:1058300050E063E070E08EE894E00E94C621809121
:10584000E8008E778093E800089581E08093E0007F
:1058500080E28093D8001092C9008FE19EE4019706
:10586000F1F700C0000087E090EBDC018093910429
:1058700090939204A0939304B09394049CE088E1E5
:105880000FB6F894A895809360000FBE90936000C7
:10589000FFCF78941F920F920FB60F9211248F931F
:1058A0009F93AF93BF938091880490918904A091B6
:1058B0008A04B0918B040196A11DB11D80938804C8
:1058C00090938904A0938A04B0938B04BF91AF9105
:1058D0009F918F910F900FBE0F901F9018959C0174
:1058E0004FB7F8948091880490918904A0918A041C
:1058F000B0918B044FBF821B930B08952FB7F89480
:10590000609188047091890480918A0490918B043D
:105910002FBF08952FB7F89480918804909189043F
:10592000A0918A04B0918B042FBF08951F920F920B
:105930000FB60F9211248F939F93AF93BF938091D3
:105940008704811113C08091880490918904A091EB
:105950008A04B0918B044196A11DB11D80938804E7
:1059600090938904A0938A04B0938B04BF91AF9164
:105970009F918F910F900FBE0F901F9018952091BF
:1059800012012223C9F020918C0427FF15C0262F75
:105990002695269526952E31C8F4FC01E20FF11DBF
:1059A000677081E090E001C0880F6A95EAF7809502
:1059B0009281892382830895FC01069622816213D5
:1059C00001C012823196E817F907C1F708952091B6
:1059D00012012223C1F020918C0427FF14C0262F2E
:1059E0002695269526952E3130F5FC01E20FF11D06
:1059F000677081E090E001C0880F6A95EAF79281B4
:105A0000892B82830895FC0132962FEF30E041917B
:105A1000641789F02F3F19F4411101C0232F3F5F14
:105A20003630A9F72F3F39F0FC01E20FF11D27FDB9
:105A3000FA95628308950895209185043091860433
:105A40002817390771F09093860480938504E091BC
:105A50008304F0918404309721F00084F185E02DD7
:105A60000994089520918104309182042817390700
:105A700071F09093820480938104E0918304F0910B
:105A80008404309721F00680F781E02D0994089571
:105A9000E0918304F0918404309721F00190F0812B
:105AA000E02D099480E008950F931F93CF93DF9327
:105AB000C42FD22FFC0182818823C9F04093800437
:105AC0000E948A2C90937F0480937E0480E28C0F46
:105AD000883008F05BC0C77081E001C0880FCA95AC
